:020000040000FA
:0400000007EF00F016
:100008005B82C8ED0FF091EF0FF00FEC0DF00101DE
:10001800BF51BE110BE1210EBC5D4E0EBD59D8A0DB
:1000280018EF00F01AEF00F078EF01F0E00EBC25B1
:100038000001A86FB10E0101BD210001A96FFF0EDB
:100048000101BE210001AA6FFF0E0101BF210001BD
:10005800AB6FA8510101AC5D0001A9510101AD5977
:100068000001AA510101AE590001AB510101AF597C
:10007800D8B041EF00F043EF00F078EF01F0BCC1D9
:10008800ACF1BDC1ADF1BEC1AEF1BFC1AFF1800EE3
:100098004B6E010E4C6E200E4D6E5F0E4E6EB4EC24
:1000A80007F01FC04FF020C050F021C051F022C00F
:1000B80052F00BEC03F0800E4A6E010E4B6EFF0EF1
:1000C8004D6EE00E4C6E99EC0DF0000E0101A46F20
:1000D800000EA56F000EA66F000EA76FD5EF00F0FB
:1000E800000E00016C6FC20E6D6F010E6E6F000E78
:1000F8006F6FFAEC08F06CC0A4F16DC0A5F16EC08A
:10010800A6F16FC0A7F110EF01F0800E00016C6F2F
:10011800250E6D6F000E6E6F000E6F6FFAEC08F013
:100128006CC0A4F16DC0A5F16EC0A6F16FC0A7F1B7
:1001380010EF01F0000E00016C6FE10E6D6F000E04
:100148006E6F000E6F6FFAEC08F06CC0A4F16DC012
:10015800A5F16EC0A6F16FC0A7F110EF01F0800EF7
:100168004B6E010E4C6E990E4D6E5E0E4E6EB4ECDB
:1001780007F01FC04FF020C050F021C051F022C03E
:1001880052F00BEC03F0800E4A6E010E4B6EFF0E20
:100198004D6EE00E4C6E99EC0DF0DCEC0AF010EFB1
:1001A80001F0B4EC07F02250000AD8B405EF01F0D2
:1001B800B3EF00F02050250AD8B4E9EF00F0C40AE4
:1001C800D8B4F0EF00F0B3EF00F01F50800AD8B4B5
:1001D8009EEF00F0B3EF00F01F50000AD8B474EFA0
:1001E80000F0B3EF00F02050C20AD8B4FEEF00F0E0
:1001F800B3EF00F01F50000AD8B489EF00F0B3EF56
:1002080000F02150000AD8B4DEEF00F0010AD8B49B
:10021800F7EF00F0B3EF00F0800E4B6E010E4C6E5E
:10022800D50E4D6E5E0E4E6EA4C14FF0A5C150F0B6
:10023800A6C151F0A7C152F00BEC03F00101A45183
:10024800A511A611A711D8B42CEF01F02EEF01F0DB
:1002580034EF01F0800EA06F010EA16F38EF01F0AE
:10026800F00EA06F5E0EA16FA0C14AF0A1C14BF0C5
:10027800F80E4D6E1F0E4C6E99EC0DF034EC10F02C
:100288000009D8A44AEF01F04CEF01F078EF01F033
:10029800370E4A6E5F0E4B6E000E4D6E1F0E4C6E83
:1002A80099EC0DF0DCEC0AF034EC10F00009D8B44D
:1002B80060EF01F062EF01F069EF01F0710E0101EA
:1002C800A26F5F0EA36F6EEF01F0AD0E0101A26F7A
:1002D8005F0EA36FA2C14AF0A3C14BF0000E4D6E92
:1002E8001F0E4C6E99EC0DF00101BF51BE110BE1D0
:1002F800C50EBC5D090EBD59D8A085EF01F087EF8A
:1003080001F0DCEF01F03C0EBC250001A86FF60EF1
:100318000101BD210001A96FFF0E0101BE210001ED
:10032800AA6FFF0E0101BF210001AB6FA8510101A7
:10033800B85D0001A9510101B9590001AA51010193
:10034800BA590001AB510101BB59D8B0AEEF01F069
:10035800B0EF01F0DCEF01F0BCC1B8F1BDC1B9F1FB
:10036800BEC1BAF1BFC1BBF1B80E4A6E5F0E4B6E8B
:10037800FF0E4D6EE00E4C6E99EC0DF0CD0E186E22
:100388005F0E196E000E1B6E000E1A6E000E1C6EAC
:10039800010E1D6E200E1E6E88EC12F0000E4A6EC5
:1003A800010E4B6E070E4D6EE00E4C6E99EC0DF083
:1003B8000101BF51BE110BE1A10EBC5D0F0EBD596D
:1003C800D8A0E9EF01F0EBEF01F044EF02F0600E86
:1003D800BC250001A86FF00E0101BD210001A96F25
:1003E800FF0E0101BE210001AA6FFF0E0101BF210E
:1003F8000001AB6FA8510101B45D0001A9510101D1
:10040800B5590001AA510101B6590001AB510101CA
:10041800B759D8B012EF02F014EF02F044EF02F02F
:10042800BCC1B4F1BDC1B5F1BEC1B6F1BFC1B7F130
:10043800610E4A6E5F0E4B6EFF0E4D6EE00E4C6EF7
:1004480099EC0DF0600E4B6E010E4C6EF70E4D6E72
:100458005F0E4E6EB4EC07F01FC04FF020C050F096
:1004680021C051F022C052F00BEC03F0600E4A6E2E
:10047800010E4B6EF80E4D6E000E4C6E99EC0DF0A1
:100488000101BF51BE110BE1650EBC5D190EBD59CE
:10049800D8A051EF02F053EF02F0A7EF02F09C0E44
:1004A800BC250001A86FE60E0101BD210001A96F5E
:1004B800FF0E0101BE210001AA6FFF0E0101BF213D
:1004C8000001AB6FA8510101B05D0001A951010104
:1004D800B1590001AA510101B2590001AB51010102
:1004E800B359D8B07AEF02F07CEF02F0A7EF02F030
:1004F800BCC1B0F1BDC1B1F1BEC1B2F1BFC1B3F170
:100508007E0E4A6E5F0E4B6EFF0E4D6EE00E4C6E09
:1005180099EC0DF0E00E186E5F0E196E000E1B6E52
:10052800000E1A6E200E1C6E010E1D6E200E1E6E21
:1005380088EC12F0200E4A6E010E4B6EFF0E4D6EC7
:100548004C6899EC0DF00101BF51BE110BE1350E5D
:10055800BC5D210EBD59D8A0B4EF02F0B6EF02F091
:100568000AEF03F0CC0EBC250001A86FDE0E0101D6
:10057800BD210001A96FFF0E0101BE210001AA6F74
:10058800FF0E0101BF210001AB6FA8510101A85D59
:100598000001A9510101A9590001AA510101AA5953
:1005A8000001AB510101AB59D8B0DDEF02F0DFEF2C
:1005B80002F00AEF03F0BCC1A8F1BDC1A9F1BEC1A8
:1005C800AAF1BFC1ABF14E0E4A6E5F0E4B6EFF0E25
:1005D8004D6EE00E4C6E99EC0DF0C30E186E5F0E6A
:1005E800196E000E1B6E000E1A6E400E1C6E010E68
:1005F8001D6E200E1E6E88EC12F0400E4A6E010E23
:100608004B6EFF0E4D6E4C6899EC0DF012004F0EBC
:100618000001666F000E676FEDEF04F0250E6B1991
:10062800D8B419EF03F01BEF03F025EF03F04BC02C
:10063800D9FF4CC0DAFF6BC0DFFF4B4A4C2AEDEF05
:1006480004F0000E6A6F000E696F000E686F4DC0EF
:10065800F6FF4EC0F7FF0800F550DBEC12F0D8A00B
:1006680038EF03F03AEF03F07BEF03F0000E0001E0
:100678006A6F000E696F69C005F06AC006F0000E67
:10068800086E0A0E076E0CEC13F005C069F006C080
:100698006AF0D00E536EFF0E546E4DC0F6FF4EC07A
:1006A800F7FF0800F550556E566A535055265450BA
:1006B800562255500001692756506A234D4A4E2A42
:1006C8004DC0F6FF4EC0F7FF0800F550DBEC12F006
:1006D800D8B071EF03F073EF03F03FEF03F07BEF57
:1006E80003F068897BEF03F0688D9CEF03F04DC041
:1006F800F6FF4EC0F7FF4D4A4E2A0800F5CF6BF0C3
:1007080000016B51000AD8B4FEEF04F0640AD8B4B3
:100718009CEF03F00D0AD8B49CEF03F0050AD8B497
:1007280075EF03F0190AD8B478EF03F0EDEF04F091
:1007380068BDA1EF03F0A3EF03F0E0EF03F068A9B1
:10074800A8EF03F0AAEF03F0BCEF03F066C0D9FFEF
:1007580067C0DAFFDECF62F0DECF63F0DECF64F091
:10076800DECF65F0040E6627000E6723CDEF03F099
:1007780066C0D9FF67C0DAFFDECF62F0DDCF63F075
:10078800000E63BFFF0E646F656F020E6627000ED2
:10079800672365BFD4EF03F0D2EF03F00BEF04F04B
:1007A800030E6813651F641F631F626D000E6323C9
:1007B800642365230BEF04F068A9E5EF03F0E7EF86
:1007C80003F0F9EF03F066C0D9FF67C0DAFFDECFA8
:1007D80062F0DECF63F0DECF64F0DECF65F0040EAA
:1007E8006627000E67230BEF04F066C0D9FF67C0C9
:1007F800DAFFDECF53F0DDCF54F053C062F054C0BF
:1008080063F0646B656B020E6627000E6723010EAA
:100818006B6F6B51040D270EF324F66E5E0EF420F9
:10082800F76E0900F550625D0900F550635909003B
:10083800F55064590900F5506559D8B026EF04F011
:1008480028EF04F02AEF04F034EF04F06B2B0A0EC3
:100858006B19D8A432EF04F034EF04F00DEF04F074
:1008680069516A11D8B43BEF04F03DEF04F04BEF47
:1008780004F068C053F0030E5316D8B446EF04F0E2
:1008880048EF04F04BEF04F06907D8A06A076B51F2
:10089800536E546A6951535C5450800A556E6A51BC
:1008A800800A5558D8B05BEF04F05DEF04F063EFB1
:1008B80004F06B51695F000E6A5B67EF04F0000E8D
:1008C8006A6F000E696F69516A11D8B46EEF04F04F
:1008D80070EF04F084EF04F04BC0D9FF4CC0DAFF8E
:1008E800200EDF6E4B4A4C2A6907D8A06A07695167
:1008F8006A11D8A482EF04F084EF04F070EF04F0DA
:1009080068C053F0030E5316D8B48DEF04F08FEF80
:1009180004F097EF04F04BC0D9FF4CC0DAFF2D0E5E
:10092800DF6E4B4A4C2A6BC060F0616BE0EF04F05D
:1009380060C053F061C054F0D89053365436D89004
:1009480053365436270E5324F66E5E0E5420F76E37
:100958000900F5CF09F00900F5CF0AF00900F5CF35
:100968000BF00A00F5CF0CF062C005F063C006F08A
:1009780064C007F065C008F075EC0CF005C012F013
:1009880006C013F007C014F008C015F00A0E166E62
:10099800000E176E000E186E000E196E55EC0DF055
:1009A8001250300F00016B6F4BC0D9FF4CC0DAFFFB
:1009B8006BC0DFFF4B4A4C2A6007D8A0610760294B
:1009C80006E16129D8A4EBEF04F0EDEF04F09CEF09
:1009D80004F04DC0F6FF4EC0F7FF4D4A4E2A0800FE
:1009E800F5CF6BF06B51D8A4FCEF04F0FEEF04F0E8
:1009F80012EF03F04BC0D9FF4CC0DAFF000EDF6ED8
:100A08001200000E3E6E3EC034F0356A34BE350624
:100A18002E50050D5B0E366E580E376EF350362687
:100A2800F4503722345036263550372236C0F6FF78
:100A380037C0F7FF0800F5CF38F0000E3D6E38A03C
:100A480028EF05F02AEF05F083EF05F03304D8A46A
:100A580030EF05F032EF05F04DEF05F02A503D2458
:100A68000D6E000E3DBEFF0E2B200E6E3EC034F004
:100A7800356A34BE350634502C5C0F6E35502D580F
:100A8800106E2FC011F030C012F02EEC12F0E6EF0D
:100A980005F03D50056E066A05BE060633C007F030
:100AA800086A0CEC13F02A500524396E2B500620E6
:100AB8003A6E3E50056E066A05BE060633C007F05C
:100AC800086A0CEC13F005502C5C3B6E06502D5850
:100AD8003C6E39C01CF03AC01DF03BC01EF03CC053
:100AE8001FF033C020F0216A33C022F0236A2FC0E0
:100AF80024F030C025F01DEC0FF0E6EF05F02F5084
:100B0800311809E130503218D8B48DEF05F08FEF65
:100B180005F0E6EF05F03304D8A495EF05F097EF5C
:100B280005F0B2EF05F02A503D240D6E000E3DBED3
:100B3800FF0E2B200E6E3EC034F0356A34BE3506EB
:100B480034502C5C0F6E35502D58106E31C011F09A
:100B580032C012F02EEC12F0E6EF05F03D50056EB3
:100B6800066A05BE060633C007F0086A0CEC13F0E7
:100B78002A500524396E2B5006203A6E3E50056ED9
:100B8800066A05BE060633C007F0086A0CEC13F0C7
:100B980005502C5C3B6E06502D583C6E39C01CF03D
:100BA8003AC01DF03BC01EF03CC01FF033C020F01F
:100BB800216A33C022F0236A31C024F032C025F004
:100BC8001DEC0FF03D2AD89038323D50800A780F3E
:100BD800D8A0F1EF05F0F3EF05F023EF05F03E2A7A
:100BE8003E50800A7B0FD8A0FCEF05F0FEEF05F021
:100BF80007EF05F012001350175C056E14501858D3
:100C0800066EC1EC12F005C01DF006C01EF01550AE
:100C1800195C056E16501A58066EC1EC12F0055094
:100C28001D5C1E50800A1F6E0650800A1F58D8A0EF
:100C380020EF06F023EF06F0010E24EF06F0000E79
:100C48002E6E2F6A2E502F10D8B42DEF06F02FEFEE
:100C580006F047EF06F013C020F014C021F015C0CD
:100C680013F016C014F020C015F021C016F017C0FC
:100C780022F018C023F019C017F01AC018F022C0CB
:100C880019F023C01AF01350175C1850800A1D6E13
:100C98001450800A1D58D8B054EF06F056EF06F0ED
:100CA8006EEF06F013C024F014C025F017C013F03F
:100CB80018C014F024C017F025C018F015C026F08D
:100CC80016C027F019C015F01AC016F026C019F082
:100CD80027C01AF01350175C306E14501858316E34
:100CE8001550195C056E16501A58066EC1EC12F0B4
:100CF80005C028F006C029F030C005F031C006F064
:100D0800000E086E020E076EB4EC0BF005C02CF056
:100D180006C02DF01950155C1650800A1D6E1A5029
:100D2800800A1D58D8B09BEF06F09DEF06F0A3EFA0
:100D380006F0000E2B6E010E2A6EE3EF06F02A680D
:100D48002B68E3EF06F02E502F10D8B4AEEF06F064
:100D5800B0EF06F0C0EF06F015C00DF016C00EF0AB
:100D680013C00FF014C010F01BC011F01CC012F01B
:100D78002EEC12F0CEEF06F013C00DF014C00EF0FA
:100D880015C00FF016C010F01BC011F01CC012F0F7
:100D98002EEC12F028502C5E29502D5A2DBED9EF7A
:100DA80006F0D7EF06F0E1EF06F02A5015262B5093
:100DB800162230502C2631502D22134A142A135053
:100DC800175C1850800A1D6E1450800A1D58D8B040
:100DD800F0EF06F0F2EF06F0A7EF06F012000E5063
:100DE8001A6E0DC01BF0020E066E020E056E0DC0C7
:100DF80007F00EC008F0ECEC11F00F06000E105AC8
:100E0800115A125A829000F00FC013F010C014F05B
:100E180011C015F012C016F0030E18EF07F0D890A5
:100E28001632153214321332E82E13EF07F013C0BE
:100E380017F014C018F01B501A18D8A426EF07F0A2
:100E480028EF07F08DEF07F042EF07F0809A00F0E7
:100E5800808A809A00F0808A809A00F0808A809A3E
:100E680000F0808A809A00F0808A809A00F0808A58
:100E7800809A00F0808A809A00F0808A1706D8A0AD
:100E88001806172806E11828D8A44DEF07F04FEFE9
:100E980007F02AEF07F00F50030B196E5AEF07F00F
:100EA800809A00F0808A809A00F0808A19061928B2
:100EB800D8A461EF07F063EF07F054EF07F0B2EF43
:100EC80007F01AC081FF809A00F0808A1BC081FF5A
:100ED800809A00F0808A1AC081FF809A00F0808A88
:100EE8001BC081FF809A00F0808A1AC081FF809A17
:100EF80000F0808A1BC081FF809A00F0808A1AC0A7
:100F080081FF809A00F0808A1BC081FF809A00F0E0
:100F1800808A1706D8A01806172806E11828D8A42A
:100F280098EF07F09AEF07F065EF07F00F50030B03
:100F3800196EA9EF07F01AC081FF809A00F0808A25
:100F48001BC081FF809A00F0808A19061928D8A44E
:100F5800B0EF07F0B2EF07F09FEF07F082801200C2
:100F6800050E436E4BEF08F0D70E186E5F0E196E24
:100F7800000E1B6E000E1A6E230E1C6E000E1D6EE8
:100F8800200E1E6E88EC12F0230E106E000E116EED
:100F9800E80E126E5F0E136E16EC0CF01050111066
:100FA800D8B4D9EF07F0DBEF07F041EF08F0230ED4
:100FB800126E000E136EED0E146E5F0E156E8FEC32
:100FC80009F012C048F013C049F0000E126E000E6E
:100FD800136E230E146E000E156E8FEC09F012C0FE
:100FE80048F013C049F048504910D8B4FEEF07F054
:100FF80000EF08F041EF08F048C011F049C012F0C6
:101008005DEC08F011C044F012C045F013C046F082
:1010180014C047F0000E4A6E4A50040D4F0EF324D8
:10102800F66E5E0EF420F76E44500900F51810E1D4
:1010380045500900F5180CE146500900F51808E17B
:1010480047500900F518D8A42CEF08F02EEF08F047
:1010580038EF08F044C01FF045C020F046C021F02A
:1010680047C022F05CEF08F04A2A020E4A643FEFBC
:1010780008F041EF08F010EF08F0FA0E056E000EC8
:10108800066E000E076E000E086E6BEC12F043063B
:101098004328D8A452EF08F054EF08F0B8EF07F04F
:1010A800000E1F6E000E206E000E216E000E226EC6
:1010B800120011C0D9FF12C0DAFFDF501E6E114AAC
:1010C800122A200E1E18D8B46CEF08F06EEF08F044
:1010D8005DEF08F0090E1E18D8B475EF08F077EF29
:1010E80008F05DEF08F0000E1A6E000E1B6E000E81
:1010F8001C6E000E1D6E000E196E2D0E1E18D8A443
:1011080088EF08F08AEF08F095EF08F0192A11C067
:10111800D9FF12C0DAFFDF501E6E114A122AC4EF3F
:1011280008F02B0E1E18D8A49CEF08F09EEF08F0CC
:10113800C4EF08F08BEF08F01AC005F01BC006F0EA
:101148001CC007F01DC008F00A0E096E000E0A6EDA
:10115800000E0B6E000E0C6EFFEC0FF01EC015F0AB
:10116800D00E1526155005241A6E000E06201B6E8B
:10117800000E07201C6E000E08201D6E8BEF08F075
:101188001E50DBEC12F0D8B0CCEF08F0CEEF08F030
:10119800A0EF08F01950D8B4D4EF08F0D6EF08F053
:1011A800F1EF08F01AC015F01BC016F01CC017F0BC
:1011B8001DC018F0151E161E171E181E152A000E23
:1011C80016221722182215C011F016C012F017C0E7
:1011D80013F018C014F0F9EF08F01AC011F01BC092
:1011E80012F01CC013F01DC014F01200B4EC07F08C
:1011F8001FC0A4F020C0A5F021C0A6F022C0A7F00F
:101208000001A451A511A611A711D8A40EEF09F049
:1012180010EF09F01BEF09F0000E00016C6F000ED3
:101228006D6F000E6E6F000E6F6F8EEF09F0900EEF
:101238004B6E000E4C6E8B0E4D6E5F0E4E6E6CC07C
:101248004FF06DC050F06EC051F06FC052F00BEC13
:1012580003F0900E186E000E196E000E1B6E000E35
:101268001A6E700E1C6E000E1D6E200E1E6E88EC1F
:1012780012F0FA0E056E000E066E000E076E000ED6
:10128800086E6BEC12F0700E056E000E066EFB0E0B
:10129800076E5F0E086E01EC11F005500610D8A419
:1012A80058EF09F05AEF09F082EF09F06CC012F01C
:1012B8006DC013F06EC014F06FC015F021EC0EF085
:1012C800960E056E000E066E000E076E000E086E76
:1012D8006BEC12F034EC10F0E806D8A476EF09F0C5
:1012E80078EF09F082EF09F06CC06CF06DC06DF01A
:1012F8006EC06EF06FC06FF08EEF09F0A4C012F0F0
:10130800A5C013F0A6C014F0A7C015F021EC0EF08C
:1013180010EF09F0120012501310D8A496EF09F03C
:1013280098EF09F09CEF09F0C2C012F0C3C013F0A7
:1013380012501310D8A4A3EF09F0A5EF09F0ABEFF2
:1013480009F0000E126E000E136EFFEF09F012C0C6
:101358000BF013C00CF014C00DF015C00EF069ECC2
:1013680010F00B5012260C50132212C0D9FF13C0D4
:10137800DAFFDF50D8A4C3EF09F0C5EF09F0D0EFCA
:1013880009F0000E0001C26F000EC36FC2C012F058
:10139800C3C013F0FFEF09F012C00BF013C00CF03C
:1013A80014C00DF015C00EF09CEC10F00B50122478
:1013B8000001C26F0C501320C36FC2C0D9FFC3C055
:1013C800DAFFDF50D8B4EBEF09F0EDEF09F0F7EFF3
:1013D80009F0C2C0D9FFC3C0DAFF000EDF6EC24BEE
:1013E800C32BFBEF09F0000EC26F000EC36F12C0D3
:1013F80012F013C013F0120052EC13F00D0E1F6E12
:101408002D0E1E6ED80EE82EFED71E2EFCD71F2ED0
:10141800FAD7000E276E000E266E000E236E660E9B
:10142800226E5AEF0AF0D8902634F66E2734F76EFB
:101438005B0EF6265D0EF7220900F5CF24F00A00B0
:10144800F5CF25F0264A272AD8902634F66E273479
:10145800F76E5B0EF6265D0EF7220900F5CF20F039
:101468000A00F5CF21F0264A272A242806E1252854
:10147800D8A441EF0AF043EF0AF050EF0AF00D0E3E
:101488001F6E2D0E1E6ED80EE82EFED71E2EFCD710
:101498001F2EFAD75AEF0AF024C005F025C006F02F
:1014A80020C007F021C008F0ECEC11F022502618FB
:1014B80007E123502718D8A464EF0AF066EF0AF072
:1014C80017EF0AF01FEC13F0000E1D6E000E1C6ED5
:1014D800C9EC11F01200CAEF0AF009C0F6FF0AC001
:1014E800F7FFF86A070EF76403D00800F55005D037
:1014F800F6CFE9FFF7CFEAFFEF500009D8B487EF3E
:101508000AF089EF0AF0A8EF0AF00BC0F6FF0CC04A
:10151800F7FF0800F5CF0FF009C0F6FF0AC0F7FF84
:10152800F86A070EF76403D00800F55005D0F6CF27
:10153800E9FFF7CFEAFFEF500F18D8B4A6EF0AF08B
:10154800A8EF0AF0C6EF0AF009C0F6FF0AC0F7FFD5
:10155800F86A070EF76403D00800F55005D0F6CFF7
:10156800E9FFF7CFEAFFEF500F6E0BC0F6FF0CC094
:10157800F7FF0800F5500F5C096E0A6AD8A00A0642
:10158800DBEF0AF0094A0A2A0B4A0C2A0D06D8A0F2
:101598000E060D2806E10E28D8A4D5EF0AF0D7EFDD
:1015A8000AF071EF0AF0000E0A6E000E096E1200C2
:1015B800090E4A6E5F0E4B6EF80E4D6E1F0E4C6E86
:1015C80099EC0DF0000E00018C6F8C51040D4F0E3C
:1015D800F324F66E5E0EF420F76E0900F5CF12F0D4
:1015E8000900F5CF13F00900F5CF14F00A00F5CF84
:1015F80015F021EC0EF034EC10F0E806D8A407EF53
:101608000BF009EF0BF034EF0BF06C0E4B6E000E85
:101618004C6E970E4D6E5F0E4E6E00018C51040D90
:101628004F0EF324F66E5E0EF420F76E0900F5CF28
:101638004FF00900F5CF50F00900F5CF51F00A003E
:10164800F5CF52F00BEC03F06C0E4A6E000E4B6EA9
:10165800F80E4D6E000E4C6E99EC0DF048EF0BF045
:10166800640E056E000E066E000E076E000E086E04
:101678006BEC12F000018C2B020E8C6546EF0BF020
:1016880048EF0BF0E9EF0AF0120011C005F012C0A4
:1016980006F0000E086E000E076E13C009F00A6A05
:1016A800A5EC12F014C00FF015C010F07FEC11F08B
:1016B800176E1750D8A463EF0BF065EF0BF068EFC7
:1016C8000BF0000EB3EF0BF00D0E1718D8B46FEF38
:1016D8000BF071EF0BF056EF0BF00A0E1718D8B499
:1016E80078EF0BF07AEF0BF056EF0BF0000E166E5A
:1016F8000D0E1718D8B483EF0BF085EF0BF0B2EF8F
:101708000BF01750D8A48BEF0BF08DEF0BF08FEF89
:101718000BF0B2EF0BF016501124D96E000E122008
:10172800DA6E17C0DFFF162A13501618D8A49FEFD9
:101738000BF0A1EF0BF0A3EF0BF0B2EF0BF014C01E
:101748000FF015C010F07FEC11F0176E1750D8A4E9
:10175800B0EF0BF0B2EF0BF07CEF0BF0165012006D
:10176800000E0A6E08BEBDEF0BF0BBEF0BF0C3EF27
:101778000BF0076C081ED8B0082A010E0A6E06BEC8
:10178800CAEF0BF0C8EF0BF0D0EF0BF0056C061E9C
:10179800D8B0062A010E0A1A000E0C6E000E0B6E47
:1017A80007500810D8B4DBEF0BF0DDEF0BF005EFB6
:1017B8000CF0010E096EE5EF0BF0D89007360836ED
:1017C800092A08AEEAEF0BF0ECEF0BF0E1EF0BF0B3
:1017D800D8900B360C360750055C08500658D8A030
:1017E800F8EF0BF0FAEF0BF0FFEF0BF00750055E88
:1017F8000850065A0B80D89008320732092EECEFB1
:101808000BF00A50D8B40BEF0CF00DEF0CF011EF01
:101818000CF00B6C0C1ED8B00C2A0BC005F00CC0D9
:1018280006F012004FEF0CF010C009F011C00AF0DA
:1018380012C00BF013C00CF012C005F013C006F074
:1018480058EC11F005C00DF006C00EF06FEC0AF070
:1018580009500A10D8A433EF0CF035EF0CF03BEF29
:101868000CF010C010F011C011F074EF0CF0010E64
:101878001024056E000E1120066E12C0F6FF13C06C
:10188800F7FF0800F550076E086A63EC0EF005C014
:1018980010F006C011F010501110D8B456EF0CF02B
:1018A80058EF0CF070EF0CF010C0F6FF11C0F7FF06
:1018B800F86A070EF76403D00800F55005D0F6CF94
:1018C800E9FFF7CFEAFFEF500009D8A46EEF0CF05C
:1018D80070EF0CF018EF0CF0000E106E000E116E89
:1018E8001200000E0D6E000E0E6E000E0F6E000E32
:1018F800106E09500A100B100C10D8B486EF0CF0BB
:1019080088EF0CF0BEEF0CF0010E116E92EF0CF0A8
:10191800D89009360A360B360C36112A0CAE97EFDA
:101928000CF099EF0CF08CEF0CF0D8900D360E36C9
:101938000F3610360950055C0A5006580B500758E8
:101948000C500858D8A0ABEF0CF0ADEF0CF0B6EF88
:101958000CF00950055E0A50065A0B50075A0C50F5
:10196800085A0D80D8900C320B320A320932112EE7
:1019780099EF0CF00DC005F00EC006F00FC007F08F
:1019880010C008F01200F6EF0CF03FC02AF040C07B
:101998002BF041C02CF042C02DF043C0F6FF44C0EC
:1019A800F7FFF86A070EF76403D00800F55005D072
:1019B800F6CFE9FFF7CFEAFFEF502E6E45C02FF0C4
:1019C80046C030F047C031F048C032F049C033F06B
:1019D80005EC05F04950060DF350415EF450425AAB
:1019E800434A442A43C0F6FF44C0F7FFF86A070E8B
:1019F800F76403D00800F55005D0F6CFE9FFF7CF1C
:101A0800EAFFEF500009D8A40CEF0DF00EEF0DF02F
:101A1800C9EF0CF01200FF0E066E0568DDEC0DF044
:101A28000009D8A41AEF0DF01CEF0DF01EEF0DF011
:101A380054EF0DF0600E116E000E126E200E136E34
:101A4800000E156E000E146E49EC0BF00001806F4D
:101A58008051D8A432EF0DF034EF0DF036EF0DF0D1
:101A680054EF0DF0600E056E000E066EFB0E076E4D
:101A78005F0E086E01EC11F005500610D8A447EF70
:101A88000DF049EF0DF04BEF0DF054EF0DF0600E37
:101A98004A6E000E4B6E070E4D6E4C6899EC0DF0B9
:101AA80012001650171018101910D8B45EEF0DF068
:101AB80060EF0DF090EF0DF0010E1A6E6AEF0DF069
:101AC800D89016361736183619361A2A19AE6FEF07
:101AD8000DF071EF0DF064EF0DF01650125C175019
:101AE80013581850145819501558D8A07EEF0DF0F7
:101AF80080EF0DF088EF0DF01650125E1750135A54
:101B08001850145A1950155AD890193218321732D9
:101B180016321A2E71EF0DF012C012F013C013F026
:101B280014C014F015C015F012000A0E0001C427E5
:101B3800000EC523C4C01CF0C5C01DF0000E1F6EEA
:101B4800000E1E6E000E216E280E206E010E236EF2
:101B5800900E226E000E256E000E246E1DEC0FF006
:101B6800C4C03FF0C5C040F0010E426E8F0E416EFA
:101B78004AC043F04BC044F04CC045F04DC046F05D
:101B8800000E486E000E476E010E496EC7EC0CF051
:101B98000001C55109E1CE0EC45DD8A0D6EF0DF005
:101BA800D8EF0DF0DCEF0DF0000EC56F000EC46F1E
:101BB800120005500610D8A4E4EF0DF0E6EF0DF082
:101BC800EAEF0DF0030E066EE80E056E05C007F08D
:101BD80006C008F0000E08BEFF0E096E0A6E01016D
:101BE800BC5107240B6EBD5108200C6EBE51092054
:101BF8000D6EBF510A200E6E15EF0EF00101BC519B
:101C08000B5CBD510C58BE510D58BF510E58D8B081
:101C180010EF0EF012EF0EF015EF0EF0000E20EFA1
:101C28000EF0020100510119D8B41DEF0EF01FEF9C
:101C38000EF002EF0EF0010E1200AC98AC84B886DC
:101C4800000E056E6C0E066EDC0E076E020E086E38
:101C580012C009F013C00AF014C00BF015C00CF044
:101C680075EC0CF005C01AF006C01BF007C01CF09C
:101C780008C01DF01AC016F01BC017F01CC018F0E1
:101C88001DC019F0030E4EEF0EF0D890193218321D
:101C980017321632E82E49EF0EF016C01AF017C0A8
:101CA8001BF018C01CF019C01DF01A06000E1B5AB4
:101CB8001C5A1D5A1AC0AFFF1BC0B0FF120005C046
:101CC800F6FF06C0F7FFF86A070EF76403D00800AE
:101CD800F55005D0F6CFE9FFF7CFEAFFEF50071828
:101CE800D8A479EF0EF07BEF0EF081EF0EF005C06F
:101CF80005F006C006F0A3EF0EF00550096E065079
:101D08000A6E054A062A09C0F6FF0AC0F7FFF86AF4
:101D1800070EF76403D00800F55005D0F6CFE9FFA9
:101D2800F7CFEAFFEF500009D8A49DEF0EF09FEF20
:101D38000EF063EF0EF0000E056E000E066E120038
:101D4800020E066E100E056E0DC007F00EC008F0EC
:101D5800ECEC11F0020E066E110E056E11C007F0C4
:101D680012C008F0ECEC11F0020E066E120E056EB1
:101D78000FC007F010C008F0ECEC11F0020E066E70
:101D8800130E056E13C007F014C008F0ECEC11F048
:101D9800020E066E000E056E0DC007F00EC008F0AC
:101DA800ECEC11F0020E066E010E056E13C007F082
:101DB80014C008F0ECEC11F01200000E1D6E000EBD
:101DC8001C6EC9EC11F0000E406E080E3F6E010E3D
:101DD800426E860E416EA20E436E5F0E446EFF0E7B
:101DE800466E4568000E486E000E476E020E496E3C
:101DF800C7EC0CF0000E146E200E136E000E166E5B
:101E0800000E156E000E186E200E176E010E1A6E5B
:101E1800900E196EFF0E1C6E1B68FFEC05F0010E8C
:101E28005A6E8F0E596E010E0001C76F8F0EC66F66
:101E380012001CC00DF01DC00EF01EC00FF01FC018
:101E480010F020501C24266E21501D20276EFF0EF6
:101E58002624116EFF0E2720126E22501E24286E93
:101E680023501F20296EFF0E2824136EFF0E2920F1
:101E7800146EA4EC0EF024C00DF025C00EF020C0A6
:101E880005F021C006F022C007F023C008F00CECD2
:101E980013F005C00FF006C010F0116A126AF3ECD7
:101EA80006F01FEC13F01200D39E700ED312FC0E36
:101EB800D3169B8EE00E9B16070E066E170E056E48
:101EC8006A0EE82EFED7052EFCD7062EFAD700D0CC
:101ED8006D966F860B0E926E000E896EF18E000E57
:101EE800936E000E8A6EF00E946E000E8B6EC2908A
:101EF800CF0EC116C150F00B0E09C16EC08EC70EB1
:101F0800C016C050F80B0209C06ECF0EB116B192C0
:101F1800B180A082F28CF28E1200F40EF66E260EBC
:101F2800F76E000EF86E00EEC6F010EE06F009002F
:101F3800F5CFEEFFE550E150FAE1000EF66E270E00
:101F4800F76E000EF86E0900F5CF59F00900F5CFCD
:101F58005AF002EE00F0820EEE6AE806FDE101EEAC
:101F6800A8F0180EEE6AE806FDE100EEACF01A0ED5
:101F7800EE6AE806FDE1586A576A5B905B92000ECC
:101F8800F86E000132EF13F00600D9CF03F0DACF74
:101F980004F0A0A2D2EF0FF0D4EF0FF0E9EF0FF0AA
:101FA800A1A2D9EF0FF0DBEF0FF0E9EF0FF0050E6C
:101FB8000101BC27000EBD23BE23BF2342EC13F052
:101FC800160EB36E000EB26EA1929DAAEEEF0FF040
:101FD800F0EF0FF0F9EF0FF09EAAF5EF0FF0F7EF23
:101FE8000FF0F9EF0FF0CFEC10F004C0DAFF03C0E8
:101FF800D9FF5B921100000E0D6E000E0E6E000EE2
:102008000F6E000E106E05A00CEF10F00EEF10F022
:1020180016EF10F009500D260A500E220B500F2211
:102028000C501022D89009360A360B360C36D89048
:10203800083207320632053205500610071008101C
:10204800D8A429EF10F02BEF10F007EF10F00DC017
:1020580005F00EC006F00FC007F010C008F012001F
:10206800030E3F6E5EEF10F0EF0E186E5F0E196EE6
:10207800000E1B6E000E1A6E1F0E1C6E000E1D6EDB
:10208800200E1E6E88EC12F01F0E056E000E066EF6
:10209800FB0E076E5F0E086E01EC11F0055006107E
:1020A800D8A459EF10F05BEF10F05EEF10F0010EBE
:1020B80068EF10F03F063F28D8A465EF10F067EFEF
:1020C80010F038EF10F0000E1200000E116E000E26
:1020D800106E73EF10F00B4A0C2A104A112A0BC02D
:1020E800D9FF0CC0DAFFDF50D8B47DEF10F07FEFD6
:1020F80010F097EF10F00DC005F00EC006F00BC001
:10210800D9FF0CC0DAFFDF500F6E0F50076E086A58
:1021180063EC0EF005500610D8A495EF10F097EF79
:1021280010F06FEF10F010C00BF011C00CF012009F
:10213800000E116E000E106EA6EF10F00B4A0C2A5E
:10214800104A112A0BC0D9FF0CC0DAFFDF50D8B4EF
:10215800B0EF10F0B2EF10F0CAEF10F00DC005F0BC
:102168000EC006F00BC0D9FF0CC0DAFFDF500F6EAF
:102178000F50076E086A63EC0EF005500610D8B4CD
:10218800C8EF10F0CAEF10F0A2EF10F010C00BF07B
:1021980011C00CF01200AECF02F0ABA2D6EF10F0D7
:1021A800D8EF10F0EBEF10F0AB98AB8880A4DFEF1E
:1021B80010F0E3EF10F0016A012AE4EF10F0016A71
:1021C8000146014680500118FB0B0118806E020180
:1021D800012B800E0119D8A4F4EF10F0F6EF10F0DF
:1021E800F8EF10F0000E016F020E0125D96EDA6AC1
:1021F800020EDA2202C0DFFF120007EF11F0054AD3
:10220800062A074A082A07C0F6FF08C0F7FF080091
:10221800F5CF09F005C0D9FF06C0DAFFDF500A6E16
:1022280009500A5C0B6E0B50D8A41DEF11F01FEF7C
:1022380011F02BEF11F005C0D9FF06C0DAFFDF500F
:10224800D8A429EF11F02BEF11F003EF11F00B5088
:10225800056E066A05BE06061200000E086E82AA02
:1022680038EF11F03AEF11F03BEF11F0088282A835
:1022780040EF11F042EF11F043EF11F008800850E1
:10228800D8B449EF11F04DEF11F0076A072A4EEF65
:1022980011F0076A074657500718FD0B0718576EC5
:1022A80008C005F0066A120005C007F006C008F06D
:1022B80060EF11F0074A082A07C0F6FF08C0F7FFC9
:1022C800F86A070EF76403D00800F55005D0F6CF7A
:1022D800E9FFF7CFEAFFEF500009D8A476EF11F035
:1022E80078EF11F05EEF11F00550075C056E0650AF
:1022F8000858066E12000FC005F010C006F0DDEC9D
:102308000DF00009D8A48BEF11F08DEF11F090EFCC
:1023180011F0000EA4EF11F00201002B800E00193D
:10232800D8A499EF11F09BEF11F09DEF11F0000E7A
:10233800006F020E0025D96EDA6A020EDA22DF502B
:102348001200AC9CAC8AAC98AC96AC84AB8EAB9CBF
:10235800AB88B886B892B890040EB06EE10EAF6E36
:102368009D8A000E0201006F000E016F020E056EBD
:10237800020E066E000E086E000E076E000E0A6E44
:10238800800E096EA5EC12F01200020E066E000E09
:10239800056E000E086E000E076EECEC11F0020ED2
:1023A800066E010E056E000E086E000E076EECEC50
:1023B80011F01CC00DF01DC00EF0000E0F6E770E50
:1023C800106E010E116E000E126EF3EC06F0120084
:1023D800829000F082920650096E05C00AF009C08A
:1023E80081FF809A00F0808A0AC081FF809A00F0FD
:1023F800808A828208500B6E07C00CF00BC081FFE8
:10240800809A00F0808A0CC081FF809A00F0808A50
:102418008280120024EF12F009C0F6FF0AC0F7FF0D
:10242800F86A070EF76403D00800F55005D0F6CF18
:10243800E9FFF7CFEAFFEF506EEC13F0094A0A2ADA
:102448000B060B28D8A42BEF12F02DEF12F010EF8B
:1024580012F01200020E066E000E056E0DC007F097
:102468000EC008F0ECEC11F0020E066E010E056EBF
:102478000FC007F010C008F0ECEC11F0020E066E69
:10248800020E056E11C007F012C008F0ECEC11F056
:102498001200000E1D6E000E1C6EC9EC11F0000E2D
:1024A800406E460E3F6E010E426E6A0E416EB90EC8
:1024B800436E5E0E446EFF0E466E4568000E486E13
:1024C800000E476E020E496EC7EC0CF01200055064
:1024D8000101BC25096E0650BD210A6E0750BE21B8
:1024E8000B6E0850BF210C6E0950BC5D0A50BD59D7
:1024F8000B50BE590C50BF59D8A085EF12F087EF8A
:1025080012F078EF12F012007DEC13F018C009F009
:1025180019C00AF018C005F019C006F058EC11F0FF
:1025280005500B6E0EEC12F01CC011F01DC012F01D
:102538001EC013F01AC014F01BC015F049EC0BF0C4
:10254800120005C00BF006C00CF0B3EF12F00BC080
:10255800D9FF0CC0DAFF07C0DFFF0B4A0C2A0906B7
:10256800D8A00A06092806E10A28D8A4BEEF12F066
:10257800C0EF12F0ABEF12F0120006BEC8EF12F077
:10258800C6EF12F0D6EF12F005C007F006C008F04B
:10259800071E081E074A082A07C005F008C006F0EB
:1025A800DAEF12F005C005F006C006F01200076E5B
:1025B800000E066E3A0E0760E4EF12F0E6EF12F036
:1025C800F0EF12F02F0E0764ECEF12F0EEEF12F0BE
:1025D800F0EF12F0010E066E06C005F0053012008D
:1025E80031EC11F005500610D8A4FDEF12F0FFEF02
:1025F80012F003EF13F0E1EC0EF005EF13F04DECE1
:1026080012F0000E0001B86F000EBD6FBE8D1200F3
:1026180005500702F3CF09F0F4CF0AF0055008027D
:10262800F3500A2606500702F3500A2609C005F09F
:102638000AC006F01200000E0E6E000E0D6E000E9F
:10264800106E000E0F6E000E126EEF0E116E010E60
:10265800146E8F0E136EA4EC0EF0120058EC0FF0EF
:1026680000EC0AF0A5EC11F0F4EC12F061EC13F0B8
:1026780009EC00F03CEF13F007EF00F0010E016EDB
:102688005850070B026E0150022658500218F80BDA
:102698000218586E0001C12B57881200000E936E65
:1026A8008280808A80888294200E056E2A0EE82E09
:1026B800FED7052EFCD782841200DCEC0AF0E80E67
:1026C800056E030E066E000E076E000E086E6BECAC
:1026D80012F01200056E9EA874EF13F076EF13F057
:1026E8006FEF13F005C0ADFF00F012008F01EF008F
:0A26F800EF0001C200F212008F0192
:10585A000000000000003E5B4F5B3E3E6B4F6B3E1C
:10586A001C3E7C3E1C183C7E3C181C577D571C1C59
:10587A005E7F5E1C00183C1800FFE7C3E7FF0018B4
:10588A00241800FFE7DBE7FF30483A060E2629799D
:10589A002926407F050507407F05253F5A3CE73CFE
:1058AA005A7F3E1C1C08081C1C3E7F14227F2214AF
:1058BA005F5F005F5F06097F017F006689956A6006
:1058CA006060606094A2FFA29408047E040810201D
:1058DA007E201008082A1C08081C2A08081E101016
:1058EA0010100C1E0C1E0C30383E3830060E3E0EC0
:1058FA0006000000000000005F000000070007002B
:10590A00147F147F14242A7F2A1223130864623610
:10591A00495620500008070300001C22410000419C
:10592A00221C002A1C7F1C2A08083E0808008070D6
:10593A003000080808080800006060002010080409
:10594A00023E5149453E00427F400072494949465C
:10595A002141494D331814127F1027454545393CDA
:10596A004A494931412111090736494949364649C7
:10597A0049291E00001400000040340000000814E9
:10598A002241141414141400412214080201590962
:10599A00063E415D594E7C1211127C7F49494936B7
:1059AA003E414141227F4141413E7F494949417F30
:1059BA00090909013E414151737F0808087F0041E6
:1059CA007F41002040413F017F081422417F40402F
:1059DA0040407F021C027F7F0408107F3E41414104
:1059EA003E7F090909063E4151215E7F0919294670
:1059FA00264949493203017F01033F4040403F1F86
:105A0A002040201F3F4038403F63140814630304BA
:105A1A007804036159494D43007F4141410204081A
:105A2A001020004141417F040201020440404040ED
:105A3A0040000307080020545478407F2844443823
:105A4A003844444428384444287F3854545418006D
:105A5A00087E090218A4A49C787F080404780044EC
:105A6A007D40002040403D007F1028440000417FD7
:105A7A0040007C047804787C080404783844444460
:105A8A0038FC1824241818242418FC7C0804040858
:105A9A00485454542404043F44243C4040207C1C71
:105AAA002040201C3C4030403C44281028444C9064
:105ABA0090907C4464544C440008364100000077BE
:105ACA000000004136080002010204023C26232697
:105ADA003C1EA1A161123A4040207A3854545559CB
:105AEA002155557941225454784221555478402001
:105AFA00545579400C1E527212395555555939541C
:105B0A0054545939555454580000457C41000245B3
:105B1A007D420001457C407D1211127DF028252826
:105B2A00F07C545545002054547C547C0A097F4922
:105B3A0032494949323A4444443A324A4848303A66
:105B4A004141217A3A42402078009DA0A07D3D4201
:105B5A0042423D3D4040403D3C24FF2424487E498A
:105B6A0043662B2FFC2F2BFF0929F620C0887E09BC
:105B7A000320545479410000447D413048484A3258
:105B8A00384040227A007A0A0A727D0D19317D2640
:105B9A0029292F28262929292630484D4020380826
:105BAA0008080808080808382F10C8ACBA2F1028A7
:105BBA0034FA00007B000008142A142222142A1442
:105BCA00085500550055AA55AA55AAFF55FF55FF75
:105BDA00000000FF00101010FF00141414FF001042
:105BEA0010FF00FF1010F010F0141414FC0014142D
:105BFA00F700FF0000FF00FF1414F404FC1414174C
:105C0A00101F10101F101F1414141F00101010F072
:105C1A00000000001F101010101F10101010F010BC
:105C2A00000000FF101010101010101010FF1000CC
:105C3A000000FF140000FF00FF00001F1017000003
:105C4A00FC04F414141710171414F404F40000FFDD
:105C5A0000F714141414141414F700F71414141776
:105C6A001410101F101F141414F4141010F010F054
:105C7A0000001F101F0000001F14000000FC140089
:105C8A0000F010F01010FF10FF141414FF1410107D
:105C9A00101F00000000F010FFFFFFFFFFF0F0F000
:105CAA00F0F0FFFFFF0000000000FFFF0F0F0F0FD3
:105CBA000F3844443844FC4A4A4A347E02020606F3
:105CCA00027E027E0263554941633844443C0440E3
:105CDA007E201E2006027E020299A5E7A5991C2AAB
:105CEA00492A1C4C7201724C304A4D4D303048786A
:105CFA004830BC625A463D3E494949007E0101018D
:105D0A007E2A2A2A2A2A44445F444440514A44406B
:105D1A0040444A51400000FF0103E080FF000008B0
:105D2A00086B6B083612362436060F090F06000078
:105D3A0018180000001010003040FF0101001F0178
:105D4A00011E00191D1712003C3C3C3C00000000DB
:105D5A000002070830050736000B0713120100007E
:105D6A0001020000010300301008000202090000CD
:105D7A00000C0000000F00000000010000020100FA
:105D8A000003010000FFFF0100000190110101273B
:105D9A0002FFFF01000201BD01FFFF010003010034
:105DAA002D81020E00FFFF01000002000001020027
:105DBA0000000300000103070702030606050300AB
:105DCA00000603000D070306070803050009030779
:105DDA00000C0300000D030A00100200001102EF7C
:105DEA00001202000013028F0100040031010401B5
:105DFA00000404000000050000010500000205007F
:105E0A00000305000004050000050500001000104D
:105E1A0000110000062000020007007301010000C3
:105E2A00000A00000064000000E8030000102700D8
:105E3A0000A086010040420F008096980000E1F51C
:105E4A000500CA9A3B8025000000E1000000C2015B
:105E5A00001414000000000000F8F001FCF903FC33
:105E6A00FF03FEFF07FEFF07FEFF07FEFF07FCFF1B
:105E7A0003FCFF03F8FF01F0FF00E07F00C03F00D2
:105E8A00801F00000F00000600000000000000490B
:105E9A006E76616C69642063757272656E742062D5
:105EAA0061756420726174652028256C7529002A41
:105EBA002A2A20436F6C6C656761726520656C6580
:105ECA007474726F6469202A2A2A004261756420F8
:105EDA0072617465206368616E67656420282D3E6F
:105EEA0020256C7529004572726F72206368616E95
:105EFA0067696E6720626175642072617465004427
:105F0A006574656374696E67206261756420726185
:105F1A0074652E2E2E004368616E67652062617576
:105F2A006420726174652028256C752900436F6DA1
:105F3A006D20697320646561642E205265747279DC
:105F4A002E2E2E00436865636B2072656769737431
:105F5A00726174696F6E00436865636B2062617574
:105F6A006420726174650052657375727265637438
:105F7A0065642100436865636B207369676E616CB1
:105F8A000041542B4950523D256C750D00256C7506
:105F9A0020464F554E4421004672657175656E7AEA
:105FAA00613A005374696C6C2064656164004368EB
:105FBA0065636B2074696D650041542B43524547F4
:105FCA003F0D0041542B43434C4B3F0D0041542B92
:105FDA004950523F0D0041542B4353510D002B4958
:105FEA0050523A200041540D0025336400256C7547
:055FFA00004F4B000008
:020000040020DA
:08000000FFFFFFFFFFFFFFFF00
:020000040030CA
:0E000000200E011EFF0180FF0FC00FE00F4019
:00000001FF
