:020000040000FA
:0400000007EF00F016
:100008005B829EED14F066EF14F0DFEC11F0010155
:10001800CC51CB110BE1210EC95D4E0ECA59D8A0A7
:1000280018EF00F01AEF00F07DEF01F0E00EC9259F
:100038000001AC6FB10E0101CA210001AD6FFF0EC6
:100048000101CB210001AE6FFF0E0101CC2100019F
:10005800AF6FAC510101B95D0001AD510101BA5951
:100068000001AE510101BB590001AF510101BC595A
:10007800D8B041EF00F043EF00F07DEF01F0C9C1C7
:10008800B9F1CAC1BAF1CBC1BBF1CCC1BCF1800E88
:100098004A6E010E4B6EE90E4C6E5E0E4D6EAAEC6A
:1000A8000BF01FC04EF020C04FF021C050F022C00E
:1000B80051F0A7EC03F0800E00016B6F010E6C6F1E
:1000C800FF0E6E6FE00E6D6FEDEC10F0000E01018B
:1000D800A86F000EA96F000EAA6F000EAB6FD7EFC6
:1000E80000F0000E0001706FC20E716F010E726F8A
:1000F800000E736F15EC0BF070C0A8F171C0A9F178
:1001080072C0AAF173C0ABF112EF01F0800E0001CA
:10011800706F250E716F000E726F000E736F15EC05
:100128000BF070C0A8F171C0A9F172C0AAF173C038
:10013800ABF112EF01F0000E0001706FE10E716F6C
:10014800000E726F000E736F15EC0BF070C0A8F103
:1001580071C0A9F172C0AAF173C0ABF112EF01F03E
:10016800800E4A6E010E4B6E2F0E4C6E5E0E4D6E5B
:10017800AAEC0BF01FC04EF020C04FF021C050F089
:1001880022C051F0A7EC03F0800E00016B6F010E46
:100198006C6FFF0E6E6FE00E6D6FEDEC10F017ECEC
:1001A8000EF012EF01F0AAEC0BF02250000AD8B4BE
:1001B80007EF01F0B4EF00F02050250AD8B4EBEFB8
:1001C80000F0C40AD8B4F2EF00F0B4EF00F01F500A
:1001D800800AD8B49FEF00F0B4EF00F01F50000A77
:1001E800D8B475EF00F0B4EF00F02050C20AD8B4CC
:1001F80000EF01F0B4EF00F01F50000AD8B48AEF06
:1002080000F0B4EF00F02150000AD8B4E0EF00F09D
:10021800010AD8B4F9EF00F0B4EF00F0800E4A6E8E
:10022800010E4B6E6B0E4C6E5E0E4D6EA8C14EF0FD
:10023800A9C14FF0AAC150F0ABC151F0A7EC03F02F
:100248000101A851A911AA11AB11D8B42EEF01F0E0
:1002580030EF01F036EF01F0800EA06F010EA16FB4
:100268003AEF01F0A10EA06F5E0EA16FA0C16BF076
:10027800A1C16CF0F80E00016E6F1F0E6D6FEDECF2
:1002880010F000EC16F00009D8A44DEF01F04FEF84
:1002980001F07DEF01F0000E00016B6F5F0E6C6FD7
:1002A800000E6E6F1F0E6D6FEDEC10F017EC0EF078
:1002B80000EC16F00009D8B464EF01F066EF01F025
:1002C8006DEF01F03E0E0101A26F5F0EA36F72EF9A
:1002D80001F0850E0101A26F5F0EA36FA2C16BF042
:1002E800A3C16CF0000E00016E6F1F0E6D6FEDEC78
:1002F80010F00101CC51CB110BE1C50EC95D090EFF
:10030800CA59D8A08AEF01F08CEF01F0E3EF01F0B1
:100318003C0EC9250001AC6FF60E0101CA2100018F
:10032800AD6FFF0E0101CB210001AE6FFF0E010181
:10033800CC210001AF6FAC510101C55D0001AD5189
:100348000101C6590001AE510101C7590001AF5161
:100358000101C859D8B0B3EF01F0B5EF01F0E3EFF0
:1003680001F0C9C1C5F1CAC1C6F1CBC1C7F1CCC141
:10037800C8F19B0E00016B6F5F0E6C6FFF0E6E6F06
:10038800E00E6D6FEDEC10F0B00E186E5F0E196E8A
:10039800000E1B6E000E1A6E000E1C6E010E1D6EF6
:1003A800200E1E6EAEEC12F0000E00016B6F010EF7
:1003B8006C6F070E6E6FE00E6D6FEDEC10F00101C3
:1003C800CC51CB110BE1A10EC95D0F0ECA59D8A0B3
:1003D800F0EF01F0F2EF01F04DEF02F0600EC925E9
:1003E8000001AC6FF00E0101CA210001AD6FFF0ED4
:1003F8000101CB210001AE6FFF0E0101CC210001EC
:10040800AF6FAC510101C15D0001AD510101C2598D
:100418000001AE510101C3590001AF510101C45996
:10042800D8B019EF02F01BEF02F04DEF02F0C9C18E
:10043800C1F1CAC1C2F1CBC1C3F1CCC1C4F12E0E06
:1004480000016B6F5F0E6C6FFF0E6E6FE00E6D6FCD
:10045800EDEC10F0200E4A6E010E4B6EF60E4C6E4F
:100468005F0E4D6EAAEC0BF01FC04EF020C04FF08F
:1004780021C050F022C051F0A7EC03F0200E00017B
:100488006B6F010E6C6FF80E6E6F000E6D6FEDECFA
:1004980010F00101CC51CB110BE1650EC95D190EAD
:1004A800CA59D8A05AEF02F05CEF02F0B9EF02F097
:1004B8009C0EC9250001AC6FE60E0101CA2100019E
:1004C800AD6FFF0E0101CB210001AE6FFF0E0101E0
:1004D800CC210001AF6FAC510101BD5D0001AD51F0
:1004E8000101BE590001AE510101BF590001AF51D0
:1004F8000101C059D8B083EF02F085EF02F0B9EFDF
:1005080002F0C9C1BDF1CAC1BEF1CBC1BFF1CCC1B6
:10051800C0F17A0E00016B6F5F0E6C6FFF0E6E6F8D
:10052800E00E6D6FEDEC10F0400E4A6E010E4B6E52
:10053800170E4C6E5F0E4D6E2DEC10F00001AC6F77
:10054800AC514E6E4F6AB3EC13F0506E516A50BE08
:100558005106A7EC03F0400E00016B6F010E6C6FA3
:10056800FF0E6E6F6D69EDEC10F00101CC51CB11EF
:100578000BE1350EC95D210ECA59D8A0C6EF02F0AD
:10058800C8EF02F048EF03F0CC0EC9250001AC6FAC
:10059800DE0E0101CA210001AD6FFF0E0101CB2162
:1005A8000001AE6FFF0E0101CC210001AF6FAC510D
:1005B8000101B55D0001AD510101B6590001AE510F
:1005C8000101B7590001AF510101B859D8B0EFEF97
:1005D80002F0F1EF02F048EF03F0C9C1B5F1CAC16A
:1005E800B6F1CBC1B7F1CCC1B8F1860E00016B6F83
:1005F8005E0E6C6FFF0E6E6FE00E6D6FEDEC10F01F
:1006080039EC0DF00101AC6F020EAC19D8B40FEF44
:1006180003F011EF03F029EF03F0AC05D8B417EF9E
:1006280003F019EF03F01FEF03F0E80EA66F5F0E5B
:10063800A76F23EF03F0900EA66F5F0EA76FA6C1FA
:10064800A4F1A7C1A5F12DEF03F04B0EA46F5F0E27
:10065800A56F600E4A6E010E4B6EBA0E4C6E5E0EA2
:100668004D6EACC14EF04F6AA4C150F0A5C151F017
:10067800A7EC03F0600E00016B6F010E6C6FFF0EAC
:100688006E6F6D69EDEC10F00101CC51CB110BE1EF
:10069800610EC95D6D0ECA59D8A055EF03F057EF2A
:1006A80003F0A6EF03F0A00EC9250001AC6F920E6F
:1006B8000101CA210001AD6FFF0E0101CB2100012C
:1006C800AE6FFF0E0101CC210001AF6FAC510101EB
:1006D800B15D0001AD510101B2590001AE510101F6
:1006E800B3590001AF510101B459D8B07EEF03F0FE
:1006F80080EF03F0A6EF03F0C9C1B1F1CAC1B2F1AE
:10070800CBC1B3F1CCC1B4F1010EAD27000EAE23BD
:10071800AF23B023AD5151EC18F0030E0101AD1910
:10072800AE11AF11B011D8A49CEF03F09EEF03F007
:10073800A6EF03F0000EAD6F000EAE6F000EAF6FA8
:10074800000EB06F12004E0E00016B6F000E6C6F42
:1007580025EF06F0250E6F19D8B4B5EF03F0B7EF03
:1007680003F0C1EF03F04AC0D9FF4BC0DAFF6FC0F6
:10077800DFFF4A4A4B2A25EF06F0000E6E6F000E87
:100788006D6F000E6A6F4CC0F6FF4DC0F7FF080092
:10079800F550C2EC17F0D8A0D4EF03F0D6EF03F071
:1007A800AFEF04F0000E00016E6F000E6D6F6DC0AC
:1007B80005F06EC006F0000E086E0A0E076E1FECFC
:1007C80018F005C06DF006C06EF0D00E526EFF0E28
:1007D800536E4CC0F6FF4DC0F7FF0800F550546E3D
:1007E800556A5250542653505522545000016D27D3
:1007F80055506E234C4A4D2A4CC0F6FF4DC0F7FFAA
:100808000800F550C2EC17F0D8B00DEF04F00FEF68
:1008180004F0DBEF03F0AFEF04F06A89AFEF04F008
:100828006BC0D9FF6CC0DAFFDECF62F0DDCF63F0BA
:10083800020E6B27000E6C2362516311D8A427EFB8
:1008480004F029EF04F02DEF04F0D30E626F5F0E71
:10085800636F000E656F000E646F36EF04F00001E1
:10086800644B652B64516225526E65516321536E4A
:1008780052C0F6FF53C0F7FFF86A070EF76403D0BB
:100888000800F55005D0F6CFE9FFF7CFEAFFEF50A3
:100898000009D8A452EF04F054EF04F033EF04F049
:1008A80000016D51645D6E516559D8B05EEF04F07A
:1008B80060EF04F066EF04F064516D5F65516E5BA4
:1008C80074EF04F0000E6E6F000E6D6F74EF04F09D
:1008D8004AC0D9FF4BC0DAFF200EDF6E4A4A4B2AC6
:1008E8006D07D8A06E076D2906E16E29D8A47FEFA1
:1008F80004F081EF04F06CEF04F09DEF04F062C0A7
:10090800F6FF63C0F7FFF86A4AC0D9FF4BC0DAFFA9
:10091800070EF76403D00800F55005D0F6CFE9FFBD
:10092800F7CFEAFFEF50DF6E0001624B632B4A4AB4
:100938004B2A6407D8A06507642906E16529D8A46D
:10094800A8EF04F0AAEF04F083EF04F025EF06F017
:100958006A8DD4EF04F04CC0F6FF4DC0F7FF4C4A47
:100968004D2A0800F5CF6FF000016F51000AD8B486
:1009780036EF06F0640AD8B4D4EF04F00D0AD8B400
:10098800D4EF04F0050AD8B411EF04F01F0AD8B464
:1009980014EF04F0060AD8B4ACEF04F025EF06F023
:1009A8006ABDD9EF04F0DBEF04F018EF05F06AA98F
:1009B800E0EF04F0E2EF04F0F4EF04F06BC0D9FFCD
:1009C8006CC0DAFFDECF66F0DECF67F0DECF68F00E
:1009D800DECF69F0040E6B27000E6C2305EF05F0DF
:1009E8006BC0D9FF6CC0DAFFDECF66F0DDCF67F0F1
:1009F800000E67BFFF0E686F696F020E6B27000E4F
:100A08006C2369BF0CEF05F00AEF05F043EF05F022
:100A1800030E6A13691F681F671F666D000E672340
:100A28006823692343EF05F06AA91DEF05F01FEF5E
:100A380005F031EF05F06BC0D9FF6CC0DAFFDECFEF
:100A480066F0DECF67F0DECF68F0DECF69F0040E27
:100A58006B27000E6C2343EF05F06BC0D9FF6CC009
:100A6800DAFFDECF52F0DDCF53F052C066F053C04C
:100A780067F0686B696B020E6B27000E6C23010E22
:100A88006F6F6F51040DBD0EF324F66E5D0EF420EA
:100A9800F76E0900F550665D0900F55067590900C1
:100AA800F55068590900F5506959D8B05EEF05F05E
:100AB80060EF05F062EF05F06CEF05F06F2B0A0EA2
:100AC8006F19D8A46AEF05F06CEF05F045EF05F053
:100AD8006D516E11D8B473EF05F075EF05F083EF23
:100AE80005F06AC052F0030E5216D8B47EEF05F036
:100AF80080EF05F083EF05F06D07D8A06E076F5102
:100B0800526E536A6D51525C5350800A546E6E5146
:100B1800800A5458D8B093EF05F095EF05F09BEF95
:100B280005F06F516D5F000E6E5B9FEF05F0000ED4
:100B38006E6F000E6D6F6D516E11D8B4A6EF05F093
:100B4800A8EF05F0BCEF05F04AC0D9FF4BC0DAFFAB
:100B5800200EDF6E4A4A4B2A6D07D8A06E076D51EA
:100B68006E11D8A4BAEF05F0BCEF05F0A8EF05F0B8
:100B78006AC052F0030E5216D8B4C5EF05F0C7EF9D
:100B880005F0CFEF05F04AC0D9FF4BC0DAFF2D0EB4
:100B9800DF6E4A4A4B2A6FC060F0616B18EF06F0AF
:100BA80060C052F061C053F0D89052365336D89096
:100BB80052365336BD0E5224F66E5D0E5320F76E34
:100BC8000900F5CF09F00900F5CF0AF00900F5CFC3
:100BD8000BF00A00F5CF0CF066C005F067C006F010
:100BE80068C007F069C008F044EC11F005C012F0C5
:100BF80006C013F007C014F008C015F00A0E166EF0
:100C0800000E176E000E186E000E196E26EC12F00C
:100C18001250300F00016F6F4AC0D9FF4BC0DAFF86
:100C28006FC0DFFF4A4A4B2A6007D8A061076029D6
:100C380006E16129D8A423EF06F025EF06F0D4EFEA
:100C480005F04CC0F6FF4DC0F7FF4C4A4D2A08008E
:100C5800F5CF6FF06F51D8A434EF06F036EF06F0F9
:100C6800AEEF03F04AC0D9FF4BC0DAFF000EDF6ECB
:100C78001200000E4C6E4CC040F0416A40BE410666
:100C88003A50050DF10E426E570E436EF350422650
:100C9800F4504322405042264150432242C0F6FFBE
:100CA80043C0F7FF0800F5CF44F0000E4B6E44A098
:100CB80060EF06F062EF06F0B8EF06F03F04D8A444
:100CC80068EF06F06AEF06F082EF06F036504C2423
:100CD8000D6E000E4CBEFF0E37200E6E38504B24A2
:100CE8000F6E000E4BBEFF0E3920106E3BC011F088
:100CF8003CC012F0F3EC0EF018EF07F04C50056E04
:100D0800066A05BE06063FC007F0086A1FEC18F021
:100D180036500524476E37500620486E4B50056EF6
:100D2800066A05BE06063FC007F0086A1FEC18F001
:100D380038500524496E395006204A6E47C01EF0C7
:100D480048C01FF049C020F04AC021F03FC022F03F
:100D5800236A3FC024F0256A3BC026F03CC027F038
:100D680074EC13F018EF07F03B503D1809E13C50C4
:100D78003E18D8B4C2EF06F0C4EF06F018EF07F03B
:100D88003F04D8A4CAEF06F0CCEF06F0E4EF06F073
:100D980036504C240D6E000E4CBEFF0E37200E6EE2
:100DA80038504B240F6E000E4BBEFF0E3920106ECC
:100DB8003DC011F03EC012F0F3EC0EF018EF07F052
:100DC8004C50056E066A05BE06063FC007F0086A65
:100DD8001FEC18F036500524476E37500620486E31
:100DE8004B50056E066A05BE06063FC007F0086A46
:100DF8001FEC18F038500524496E395006204A6E09
:100E080047C01EF048C01FF049C020F04AC021F07A
:100E18003FC022F0236A3FC024F0256A3DC026F077
:100E28003EC027F074EC13F04B2AD89044324B5054
:100E3800800A780FD8A023EF07F025EF07F05BEFC3
:100E480006F04C2A4C50800A7B0FD8A02EEF07F0F2
:100E580030EF07F03FEF06F03B503D1809E13C50FA
:100E68003E18D8B43AEF07F03CEF07F083EF07F0ED
:100E78003F04D8A442EF07F044EF07F064EF07F00F
:100E8800050E3624456E000E3720466E45C017F015
:100E980046C018F038C019F039C01AF045C01BF028
:100EA80046C01CF0070E38241D6E000E39201E6E39
:100EB8003DC01FF03EC020F0C3EC08F083EF07F000
:100EC8003F50050DF3CF40F0F4CF41F036504024A9
:100ED8001E6E375041201F6E38C020F039C021F0F7
:100EE8003FC022F0236A3F50080DF3CF24F0F4CF1F
:100EF80025F03DC026F03EC027F074EC13F0120038
:100F0800AEEF08F0020E066E100E056E0DC007F06B
:100F18000EC008F00EEC17F0020E066E110E056EEC
:100F280011C007F012C008F00EEC17F0020E066EA2
:100F3800120E056E0FC007F010C008F00EEC17F087
:100F4800020E066E130E056E13C007F014C008F0EB
:100F58000EEC17F0020E066E000E056E0DC007F0BF
:100F68000EC008F00EEC17F0020E066E010E056EAC
:100F780013C007F014C008F00EEC17F0C2EF08F029
:100F8800020E066E100E056E1350EF08076E145011
:100F9800D8A0E82A0008086E0EEC17F0020E066EBC
:100FA800110E056E0F50EF08076E1050D8A0E82AF2
:100FB8000008086E0EEC17F0020E066E120E056E93
:100FC8000DC007F00EC008F00EEC17F0020E066E0A
:100FD800130E056E11C007F012C008F00EEC17F0E2
:100FE800020E066E000E056E0F50EF08076E1050C9
:100FF800D8A0E82A0008086E0EEC17F0020E066E5C
:10100800010E056E0DC007F00EC008F00EEC17F0CB
:10101800C2EF08F0020E066E100E056E1150EF08B2
:10102800076E1250D8A0E82A0008086E0EEC17F0D8
:10103800020E066E110E056E0D50EF08076E0E506B
:10104800D8A0E82A0008086E0EEC17F0020E066E0B
:10105800120E056E13508F08076E1450D8A0E82A98
:101068000108086E0EEC17F0020E066E130E056EE0
:101078000F508F08076E1050D8A0E82A0108086E94
:101088000EEC17F0020E066E000E056E0D50EF08FE
:10109800076E0E50D8A0E82A0008086E0EEC17F06C
:1010A800020E066E010E056E0F508F08076E105067
:1010B800D8A0E82A0108086E0EEC17F0C2EF08F075
:1010C800020E066E100E056E0FC007F010C008F075
:1010D8000EEC17F0020E066E110E056E13C007F027
:1010E80014C008F00EEC17F0020E066E120E056E14
:1010F80011508F08076E1250D8A0E82A0108086E10
:101108000EEC17F0020E066E130E056E0D508F08CA
:10111800076E0E50D8A0E82A0108086E0EEC17F0EA
:10112800020E066E000E056E0FC007F010C008F024
:101138000EEC17F0020E066E010E056E0D508F08AC
:10114800076E0E50D8A0E82A0108086E0EEC17F0BA
:10115800C2EF08F07EEC18F0000AD8B486EF07F06A
:10116800010AD8B4C4EF07F0030AD8B40EEF08F0A8
:10117800010AD8B464EF08F0C2EF08F01200175063
:101188001B5C056E18501C58066EA8EC17F005C0BD
:1011980021F006C022F019501D5C056E1A501E5829
:1011A800066EA8EC17F00550215C2250800A236EC9
:1011B8000650800A2358D8A0E4EF08F0E7EF08F0BB
:1011C800010EE8EF08F0000E326E336A3250331029
:1011D800D8B4F1EF08F0F3EF08F00BEF09F017C0FF
:1011E80024F018C025F019C017F01AC018F024C050
:1011F80019F025C01AF01BC026F01CC027F01DC02E
:101208001BF01EC01CF026C01DF027C01EF0175092
:101218001B5C1C50800A216E1850800A2158D8B0D7
:1012280018EF09F01AEF09F032EF09F017C028F0AB
:1012380018C029F01BC017F01CC018F028C01BF0FC
:1012480029C01CF019C02AF01AC02BF01DC019F0D3
:101258001EC01AF02AC01DF02BC01EF017501B5CD0
:10126800346E18501C58356E19501D5C056E1A5096
:101278001E58066EA8EC17F005C02CF006C02DF01D
:1012880034C005F035C006F0000E086E020E076E79
:10129800CBEC0FF005C030F006C031F01D50195CE2
:1012A8001A50800A216E1E50800A2158D8B05FEF6C
:1012B80009F061EF09F067EF09F0000E2F6E010EDB
:1012C8002E6EA7EF09F02E682F68A7EF09F03250AD
:1012D8003310D8B472EF09F074EF09F084EF09F015
:1012E80019C00DF01AC00EF017C00FF018C010F09A
:1012F8001FC011F020C012F0F3EC0EF092EF09F0CD
:1013080017C00DF018C00EF019C00FF01AC010F079
:101318001FC011F020C012F0F3EC0EF02C50305E1C
:101328002D50315A31BE9DEF09F09BEF09F0A5EF22
:1013380009F02E5019262F501A22345030263550D5
:101348003122174A182A17501B5C1C50800A216E3C
:101358001850800A2158D8B0B4EF09F0B6EF09F058
:101368006BEF09F012000E501A6E0DC01BF0020E42
:10137800066E020E056E0DC007F00EC008F00EECEA
:1013880017F00F06000E105A115A125A829000F0E8
:101398000FC013F010C014F011C015F012C016F0F1
:1013A800030EDCEF09F0D8901632153214321332DE
:1013B800E82ED7EF09F013C017F014C018F01B502F
:1013C8001A18D8A4EAEF09F0ECEF09F051EF0AF087
:1013D80006EF0AF0809A00F0808A809A00F0808AEE
:1013E800809A00F0808A809A00F0808A809A00F0C3
:1013F800808A809A00F0808A809A00F0808A809A99
:1014080000F0808A1706D8A01806172806E11828C1
:10141800D8A411EF0AF013EF0AF0EEEF09F00F501D
:10142800030B196E1EEF0AF0809A00F0808A809AEA
:1014380000F0808A19061928D8A425EF0AF027EFAA
:101448000AF018EF0AF076EF0AF01AC081FF809AC6
:1014580000F0808A1BC081FF809A00F0808A1AC041
:1014680081FF809A00F0808A1BC081FF809A00F07B
:10147800808A1AC081FF809A00F0808A1BC081FF91
:10148800809A00F0808A1AC081FF809A00F0808AD2
:101498001BC081FF809A00F0808A1706D8A0180622
:1014A800172806E11828D8A45CEF0AF05EEF0AF0C6
:1014B80029EF0AF00F50030B196E6DEF0AF01AC0EE
:1014C80081FF809A00F0808A1BC081FF809A00F01B
:1014D800808A19061928D8A474EF0AF076EF0AF062
:1014E80063EF0AF08280120011C0D9FF12C0DAFF40
:1014F800DF501E6E114A122A200E1E18D8B487EF2C
:101508000AF089EF0AF078EF0AF0090E1E18D8B42D
:1015180090EF0AF092EF0AF078EF0AF0000E1A6ED8
:10152800000E1B6E000E1C6E000E1D6E000E196E56
:101538002D0E1E18D8A4A3EF0AF0A5EF0AF0B0EFFD
:101548000AF0192A11C0D9FF12C0DAFFDF501E6E47
:10155800114A122ADFEF0AF02B0E1E18D8A4B7EF93
:101568000AF0B9EF0AF0DFEF0AF0A6EF0AF01AC0A6
:1015780005F01BC006F01CC007F01DC008F00A0EDD
:10158800096E000E0A6E000E0B6E000E0C6ED5EC86
:1015980014F01EC015F0D00E1526155005241A6E2D
:1015A800000E06201B6E000E07201C6E000E082081
:1015B8001D6EA6EF0AF01E50C2EC17F0D8B0E7EF88
:1015C8000AF0E9EF0AF0BBEF0AF01950D8B4EFEFD0
:1015D8000AF0F1EF0AF00CEF0BF01AC015F01BC07F
:1015E80016F01CC017F01DC018F0151E161E171E89
:1015F800181E152A000E16221722182215C011F0DF
:1016080016C012F017C013F018C014F014EF0BF046
:101618001AC011F01BC012F01CC013F01DC014F04A
:101628001200AAEC0BF01FC0A8F020C0A9F021C03E
:10163800AAF022C0ABF00001A851A911AA11AB1160
:10164800D8A429EF0BF02BEF0BF036EF0BF0000EC0
:101658000001706F000E716F000E726F000E736FD5
:10166800A9EF0BF0940E4A6E000E4B6E580E4C6E9E
:101678005F0E4D6E70C04EF071C04FF072C050F0EA
:1016880073C051F0A7EC03F0940E186E000E196E9B
:10169800000E1B6E000E1A6E740E1C6E000E1D6E70
:1016A800200E1E6EAEEC12F0FA0E056E000E066EDF
:1016B800000E076E000E086E6FEC17F0740E056EC4
:1016C800000E066EFA0E076E5F0E086EA2EC15F09D
:1016D80005500610D8A473EF0BF075EF0BF09DEFD3
:1016E8000BF070C012F071C013F072C014F073C028
:1016F80015F0F1EC12F0960E056E000E066E000E57
:10170800076E000E086E6FEC17F000EC16F0E80696
:10171800D8A491EF0BF093EF0BF09DEF0BF070C096
:1017280070F071C071F072C072F073C073F0A9EFFD
:101738000BF0A8C012F0A9C013F0AAC014F0ABC0F7
:1017480015F0F1EC12F02BEF0BF01200BA0E186E38
:101758005F0E196E000E1B6E000E1A6E230E1C6EA5
:10176800000E1D6E200E1E6EAEEC12F0230E106ED3
:10177800000E116EE10E126E5F0E136E8EEC10F0FD
:1017880010501110D8B4CBEF0BF0CDEF0BF033EFB6
:101798000CF0230E126E000E136ED10E146E5F0E37
:1017A800156EC8EC0CF012C047F013C048F0000EDC
:1017B800126E000E136E230E146E000E156EC8EC1A
:1017C8000CF012C047F013C048F047504810D8B486
:1017D800F0EF0BF0F2EF0BF033EF0CF047C011F025
:1017E80048C012F078EC0AF011C043F012C044F07F
:1017F80013C045F014C046F0000E496E4950040D60
:10180800E50EF324F66E5D0EF420F76E43500900E2
:10181800F51810E144500900F5180CE1455009008D
:10182800F51808E146500900F518D8A41EEF0CF089
:1018380020EF0CF02AEF0CF043C01FF044C020F05A
:1018480045C021F046C022F03BEF0CF0492A020EB9
:10185800496431EF0CF033EF0CF002EF0CF0000E9E
:101868001F6E000E206E000E216E000E226E1200FA
:1018780040EF0CF00B4A0C2A0BC0D9FF0CC0DAFF62
:10188800200EDE18D8B44BEF0CF04DEF0CF03EEF05
:101898000CF00BC0D9FF0CC0DAFF090EDE18D8B463
:1018A80058EF0CF05AEF0CF03EEF0CF0000E116EF2
:1018B800000E106E000E0F6E0BC0D9FF0CC0DAFFC1
:1018C8002D0EDE18D8A46BEF0CF06DEF0CF072EF54
:1018D8000CF00F2A0B4A0C2A9FEF0CF00BC0D9FF13
:1018E8000CC0DAFF2B0EDE18D8A47DEF0CF07FEFCA
:1018F8000CF09FEF0CF00B4A0C2A9FEF0CF010C075
:1019080005F011C006F0000E086E0A0E076E1FECF7
:1019180018F00BC0D9FF0CC0DAFFDF500D6E0D5068
:101928000526000E0622D00E0524106EFF0E062096
:10193800116E7FEF0CF00BC0D9FF0CC0DAFFDF503F
:10194800C2EC17F0D8B0ABEF0CF0ADEF0CF083EFB2
:101958000CF00F50D8B4B3EF0CF0B5EF0CF0C3EFA8
:101968000CF010C00DF011C00EF00D1E0E1E0D4A29
:101978000E2A0DC00BF00EC00CF0C7EF0CF010C013
:101988000BF011C00CF0120012501310D8A4CFEFB6
:101998000CF0D1EF0CF0D5EF0CF0CAC012F0CBC0B0
:1019A80013F012501310D8A4DCEF0CF0DEEF0CF09B
:1019B800E4EF0CF0000E126E000E136E38EF0DF00F
:1019C80012C00BF013C00CF014C00DF015C00EF0CF
:1019D8000AEC15F00B5012260C50132212C0D9FF36
:1019E80013C0DAFFDF50D8A4FCEF0CF0FEEF0CF0C8
:1019F80009EF0DF0000E0001CA6F000ECB6FCAC0D0
:101A080012F0CBC013F038EF0DF012C00BF013C07A
:101A18000CF014C00DF015C00EF03DEC15F00B5095
:101A280012240001CA6F0C501320CB6FCAC0D9FF13
:101A3800CBC0DAFFDF50D8B424EF0DF026EF0DF05D
:101A480030EF0DF0CAC0D9FFCBC0DAFF000EDF6E51
:101A5800CA4BCB2B34EF0DF0000ECA6F000ECB6FC4
:101A680012C012F013C013F01200A60E186E5F0E0B
:101A7800196E000E1B6E000E1A6E1F0E1C6E000EE5
:101A88001D6E200E1E6EAEEC12F01F0E106E000EB4
:101A9800116ECB0E126E5F0E136E8EEC10F010509E
:101AA8001110D8B45AEF0DF05CEF0DF0A6EF0DF061
:101AB8001F0E126E000E136ED10E146E5F0E156E91
:101AC800C8EC0CF012C03FF013C040F0000E126ECC
:101AD800000E136E1F0E146E000E156EC8EC0CF07F
:101AE80012C03FF013C040F03F504010D8B47FEF11
:101AF8000DF081EF0DF0A6EF0DF03FC012F040C0E1
:101B080013F0FD0E146E5F0E156EC8EC0CF012C0CB
:101B18003FF013C040F0000E126E000E136E1F0E41
:101B2800146E000E156EC8EC0CF012C03FF013C016
:101B380040F03FC00BF040C00CF03CEC0CF00B50F8
:101B4800A7EF0DF0040E1200256E42EC18F00D0EF2
:101B5800246E2D0E236ED80EE82EFED7232EFCD72A
:101B6800242EFAD7000E2D6E000E2C6E000E296E54
:101B7800660E286E03EF0EF0D8902C34F66E2D34D6
:101B8800F76EF10EF6265C0EF7220900F5CF2AF063
:101B98000A00F5CF2BF02C4A2D2AD8902C34F66E5B
:101BA8002D34F76EF10EF6265C0EF7220900F5CFFC
:101BB80026F00A00F5CF27F02C4A2D2A2A2806E11C
:101BC8002B28D8A4EAEF0DF0ECEF0DF0F9EF0DF0AB
:101BD8000D0E246E2D0E236ED80EE82EFED7232E62
:101BE800FCD7242EFAD703EF0EF02AC005F02BC03D
:101BF80006F026C007F027C008F00EEC17F02850B2
:101C08002C1807E129502D18D8A40DEF0EF00FEF6E
:101C18000EF0C0EF0DF021C01EF022C01FF02550BD
:101C28000BEC18F01200D20E00016B6F5E0E6C6F99
:101C3800F80E6E6F1F0E6D6FEDEC10F0000E0001C8
:101C4800906F9051040DE50EF324F66E5D0EF420AE
:101C5800F76E0900F5CF12F00900F5CF13F009006F
:101C6800F5CF14F00A00F5CF15F0F1EC12F000EC06
:101C780016F0E806D8A443EF0EF045EF0EF071EF2A
:101C88000EF0700E4A6E000E4B6E640E4C6E5F0EB8
:101C98004D6E00019051040DE50EF324F66E5D0EB5
:101CA800F420F76E0900F5CF4EF00900F5CF4FF09C
:101CB8000900F5CF50F00A00F5CF51F0A7EC03F07A
:101CC800700E00016B6F000E6C6FF80E6E6F000ED9
:101CD8006D6FEDEC10F085EF0EF0640E056E000EE2
:101CE800066E000E076E000E086E6FEC17F000010E
:101CF800902B020E906583EF0EF085EF0EF025EF26
:101D08000EF01200E1EF0EF009C0F6FF0AC0F7FF6F
:101D1800F86A070EF76403D00800F55005D0F6CF2F
:101D2800E9FFF7CFEAFFEF500009D8B49EEF0EF0B5
:101D3800A0EF0EF0BFEF0EF00BC0F6FF0CC0F7FFE0
:101D48000800F5CF0FF009C0F6FF0AC0F7FFF86AE0
:101D5800070EF76403D00800F55005D0F6CFE9FF69
:101D6800F7CFEAFFEF500F18D8B4BDEF0EF0BFEF72
:101D78000EF0DDEF0EF009C0F6FF0AC0F7FFF86AB3
:101D8800070EF76403D00800F55005D0F6CFE9FF39
:101D9800F7CFEAFFEF500F6E0BC0F6FF0CC0F7FF4E
:101DA8000800F5500F5C096E0A6AD8A00A06F2EF1F
:101DB8000EF0094A0A2A0B4A0C2A0D06D8A00E066C
:101DC8000D2806E10E28D8A4ECEF0EF0EEEF0EF089
:101DD80088EF0EF0000E0A6E000E096E12002DEF4D
:101DE8000FF00DC013F00EC014F00FC015F010C0A6
:101DF80016F041EF0FF00F50F008136E1050D8A0F6
:101E0800E82A0008146E0DC015F00EC016F041EF58
:101E18000FF00D50F008136E0E50D8A0E82A0008F5
:101E2800146E0F509008156E1050D8A0E82A0108BB
:101E3800166E41EF0FF00FC013F010C014F00D50E4
:101E48009008156E0E50D8A0E82A0108166E41EFCA
:101E58000FF07EEC18F0000AD8B4F5EF0EF0010A86
:101E6800D8B4FFEF0EF0030AD8B40DEF0FF0010A53
:101E7800D8B41FEF0FF041EF0FF0020E066E000E00
:101E8800056E13C007F014C008F00EEC17F0020E30
:101E9800066E010E056E15C007F016C008F00EECB0
:101EA80017F0020E066E020E056E11C007F012C082
:101EB80008F00EEC17F0120011C005F012C006F081
:101EC800000E086E000E076E13C009F00A6A8CEC4B
:101ED80017F014C00FF015C010F0C4EC16F0176E10
:101EE8001750D8A47AEF0FF07CEF0FF07FEF0FF0C8
:101EF800000ECAEF0FF00D0E1718D8B486EF0FF0CA
:101F080088EF0FF06DEF0FF00A0E1718D8B48FEFA7
:101F18000FF091EF0FF06DEF0FF0000E166E0D0E33
:101F28001718D8B49AEF0FF09CEF0FF0C9EF0FF025
:101F38001750D8A4A2EF0FF0A4EF0FF0A6EF0FF000
:101F4800C9EF0FF016501124D96E000E1220DA6E68
:101F580017C0DFFF162A13501618D8A4B6EF0FF0D3
:101F6800B8EF0FF0BAEF0FF0C9EF0FF014C00FF091
:101F780015C010F0C4EC16F0176E1750D8A4C7EFB0
:101F88000FF0C9EF0FF093EF0FF016501200000E8C
:101F98000A6E08BED4EF0FF0D2EF0FF0DAEF0FF0B1
:101FA800076C081ED8B0082A010E0A6E06BEE1EFBB
:101FB8000FF0DFEF0FF0E7EF0FF0056C061ED8B05B
:101FC800062A010E0A1A000E0C6E000E0B6E075040
:101FD8000810D8B4F2EF0FF0F4EF0FF01CEF10F088
:101FE800010E096EFCEF0FF0D89007360836092A63
:101FF80008AE01EF10F003EF10F0F8EF0FF0D890F3
:102008000B360C360750055C08500658D8A00FEF61
:1020180010F011EF10F016EF10F00750055E0850A1
:10202800065A0B80D89008320732092E03EF10F0B9
:102038000A50D8B422EF10F024EF10F028EF10F077
:102048000B6C0C1ED8B00C2A0BC005F00CC006F0A7
:102058001200C30E186E5F0E196E000E1B6E000E76
:102068001A6E1F0E1C6E000E1D6E200E1E6EAEEC3C
:1020780012F01F0E106E000E116EDA0E126E5F0E49
:10208800136E8EEC10F010501110D8B44EEF10F003
:1020980050EF10F08CEF10F01F0E126E000E136E42
:1020A800D10E146E5F0E156EC8EC0CF012C03FF026
:1020B80013C040F0000E126E000E136E1F0E146E49
:1020C800000E156EC8EC0CF012C03FF013C040F0C3
:1020D8003F504010D8B473EF10F075EF10F08CEF4C
:1020E80010F03FC012F040C013F0FD0E146E5F0EEA
:1020F800156EC8EC0CF012C03FF013C040F03FC0A2
:102108000BF040C00CF03CEC0CF00B508DEF10F0D5
:10211800000E1200C7EF10F010C009F011C00AF04D
:1021280012C00BF013C00CF012C005F013C006F07B
:102138009DEC16F005C00DF006C00EF086EC0EF012
:1021480009500A10D8A4ABEF10F0ADEF10F0B3EFC0
:1021580010F010C010F011C011F0ECEF10F0010EEB
:102168001024056E000E1120066E12C0F6FF13C073
:10217800F7FF0800F550076E086A33EC13F005C046
:1021880010F006C011F010501110D8B4CEEF10F0B6
:10219800D0EF10F0E8EF10F010C0F6FF11C0F7FF15
:1021A800F86A070EF76403D00800F55005D0F6CF9B
:1021B800E9FFF7CFEAFFEF500009D8A4E6EF10F0E7
:1021C800E8EF10F090EF10F0000E106E000E116E98
:1021D80012004FEC16F005C04FF006C050F0000E8C
:1021E8001F6E000E1E6ECCC020F0CDC021F04FC077
:1021F80022F050C023F0000E256E280E246E080E23
:10220800276E210E266E74EC13F0000E0001616F2C
:10221800020E606F020ECC25626F000ECD21636F37
:102228006BC064F06CC065F06DC066F06EC067F09E
:10223800080E696F210E686F010E6A6F96EC11F037
:102248000A0E0001CC27000ECD23F40E4D6EFF0EB2
:102258004E6E76EC16F04D5005264E5006220001C3
:10226800CC51055CCD510658D8B03DEF11F03FEF89
:1022780011F043EF11F0000ECD6F000ECC6F12007D
:10228800000E0D6E000E0E6E000E0F6E000E106E1C
:1022980009500A100B100C10D8B455EF11F057EF75
:1022A80011F08DEF11F0010E116E61EF11F0D89061
:1022B80009360A360B360C36112A0CAE66EF11F0C9
:1022C80068EF11F05BEF11F0D8900D360E360F362F
:1022D80010360950055C0A5006580B5007580C5028
:1022E8000858D8A07AEF11F07CEF11F085EF11F0C3
:1022F8000950055E0A50065A0B50075A0C50085AE6
:102308000D80D8900C320B320A320932112E68EF48
:1023180011F00DC005F00EC006F00FC007F010C098
:1023280008F01200C6EF11F060C036F061C037F057
:1023380062C038F063C039F064C0F6FF65C0F7FFCB
:10234800F86A070EF76403D00800F55005D0F6CFF9
:10235800E9FFF7CFEAFFEF503A6E66C03BF067C07F
:102368003CF068C03DF069C03EF06AC03FF03DEC0B
:1023780006F000016A51060DF3506027F4506123FE
:10238800644B652B64C0F6FF65C0F7FFF86A070E5B
:10239800F76403D00800F55005D0F6CFE9FFF7CF72
:1023A800EAFFEF500009D8A4DCEF11F0DEEF11F0DE
:1023B80098EF11F01200FF0E066E05686AEC12F035
:1023C8000009D8A4EAEF11F0ECEF11F0EEEF11F0EC
:1023D80025EF12F06F0E116E000E126E200E136EA6
:1023E800000E156E000E146E60EC0FF000018F6F7A
:1023F8008F51D8A402EF12F004EF12F006EF12F09A
:1024080025EF12F06F0E056E000E066EFA0E076EBF
:102418005F0E086EA2EC15F005500610D8A417EF51
:1024280012F019EF12F01BEF12F025EF12F06F0EF9
:1024380000016B6F000E6C6F070E6E6F6D69EDEC2F
:1024480010F012001650171018101910D8B42FEFEA
:1024580012F031EF12F061EF12F0010E1A6E3BEF3D
:1024680012F0D89016361736183619361A2A19AEB9
:1024780040EF12F042EF12F035EF12F01650125CF6
:10248800175013581850145819501558D8A04FEF12
:1024980012F051EF12F059EF12F01650125E175069
:1024A800135A1850145A1950155AD890193218320C
:1024B800173216321A2E42EF12F012C012F013C061
:1024C80013F014C014F015C015F0120005500610D2
:1024D800D8A471EF12F073EF12F077EF12F0030E39
:1024E800066EE80E056E05C007F006C008F0000E7F
:1024F80008BEFF0E096E0A6E0101C95107240B6E52
:10250800CA5108200C6ECB5109200D6ECC510A20FF
:102518000E6EA2EF12F00101C9510B5CCA510C58A2
:10252800CB510D58CC510E58D8B09DEF12F09FEFFB
:1025380012F0A2EF12F0000EADEF12F002010051FE
:102548000119D8B4AAEF12F0ACEF12F08FEF12F025
:10255800010E12004B0E0001C627000EC723C82328
:10256800C9230001C6510101C95D0001C75101011C
:10257800CA590001C8510101CB590001C9510101D3
:10258800CC59D8A0CAEF12F0CCEF12F0B5EF12F088
:10259800C9C1C6F0CAC1C7F0CBC1C8F0CCC1C9F027
:1025A8007BEC18F018C009F019C00AF018C005F043
:1025B80019C006F09DEC16F005500B6E30EC17F0C4
:1025C8001CC011F01DC012F01EC013F01AC014F088
:1025D8001BC015F060EC0FF01200AC98AC84B88604
:1025E800000E056E6C0E066EDC0E076E020E086E8F
:1025F80012C009F013C00AF014C00BF015C00CF09B
:1026080044EC11F005C01AF006C01BF007C01CF01E
:1026180008C01DF01AC016F01BC017F01CC018F037
:102628001DC019F0030E1EEF13F0D890193218329E
:1026380017321632E82E19EF13F016C01AF017C029
:102648001BF018C01CF019C01DF01A06000E1B5A0A
:102658001C5A1D5A1AC0AFFF1BC0B0FF120005C09C
:10266800F6FF06C0F7FFF86A070EF76403D0080004
:10267800F55005D0F6CFE9FFF7CFEAFFEF5007187E
:10268800D8A449EF13F04BEF13F051EF13F005C046
:1026980005F006C006F073EF13F00550096E0650FA
:1026A8000A6E054A062A09C0F6FF0AC0F7FFF86A4B
:1026B800070EF76403D00800F55005D0F6CFE9FF00
:1026C800F7CFEAFFEF500009D8A46DEF13F06FEFD2
:1026D80013F033EF13F0000E056E000E066E1200B5
:1026E8001EC00DF01FC00EF020C00FF021C010F06A
:1026F80022501E24286E23501F20296EFF0E2824E6
:10270800116EFF0E2920126E245020242A6E2550A7
:1027180021202B6EFF0E2A24136EFF0E2B20146E21
:1027280084EC07F026C00DF027C00EF022C005F09B
:1027380023C006F024C007F025C008F01FEC18F0ED
:1027480005C00FF006C010F0116A126AB7EC09F064
:10275800000E1D6E000E1C6ED2EC15F012002DEC52
:1027680010F0416E630E4118D8A4BDEF13F0BFEF0F
:1027780013F0C2EF13F0FF0EEFEF13F0030E4160FA
:10278800C8EF13F0CAEF13F0CDEF13F0000EEFEF20
:1027980013F00A0E4160D3EF13F0D5EF13F0D8EF22
:1027A80013F0010EEFEF13F00F0E4160DEEF13F0A0
:1027B800E0EF13F0E3EF13F0020EEFEF13F0140E57
:1027C8004160E9EF13F0EBEF13F0EEEF13F0030EB7
:1027D800EFEF13F0040E1200080E1D6E210E1C6E92
:1027E800D2EC15F0000E0001616F080E606F010E4B
:1027F800636F860E626F6F0E646F5F0E656FFF0EFC
:10280800676F6669080E696F210E686F020E6A6F3E
:1028180096EC11F0000E186E200E176E000E1A6E50
:10282800000E196E000E1C6E200E1B6E010E1E6E21
:10283800900E1D6EFF0E206E1F68C3EC08F0010E8F
:102848005A6E8F0E596E010E0001CF6F8F0ECE6F2C
:102858001200D39E700ED312FC0ED3169B8EE00E80
:102868009B16070E066E170E056E6A0EE82EFED72B
:10287800052EFCD7062EFAD700D06D966F860B0E64
:10288800926E000E896EF18E000E936E000E8A6EA7
:10289800F00E946E000E8B6EC290CF0EC116C15012
:1028A800F00B0E09C16EC08EC70EC016C050F80BD3
:1028B8000209C06ECF0EB116B192B180A082F28C1F
:1028C800F28E1200F00EF66E300EF76E000EF86EF5
:1028D80000EECEF010EE06F00900F5CFEEFFE55061
:1028E800E150FAE1000EF66E310EF76E000EF86E4A
:1028F8000900F5CF59F00900F5CF5AF002EE00F0C3
:10290800820EEE6AE806FDE101EEADF0200EEE6AF9
:10291800E806FDE100EEB0F01E0EEE6AE806FDE105
:10292800586A576A566A5B905B92000EF86E00010F
:10293800DBEF17F00600D9CF03F0DACF04F0A0A23E
:10294800A8EF14F0AAEF14F0BFEF14F0A1A2AFEFB4
:1029580014F0B1EF14F0BFEF14F0050E0101C92710
:10296800000ECA23CB23CC2332EC18F0160EB36E1C
:10297800000EB26EA1929DAAC4EF14F0C6EF14F037
:10298800CFEF14F09EAACBEF14F0CDEF14F0CFEFF9
:1029980014F070EC15F004C0DAFF03C0D9FF5B92A5
:1029A8001100000E0D6E000E0E6E000E0F6E000E62
:1029B800106E05A0E2EF14F0E4EF14F0ECEF14F061
:1029C80009500D260A500E220B500F220C501022CF
:1029D800D89009360A360B360C36D89008320732AA
:1029E800063205320550061007100810D8A4FFEF6C
:1029F80014F001EF15F0DDEF14F00DC005F00EC076
:102A080006F00FC007F010C008F01200000E116E9B
:102A1800000E106E14EF15F00B4A0C2A104A112AFA
:102A28000BC0D9FF0CC0DAFFDF50D8B41EEF15F089
:102A380020EF15F038EF15F00DC005F00EC006F0C8
:102A48000BC0D9FF0CC0DAFFDF500F6E0F50076EB6
:102A5800086A33EC13F005500610D8A436EF15F0C9
:102A680038EF15F010EF15F010C00BF011C00CF096
:102A78001200000E116E000E106E47EF15F00B4A93
:102A88000C2A104A112A0BC0D9FF0CC0DAFFDF50FC
:102A9800D8B451EF15F053EF15F06BEF15F00DC0EA
:102AA80005F00EC006F00BC0D9FF0CC0DAFFDF50EE
:102AB8000F6E0F50076E086A33EC13F005500610BE
:102AC800D8B469EF15F06BEF15F043EF15F010C0AF
:102AD8000BF011C00CF01200AECF02F0ABA277EFF2
:102AE80015F079EF15F08CEF15F0AB98AB8880A452
:102AF80080EF15F084EF15F0016A012A85EF15F0D3
:102B0800016A0146014680500118FB0B0118806ECE
:102B18000201012B800E0119D8A495EF15F097EF4B
:102B280015F099EF15F0000E016F020E0125D96E10
:102B3800DA6A020EDA2202C0DFFF1200A8EF15F0EF
:102B4800054A062A074A082A07C0F6FF08C0F7FF01
:102B58000800F5CF09F005C0D9FF06C0DAFFDF503D
:102B68000A6E09500A5C0B6E0B50D8A4BEEF15F024
:102B7800C0EF15F0CCEF15F005C0D9FF06C0DAFF9D
:102B8800DF50D8A4CAEF15F0CCEF15F0A4EF15F07C
:102B98000B50056E066A05BE06061200000E0E6E84
:102BA800000E0D6E000E106E000E0F6E4FEC16F03C
:102BB80005C011F006C012F076EC16F005C013F04F
:102BC80006C014F084EC07F01C501D10D8B4EFEFC9
:102BD80015F0F1EF15F0FFEF15F01CC00DF01DC05A
:102BE8000EF0000E0F6E770E106E010E116E000EB5
:102BF800126EB7EC09F01200EE0E186E5F0E196E29
:102C0800000E1B6E000E1A6E1F0E1C6E000E1D6E3F
:102C1800200E1E6EAEEC12F01F0E056E000E066E34
:102C2800FA0E076E5F0E086EA2EC15F0055006103E
:102C3800D8A421EF16F023EF16F026EF16F0010EB8
:102C480027EF16F0000E1200000E086E82AA2FEF72
:102C580016F031EF16F032EF16F0088282A837EF3F
:102C680016F039EF16F03AEF16F008800850D8B48D
:102C780040EF16F044EF16F0076A072A45EF16F002
:102C8800076A074656500718FD0B0718566E08C006
:102C980005F0066A12005DEF16F0000E066EEF0EE4
:102CA800056E75EF16F0010E066E8F0E056E75EF48
:102CB80016F07EEC18F0000AD8B451EF16F0010AAD
:102CC800D8B457EF16F0030AD8B451EF16F0010A3A
:102CD800D8B457EF16F071EF16F0000E066E000E1E
:102CE800056E120084EF16F0010E066E8F0E056E4B
:102CF8009CEF16F0000E066EEF0E056E9CEF16F0B8
:102D08007EEC18F0000AD8B478EF16F0010AD8B4AF
:102D18007EEF16F0030AD8B478EF16F0010AD8B49B
:102D28007EEF16F098EF16F0000E066E000E056E98
:102D3800120005C007F006C008F0A5EF16F0074A14
:102D4800082A07C0F6FF08C0F7FFF86A070EF764FD
:102D580003D00800F55005D0F6CFE9FFF7CFEAFF1A
:102D6800EF500009D8A4BBEF16F0BDEF16F0A3EFA3
:102D780016F00550075C056E06500858066E1200DE
:102D88000FC005F010C006F06AEC12F00009D8A4D4
:102D9800D0EF16F0D2EF16F0D5EF16F0000EE9EFEF
:102DA80016F00201002B800E0019D8A4DEEF16F0F1
:102DB800E0EF16F0E2EF16F0000E006F020E0025AD
:102DC800D96EDA6A020EDA22DF501200AC9CAC8AA5
:102DD800AC98AC96AC84AB8EAB9CAB88B886B892FA
:102DE800B890040EB06EE10EAF6E9D8A000E02011F
:102DF800006F000E016F020E056E020E066E000EC9
:102E0800086E000E076E000E0A6E800E096E8CECBE
:102E180017F01200829000F082920650096E05C0E9
:102E28000AF009C081FF809A00F0808A0AC081FFF9
:102E3800809A00F0808A828208500B6E07C00CF0DE
:102E48000BC081FF809A00F0808A0CC081FF809AB5
:102E580000F0808A8280120046EF17F009C0F6FF62
:102E68000AC0F7FFF86A070EF76403D00800F550A8
:102E780005D0F6CFE9FFF7CFEAFFEF506CEC18F07A
:102E8800094A0A2A0B060B28D8A44DEF17F04FEF72
:102E980017F032EF17F01200080E1D6E210E1C6E8F
:102EA800D2EC15F0000E0001616F460E606F010E46
:102EB800636F6A0E626F4F0E646F5E0E656FFF0E72
:102EC800676F6669080E696F210E686F020E6A6F78
:102ED80096EC11F0120005500101C925096E065043
:102EE800CA210A6E0750CB210B6E0850CC210C6EFC
:102EF8000950C95D0A50CA590B50CB590C50CC59CE
:102F0800D8A089EF17F08BEF17F07CEF17F01200BD
:102F180005C00BF006C00CF09AEF17F00BC0D9FFF4
:102F28000CC0DAFF07C0DFFF0B4A0C2A0906D8A03D
:102F38000A06092806E10A28D8A4A5EF17F0A7EF82
:102F480017F092EF17F0120006BEAFEF17F0ADEFD3
:102F580017F0BDEF17F005C007F006C008F0071E10
:102F6800081E074A082A07C005F008C006F0C1EF86
:102F780017F005C005F006C006F01200076E000E37
:102F8800066E3A0E0760CBEF17F0CDEF17F0D7EFCC
:102F980017F02F0E0764D3EF17F0D5EF17F0D7EF20
:102FA80017F0010E066E06C005F0053012002DEC74
:102FB80014F0080E226E210E216E000EA8EC0DF002
:102FC800EAEC16F0F3EC17F0000E51EC18F05FEC99
:102FD80018F009EC00F0EDEF17F007EF00F028EC1F
:102FE80016F005500610D8A4FCEF17F0FEEF17F006
:102FF80002EF18F0F0EC13F004EF18F050EC17F0B3
:10300800000E0001BC6F000EC16FC28D1200206E51
:10301800030E206412EF18F014EF18F016EF18F0F2
:10302800000E206E20C058F01EC01CF01FC01DF0FE
:10303800D2EC15F0120005500702F3CF09F0F4CFD7
:103048000AF005500802F3500A2606500702F3500A
:103058000A2609C005F00AC006F01200010E016E2A
:103068005750070B026E0150022657500218F80BF2
:103078000218576E0001C52B56881200000E936E79
:103088008280808A80888294200E056E2A0EE82E1F
:10309800FED7052EFCD782841200216E000E000197
:1030A800CD6F000ECC6F080E1F6E210E1E6E2150C4
:1030B8000BEC18F01200880E056E130E066E000E4B
:1030C800076E000E086E6FEC17F017EC0EF012008A
:1030D800056E9EA872EF18F074EF18F06DEF18F0F7
:1030E80005C0ADFF00F012008F01EF00EF0001C234
:0A30F80000F21200585012008F0180
:1057F0000000000000003E5B4F5B3E3E6B4F6B3E87
:105800001C3E7C3E1C183C7E3C181C577D571C1CC3
:105810005E7F5E1C00183C1800FFE7C3E7FF00181E
:10582000241800FFE7DBE7FF30483A060E26297907
:105830002926407F050507407F05253F5A3CE73C68
:105840005A7F3E1C1C08081C1C3E7F14227F221419
:105850005F5F005F5F06097F017F006689956A6070
:105860006060606094A2FFA29408047E0408102087
:105870007E201008082A1C08081C2A08081E101080
:1058800010100C1E0C1E0C30383E3830060E3E0E2A
:1058900006000000000000005F0000000700070095
:1058A000147F147F14242A7F2A122313086462367B
:1058B000495620500008070300001C224100004107
:1058C000221C002A1C7F1C2A08083E080800807041
:1058D0003000080808080800006060002010080474
:1058E000023E5149453E00427F40007249494946C7
:1058F0002141494D331814127F1027454545393C45
:105900004A49493141211109073649494936464931
:1059100049291E0000140000004034000000081453
:1059200022411414141414004122140802015909CC
:10593000063E415D594E7C1211127C7F4949493621
:105940003E414141227F4141413E7F494949417F9A
:10595000090909013E414151737F0808087F004150
:105960007F41002040413F017F081422417F404099
:1059700040407F021C027F7F0408107F3E4141416E
:105980003E7F090909063E4151215E7F09192946DA
:10599000264949493203017F01033F4040403F1FF0
:1059A0002040201F3F4038403F6314081463030425
:1059B0007804036159494D43007F41414102040885
:1059C0001020004141417F04020102044040404058
:1059D00040000307080020545478407F284444388E
:1059E0003844444428384444287F385454541800D8
:1059F000087E090218A4A49C787F08040478004457
:105A00007D40002040403D007F1028440000417F41
:105A100040007C047804787C0804047838444444CA
:105A200038FC1824241818242418FC7C08040408C2
:105A3000485454542404043F44243C4040207C1CDB
:105A40002040201C3C4030403C44281028444C90CE
:105A500090907C4464544C44000836410000007728
:105A60000000004136080002010204023C26232601
:105A70003C1EA1A161123A4040207A385454555935
:105A8000215555794122545478422155547840206B
:105A9000545579400C1E5272123955555559395486
:105AA00054545939555454580000457C410002451E
:105AB0007D420001457C407D1211127DF028252891
:105AC000F07C545545002054547C547C0A097F498D
:105AD00032494949323A4444443A324A4848303AD1
:105AE0004141217A3A42402078009DA0A07D3D426C
:105AF00042423D3D4040403D3C24FF2424487E49F5
:105B000043662B2FFC2F2BFF0929F620C0887E0926
:105B10000320545479410000447D413048484A32C2
:105B2000384040227A007A0A0A727D0D19317D26AA
:105B300029292F28262929292630484D4020380890
:105B400008080808080808382F10C8ACBA2F102811
:105B500034FA00007B000008142A142222142A14AC
:105B6000085500550055AA55AA55AAFF55FF55FFDF
:105B7000000000FF00101010FF00141414FF0010AC
:105B800010FF00FF1010F010F0141414FC00141497
:105B9000F700FF0000FF00FF1414F404FC141417B6
:105BA000101F10101F101F1414141F00101010F0DD
:105BB000000000001F101010101F10101010F01027
:105BC000000000FF101010101010101010FF100037
:105BD0000000FF140000FF00FF00001F101700006E
:105BE000FC04F414141710171414F404F40000FF48
:105BF00000F714141414141414F700F714141417E1
:105C00001410101F101F141414F4141010F010F0BE
:105C100000001F101F0000001F14000000FC1400F3
:105C200000F010F01010FF10FF141414FF141010E7
:105C3000101F00000000F010FFFFFFFFFFF0F0F06A
:105C4000F0F0FFFFFF0000000000FFFF0F0F0F0F3D
:105C50000F3844443844FC4A4A4A347E020206065D
:105C6000027E027E0263554941633844443C04404D
:105C70007E201E2006027E020299A5E7A5991C2A15
:105C8000492A1C4C7201724C304A4D4D30304878D4
:105C90004830BC625A463D3E494949007E010101F7
:105CA0007E2A2A2A2A2A44445F444440514A4440D6
:105CB00040444A51400000FF0103E080FF0000081B
:105CC000086B6B083612362436060F090F060000E3
:105CD00018180000001010003040FF0101001F01E3
:105CE000011E00191D1712003C3C3C3C0000000046
:105CF0000002070830050736000B071312010000E9
:105D00000102000001030030100800020209000037
:105D1000000C0000000F0000000001000002010064
:105D20000003010000FFFF010000019011010127A5
:105D300002FFFF01000201BD01FFFF01000301009E
:105D40002D81020E00FFFF01000002000001020091
:105D50000000030000010307070203060605030015
:105D6000000603000D0703060708030500090307E3
:105D7000000C0300000D030A00100200001102EFE6
:105D8000001202000013028F01000400310104011F
:105D900000040400000005000001050000020500E9
:105DA00000030500000405000005050000100010B8
:105DB000001100000620000200070073010100002E
:105DC000000A00000064000000E803000010270043
:105DD00000A086010040420F008096980000E1F587
:105DE0000500CA9A3B8025000000E1000000C201C6
:105DF000001414000000000000F8F001FCF903FC9E
:105E0000FF03FEFF07FEFF07FEFF07FEFF07FCFF85
:105E100003FCFF03F8FF01F0FF00E07F00C03F003C
:105E2000801F00000F000006000000000000004975
:105E30006E76616C69642063757272656E7420623F
:105E400061756420726174652028256C7529002AAB
:105E50002A2A20436F6C6C656761726520656C65EA
:105E60007474726F6469202A2A2A00426175642062
:105E700072617465206368616E67656420282D3ED9
:105E800020256C752900436865636B206E65747707
:105E90006F726B20726567697374726174696F6E7B
:105EA000004572726F72206368616E67696E672069
:105EB000626175642072617465004E6574776F72FB
:105EC0006B207374617475733A20257520282573CF
:105ED0002900446574656374696E67206261756446
:105EE00020726174652E2E2E004368616E676520F6
:105EF0006261756420726174652028256C752900C3
:105F0000436F6D6D20697320646561642E20526556
:105F10007472792E2E2E005175616C6974793A2055
:105F200025753B204C6576656C3A202564004368F6
:105F300065636B20626175642072617465005265EF
:105F40007375727265637465642100536561726371
:105F500068696E672E2E2E0041542B4950523D2504
:105F60006C750D00256C7520464F554E442100463A
:105F700072657175656E7A613A00436865636B207E
:105F800052535349005374696C6C2064656164001A
:105F90005265676973746572656400436865636B15
:105FA0002074696D650041542B435245473F0D00F5
:105FB00041542B43434C4B3F0D0041542B4950520D
:105FC0003F0D0041542B4353510D002B4352454785
:105FD0003A2000286E756C6C29002B4353513A20EF
:105FE000002B4950523A20004F74686572004154AA
:105FF0000D0025336400256C75004F4B002C00000C
:020000040020DA
:08000000FFFFFFFFFFFFFFFF00
:020000040030CA
:0E000000200E011EFF0180FF0FC00FE00F4019
:00000001FF
