:020000040000FA
:0400000007EF00F016
:100008005B8207ED0FF0CFEF0CF001010F510E11DD
:100018000BE1210E0C5D4E0E0D59D8A016EF00F025
:1000280018EF00F079EF01F0E00E0C250001B06F39
:10003800B10E01010D210001B16FFF0E01010E216A
:100048000001B26FFF0E01010F210001B36FB05123
:100058000101005D0001B151010101590001B251D6
:10006800010102590001B35101010359D8B03FEF12
:1000780000F041EF00F079EF01F00CC100F10DC183
:1000880001F10EC102F10FC103F1B40E0001606F5E
:10009800010E616F6B0E626F5F0E636FF8EC06F016
:1000A80023C064F024C065F025C066F026C067F060
:1000B8004FEC02F0B40E4A6E010E4B6EFF0E4D6E01
:1000C800E00E4C6E0FEC10F0000E0101D86F000E20
:1000D800D96F000EDA6F000EDB6FD5EF00F0000E5F
:1000E8000001746FC20E756F010E766F000E776F88
:1000F800A9EC07F074C0D8F175C0D9F176C0DAF16F
:1001080077C0DBF110EF01F0800E0001746F250E4F
:10011800756F000E766F000E776FA9EC07F074C04C
:10012800D8F175C0D9F176C0DAF177C0DBF110EFFC
:1001380001F0000E0001746FE10E756F000E766F0E
:10014800000E776FA9EC07F074C0D8F175C0D9F12B
:1001580076C0DAF177C0DBF110EF01F0B40E0001E0
:10016800606F010E616FF90E626F5E0E636FF8ECDF
:1001780006F023C064F024C065F025C066F026C0F0
:1001880067F04FEC02F0B40E4A6E010E4B6EFF0E94
:100198004D6EE00E4C6E0FEC10F0A8EC0AF010EF6C
:1001A80001F0F8EC06F02650000AD8B405EF01F08B
:1001B800B2EF00F02450250AD8B4E9EF00F0C40AE1
:1001C800D8B4F0EF00F0B2EF00F02350800AD8B4B2
:1001D8009DEF00F0B2EF00F02350000AD8B473EF9F
:1001E80000F0B2EF00F02450C20AD8B4FEEF00F0DD
:1001F800B2EF00F02350000AD8B488EF00F0B2EF55
:1002080000F02550000AD8B4DEEF00F0010AD8B497
:10021800F7EF00F0B2EF00F0B40E0001606F010ECE
:10022800616F150E626F5F0E636FD8C164F0D9C13C
:1002380065F0DAC166F0DBC167F04FEC02F001014E
:10024800D851D911DA11DB11D8B42DEF01F02FEF05
:1002580001F035EF01F0B40ED46F010ED56F39EF10
:1002680001F0430ED46F5F0ED56FD4C14AF0D5C1EB
:100278004BF0F80E4D6E1F0E4C6E0FEC10F01AEC92
:100288000EF00009D8A44BEF01F04DEF01F079EF23
:1002980001F02C0E4A6E5F0E4B6E000E4D6E1F0E57
:1002A8004C6E0FEC10F0A8EC0AF01AEC0EF00009F6
:1002B800D8B461EF01F063EF01F06AEF01F07E0E50
:1002C8000101D66F5F0ED76F6FEF01F0B90E010114
:1002D800D66F5F0ED76FD6C14AF0D7C14BF0000E6C
:1002E8004D6E1F0E4C6E0FEC10F001010F510E11E8
:1002F8000BE1C50E0C5D090E0D59D8A086EF01F073
:1003080088EF01F0E5EF01F03C0E0C250001B06F1D
:10031800F60E01010D210001B16FFF0E01010E2142
:100328000001B26FFF0E01010F210001B36FB05140
:100338000101085D0001B151010109590001B251E3
:1003480001010A590001B35101010B59D8B0AFEFAF
:1003580001F0B1EF01F0E5EF01F00CC108F10DC1BA
:1003680009F10EC10AF10FC10BF1C40E4A6E5F0EFE
:100378004B6EFF0E4D6EE00E4C6E0FEC10F0CF0E74
:10038800136E5F0E146EF80E156E5F0E166EFB0E72
:10039800176E5F0E186E000E1A6E000E196E740E30
:1003A8001B6E010E1C6E200E1D6EEDEC08F0740E17
:1003B8004A6E010E4B6E070E4D6EE00E4C6E0FEC42
:1003C80010F001010F510E110BE1A10E0C5D0F0E83
:1003D8000D59D8A0F2EF01F0F4EF01F04EEF02F062
:1003E800600E0C250001B06FF00E01010D21000117
:1003F800B16FFF0E01010E210001B26FFF0E010166
:100408000F210001B36FB0510101045D0001B1512A
:10041800010105590001B251010106590001B3510A
:1004280001010759D8B01BEF02F01DEF02F04EEFA3
:1004380002F00CC104F10DC105F10EC106F10FC1A6
:1004480007F1970E4A6E5F0E4B6EFF0E4D6EE00E73
:100458004C6E0FEC10F0940E0001606F010E616F8E
:10046800F10E626F5F0E636FF8EC06F023C064F064
:1004780024C065F025C066F026C067F04FEC02F096
:10048800940E4A6E010E4B6EF80E4D6E000E4C6EB9
:100498000FEC10F01200640E00016E6F000E6F6F0B
:1004A80031EF04F0250E7319D8B45DEF02F05FEF59
:1004B80002F069EF02F060C0D9FF61C0DAFF73C0D3
:1004C800DFFF604B612B31EF04F0000E726F000EFE
:1004D800716F000E706F62C0F6FF63C0F7FF08000F
:1004E800F550D3EC11F0D8A07CEF02F07EEF02F0CB
:1004F800BFEF02F0000E0001726F000E716F71C045
:1005080005F072C006F0000E086E0A0E076E19ECB0
:1005180012F005C071F006C072F0D00E4F6EFF0EDB
:10052800506E62C0F6FF63C0F7FF0800F550516EC9
:10053800526A4F5051265050522251500001712793
:1005480052507223624B632B62C0F6FF63C0F7FF01
:100558000800F550D3EC11F0D8B0B5EF02F0B7EFC2
:1005680002F083EF02F0BFEF02F07089BFEF02F0F4
:10057800708DE0EF02F062C0F6FF63C0F7FF000184
:10058800624B632B0800F5CF73F07351000AD8B49F
:1005980042EF04F0640AD8B4E0EF02F00D0AD8B4D0
:1005A800E0EF02F0050AD8B4B9EF02F0190AD8B49E
:1005B800BCEF02F031EF04F070BDE5EF02F0E7EFB9
:1005C80002F024EF03F070A9ECEF02F0EEEF02F076
:1005D80000EF03F06EC0D9FF6FC0DAFFDECF6AF01C
:1005E800DECF6BF0DECF6CF0DECF6DF0040E6E2741
:1005F800000E6F2311EF03F06EC0D9FF6FC0DAFF52
:10060800DECF6AF0DDCF6BF0000E6BBFFF0E6C6FB4
:100618006D6F020E6E27000E6F236DBF18EF03F08B
:1006280016EF03F04FEF03F0030E70136D1F6C1FEE
:100638006B1F6A6D000E6B236C236D234FEF03F065
:1006480070A929EF03F02BEF03F03DEF03F06EC024
:10065800D9FF6FC0DAFFDECF6AF0DECF6BF0DECFF6
:100668006CF0DECF6DF0040E6E27000E6F234FEF97
:1006780003F06EC0D9FF6FC0DAFFDECF4FF0DDCFD9
:1006880050F04FC06AF050C06BF06C6B6D6B020E8F
:100698006E27000E6F23010E736F7351040D6B0EDE
:1006A800F324F66E5E0EF420F76E0900F5506A5DCD
:1006B8000900F5506B590900F5506C590900F550BF
:1006C8006D59D8B06AEF03F06CEF03F06EEF03F0EA
:1006D80078EF03F0732B0A0E7319D8A476EF03F0A2
:1006E80078EF03F051EF03F071517211D8B47FEF36
:1006F80003F081EF03F08FEF03F070C04FF0030EAB
:100708004F16D8B48AEF03F08CEF03F08FEF03F0A5
:100718007107D8A0720773514F6E506A71514F5CC0
:100728005050800A516E7251800A5158D8B09FEFCC
:1007380003F0A1EF03F0A7EF03F07351715F000E10
:10074800725BABEF03F0000E726F000E716F7151A8
:100758007211D8B4B2EF03F0B4EF03F0C8EF03F0AE
:1007680060C0D9FF61C0DAFF200EDF6E604B612BDD
:100778007107D8A0720771517211D8A4C6EF03F09F
:10078800C8EF03F0B4EF03F070C04FF0030E4F163C
:10079800D8B4D1EF03F0D3EF03F0DBEF03F060C080
:1007A800D9FF61C0DAFF2D0EDF6E604B612B73C07D
:1007B80068F0696B24EF04F068C04FF069C050F02E
:1007C800D8904F365036D8904F3650366B0E4F244F
:1007D800F66E5E0E5020F76E0900F5CF09F009009D
:1007E800F5CF0AF00900F5CF0BF00A00F5CF0CF0B1
:1007F8006AC005F06BC006F06CC007F06DC008F069
:1008080035EC0CF005C012F006C013F007C014F068
:1008180008C015F00A0E166E000E176E000E186E40
:10082800000E196E16EC0DF01250300F0001736FA8
:1008380060C0D9FF61C0DAFF73C0DFFF604B612B76
:100848006807D8A06907682906E16929D8A42FEFA5
:1008580004F031EF04F0E0EF03F062C0F6FF63C08C
:10086800F7FF624B632B0800F5CF73F07351D8A4E0
:1008780040EF04F042EF04F056EF02F060C0D9FFF9
:1008880061C0DAFF000EDF6E1200000E3E6E3EC041
:1008980034F0356A34BE35062E50050D9F0E366E7F
:1008A800580E376EF3503626F45037223450362619
:1008B8003550372236C0F6FF37C0F7FF0800F5CFAE
:1008C80038F0000E3D6E38A06CEF04F06EEF04F0C7
:1008D800C7EF04F03304D8A474EF04F076EF04F003
:1008E80091EF04F02A503D240D6E000E3DBEFF0E20
:1008F8002B200E6E3EC034F0356A34BE35063450B7
:100908002C5C0F6E35502D58106E2FC011F030C072
:1009180012F043EC11F02AEF05F03D50056E066A1F
:1009280005BE060633C007F0086A19EC12F02A5013
:100938000524396E2B5006203A6E3E50056E066A25
:1009480005BE060633C007F0086A19EC12F0055018
:100958002C5C3B6E06502D583C6E39C01CF03AC0DA
:100968001DF03BC01EF03CC01FF033C020F0216AD0
:1009780033C022F0236A2FC024F030C025F093EC56
:100988000EF02AEF05F02F50311809E130503218D7
:10099800D8B4D1EF04F0D3EF04F02AEF05F0330414
:1009A800D8A4D9EF04F0DBEF04F0F6EF04F02A50F6
:1009B8003D240D6E000E3DBEFF0E2B200E6E3EC078
:1009C80034F0356A34BE350634502C5C0F6E355021
:1009D8002D58106E31C011F032C012F043EC11F0F6
:1009E8002AEF05F03D50056E066A05BE060633C0BF
:1009F80007F0086A19EC12F02A500524396E2B50BA
:100A080006203A6E3E50056E066A05BE060633C0DD
:100A180007F0086A19EC12F005502C5C3B6E065082
:100A28002D583C6E39C01CF03AC01DF03BC01EF07A
:100A38003CC01FF033C020F0216A33C022F0236A83
:100A480031C024F032C025F093EC0EF03D2AD89046
:100A580038323D50800A780FD8A035EF05F037EFCF
:100A680005F067EF04F03E2A3E50800A7B0FD8A0BD
:100A780040EF05F042EF05F04BEF04F01200135081
:100A8800175C056E14501858066EB9EC11F005C0C5
:100A98001DF006C01EF01550195C056E16501A5848
:100AA800066EB9EC11F005501D5C1E50800A1F6ED1
:100AB8000650800A1F58D8A064EF05F067EF05F0CC
:100AC800010E68EF05F0000E2E6E2F6A2E502F10C3
:100AD800D8B471EF05F073EF05F08BEF05F013C094
:100AE80020F014C021F015C013F016C014F020C077
:100AF80015F021C016F017C022F018C023F019C055
:100B080017F01AC018F022C019F023C01AF01350B9
:100B1800175C1850800A1D6E1450800A1D58D8B0F2
:100B280098EF05F09AEF05F0B2EF05F013C024F046
:100B380014C025F017C013F018C014F024C017F023
:100B480025C018F015C026F016C027F019C015F0FA
:100B58001AC016F026C019F027C01AF01350175CF7
:100B6800306E14501858316E1550195C056E1650B9
:100B78001A58066EB9EC11F005C028F006C029F025
:100B880030C005F031C006F0000E086E020E076E88
:100B980015EC0BF005C02CF006C02DF01950155CB3
:100BA8001650800A1D6E1A50800A1D58D8B0DFEF03
:100BB80005F0E1EF05F0E7EF05F0000E2B6E010EF2
:100BC8002A6E27EF06F02A682B6827EF06F02E50CA
:100BD8002F10D8B4F2EF05F0F4EF05F004EF06F0AB
:100BE80015C00DF016C00EF013C00FF014C010F0B1
:100BF8001BC011F01CC012F043EC11F012EF06F00C
:100C080013C00DF014C00EF015C00FF016C010F090
:100C18001BC011F01CC012F043EC11F028502C5EE0
:100C280029502D5A2DBE1DEF06F01BEF06F025EFBB
:100C380006F02A5015262B50162230502C263150FB
:100C48002D22134A142A1350175C1850800A1D6E5F
:100C58001450800A1D58D8B034EF06F036EF06F06D
:100C6800EBEF05F012000E501A6E0DC01BF0020ECD
:100C7800066E020E056E0DC007F00EC008F0E0EC1F
:100C880010F00F06000E105A115A125A829000F0F6
:100C98000FC013F010C014F011C015F012C016F0F8
:100CA800030E5CEF06F0D890163215321432133268
:100CB800E82E57EF06F013C017F014C018F01B50B9
:100CC8001A18D8A46AEF06F06CEF06F0D1EF06F018
:100CD80086EF06F0809A00F0808A809A00F0808A79
:100CE800809A00F0808A809A00F0808A809A00F0CA
:100CF800808A809A00F0808A809A00F0808A809AA0
:100D080000F0808A1706D8A01806172806E11828C8
:100D1800D8A491EF06F093EF06F06EEF06F00F50AF
:100D2800030B196E9EEF06F0809A00F0808A809A75
:100D380000F0808A19061928D8A4A5EF06F0A7EFB5
:100D480006F098EF06F0F6EF06F01AC081FF809AD9
:100D580000F0808A1BC081FF809A00F0808A1AC048
:100D680081FF809A00F0808A1BC081FF809A00F082
:100D7800808A1AC081FF809A00F0808A1BC081FF98
:100D8800809A00F0808A1AC081FF809A00F0808AD9
:100D98001BC081FF809A00F0808A1706D8A0180629
:100DA800172806E11828D8A4DCEF06F0DEEF06F0D5
:100DB800A9EF06F00F50030B196EEDEF06F01AC0FD
:100DC80081FF809A00F0808A1BC081FF809A00F022
:100DD800808A19061928D8A4F4EF06F0F6EF06F071
:100DE800E3EF06F082801200050E476E97EF07F0DA
:100DF800D90E136E5F0E146EF80E156E5F0E166E1A
:100E0800FB0E176E5F0E186E000E1A6E000E196E2E
:100E1800270E1B6E000E1C6E200E1D6EEDEC08F0EA
:100E2800270E106E000E116EE20E126E5F0E136E1C
:100E380077EC0BF010501110D8B425EF07F027EF1E
:100E480007F08DEF07F0270E126E000E136EE70EF7
:100E5800146E5F0E156E5DEC09F012C04CF013C0F5
:100E68004DF0000E126E000E136E270E146E000E5B
:100E7800156E5DEC09F012C04CF013C04DF04C50EB
:100E88004D10D8B44AEF07F04CEF07F08DEF07F09C
:100E98004CC011F04DC012F050EC08F011C048F0F1
:100EA80012C049F013C04AF014C04BF0000E4E6E49
:100EB8004E50040D930EF324F66E5E0EF420F76E7A
:100EC80048500900F51810E149500900F5180CE1DF
:100ED8004A500900F51808E14B500900F518D8A444
:100EE80078EF07F07AEF07F084EF07F048C023F0B7
:100EF80049C024F04AC025F04BC026F0A8EF07F0FF
:100F08004E2A020E4E648BEF07F08DEF07F05CEF70
:100F180007F0FA0E056E000E066E000E076E000E44
:100F2800086E80EC11F047064728D8A49EEF07F01A
:100F3800A0EF07F0FCEF06F0000E236E000E246E03
:100F4800000E256E000E266E1200F8EC06F023C087
:100F5800ACF024C0ADF025C0AEF026C0AFF0000163
:100F6800AC51AD11AE11AF11D8A4BDEF07F0BFEF72
:100F780007F0CAEF07F0000E0001746F000E756FDE
:100F8800000E766F000E776F4FEF08F0980E606FC7
:100F9800000E616F8B0E626F5F0E636F74C064F03A
:100FA80075C065F076C066F077C067F04FEC02F068
:100FB800980E136E000E146EF80E156E5F0E166EF8
:100FC800FB0E176E5F0E186E000E1A6E000E196E6D
:100FD800780E1B6E000E1C6E200E1D6EEDEC08F0D8
:100FE800980E4A6E000E4B6E070E4D6EE00E4C6E5C
:100FF8000FEC10F0780E4A6E000E4B6E070E4D6E19
:10100800E00E4C6E0FEC10F0780E056E000E066EBA
:10101800F50E076E5F0E086E3FEC10F005500610D7
:10102800D8A419EF08F01BEF08F043EF08F074C0DC
:1010380012F075C013F076C014F077C015F05AECB2
:101048000DF0960E056E000E066E000E076E000E71
:10105800086E80EC11F01AEC0EF0E806D8A437EF11
:1010680008F039EF08F043EF08F074C074F075C069
:1010780075F076C076F077C077F04FEF08F0ACC027
:1010880012F0ADC013F0AEC014F0AFC015F05AECBA
:101098000DF0BFEF07F0120011C0D9FF12C0DAFF40
:1010A800DF501E6E114A122A200E1E18D8B45FEFA8
:1010B80008F061EF08F050EF08F0090E1E18D8B4D8
:1010C80068EF08F06AEF08F050EF08F0000E1A6EAB
:1010D800000E1B6E000E1C6E000E1D6E000E196EAB
:1010E8002D0E1E18D8A47BEF08F07DEF08F088EFCE
:1010F80008F0192A11C0D9FF12C0DAFFDF501E6E9E
:10110800114A122AB7EF08F02B0E1E18D8A48FEF39
:1011180008F091EF08F0B7EF08F07EEF08F01AC07A
:1011280005F01BC006F01CC007F01DC008F00A0E31
:10113800096E000E0A6E000E0B6E000E0C6E74EC3B
:101148000FF01EC015F0D00E1526155005241A6E86
:10115800000E06201B6E000E07201C6E000E0820D5
:101168001D6E7EEF08F01E50D3EC11F0D8B0BFEF23
:1011780008F0C1EF08F093EF08F01950D8B4C7EFA2
:1011880008F0C9EF08F0E4EF08F01AC015F01BC02A
:1011980016F01CC017F01DC018F0151E161E171EDD
:1011A800181E152A000E16221722182215C011F033
:1011B80016C012F017C013F018C014F0ECEF08F0C6
:1011C8001AC011F01BC012F01CC013F01DC014F09F
:1011D800120019501A10D8A4F4EF08F0F6EF08F02E
:1011E800FAEF08F0030E1A6EE80E196E1BC005F030
:1011F8001CC006F0000E086E000E076E1DC009F038
:101208000A6A9DEC11F012C111F113C009F014C063
:101218000AF013C005F014C006F096EC10F0055063
:101228000B6E23EC11F0195001010C251F6E1A509A
:101238000D21206E000E0E21216E000E0F21226E50
:1012480037EF09F00C511F5C0D5120580E512158F1
:101258000F512258D8B033EF09F035EF09F037EFC6
:1012680009F05CEF09F012511119D8B43EEF09F0FA
:1012780040EF09F026EF09F0112B140E1125D96E55
:10128800DA6A010EDA220A0EDE18D8A44EEF09F047
:1012980050EF09F017EF09F01BC005F01CC006F06D
:1012A8001DC007F019C008F01AC009F0D6EC0BF001
:1012B800120012501310D8A464EF09F066EF09F079
:1012C8006AEF09F053C012F054C013F01250131013
:1012D800D8A471EF09F073EF09F079EF09F0000E67
:1012E800126E000E136ECBEF09F012C00BF013C094
:1012F8000CF014C00DF015C00EF0A9EC0FF00B5057
:1013080012260C50132212C0D9FF13C0DAFFDF5087
:10131800D8A491EF09F093EF09F09DEF09F0000EC2
:10132800536E000E546E53C012F054C013F0CBEF3E
:1013380009F012C00BF013C00CF014C00DF015C06A
:101348000EF0DCEC0FF00B501224536E0C501320EF
:10135800546E53C0D9FF54C0DAFFDF50D8B4B7EF8A
:1013680009F0B9EF09F0C3EF09F053C0D9FF54C031
:10137800DAFF000EDF6E534A542AC7EF09F0000E59
:10138800536E000E546E12C012F013C013F0120008
:101398005FEC12F00D0E1F6E2D0E1E6ED80EE82E8D
:1013A800FED71E2EFCD71F2EFAD7000E276E000E72
:1013B800266E000E236E660E226E26EF0AF0D89077
:1013C8002634F66E2734F76E9F0EF6265D0EF7224A
:1013D8000900F5CF24F00A00F5CF25F0264A272A80
:1013E800D8902634F66E2734F76E9F0EF6265D0EDB
:1013F800F7220900F5CF20F00A00F5CF21F0264AA0
:10140800272A242806E12528D8A40DEF0AF00FEF93
:101418000AF01CEF0AF00D0E1F6E2D0E1E6ED80E70
:10142800E82EFED71E2EFCD71F2EFAD726EF0AF07D
:1014380024C005F025C006F020C007F021C008F040
:10144800E0EC10F02250261807E123502718D8A402
:1014580030EF0AF032EF0AF0E3EF09F02CEC12F06B
:10146800000E1D6E000E1C6EBDEC10F0120096EF03
:101478000AF009C0F6FF0AC0F7FFF86A070EF7641A
:1014880003D00800F55005D0F6CFE9FFF7CFEAFF03
:10149800EF500009D8B453EF0AF055EF0AF074EF93
:1014A8000AF00BC0F6FF0CC0F7FF0800F5CF0FF0ED
:1014B80009C0F6FF0AC0F7FFF86A070EF76403D001
:1014C8000800F55005D0F6CFE9FFF7CFEAFFEF5057
:1014D8000F18D8B472EF0AF074EF0AF092EF0AF01E
:1014E80009C0F6FF0AC0F7FFF86A070EF76403D0D1
:1014F8000800F55005D0F6CFE9FFF7CFEAFFEF5027
:101508000F6E0BC0F6FF0CC0F7FF0800F5500F5C1C
:10151800096E0A6AD8A00A06A7EF0AF0094A0A2A39
:101528000B4A0C2A0D06D8A00E060D2806E10E2837
:10153800D8A4A1EF0AF0A3EF0AF03DEF0AF0000EDD
:101548000A6E000E096E1200580E4A6E5F0E4B6E40
:10155800F80E4D6E1F0E4C6E0FEC10F0000E0001D1
:10156800946F9451040D930EF324F66E5E0EF420DE
:10157800F76E0900F5CF12F00900F5CF13F0090056
:10158800F5CF14F00A00F5CF15F05AEC0DF01AEC6F
:101598000EF0E806D8A4D3EF0AF0D5EF0AF000EF72
:1015A8000BF0740E0001606F000E616FA30E626F86
:1015B8005F0E636F9451040D930EF324F66E5E0E66
:1015C800F420F76E0900F5CF64F00900F5CF65F057
:1015D8000900F5CF66F00A00F5CF67F04FEC02F08E
:1015E800740E4A6E000E4B6EF80E4D6E000E4C6E69
:1015F8000FEC10F014EF0BF0FA0E056E000E066EED
:10160800000E076E000E086E80EC11F00001942B9E
:10161800020E946512EF0BF014EF0BF0B5EF0AF021
:101628001200000E0A6E08BE1EEF0BF01CEF0BF046
:1016380024EF0BF0076C081ED8B0082A010E0A6EBA
:1016480006BE2BEF0BF029EF0BF031EF0BF0056C1A
:10165800061ED8B0062A010E0A1A000E0C6E000EDD
:101668000B6E07500810D8B43CEF0BF03EEF0BF0B0
:1016780066EF0BF0010E096E46EF0BF0D8900736B7
:101688000836092A08AE4BEF0BF04DEF0BF042EF8E
:101698000BF0D8900B360C360750055C08500658EE
:1016A800D8A059EF0BF05BEF0BF060EF0BF0075091
:1016B800055E0850065A0B80D89008320732092E6A
:1016C8004DEF0BF00A50D8B46CEF0BF06EEF0BF047
:1016D80072EF0BF00B6C0C1ED8B00C2A0BC005F087
:1016E8000CC006F01200B0EF0BF010C009F011C0EA
:1016F8000AF012C00BF013C00CF012C005F013C0B2
:1017080006F096EC10F005C00DF006C00EF03BECAC
:101718000AF009500A10D8A494EF0BF096EF0BF0DA
:101728009CEF0BF010C010F011C011F0D5EF0BF0CA
:10173800010E1024056E000E1120066E12C0F6FF71
:1017480013C0F7FF0800F550076E086A9CEC0DF00F
:1017580005C010F006C011F010501110D8B4B7EF42
:101768000BF0B9EF0BF0D1EF0BF010C0F6FF11C082
:10177800F7FFF86A070EF76403D00800F55005D0A4
:10178800F6CFE9FFF7CFEAFFEF500009D8A4CFEF73
:101798000BF0D1EF0BF079EF0BF0000E106E000E8E
:1017A800116E1200000E126E08C00AF009C00BF08C
:1017B800000E0BBEFF0E0C6E0D6E01010C510A24BB
:1017C8000E6E0D510B200F6E0E510C20106E0F5126
:1017D8000D20116E01EF0CF00C510E5C0D510F58DD
:1017E8000E5110580F511158D8B0FDEF0BF0FFEF04
:1017F8000BF001EF0CF034EF0CF012511119D8B4C2
:1018080008EF0CF00AEF0CF0F0EF0BF0112B140EB0
:101818001125D96EDA6A010EDA220D0EDE18D8A467
:1018280018EF0CF01AEF0CF01CEF0CF034EF0CF082
:10183800140E1125D96EDA6A010EDA221250052427
:10184800E16E000E0620E26EDFCFE7FF122A075096
:101858001218D8A432EF0CF034EF0CF0D8EF0BF0DC
:101868001200000E0D6E000E0E6E000E0F6E000EB2
:10187800106E09500A100B100C10D8B446EF0CF07B
:1018880048EF0CF07EEF0CF0010E116E52EF0CF0E9
:10189800D89009360A360B360C36112A0CAE57EF9B
:1018A8000CF059EF0CF04CEF0CF0D8900D360E36CA
:1018B8000F3610360950055C0A5006580B50075869
:1018C8000C500858D8A06BEF0CF06DEF0CF076EFC9
:1018D8000CF00950055E0A50065A0B50075A0C5076
:1018E800085A0D80D8900C320B320A320932112E68
:1018F80059EF0CF00DC005F00EC006F00FC007F050
:1019080010C008F01200B6EF0CF03FC02AF040C03B
:101918002BF041C02CF042C02DF043C0F6FF44C06C
:10192800F7FFF86A070EF76403D00800F55005D0F2
:10193800F6CFE9FFF7CFEAFFEF502E6E45C02FF044
:1019480046C030F047C031F048C032F049C033F0EB
:1019580049EC04F04950060DF350415EF450425AE8
:10196800434A442A43C0F6FF44C0F7FFF86A070E0B
:10197800F76403D00800F55005D0F6CFE9FFF7CF9C
:10198800EAFFEF500009D8A4CCEF0CF0CEEF0CF032
:1019980089EF0CF012000E0EF66E250EF76E000E93
:1019A800F86E01EEDCF010EE15F00900F5CFEEFF51
:1019B800E550E150FAE1080EF66E240EF76E000EBF
:1019C800F86E00EEB4F010EE29F00900F5CFEEFF46
:1019D800E550E150FAE1230EF66E250EF76E000E83
:1019E800F86E00EE57F010EE04F00900F5CFEEFFA8
:1019F800E550E150FAE101EE00F0740EEE6AE806F7
:101A0800FDE100EEDDF01A0EEE6AE806FDE1566A29
:101A1800556A546A536A5B905B92000EF86E000137
:101A28003FEF12F01650171018101910D8B41FEF06
:101A38000DF021EF0DF051EF0DF0010E1A6E2BEFA6
:101A48000DF0D89016361736183619361A2A19AEE8
:101A580030EF0DF032EF0DF025EF0DF01650125C5F
:101A6800175013581850145819501558D8A03FEF4C
:101A78000DF041EF0DF049EF0DF01650125E1750C2
:101A8800135A1850145A1950155AD8901932183236
:101A9800173216321A2E32EF0DF012C012F013C0A0
:101AA80013F014C014F015C015F01200AC98AC84F3
:101AB800B886000E056E6C0E066EDC0E076E020E02
:101AC800086E12C009F013C00AF014C00BF015C05C
:101AD8000CF035EC0CF005C01AF006C01BF007C07E
:101AE8001CF008C01DF01AC016F01BC017F01CC06F
:101AF80018F01DC019F0030E87EF0DF0D8901932B9
:101B0800183217321632E82E82EF0DF016C01AF08E
:101B180017C01BF018C01CF019C01DF01A06000EE3
:101B28001B5A1C5A1D5A1AC0AFFF1BC0B0FF120027
:101B380005C0F6FF06C0F7FFF86A070EF76403D082
:101B48000800F55005D0F6CFE9FFF7CFEAFFEF50D0
:101B58000718D8A4B2EF0DF0B4EF0DF0BAEF0DF0FE
:101B680005C005F006C006F0DCEF0DF00550096E63
:101B780006500A6E054A062A09C0F6FF0AC0F7FF92
:101B8800F86A070EF76403D00800F55005D0F6CFC1
:101B9800E9FFF7CFEAFFEF500009D8A4D6EF0DF020
:101BA800D8EF0DF09CEF0DF0000E056E000E066EDE
:101BB8001200020E066E100E056E0DC007F00EC064
:101BC80008F0E0EC10F0020E066E110E056E11C062
:101BD80007F012C008F0E0EC10F0020E066E120ECC
:101BE800056E0FC007F010C008F0E0EC10F0020E10
:101BF800066E130E056E13C007F014C008F0E0EC73
:101C080010F0020E066E000E056E0DC007F00EC035
:101C180008F0E0EC10F0020E066E010E056E13C01F
:101C280007F014C008F0E0EC10F01200030E436E49
:101C38004CEF0EF0E90E136E5F0E146EF80E156E73
:101C48005F0E166EFB0E176E5F0E186E000E1A6E84
:101C5800000E196E230E1B6E000E1C6E200E1D6EDC
:101C6800EDEC08F0230E056E000E066EF50E076EFD
:101C78005F0E086E3FEC10F005500610D8A447EF31
:101C88000EF049EF0EF04CEF0EF0010E56EF0EF08D
:101C980043064328D8A453EF0EF055EF0EF01EEF7D
:101CA8000EF0000E1200000E1D6E000E1C6EBDEC34
:101CB80010F0000E406E080E3F6E010E426E860E4A
:101CC800416EAE0E436E5F0E446EFF0E466E456863
:101CD800000E486E000E476E020E496E87EC0CF03F
:101CE800000E146E200E136E000E166E000E156E8A
:101CF800000E186E200E176E010E1A6E900E196ED9
:101D0800FF0E1C6E1B6843EC05F0010E586E8F0E1B
:101D1800576E010E0001DA6F8F0ED96F12001CC0CA
:101D28000DF01DC00EF01EC00FF01FC010F02050A7
:101D38001C24266E21501D20276EFF0E2624116EAE
:101D4800FF0E2720126E22501E24286E23501F20BB
:101D5800296EFF0E2824136EFF0E2920146EDDEC69
:101D68000DF024C00DF025C00EF020C005F021C0F4
:101D780006F022C007F023C008F019EC12F005C0E5
:101D88000FF006C010F0116A126A37EC06F02CEC5E
:101D980012F01200D39E700ED312FC0ED3169B8E37
:101DA800E00E9B16070E066E170E056E6A0EE82EDD
:101DB800FED7052EFCD7062EFAD700D06D966F8673
:101DC8000B0E926E000E896EF18E000E936E000E51
:101DD8008A6EF00E946E000E8B6EC290CF0EC116F6
:101DE800C150F00B0E09C16EC08EC70EC016C05090
:101DF800F80B0209C06ECF0EB116B192B180A08265
:101E0800F28CF28E12000600D9CF03F0DACF04F07C
:101E1800A0A211EF0FF013EF0FF028EF0FF0A1A21F
:101E280018EF0FF01AEF0FF028EF0FF0050E010171
:101E38000C27000E0D230E230F234FEC12F0160E65
:101E4800B36E000EB26EA1929DAA2DEF0FF02FEF88
:101E58000FF038EF0FF09EAA34EF0FF036EF0FF0C7
:101E680038EF0FF002EC11F004C0DAFF03C0D9FF1D
:101E78005B921100AC9CAC8AAC98AC96AC84AB8EEF
:101E8800AB9CAB88B886B892B890040EB06EE10EE1
:101E9800AF6E9D8A000E0101116F000E126F000EC9
:101EA800106F010E136F140E056E010E066E000EF4
:101EB800086E000E076E000E0A6E400E096E9DEC4D
:101EC80011F0540E056E010E066E000E086E000E1F
:101ED800076E000E0A6E200E096E9DEC11F01200BE
:101EE800000E0D6E000E0E6E000E0F6E000E106EC0
:101EF80005A081EF0FF083EF0FF08BEF0FF0095083
:101F08000D260A500E220B500F220C501022D8908A
:101F180009360A360B360C36D890083207320632A4
:101F280005320550061007100810D8A49EEF0FF0D0
:101F3800A0EF0FF07CEF0FF00DC005F00EC006F01B
:101F48000FC007F010C008F01200000E116E000E4E
:101F5800106EB3EF0FF00B4A0C2A104A112A0BC06F
:101F6800D9FF0CC0DAFFDF50D8B4BDEF0FF0BFEFD8
:101F78000FF0D7EF0FF00DC005F00EC006F00BC044
:101F8800D9FF0CC0DAFFDF500F6E0F50076E086ADA
:101F98009CEC0DF005500610D8A4D5EF0FF0D7EF44
:101FA8000FF0AFEF0FF010C00BF011C00CF01200E3
:101FB800000E116E000E106EE6EF0FF00B4A0C2AA1
:101FC800104A112A0BC0D9FF0CC0DAFFDF50D8B471
:101FD800F0EF0FF0F2EF0FF00AEF10F00DC005F080
:101FE8000EC006F00BC0D9FF0CC0DAFFDF500F6E31
:101FF8000F50076E086A9CEC0DF005500610D8B417
:1020080008EF10F00AEF10F0E2EF0FF010C00BF03D
:1020180011C00CF012000A0E0101132713C11CF0A5
:102028001D6A000E1F6E000E1E6E000E216E280E19
:10203800206E010E236E900E226E000E256E000E8D
:10204800246E93EC0EF013C13FF0406A010E426E0D
:102058008F0E416E4AC043F04BC044F04CC045F06F
:102068004DC046F0000E486E000E476E010E496ED8
:1020780087EC0CF0120045EF10F0054A062A074AD3
:10208800082A07C0F6FF08C0F7FF0800F5CF09F0D7
:1020980005C0D9FF06C0DAFFDF500A6E09500A5C96
:1020A8000B6E0B50D8A45BEF10F05DEF10F069EFEA
:1020B80010F005C0D9FF06C0DAFFDF50D8A467EFDB
:1020C80010F069EF10F041EF10F00B50056E066A42
:1020D80005BE06061200000E086E82AA76EF10F002
:1020E80078EF10F079EF10F0088282A87EEF10F0F8
:1020F80080EF10F081EF10F008800850D8B487EF17
:1021080010F08BEF10F0076A072A8CEF10F0076ABF
:10211800074655500718FD0B0718556E08C005F0FF
:10212800066A120005C007F006C008F09EEF10F01E
:10213800074A082A07C0F6FF08C0F7FFF86A070E23
:10214800F76403D00800F55005D0F6CFE9FFF7CFC4
:10215800EAFFEF500009D8A4B4EF10F0B6EF10F082
:102168009CEF10F00550075C056E06500858066E87
:102178001200020E066E000E056E000E086E000EAE
:10218800076EE0EC10F0020E066E010E056E000EF2
:10219800086E000E076EE0EC10F01CC00DF01DC0BC
:1021A8000EF0000E0F6E770E106E010E116E000EFF
:1021B800126E37EC06F01200829000F08292065000
:1021C800096E05C00AF009C081FF809A00F0808A74
:1021D8000AC081FF809A00F0808A828208500B6EC4
:1021E80007C00CF00BC081FF809A00F0808A0CC0F9
:1021F80081FF809A00F0808A82801200AECF01F0C1
:10220800ABA209EF11F00BEF11F00DEF11F0AB9845
:10221800AB880101122B400E1219D8A416EF11F049
:1022280018EF11F01AEF11F0000E126F140E1225AC
:10223800D96EDA6A010EDA2201C0DFFF120039EF27
:1022480011F009C0F6FF0AC0F7FFF86A070EF76435
:1022580003D00800F55005D0F6CFE9FFF7CFEAFF25
:10226800EF507BEC12F0094A0A2A0B060B28D8A477
:1022780040EF11F042EF11F025EF11F01200020EBD
:10228800066E000E056E0DC007F00EC008F0E0ECFB
:1022980010F0020E066E010E056E0FC007F010C09A
:1022A80008F0E0EC10F0020E066E020E056E11C08A
:1022B80007F012C008F0E0EC10F01200000E1D6EDE
:1022C800000E1C6EBDEC10F0000E406E460E3F6E08
:1022D800010E426E6A0E416EDD0E436E5E0E446E56
:1022E800FF0E466E4568000E486E000E476E020EE1
:1022F800496E87EC0CF01200055001010C25096E9F
:1023080006500D210A6E07500E210B6E08500F2142
:102318000C6E09500C5D0A500D590B500E590C509B
:102328000F59D8A09AEF11F09CEF11F08DEF11F032
:10233800120005C00BF006C00CF0ABEF11F00BC09B
:10234800D9FF0CC0DAFF07C0DFFF0B4A0C2A0906C9
:10235800D8A00A06092806E10A28D8A4B6EF11F081
:10236800B8EF11F0A3EF11F0120006BEC0EF11F0A4
:10237800BEEF11F0CEEF11F005C007F006C008F06F
:10238800071E081E074A082A07C005F008C006F0FD
:10239800D2EF11F005C005F006C006F01200076E76
:1023A800000E066E3A0E0760DCEF11F0DEEF11F05A
:1023B800E8EF11F02F0E0764E4EF11F0E6EF11F0EB
:1023C800E8EF11F0010E066E06C005F005301200A8
:1023D8006FEC10F005500610D8A4F5EF11F0F7EFE8
:1023E80011F0FBEF11F057EC0EF0FDEF11F062EC7D
:1023F80011F0000E0001E96F000EEE6FEF8D120074
:1024080041542B435245473F0D0041542B43434C05
:102418004B3F0D0041542B434349440D0041542B7D
:092428004353510D008F01EF0038
:1024320005500702F3CF09F0F4CF0AF00550080265
:10244200F3500A2606500702F3500A2609C005F087
:102452000AC006F01200000E0E6E000E0D6E000E87
:10246200106E000E0F6E000E126EEF0E116E010E48
:10247200146E8F0E136EDDEC0DF01200CEEC0EF02A
:10248200CCEC09F03EEC0FF0ECEC11F06EEC12F03B
:1024920009EC00F049EF12F007EF00F0010E016EB7
:1024A2005650070B026E0150022656500218F80BC6
:1024B2000218566E0001F22B55881200000E936E20
:1024C2008280808A80888294200E056E2A0EE82EF1
:1024D200FED7052EFCD782841200A8EC0AF0C40EA7
:1024E200056E090E066E000E076E000E086E80EC79
:1024F20011F01200056E9EA881EF12F083EF12F028
:102502007CEF12F005C0ADFF00F0120041542B43E6
:102512004F50533D3F0D0041542B434F50533F0DFD
:05252200008F01EF0035
:10589E000000000000003E5B4F5B3E3E6B4F6B3ED8
:1058AE001C3E7C3E1C183C7E3C181C577D571C1C15
:1058BE005E7F5E1C00183C1800FFE7C3E7FF001870
:1058CE00241800FFE7DBE7FF30483A060E26297959
:1058DE002926407F050507407F05253F5A3CE73CBA
:1058EE005A7F3E1C1C08081C1C3E7F14227F22146B
:1058FE005F5F005F5F06097F017F006689956A60C2
:10590E006060606094A2FFA29408047E04081020D8
:10591E007E201008082A1C08081C2A08081E1010D1
:10592E0010100C1E0C1E0C30383E3830060E3E0E7B
:10593E0006000000000000005F00000007000700E6
:10594E00147F147F14242A7F2A12231308646236CC
:10595E00495620500008070300001C224100004158
:10596E00221C002A1C7F1C2A08083E080800807092
:10597E0030000808080808000060600020100804C5
:10598E00023E5149453E00427F4000724949494618
:10599E002141494D331814127F1027454545393C96
:1059AE004A49493141211109073649494936464983
:1059BE0049291E00001400000040340000000814A5
:1059CE00224114141414140041221408020159091E
:1059DE00063E415D594E7C1211127C7F4949493673
:1059EE003E414141227F4141413E7F494949417FEC
:1059FE00090909013E414151737F0808087F0041A2
:105A0E007F41002040413F017F081422417F4040EA
:105A1E0040407F021C027F7F0408107F3E414141BF
:105A2E003E7F090909063E4151215E7F091929462B
:105A3E00264949493203017F01033F4040403F1F41
:105A4E002040201F3F4038403F6314081463030476
:105A5E007804036159494D43007F414141020408D6
:105A6E001020004141417F040201020440404040A9
:105A7E0040000307080020545478407F28444438DF
:105A8E003844444428384444287F38545454180029
:105A9E00087E090218A4A49C787F080404780044A8
:105AAE007D40002040403D007F1028440000417F93
:105ABE0040007C047804787C08040478384444441C
:105ACE0038FC1824241818242418FC7C0804040814
:105ADE00485454542404043F44243C4040207C1C2D
:105AEE002040201C3C4030403C44281028444C9020
:105AFE0090907C4464544C4400083641000000777A
:105B0E000000004136080002010204023C26232652
:105B1E003C1EA1A161123A4040207A385454555986
:105B2E0021555579412254547842215554784020BC
:105B3E00545579400C1E52721239555555593954D7
:105B4E0054545939555454580000457C410002456F
:105B5E007D420001457C407D1211127DF0282528E2
:105B6E00F07C545545002054547C547C0A097F49DE
:105B7E0032494949323A4444443A324A4848303A22
:105B8E004141217A3A42402078009DA0A07D3D42BD
:105B9E0042423D3D4040403D3C24FF2424487E4946
:105BAE0043662B2FFC2F2BFF0929F620C0887E0978
:105BBE000320545479410000447D413048484A3214
:105BCE00384040227A007A0A0A727D0D19317D26FC
:105BDE0029292F28262929292630484D40203808E2
:105BEE0008080808080808382F10C8ACBA2F102863
:105BFE0034FA00007B000008142A142222142A14FE
:105C0E00085500550055AA55AA55AAFF55FF55FF30
:105C1E00000000FF00101010FF00141414FF0010FD
:105C2E0010FF00FF1010F010F0141414FC001414E8
:105C3E00F700FF0000FF00FF1414F404FC14141707
:105C4E00101F10101F101F1414141F00101010F02E
:105C5E00000000001F101010101F10101010F01078
:105C6E00000000FF101010101010101010FF100088
:105C7E000000FF140000FF00FF00001F10170000BF
:105C8E00FC04F414141710171414F404F40000FF99
:105C9E0000F714141414141414F700F71414141732
:105CAE001410101F101F141414F4141010F010F010
:105CBE0000001F101F0000001F14000000FC140045
:105CCE0000F010F01010FF10FF141414FF14101039
:105CDE00101F00000000F010FFFFFFFFFFF0F0F0BC
:105CEE00F0F0FFFFFF0000000000FFFF0F0F0F0F8F
:105CFE000F3844443844FC4A4A4A347E02020606AF
:105D0E00027E027E0263554941633844443C04409E
:105D1E007E201E2006027E020299A5E7A5991C2A66
:105D2E00492A1C4C7201724C304A4D4D3030487825
:105D3E004830BC625A463D3E494949007E01010148
:105D4E007E2A2A2A2A2A44445F444440514A444027
:105D5E0040444A51400000FF0103E080FF0000086C
:105D6E00086B6B083612362436060F090F06000034
:105D7E0018180000001010003040FF0101001F0134
:105D8E00011E00191D1712003C3C3C3C0000000097
:105D9E000002070830050736000B0713120100003A
:105DAE000102000001030030100800020209000089
:105DBE00000C0000000F00000000010000020100B6
:105DCE000003010000FFFF010000019011010127F7
:105DDE0002FFFF01000201BD01FFFF0100030100F0
:105DEE002D81020E00FFFF010000020000010200E3
:105DFE000000030000010307070203060605030067
:105E0E00000603000D070306070803050009030734
:105E1E00000C0300000D030A00100200001102EF37
:105E2E00001202000013028F010004003101040170
:105E3E00000404000000050000010500000205003A
:105E4E000003050000040500000505000010001009
:105E5E00001100000620000200070073010100007F
:105E6E00000A00000064000000E803000010270094
:105E7E0000A086010040420F008096980000E1F5D8
:105E8E000500CA9A3B8025000000E1000000C20117
:105E9E00001414000000000000F8F001FCF903FCEF
:105EAE00FF03FEFF07FEFF07FEFF07FEFF07FCFFD7
:105EBE0003FCFF03F8FF01F0FF00E07F00C03F008E
:105ECE00801F00000F000006000000000000002AE6
:105EDE002A2A20436F6C6C656761726520656C655C
:105EEE007474726F6469202A2A2A00496E76616C76
:105EFE0069642063757272656E7420737065656473
:105F0E002028256C752900537065656420636861CF
:105F1E006E67656420282D3E20256C752900436F21
:105F2E006D6D20697320646561642E2052657472F4
:105F3E00792E2E2E004572726F72206368616E6725
:105F4E00696E67207370656564004465746563747B
:105F5E00696E672073706565642E2E2E004368612E
:105F6E006E67652073706565642028256C75290041
:105F7E005265737572726563746564210041542BAA
:105F8E004950523D256C750D00436865636B207357
:105F9E007065656400256C7520464F554E44210092
:105FAE004672657175656E7A613A005374696C6CF0
:105FBE00206465616400436865636B2074696D6578
:105FCE000041542B43434C4B3F0D0041542B495041
:105FDE00523F0D002B4950523A200041540D0025DE
:105FEE00336400256C75004F4B00616100626200E6
:015FFE0000A2
:020000040020DA
:08000000FFFFFFFFFFFFFFFF00
:020000040030CA
:0E000000200E011EFF0180FF0FC00FE00F4019
:00000001FF
