:020000040000FA
:0400000007EF00F016
:100008005B82EBED06F0E6EF04F00001FF51FE1114
:100018000BE1C50EFC5D090EFD59D8A016EF00F0E6
:1000280018EF00F08EEF00F03C0EFC254A6EF60E3D
:10003800FD214B6EFF0EFE214C6EFF0EFF214D6E13
:100048004A50F85D4B50F9594C50FA594D50FB59EC
:10005800D8B031EF00F033EF00F08EEF00F0FCC0C5
:10006800F8F0FDC0F9F0FEC0FAF0FFC0FBF0600E3A
:10007800056E000E066E000E086E000E076E000E6E
:100088000A6E200E096EE0EC08F0DA0E126E000E11
:10009800136EF90E146E5F0E156EFC0E166E5F0E63
:1000A800176E000E196E7B0E186E600E1A6E000E1B
:1000B8001B6E58EC07F0080E0101032703C11CF062
:1000C8001D6A000E1F6E000E1E6E000E216E320E8F
:1000D800206E010E236E900E226E000E256E000E0D
:1000E800246E77EC06F003C13FF0406A010E426EC1
:1000F8008F0E416E600E436E000E446EF80E466E13
:10010800000E456E000E486E000E476E010E496ED9
:100118002FEC05F00001FF51FE110BE1A10EFC5D73
:100128000F0EFD59D8A09BEF00F09DEF00F013EFE4
:1001380001F0600EFC254A6EF00EFD214B6EFF0E9D
:10014800FE214C6EFF0EFF214D6E4A50F45D4B5060
:10015800F5594C50F6594D50F759D8B0B6EF00F054
:10016800B8EF00F013EF01F0FCC0F4F0FDC0F5F0BB
:10017800FEC0F6F0FFC0F7F0800E056E000E066EAA
:10018800000E086E000E076E000E0A6E200E096E35
:10019800E0EC08F0D10E126E000E136EF90E146E1C
:1001A8005F0E156EFC0E166E5F0E176E000E196E42
:1001B8007B0E186E800E1A6E000E1B6E58EC07F040
:1001C800080E0101032703C11CF01D6A000E1F6EF3
:1001D800000E1E6E000E216E320E206E010E236E72
:1001E800900E226E000E256E000E246E77EC06F03F
:1001F80003C13FF0406A010E426E8F0E416E800EC1
:10020800436E000E446EF80E466E000E456E000EEC
:10021800486E000E476E010E496E2FEC05F0120075
:10022800000E3E6E3EC034F0356A34BE35062E50A0
:10023800050D970E366E590E376EF3503626F4506C
:100248003722345036263550372236C0F6FF37C0AD
:10025800F7FF0800F5CF38F0000E3D6E38A037EFF5
:1002680001F039EF01F092EF01F03304D8A43FEF29
:1002780001F041EF01F05CEF01F02A503D240D6ED2
:10028800000E3DBEFF0E2B200E6E3EC034F0356AC8
:1002980034BE350634502C5C0F6E35502D58106E18
:1002A8002FC011F030C012F0A3EC08F0F5EF01F008
:1002B8003D50056E066A05BE060633C007F0086A9B
:1002C8002EEC09F02A500524396E2B5006203A6E80
:1002D8003E50056E066A05BE060633C007F0086A7A
:1002E8002EEC09F005502C5C3B6E06502D583C6EE8
:1002F80039C01CF03AC01DF03BC01EF03CC01FF0D6
:1003080033C020F0216A33C022F0236A2FC024F0C2
:1003180030C025F077EC06F0F5EF01F02F503118DA
:1003280009E130503218D8B49CEF01F09EEF01F08B
:10033800F5EF01F03304D8A4A4EF01F0A6EF01F023
:10034800C1EF01F02A503D240D6E000E3DBEFF0E98
:100358002B200E6E3EC034F0356A34BE350634505C
:100368002C5C0F6E35502D58106E31C011F032C014
:1003780012F0A3EC08F0F5EF01F03D50056E066AA7
:1003880005BE060633C007F0086A2EEC09F02A50AD
:100398000524396E2B5006203A6E3E50056E066ACB
:1003A80005BE060633C007F0086A2EEC09F00550B2
:1003B8002C5C3B6E06502D583C6E39C01CF03AC080
:1003C8001DF03BC01EF03CC01FF033C020F0216A76
:1003D80033C022F0236A31C024F032C025F077EC14
:1003E80006F03D2AD89038323D50800A780FD8A0C0
:1003F80000EF02F002EF02F032EF01F03E2A3E5029
:10040800800A7B0FD8A00BEF02F00DEF02F016EF79
:1004180001F012001350175C056E14501858066E40
:10042800FCEC08F005C01DF006C01EF01550195C64
:10043800056E16501A58066EFCEC08F005501D5C47
:100448001E50800A1F6E0650800A1F58D8A02FEF32
:1004580002F032EF02F0010E33EF02F0000E2E6EC2
:100468002F6A2E502F10D8B43CEF02F03EEF02F066
:1004780056EF02F013C020F014C021F015C013F09D
:1004880016C014F020C015F021C016F017C022F0D5
:1004980018C023F019C017F01AC018F022C019F0BC
:1004A80023C01AF01350175C1850800A1D6E1450A0
:1004B800800A1D58D8B063EF02F065EF02F07DEFB7
:1004C80002F013C024F014C025F017C013F018C0B0
:1004D80014F024C017F025C018F015C026F016C077
:1004E80027F019C015F01AC016F026C019F027C059
:1004F8001AF01350175C306E14501858316E15509E
:10050800195C056E16501A58066EFCEC08F005C00A
:1005180028F006C029F030C005F031C006F0000E02
:10052800086E020E076E32EC04F005C02CF006C00F
:100538002DF01950155C1650800A1D6E1A50800A4D
:100548001D58D8B0AAEF02F0ACEF02F0B2EF02F0FB
:10055800000E2B6E010E2A6EF2EF02F02A682B684D
:10056800F2EF02F02E502F10D8B4BDEF02F0BFEF1B
:1005780002F0CFEF02F015C00DF016C00EF013C058
:100588000FF014C010F01BC011F01CC012F0A3EC47
:1005980008F0DDEF02F013C00DF014C00EF015C026
:1005A8000FF016C010F01BC011F01CC012F0A3EC25
:1005B80008F028502C5E29502D5A2DBEE8EF02F085
:1005C800E6EF02F0F0EF02F02A5015262B50162223
:1005D80030502C2631502D22134A142A1350175C00
:1005E8001850800A1D6E1450800A1D58D8B0FFEFAD
:1005F80002F001EF03F0B6EF02F012000E501A6E8F
:100608000DC01BF0020E066E020E056E0DC007F03F
:100618000EC008F021EC08F00F06000E105A115A0F
:10062800125A829000F00FC013F010C014F011C0DD
:1006380015F012C016F0030E27EF03F0D89016320B
:10064800153214321332E82E22EF03F013C017F0DC
:1006580014C018F01B501A18D8A435EF03F037EF60
:1006680003F09CEF03F051EF03F0809A00F0808ACA
:10067800809A00F0808A809A00F0808A809A00F040
:10068800808A809A00F0808A809A00F0808A809A16
:1006980000F0808A809A00F0808A1706D8A0180691
:1006A800172806E11828D8A45CEF03F05EEF03F0E2
:1006B80039EF03F00F50030B196E69EF03F0809ABE
:1006C80000F0808A809A00F0808A19061928D8A438
:1006D80070EF03F072EF03F063EF03F0C1EF03F084
:1006E8001AC081FF809A00F0808A1BC081FF809A1F
:1006F80000F0808A1AC081FF809A00F0808A1BC0AF
:1007080081FF809A00F0808A1AC081FF809A00F0E9
:10071800808A1BC081FF809A00F0808A1AC081FFFE
:10072800809A00F0808A1BC081FF809A00F0808A3E
:100738001706D8A01806172806E11828D8A4A7EF86
:1007480003F0A9EF03F074EF03F00F50030B196ED9
:10075800B8EF03F01AC081FF809A00F0808A1BC0AE
:1007680081FF809A00F0808A19061928D8A4BFEF63
:1007780003F0C1EF03F0AEEF03F08280120054ECF7
:1007880009F00D0E1F6E2D0E1E6ED80EE82EFED728
:100798001E2EFCD71F2EFAD7000E276E000E266ECF
:1007A800000E236E660E226E1DEF04F0D8902634DC
:1007B800F66E2734F76E970EF6265E0EF7220900BE
:1007C800F5CF24F00A00F5CF25F0264A272AD8903D
:1007D8002634F66E2734F76E970EF6265E0EF7224D
:1007E8000900F5CF20F00A00F5CF21F0264A272A84
:1007F800242806E12528D8A404EF04F006EF04F025
:1008080013EF04F00D0E1F6E2D0E1E6ED80EE82E7F
:10081800FED71E2EFCD71F2EFAD71DEF04F024C0DA
:1008280005F025C006F020C007F021C008F021EC33
:1008380008F02250261807E123502718D8A427EFDC
:1008480004F029EF04F0DAEF03F041EC09F0000EB0
:100858001D6E000E1C6EFEEC07F01200000E0A6EF4
:1008680008BE3BEF04F039EF04F041EF04F0076CE9
:10087800081ED8B0082A010E0A6E06BE48EF04F01A
:1008880046EF04F04EEF04F0056C061ED8B0062AB9
:10089800010E0A1A000E0C6E000E0B6E075008109F
:1008A800D8B459EF04F05BEF04F083EF04F0010EC5
:1008B800096E63EF04F0D89007360836092A08AEA7
:1008C80068EF04F06AEF04F05FEF04F0D8900B369D
:1008D8000C360750055C08500658D8A076EF04F08F
:1008E80078EF04F07DEF04F00750055E0850065AD3
:1008F8000B80D89008320732092E6AEF04F00A50AC
:10090800D8B489EF04F08BEF04F08FEF04F00B6C90
:100918000C1ED8B00C2A0BC005F00CC006F0120053
:10092800000E0D6E000E0E6E000E0F6E000E106E95
:1009380009500A100B100C10D8B4A5EF04F0A7EF5B
:1009480004F0DDEF04F0010E116EB1EF04F0D89061
:1009580009360A360B360C36112A0CAEB6EF04F0FF
:10096800B8EF04F0ABEF04F0D8900D360E360F3622
:1009780010360950055C0A5006580B5007580C50A1
:100988000858D8A0CAEF04F0CCEF04F0D5EF04F073
:100998000950055E0A50065A0B50075A0C50085A5F
:1009A8000D80D8900C320B320A320932112EB8EF72
:1009B80004F00DC005F00EC006F00FC007F010C01F
:1009C80008F01200FC0EF66E120EF76E000EF86EAE
:1009D80001EE64F010EE0BF00900F5CFEEFFE550E4
:1009E800E150FAE1080EF66E110EF76E000EF86E81
:1009F80000EEA0F010EE3EF00900F5CFEEFFE55056
:100A0800E150FAE1070EF66E130EF76E000EF86E5F
:100A180000EE55F010EE06F00900F5CFEEFFE550B8
:100A2800E150FAE101EE00F0640EEE6AE806FDE13D
:100A380000EEDEF0220EEE6AE806FDE100EE4EF072
:100A4800070EEE6AE806FDE15B905B92000EF86E19
:100A58000001D9EF07F05EEF05F03FC02AF040C073
:100A68002BF041C02CF042C02DF043C0F6FF44C02B
:100A7800F7FFF86A070EF76403D00800F55005D0B1
:100A8800F6CFE9FFF7CFEAFFEF502E6E45C02FF003
:100A980046C030F047C031F048C032F049C033F0AA
:100AA80014EC01F04950060DF350415EF450425ADF
:100AB800434A442A43C0F6FF44C0F7FFF86A070ECA
:100AC800F76403D00800F55005D0F6CFE9FFF7CF5B
:100AD800EAFFEF500009D8A474EF05F076EF05F0AF
:100AE80031EF05F01200000E116E0DC005F00EC0BA
:100AF80006F0000E086E000E076E0FC009F00A6AB5
:100B0800E0EC08F0010102510119D8B48EEF05F0AC
:100B180090EF05F086EF05F0012B040E0125D96E44
:100B2800DA6A010EDA220D0EDE18D8A49EEF05F05F
:100B3800A0EF05F0A2EF05F0B3EF05F0040E0125D4
:100B4800D96EDA6A010EDA2211500D24E16E000E18
:100B58000E20E26EDFCFE7FF112A86EF05F0115075
:100B68000D24D96E000E0E20DA6E000EDF6E120014
:100B7800AC98AC84B886000E056E6C0E066EDC0E62
:100B8800076E020E086E12C009F013C00AF014C0F6
:100B98000BF015C00CF094EC04F005C01AF006C078
:100BA8001BF007C01CF008C01DF01AC016F01BC0CF
:100BB80017F01CC018F01DC019F0030EE9EF05F07E
:100BC800D8901932183217321632E82EE4EF05F0B1
:100BD80016C01AF017C01BF018C01CF019C01DF081
:100BE8001A06000E1B5A1C5A1D5A1AC0AFFF1BC00A
:100BF800B0FF1200020E066E100E056E0DC007F053
:100C08000EC008F021EC08F0020E066E110E056EFB
:100C180011C007F012C008F021EC08F0020E066EB1
:100C2800120E056E0FC007F010C008F021EC08F096
:100C3800020E066E130E056E13C007F014C008F0FE
:100C480021EC08F0020E066E000E056E0DC007F0CE
:100C58000EC008F021EC08F0020E066E010E056EBB
:100C680013C007F014C008F021EC08F01200000EC1
:100C78001D6E000E1C6EFEEC07F0000E406E080E96
:100C88003F6E010E426E860E416EEA0E436E5F0E97
:100C9800446EFF0E466E4568000E486E000E476EA5
:100CA800020E496E2FEC05F0000E146E200E136E26
:100CB800000E166E000E156E000E186E200E176EC2
:100CC800010E1A6E900E196EFF0E1C6E1B680EEC4C
:100CD80002F0010E566E8F0E556E010E0001D06F98
:100CE8008F0ECF6F12001CC00DF01DC00EF01EC07D
:100CF8000FF01FC010F020501C24266E21501D201C
:100D0800276EFF0E2624116EFF0E2720126E22502A
:100D18001E24286E23501F20296EFF0E2824136ED0
:100D2800FF0E2920146EFEEC05F024C00DF025C03E
:100D38000EF020C005F021C006F022C007F023C045
:100D480008F02EEC09F005C00FF006C010F0116A8B
:100D5800126A02EC03F041EC09F01200D39E700E07
:100D6800D312FC0ED3169B8EE00E9B16070E066E52
:100D7800170E056E6A0EE82EFED7052EFCD7062E36
:100D8800FAD700D06D966F860B0E926E000E896EA4
:100D9800F18E000E936E000E8A6EF00E946E000EA9
:100DA8008B6EC290CF0EC116C150F00B0E09C16EEA
:100DB800C08EC70EC016C050F80B0209C06ECF0E09
:100DC800B116B192B180A082F28CF28E12000600A8
:100DD800D9CF03F0DACF04F0A0A2F5EF06F0F7EFD1
:100DE80006F00CEF07F0A1A2FCEF06F0FEEF06F00C
:100DF8000CEF07F0050E0001FC27000EFD23FE2373
:100E0800FF2363EC09F0160EB36E000EB26EA192CA
:100E18009DAA11EF07F013EF07F01CEF07F09EAA49
:100E280018EF07F01AEF07F01CEF07F043EC08F093
:100E380004C0DAFF03C0D9FF5B921100AC9CAC8AF6
:100E4800AC98AC96AC84AB8EAB9CAB88B886B892A9
:100E5800B890040EB06EE10EAF6E9D8A000E0101CF
:100E6800016F000E026F000E006F010E036F040E7B
:100E7800056E010E066E000E086E000E076E000E5F
:100E88000A6E400E096EE0EC08F0440E056E010E85
:100E9800066E000E086E000E076E000E0A6E200E1B
:100EA800096EE0EC08F0120002C101F112C009F06D
:100EB80013C00AF012C005F013C006F08BEC07F05F
:100EC80005500B6E64EC08F0010102510119D8B409
:100ED80070EF07F072EF07F068EF07F0012B040ED0
:100EE8000125D96EDA6A010EDA220A0EDE18D8A4B4
:100EF80080EF07F082EF07F068EF07F01AC00DF0F7
:100F08001BC00EF0200E0F6E77EC05F0120005C026
:100F180007F006C008F093EF07F0074A082A07C051
:100F2800F6FF08C0F7FFF86A070EF76403D0080059
:100F3800F55005D0F6CFE9FFF7CFEAFFEF500009EB
:100F4800D8A4A9EF07F0ABEF07F091EF07F0055031
:100F5800075C056E06500858066E1200000E086EF3
:100F680082AAB9EF07F0BBEF07F0BCEF07F00882E1
:100F780082A8C1EF07F0C3EF07F0C4EF07F00880BD
:100F88000850D8B4CAEF07F0CEEF07F0076A072A6F
:100F9800CFEF07F0076A074652500718FD0B0718EE
:100FA800526E08C005F0066A1200B2EC06F0C3ECF7
:100FB80003F022EC07F0800E126E250E136E000E61
:100FC800146E000E156EBCEC05F016EC09F0990EC7
:100FD8000101706F310E6F6FA20EE82EFED76F2FD2
:100FE800FCD7702FFAD700F009EC00F0F8EF07F003
:100FF80007EF00F0020E066E000E056E000E086E7A
:10100800000E076E21EC08F0020E066E010E056E4A
:10101800000E086E000E076E21EC08F01CC00DF0E3
:101028001DC00EF0000E0F6E770E106E010E116EC1
:10103800000E126E02EC03F01200829000F0829211
:101048000650096E05C00AF009C081FF809A00F0B9
:10105800808A0AC081FF809A00F0808A82820850C4
:101068000B6E07C00CF00BC081FF809A00F0808ADD
:101078000CC081FF809A00F0808A82801200AECF77
:1010880001F0ABA24AEF08F04CEF08F04EEF08F081
:10109800AB98AB880101022B400E0219D8A457EF78
:1010A80008F059EF08F05BEF08F0000E026F040E2D
:1010B8000225D96EDA6A010EDA2201C0DFFF1200BA
:1010C8007AEF08F009C0F6FF0AC0F7FFF86A070EC2
:1010D800F76403D00800F55005D0F6CFE9FFF7CF45
:1010E800EAFFEF5072EC09F0094A0A2A0B060B28AE
:1010F800D8A481EF08F083EF08F066EF08F012003B
:1011080041542B434F50533F0D0041542B435245FC
:10111800473F0D0041542B43434C4B3F0D00415476
:101128002B434349440D0041542B4353510D008F29
:101138000141542B4950523F0D0041540D00020EFD
:10114800066E000E056E0DC007F00EC008F021EC0B
:1011580008F0020E066E010E056E0FC007F010C0F3
:1011680008F021EC08F0020E066E020E056E11C0A2
:1011780007F012C008F021EC08F01200000E1D6EF6
:10118800000E1C6EFEEC07F0000E406E460E3F6E21
:10119800010E426E6A0E416EA10E436E5F0E446EE2
:1011A800FF0E466E4568000E486E000E476E020E32
:1011B800496E2FEC05F0120005C00BF006C00CF0CC
:1011C800EEEF08F00BC0D9FF0CC0DAFF07C0DFFF55
:1011D8000B4A0C2A0906D8A00A06092806E10A289B
:1011E800D8A4F9EF08F0FBEF08F0E6EF08F01200DA
:1011F80006BE03EF09F001EF09F011EF09F005C091
:1012080007F006C008F0071E081E074A082A07C08C
:1012180005F008C006F015EF09F005C005F006C096
:1012280006F01200B2EC07F005500610D8A41FEF24
:1012380009F021EF09F025EF09F03BEC06F027EF64
:1012480009F0C2EC08F0000E0001EA6F000EEF6F23
:101258004E8C120005500702F3CF09F0F4CF0AF0C4
:1012680005500802F3500A2606500702F3500A26D2
:1012780009C005F00AC006F01200000E0E6E000E3E
:101288000D6E000E106E000E0F6E000E126EEF0E39
:10129800116E010E146E8F0E136EFEEC05F0120027
:1012A800000E936E8280808A80888294200E056E5C
:1012B8002A0EE82EFED7052EFCD782841200010ED6
:1012C800016E5350070B026E01500226535002184C
:1012D800F80B0218536E512A52881200056E9EA808
:1012E80078EF09F07AEF09F073EF09F005C0ADFF68
:1012F80000F0120041542B434F50533D3F0D008FD7
:0513080001EF00EF0001
:105996000000000000003E5B4F5B3E3E6B4F6B3EDF
:1059A6001C3E7C3E1C183C7E3C181C577D571C1C1C
:1059B6005E7F5E1C00183C1800FFE7C3E7FF001877
:1059C600241800FFE7DBE7FF30483A060E26297960
:1059D6002926407F050507407F05253F5A3CE73CC1
:1059E6005A7F3E1C1C08081C1C3E7F14227F221472
:1059F6005F5F005F5F06097F017F006689956A60C9
:105A06006060606094A2FFA29408047E04081020DF
:105A16007E201008082A1C08081C2A08081E1010D8
:105A260010100C1E0C1E0C30383E3830060E3E0E82
:105A360006000000000000005F00000007000700ED
:105A4600147F147F14242A7F2A12231308646236D3
:105A5600495620500008070300001C22410000415F
:105A6600221C002A1C7F1C2A08083E080800807099
:105A760030000808080808000060600020100804CC
:105A8600023E5149453E00427F400072494949461F
:105A96002141494D331814127F1027454545393C9D
:105AA6004A4949314121110907364949493646498A
:105AB60049291E00001400000040340000000814AC
:105AC6002241141414141400412214080201590925
:105AD600063E415D594E7C1211127C7F494949367A
:105AE6003E414141227F4141413E7F494949417FF3
:105AF600090909013E414151737F0808087F0041A9
:105B06007F41002040413F017F081422417F4040F1
:105B160040407F021C027F7F0408107F3E414141C6
:105B26003E7F090909063E4151215E7F0919294632
:105B3600264949493203017F01033F4040403F1F48
:105B46002040201F3F4038403F631408146303047D
:105B56007804036159494D43007F414141020408DD
:105B66001020004141417F040201020440404040B0
:105B760040000307080020545478407F28444438E6
:105B86003844444428384444287F38545454180030
:105B9600087E090218A4A49C787F080404780044AF
:105BA6007D40002040403D007F1028440000417F9A
:105BB60040007C047804787C080404783844444423
:105BC60038FC1824241818242418FC7C080404081B
:105BD600485454542404043F44243C4040207C1C34
:105BE6002040201C3C4030403C44281028444C9027
:105BF60090907C4464544C44000836410000007781
:105C06000000004136080002010204023C26232659
:105C16003C1EA1A161123A4040207A38545455598D
:105C260021555579412254547842215554784020C3
:105C3600545579400C1E52721239555555593954DE
:105C460054545939555454580000457C4100024576
:105C56007D420001457C407D1211127DF0282528E9
:105C6600F07C545545002054547C547C0A097F49E5
:105C760032494949323A4444443A324A4848303A29
:105C86004141217A3A42402078009DA0A07D3D42C4
:105C960042423D3D4040403D3C24FF2424487E494D
:105CA60043662B2FFC2F2BFF0929F620C0887E097F
:105CB6000320545479410000447D413048484A321B
:105CC600384040227A007A0A0A727D0D19317D2603
:105CD60029292F28262929292630484D40203808E9
:105CE60008080808080808382F10C8ACBA2F10286A
:105CF60034FA00007B000008142A142222142A1405
:105D0600085500550055AA55AA55AAFF55FF55FF37
:105D1600000000FF00101010FF00141414FF001004
:105D260010FF00FF1010F010F0141414FC001414EF
:105D3600F700FF0000FF00FF1414F404FC1414170E
:105D4600101F10101F101F1414141F00101010F035
:105D5600000000001F101010101F10101010F0107F
:105D6600000000FF101010101010101010FF10008F
:105D76000000FF140000FF00FF00001F10170000C6
:105D8600FC04F414141710171414F404F40000FFA0
:105D960000F714141414141414F700F71414141739
:105DA6001410101F101F141414F4141010F010F017
:105DB60000001F101F0000001F14000000FC14004C
:105DC60000F010F01010FF10FF141414FF14101040
:105DD600101F00000000F010FFFFFFFFFFF0F0F0C3
:105DE600F0F0FFFFFF0000000000FFFF0F0F0F0F96
:105DF6000F3844443844FC4A4A4A347E02020606B6
:105E0600027E027E0263554941633844443C0440A5
:105E16007E201E2006027E020299A5E7A5991C2A6D
:105E2600492A1C4C7201724C304A4D4D303048782C
:105E36004830BC625A463D3E494949007E0101014F
:105E46007E2A2A2A2A2A44445F444440514A44402E
:105E560040444A51400000FF0103E080FF00000873
:105E6600086B6B083612362436060F090F0600003B
:105E760018180000001010003040FF0101001F013B
:105E8600011E00191D1712003C3C3C3C000000009E
:105E96000002070830050736000B07131201000041
:105EA6000102000001030030100800020209000090
:105EB600000C0000000F00000000010000020100BD
:105EC6000003010000FFFF010000019011010127FE
:105ED60002FFFF01000201BD01FFFF0100030100F7
:105EE6002D81020E00FFFF010000020000010200EA
:105EF600000003000001030707020306060503006E
:105F0600000603000D07030607080305000903073B
:105F1600000C0300000D030A00100200001102EF3E
:105F2600001202000013028F010004003101040177
:105F36000004040000000500000105000002050041
:105F46000003050000040500000505000010001010
:105F5600001100000620000200070073011414005F
:105F66000000000000F8F001FCF903FCFF03FEFF4F
:105F760007FEFF07FEFF07FEFF07FCFF03FCFF030C
:105F8600F8FF01F0FF00E07F00C03F00801F000027
:105F96000F000006000000000000002A2A2A204305
:105FA6006F6C6C656761726520656C657474726F81
:105FB6006469202A2A2A0041542B4950523D313126
:105FC600353230300D000041542B4950523D3537A3
:105FD6003630300D000041542B4950523D39363091
:105FE600300D00004672657175656E7A613A00255E
:0A5FF6003364006161006262000084
:020000040020DA
:08000000FFFFFFFFFFFFFFFF00
:020000040030CA
:0E000000200E011EFF0180FF0FC00FE00F4019
:00000001FF
