:020000040000FA
:0400000007EF00F016
:1000080058829CED0BF05DEF09F01F0E2D6E000E6F
:100018002E6EE6EF01F0250E3218D8B416EF00F078
:1000280018EF00F022EF00F01BC0D9FF1CC0DAFF68
:1000380032C0DFFF1B4A1C2AE6EF01F0000E316ECA
:10004800000E306E000E2F6E1DC0F6FF1EC0F7FFAB
:100058000800F550F7EC0DF0D8A035EF00F037EFB9
:1000680000F076EF00F0000E316E000E306E30C0FA
:1000780005F031C006F0000E086E0A0E076E28EC77
:100088000EF005C030F006C031F0D00E236EFF0E22
:10009800246E1DC0F6FF1EC0F7FF0800F550256E40
:1000A800266A2350252624502622255030262650FD
:1000B80031221D4A1E2A1DC0F6FF1EC0F7FF080088
:1000C800F550F7EC0DF0D8B06CEF00F06EEF00F0E3
:1000D8003BEF00F076EF00F02F8876EF00F02F8CE2
:1000E80096EF00F01DC0F6FF1EC0F7FF1D4A1E2A3E
:1000F8000800F5CF32F03250000AD8B4F7EF01F01B
:10010800640AD8B496EF00F00D0AD8B496EF00F060
:10011800050AD8B470EF00F0190AD8B473EF00F0EC
:10012800E6EF01F02FBC9BEF00F09DEF00F0DAEF57
:1001380000F02FA8A2EF00F0A4EF00F0B6EF00F057
:100148002DC0D9FF2EC0DAFFDECF29F0DECF2AF08E
:10015800DECF2BF0DECF2CF0040E2D26000E2E2243
:10016800C7EF00F02DC0D9FF2EC0DAFFDECF29F08F
:10017800DDCF2AF0000E2ABEFF0E2B6E2C6E020E6B
:100188002D26000E2E222CBECEEF00F0CCEF00F074
:1001980005EF01F0030E2F122C1E2B1E2A1E296CB0
:1001A800000E2A222B222C2205EF01F02FA8DFEFC8
:1001B80000F0E1EF00F0F3EF00F02DC0D9FF2EC002
:1001C800DAFFDECF29F0DECF2AF0DECF2BF0DECF4C
:1001D8002CF0040E2D26000E2E2205EF01F02DC066
:1001E800D9FF2EC0DAFFDECF23F0DDCF24F023C005
:1001F80029F024C02AF02B6A2C6A020E2D26000E44
:100208002E22010E326E3250040DDB0EF324F66EF0
:100218005E0EF420F76E0900F550295C0900F550D0
:100228002A580900F5502B580900F5502C58D8B019
:1002380020EF01F022EF01F024EF01F02EEF01F0A2
:10024800322A0A0E3218D8A42CEF01F02EEF01F052
:1002580007EF01F030503110D8B435EF01F037EF27
:1002680001F045EF01F02FC023F0030E2316D8B498
:1002780040EF01F042EF01F045EF01F03006D8A061
:1002880031063250236E246A3050235C2450800A91
:10029800256E3150800A2558D8B055EF01F057EF38
:1002A80001F05DEF01F03250305E000E315A61EF1F
:1002B80001F0000E316E000E306E30503110D8B49F
:1002C80068EF01F06AEF01F07EEF01F01BC0D9FF83
:1002D8001CC0DAFF200EDF6E1B4A1C2A3006D8A08D
:1002E800310630503110D8A47CEF01F07EEF01F0D8
:1002F8006AEF01F02FC023F0030E2316D8B487EF5E
:1003080001F089EF01F091EF01F01BC0D9FF1CC08B
:10031800DAFF2D0EDF6E1B4A1C2A32C027F0286A2E
:10032800D9EF01F027C023F028C024F0D890233655
:100338002436D89023362436DB0E2324F66E5E0E40
:100348002420F76E0900F5CF09F00900F5CF0AF06F
:100358000900F5CF0BF00A00F5CF0CF029C005F025
:100368002AC006F02BC007F02CC008F00BEC09F0EF
:1003780005C012F006C013F007C014F008C015F04D
:100388000A0E166E000E176E000E186E000E196E0D
:10039800EEEC09F01250300F326E1BC0D9FF1CC0B2
:1003A800DAFF32C0DFFF1B4A1C2A2706D8A028061E
:1003B800272806E12828D8A4E4EF01F0E6EF01F0A9
:1003C80096EF01F01DC0F6FF1EC0F7FF1D4A1E2A5A
:1003D8000800F5CF32F03250D8A4F5EF01F0F7EF6E
:1003E80001F00FEF00F01BC0D9FF1CC0DAFF000EB0
:1003F800DF6E12000001B551B4110BE1210EB25DA0
:100408004E0EB359D8A00BEF02F00DEF02F002EF39
:1004180003F0E00EB225946FB10EB321956FFF0E75
:10042800B421966FFF0EB521976F94510101005DBD
:10043800000195510101015900019651010102592C
:100448000001975101010359D8B02DEF02F02FEFA9
:1004580002F002EF03F0940E4A6E5F0E4B6EFF0E31
:100468004D6EE00E4C6E09EC0CF0B2C000F1B3C05A
:1004780001F1B4C002F1B5C003F16DEF02F0000E56
:10048800426EE10E436E000E446E000E456E68EC3F
:1004980007F00201446FAFEF02F0000E426EC20E89
:1004A800436E010E446E000E456E68EC07F00201C3
:1004B800446FAFEF02F0800E426E250E436E000EC1
:1004C800446E000E456E68EC07F00201446FAFEF12
:1004D80002F0B6C094F0B7C095F0B8C096F0B9C0B5
:1004E80097F000019751000AD8B4A4EF02F0AFEFDB
:1004F80002F09551250AD8B488EF02F0C40AD8B49E
:100508008FEF02F0AFEF02F09451800AD8B443EFB6
:1005180002F0AFEF02F09451000AD8B451EF02F0A4
:10052800AFEF02F09551C20AD8B49DEF02F0AFEFD9
:1005380002F09451000AD8B45FEF02F0AFEF02F076
:100548009651000AD8B47DEF02F0010AD8B496EFAC
:1005580002F0AFEF02F002014405D8B4B6EF02F0A2
:10056800B8EF02F0BEEF02F0E20E406F5F0E416F8F
:10057800C2EF02F0E80E406F5F0E416F40C24AF0D2
:1005880041C24BF0000E4D6E1F0E4C6E09EC0CF084
:1005980028EC0BF00009D8A4D4EF02F0D6EF02F053
:1005A80002EF03F05D0E4A6E5F0E4B6E000E4D6E4D
:1005B8001F0E4C6E09EC0CF078EC06F028EC0BF0F2
:1005C8000009D8B4EAEF02F0ECEF02F0F3EF02F022
:1005D800870E0201426F5F0E436FF8EF02F0CF0EF5
:1005E8000201426F5F0E436F42C24AF043C24BF0B2
:1005F800000E4D6E1F0E4C6E09EC0CF00001B5514B
:10060800B4110BE1C50EB25D090EB359D8A00FEFB6
:1006180003F011EF03F05EEF03F03C0EB225946F88
:10062800F60EB321956FFF0EB421966FFF0EB5211C
:10063800976F9451AE5D9551AF599651B0599751F6
:10064800B159D8B02AEF03F02CEF03F05EEF03F0B6
:10065800DA0E4A6E5F0E4B6EFF0E4D6EE00E4C6E5C
:1006680009EC0CF0B2C0AEF0B3C0AFF0B4C0B0F05B
:10067800B5C0B1F0BB0E126E010E136EF80E146EFB
:100688005F0E156EFB0E166E5F0E176E000E196E5E
:10069800000E186E000E1A6E020E1B6EF7EC06F0B6
:1006A800000E4A6E020E4B6EF80E4D6E000E4C6E2A
:1006B80009EC0CF00001B551B4110BE1A10EB25DCB
:1006C8000F0EB359D8A06BEF03F06DEF03F0C8EF2E
:1006D80003F0600EB225946FF00EB321956FFF0EF4
:1006E800B421966FFF0EB521976F9451AA5D95516D
:1006F800AB599651AC599751AD59D8B086EF03F024
:1007080088EF03F0C8EF03F0AD0E4A6E5F0E4B6E34
:10071800FF0E4D6EE00E4C6E09EC0CF0B2C0AAF064
:10072800B3C0ABF0B4C0ACF0B5C0ADF0200E056EF0
:10073800020E066E000E086E000E076E000E0A6EA0
:10074800200E096EC1EC0DF0B20E126E010E136E82
:10075800F80E146E5F0E156EFB0E166E5F0E176E9A
:10076800000E196E000E186E200E1A6E020E1B6E09
:10077800F7EC06F0200E4A6E020E4B6EF80E4D6E28
:10078800000E4C6E09EC0CF01200000E3E6E3EC0DE
:1007980034F0356A34BE35062E50050D0F0E366E10
:1007A800590E376EF3503626F45037223450362619
:1007B8003550372236C0F6FF37C0F7FF0800F5CFAF
:1007C80038F0000E3D6E38A0ECEF03F0EEEF03F0CA
:1007D80047EF04F03304D8A4F4EF03F0F6EF03F086
:1007E80011EF04F02A503D240D6E000E3DBEFF0EA1
:1007F8002B200E6E3EC034F0356A34BE35063450B8
:100808002C5C0F6E35502D58106E2FC011F030C073
:1008180012F067EC0DF0AAEF04F03D50056E066A81
:1008280005BE060633C007F0086A28EC0EF02A5009
:100838000524396E2B5006203A6E3E50056E066A26
:1008480005BE060633C007F0086A28EC0EF005500E
:100858002C5C3B6E06502D583C6E39C01CF03AC0DB
:100868001DF03BC01EF03CC01FF033C020F0216AD1
:1008780033C022F0236A2FC024F030C025F0EDECFD
:100888000AF0AAEF04F02F50311809E1305032185D
:10089800D8B451EF04F053EF04F0AAEF04F0330496
:1008A800D8A459EF04F05BEF04F076EF04F02A5077
:1008B8003D240D6E000E3DBEFF0E2B200E6E3EC079
:1008C80034F0356A34BE350634502C5C0F6E355022
:1008D8002D58106E31C011F032C012F067EC0DF0D7
:1008E800AAEF04F03D50056E066A05BE060633C041
:1008F80007F0086A28EC0EF02A500524396E2B50B0
:1009080006203A6E3E50056E066A05BE060633C0DE
:1009180007F0086A28EC0EF005502C5C3B6E065078
:100928002D583C6E39C01CF03AC01DF03BC01EF07B
:100938003CC01FF033C020F0216A33C022F0236A84
:1009480031C024F032C025F0EDEC0AF03D2AD890F1
:1009580038323D50800A780FD8A0B5EF04F0B7EFD1
:1009680004F0E7EF03F03E2A3E50800A7B0FD8A040
:10097800C0EF04F0C2EF04F0CBEF03F01200135005
:10098800175C056E14501858066EDDEC0DF005C0A6
:100998001DF006C01EF01550195C056E16501A5849
:1009A800066EDDEC0DF005501D5C1E50800A1F6EB2
:1009B8000650800A1F58D8A0E4EF04F0E7EF04F0CF
:1009C800010EE8EF04F0000E2E6E2F6A2E502F1045
:1009D800D8B4F1EF04F0F3EF04F00BEF05F013C017
:1009E80020F014C021F015C013F016C014F020C078
:1009F80015F021C016F017C022F018C023F019C056
:100A080017F01AC018F022C019F023C01AF01350BA
:100A1800175C1850800A1D6E1450800A1D58D8B0F3
:100A280018EF05F01AEF05F032EF05F013C024F0C7
:100A380014C025F017C013F018C014F024C017F024
:100A480025C018F015C026F016C027F019C015F0FB
:100A58001AC016F026C019F027C01AF01350175CF8
:100A6800306E14501858316E1550195C056E1650BA
:100A78001A58066EDDEC0DF005C028F006C029F006
:100A880030C005F031C006F0000E086E020E076E89
:100A980047EC08F005C02CF006C02DF01950155C85
:100AA8001650800A1D6E1A50800A1D58D8B05FEF84
:100AB80005F061EF05F067EF05F0000E2B6E010EF3
:100AC8002A6EA7EF05F02A682B68A7EF05F02E50CD
:100AD8002F10D8B472EF05F074EF05F084EF05F02D
:100AE80015C00DF016C00EF013C00FF014C010F0B2
:100AF8001BC011F01CC012F067EC0DF092EF05F06E
:100B080013C00DF014C00EF015C00FF016C010F091
:100B18001BC011F01CC012F067EC0DF028502C5EC1
:100B280029502D5A2DBE9DEF05F09BEF05F0A5EF3E
:100B380005F02A5015262B50162230502C263150FD
:100B48002D22134A142A1350175C1850800A1D6E60
:100B58001450800A1D58D8B0B4EF05F0B6EF05F070
:100B68006BEF05F012000E501A6E0DC01BF0020E4E
:100B7800066E020E056E0DC007F00EC008F004ECFC
:100B88000DF00F06000E105A115A125A829000F0FA
:100B98000FC013F010C014F011C015F012C016F0F9
:100BA800030EDCEF05F0D8901632153214321332EA
:100BB800E82ED7EF05F013C017F014C018F01B503B
:100BC8001A18D8A4EAEF05F0ECEF05F051EF06F09B
:100BD80006EF06F0809A00F0808A809A00F0808AFA
:100BE800809A00F0808A809A00F0808A809A00F0CB
:100BF800808A809A00F0808A809A00F0808A809AA1
:100C080000F0808A1706D8A01806172806E11828C9
:100C1800D8A411EF06F013EF06F0EEEF05F00F5031
:100C2800030B196E1EEF06F0809A00F0808A809AF6
:100C380000F0808A19061928D8A425EF06F027EFB6
:100C480006F018EF06F076EF06F01AC081FF809ADA
:100C580000F0808A1BC081FF809A00F0808A1AC049
:100C680081FF809A00F0808A1BC081FF809A00F083
:100C7800808A1AC081FF809A00F0808A1BC081FF99
:100C8800809A00F0808A1AC081FF809A00F0808ADA
:100C98001BC081FF809A00F0808A1706D8A018062A
:100CA800172806E11828D8A45CEF06F05EEF06F0D6
:100CB80029EF06F00F50030B196E6DEF06F01AC0FE
:100CC80081FF809A00F0808A1BC081FF809A00F023
:100CD800808A19061928D8A474EF06F076EF06F072
:100CE80063EF06F08280120021EE6CF010EE80F0C7
:100CF8000B0EDBCFE3FFE806FCE2740E4A6E5F0ED4
:100D08004B6EF80E4D6E1F0E4C6E09EC0CF0000E7B
:100D180000018C6F8C51040D800EF324D96E000EE7
:100D2800F420DA6EDECF12F0DECF13F0DECF14F04F
:100D3800DECF15F032EC0AF028EC0BF0E806D8A468
:100D4800A8EF06F0AAEF06F0E2EF06F0600E1B6EC1
:100D5800000E1C6EB90E1D6E5F0E1E6E00018C51CA
:100D6800040D800EF324D96E000EF420DA6EDECF67
:100D78001FF0DECF20F0DECF21F0DECF22F009EC2D
:100D880000F0600E4A6E000E4B6EF80E4D6E000EAF
:100D98004C6E09EC0CF000018C51040D800EF3240C
:100DA800D96E000EF420DA6EDECFB6F0DECFB7F0E3
:100DB800DECFB8F0DECFB9F0F6EF06F0FA0E056E2A
:100DC800000E066E000E076E000E086EA4EC0DF005
:100DD80000018C2B020E8C65F4EF06F0F6EF06F09E
:100DE8008EEF06F0120018501910D8A4FEEF06F086
:100DF80000EF07F004EF07F0030E196EE80E186E07
:100E08001AC005F01BC006F0000E086E000E076E33
:100E1800000E0A6E020E096EC1EC0DF00AC109F14E
:100E280012C009F013C00AF012C005F013C006F092
:100E3800BAEC0CF005500B6E47EC0DF018500001A1
:100E4800B2251D6E1950B3211E6E000EB4211F6EFF
:100E5800000EB521206E43EF07F00001B2511D5C72
:100E6800B3511E58B4511F58B5512058D8B03FEF50
:100E780007F041EF07F043EF07F067EF07F00101D4
:100E88000A510919D8B44BEF07F04DEF07F031EFCD
:100E980007F0092B0C0E0925D96EDA6A010EDA2241
:100EA8000A0EDE18D8A45BEF07F05DEF07F022EF1B
:100EB80007F01AC005F01BC006F018C007F019C0EB
:100EC80008F0A9EC08F01200800E1B6E000E1C6ED4
:100ED800A10E1D6E5F0E1E6E42C01FF043C020F0B3
:100EE80044C021F045C022F009EC00F0800E126EDB
:100EF800000E136EF80E146E5F0E156EFB0E166E56
:100F08005F0E176E000E196E000E186E600E1A6EC8
:100F1800000E1B6EF7EC06F0600E056E000E066EF6
:100F2800F50E076E5F0E086E39EC0CF005500610D2
:100F3800D8A4A1EF07F0A3EF07F0CCEF07F0E80E75
:100F4800056E030E066E000E076E000E086EA4EC0A
:100F58000DF042C012F043C013F044C014F045C075
:100F680015F032EC0AF028EC0BF0E806D8A4BFEF35
:100F780007F0C1EF07F0CCEF07F042C0B6F043C06E
:100F8800B7F044C0B8F045C0B9F0010ED7EF07F08C
:100F9800B6C012F0B7C013F0B8C014F0B9C015F05D
:100FA80032EC0AF0000E12005EEC0EF00D0E1F6E11
:100FB8002D0E1E6ED80EE82EFED71E2EFCD71F2E25
:100FC800FAD7000E276E000E266E000E236E660EF0
:100FD800226E32EF08F0D8902634F66E2734F76E7A
:100FE8000F0EF6265E0EF7220900F5CF24F00A0050
:100FF800F5CF25F0264A272AD8902634F66E2734CE
:10100800F76E0F0EF6265E0EF7220900F5CF20F0D8
:101018000A00F5CF21F0264A272A242806E12528A8
:10102800D8A419EF08F01BEF08F028EF08F00D0E10
:101038001F6E2D0E1E6ED80EE82EFED71E2EFCD764
:101048001F2EFAD732EF08F024C005F025C006F0AD
:1010580020C007F021C008F004EC0DF0225026183B
:1010680007E123502718D8A43CEF08F03EEF08F01A
:10107800EFEF07F03BEC0EF0000E1D6E000E1C6E3D
:10108800E1EC0CF01200000E0A6E08BE50EF08F0FA
:101098004EEF08F056EF08F0076C081ED8B0082A83
:1010A800010E0A6E06BE5DEF08F05BEF08F063EF15
:1010B80008F0056C061ED8B0062A010E0A1A000EA2
:1010C8000C6E000E0B6E07500810D8B46EEF08F0C7
:1010D80070EF08F098EF08F0010E096E78EF08F04D
:1010E800D89007360836092A08AE7DEF08F07FEF5A
:1010F80008F074EF08F0D8900B360C360750055CF2
:1011080008500658D8A08BEF08F08DEF08F092EF42
:1011180008F00750055E0850065A0B80D890083230
:101128000732092E7FEF08F00A50D8B49EEF08F076
:10113800A0EF08F0A4EF08F00B6C0C1ED8B00C2A36
:101148000BC005F00CC006F01200000E116E07C0AF
:1011580009F008C00AF0000E0ABEFF0E0B6E0C6EF6
:101168000001B25109240D6EB3510A200E6EB4511C
:101178000B200F6EB5510C20106ED5EF08F0000152
:10118800B2510D5CB3510E58B4510F58B5511058A7
:10119800D8B0D1EF08F0D3EF08F0D5EF08F00AEF98
:1011A80009F001010A510919D8B4DDEF08F0DFEFA1
:1011B80008F0C3EF08F0092B0C0E0925D96EDA6A7E
:1011C800010EDA220D0EDE18D8A4EDEF08F0EFEFCD
:1011D80008F0F1EF08F002EF09F00C0E0925D96EBE
:1011E800DA6A010EDA2211500524E16E000E06209B
:1011F800E26EDFCFE7FF112AABEF08F011500524AC
:10120800D96E000E0620DA6E000EDF6E1200000E98
:101218000D6E000E0E6E000E0F6E000E106E095051
:101228000A100B100C10D8B41CEF09F01EEF09F0CF
:1012380054EF09F0010E116E28EF09F0D890093625
:101248000A360B360C36112A0CAE2DEF09F02FEFAB
:1012580009F022EF09F0D8900D360E360F36103609
:101268000950055C0A5006580B5007580C5008588E
:10127800D8A041EF09F043EF09F04CEF09F009500D
:10128800055E0A50065A0B50075A0C50085A0D8032
:10129800D8900C320B320A320932112E2FEF09F096
:1012A8000DC005F00EC006F00FC007F010C008F022
:1012B8001200D20EF66E180EF76E000EF86E01EEE2
:1012C8006CF010EE53F00900F5CFEEFFE550E15059
:1012D800FAE12A0EF66E1D0EF76E000EF86E00EE9D
:1012E800B6F010EE08F00900F5CFEEFFE550E1503A
:1012F800FAE1320EF66E1D0EF76E000EF86E00EE75
:1013080054F010EE04F00900F5CFEEFFE550E1507F
:10131800FAE101EE00F06C0EEE6AE806FDE100EE7F
:1013280098F01E0EEE6AE806FDE1536A526A516AA9
:10133800506A4F6A4E6A58905892000EF86E000133
:101348004EEF0EF0D5EF09F03FC02AF040C02BF069
:1013580041C02CF042C02DF043C0F6FF44C0F7FF57
:10136800F86A070EF76403D00800F55005D0F6CFE9
:10137800E9FFF7CFEAFFEF502E6E45C02FF046C0C9
:1013880030F047C031F048C032F049C033F0C9EC02
:1013980003F04950060DF350415EF450425A434A57
:1013A800442A43C0F6FF44C0F7FFF86A070EF76403
:1013B80003D00800F55005D0F6CFE9FFF7CFEAFFD4
:1013C800EF500009D8A4EBEF09F0EDEF09F0A8EF12
:1013D80009F012001650171018101910D8B4F7EFAA
:1013E80009F0F9EF09F029EF0AF0010E1A6E03EF80
:1013F8000AF0D89016361736183619361A2A19AE42
:1014080008EF0AF00AEF0AF0FDEF09F01650125C37
:10141800175013581850145819501558D8A017EFCA
:101428000AF019EF0AF021EF0AF01650125E175071
:10143800135A1850145A1950155AD890193218328C
:10144800173216321A2E0AEF0AF012C012F013C021
:1014580013F014C014F015C015F01200AC98AC8449
:10146800B886000E056E6C0E066EDC0E076E020E58
:10147800086E12C009F013C00AF014C00BF015C0B2
:101488000CF00BEC09F005C01AF006C01BF007C001
:101498001CF008C01DF01AC016F01BC017F01CC0C5
:1014A80018F01DC019F0030E5FEF0AF0D89019323A
:1014B800183217321632E82E5AEF0AF016C01AF010
:1014C80017C01BF018C01CF019C01DF01A06000E3A
:1014D8001B5A1C5A1D5A1AC0AFFF1BC0B0FF12007E
:1014E800020E066E100E056E0DC007F00EC008F055
:1014F80004EC0DF0020E066E110E056E11C007F019
:1015080012C008F004EC0DF0020E066E120E056E05
:101518000FC007F010C008F004EC0DF0020E066EC4
:10152800130E056E13C007F014C008F004EC0DF09C
:10153800020E066E000E056E0DC007F00EC008F014
:1015480004EC0DF0020E066E010E056E13C007F0D6
:1015580014C008F004EC0DF01200000E1D6E000E11
:101568001C6EE1EC0CF0000E406E080E3F6E010E92
:10157800426E860E416EC40E436E5F0E446EFF0EC1
:10158800466E4568000E486E000E476E020E496EA4
:10159800A6EC09F0000E146E200E136E000E166EE7
:1015A800000E156E000E186E200E176E010E1A6EC4
:1015B800900E196EFF0E1C6E1B68C3EC04F0010E32
:1015C800556E8F0E546E010E0001BB6F8F0EBA6FF1
:1015D80012001CC00DF01DC00EF01EC00FF01FC081
:1015E80010F020501C24266E21501D20276EFF0E5F
:1015F8002624116EFF0E2720126E22501E24286EFC
:1016080023501F20296EFF0E2824136EFF0E292059
:10161800146E74EC0AF024C00DF025C00EF020C042
:1016280005F021C006F022C007F023C008F028EC1E
:101638000EF005C00FF006C010F0116A126AB7EC80
:1016480005F03BEC0EF01200030E416E58EF0BF064
:10165800ED0E126E5F0E136EF80E146E5F0E156EA1
:10166800FB0E166E5F0E176E000E196E000E186ECA
:10167800210E1A6E000E1B6EF7EC06F0210E056E99
:10168800000E066EF50E076E5F0E086E39EC0CF054
:1016980005500610D8A453EF0BF055EF0BF058EF98
:1016A8000BF0010E62EF0BF041064128D8A45FEF62
:1016B8000BF061EF0BF02CEF0BF0000E1200D39E35
:1016C800700ED312FC0ED3169B8EE00E9B16070EDF
:1016D800066E170E056E6A0EE82EFED7052EFCD78D
:1016E800062EFAD700D06D966F860B0E926E000EFE
:1016F800896EF18E000E936E000E8A6EF00E946E57
:10170800000E8B6EC290CF0EC116C150F00B0E09A1
:10171800C16EC08EC70EC016C050F80B0209C06E4D
:10172800CF0EB116B192B180A082F28CF28E120067
:101738000600D9CF03F0DACF04F0A0A2A6EF0BF091
:10174800A8EF0BF0BDEF0BF0A1A2ADEF0BF0AFEFE0
:101758000BF0BDEF0BF0050E0001B227000EB3230E
:10176800B423B5236DEC0EF0160EB36E000EB26EF8
:10177800A1929DAAC2EF0BF0C4EF0BF0CDEF0BF0D6
:101788009EAAC9EF0BF0CBEF0BF0CDEF0BF026ECD8
:101798000DF004C0DAFF03C0D9FF58921100AC9CC9
:1017A800AC8AAC98AC96AC84AB8EAB9CAB88B88654
:1017B800B892B890040EB06EE10EAF6E9D8A000E1E
:1017C8000101096F000E0A6F000E086F010E0B6F02
:1017D8000C0E056E010E066E000E086E000E076EEA
:1017E800000E0A6E400E096EC1EC0DF04C0E056E2F
:1017F800010E066E000E086E000E076E000E0A6ED1
:10180800200E096EC1EC0DF01200080E01010B2725
:101818000BC11CF01D6A000E1F6E000E1E6E000E1E
:10182800216E320E206E010E236E900E226E000E77
:10183800256E000E246EEDEC0AF00BC13FF0406AF5
:10184800010E426E8F0E416E4AC043F04BC044F009
:101858004CC045F04DC046F0000E486E000E476E75
:10186800010E496EA6EC09F012003FEF0CF0054A94
:10187800062A074A082A07C0F6FF08C0F7FF08002B
:10188800F5CF09F005C0D9FF06C0DAFFDF500A6EB0
:1018980009500A5C0B6E0B50D8A455EF0CF057EFAB
:1018A8000CF063EF0CF005C0D9FF06C0DAFFDF507B
:1018B800D8A461EF0CF063EF0CF03BEF0CF00B5089
:1018C800056E066A05BE060612008025000000E1C6
:1018D800000000C2010041542B434F50533D3F0DBF
:1018E8000041542B434F50533F0D0041542B43525A
:1018F80045473F0D0041542B43434C4B3F0D00419E
:10190800542B434349440D0041542B4353510D007C
:0D19180041542B4950523F0D0041540D0029
:10192600000E086E82AA9AEF0CF09CEF0CF09DEF69
:101936000CF0088282A8A2EF0CF0A4EF0CF0A5EF41
:101946000CF008800850D8B4ABEF0CF0AFEF0CF0F9
:10195600076A072AB0EF0CF0076A074652500718C5
:10196600FD0B0718526E08C005F0066A120005C086
:1019760007F006C008F0C2EF0CF0074A082A07C0B5
:10198600F6FF08C0F7FFF86A070EF76403D00800F1
:10199600F55005D0F6CFE9FFF7CFEAFFEF50000983
:1019A600D8A4D8EF0CF0DAEF0CF0C0EF0CF005502D
:1019B600075C056E06500858066E1200020E066E8B
:1019C600000E056E000E086E000E076E04EC0DF09C
:1019D600020E066E010E056E000E086E000E076EF4
:1019E60004EC0DF01CC00DF01DC00EF0000E0F6EC5
:1019F600770E106E010E116E000E126EB7EC05F02A
:101A06001200829000F082920650096E05C00AF01C
:101A160009C081FF809A00F0808A0AC081FF809AFF
:101A260000F0808A828208500B6E07C00CF00BC053
:101A360081FF809A00F0808A0CC081FF809A00F0B6
:101A4600808A82801200AECF01F0ABA22DEF0DF09E
:101A56002FEF0DF031EF0DF0AB98AB8801010A2B9B
:101A6600400E0A19D8A43AEF0DF03CEF0DF03EEF08
:101A76000DF0000E0A6F0C0E0A25D96EDA6A010EF9
:101A8600DA2201C0DFFF12005DEF0DF009C0F6FF9C
:101A96000AC0F7FFF86A070EF76403D00800F5508E
:101AA60005D0F6CFE9FFF7CFEAFFEF5089EC0EF04D
:101AB600094A0A2A0B060B28D8A464EF0DF066EF34
:101AC6000DF049EF0DF01200020E066E000E056EC7
:101AD6000DC007F00EC008F004EC0DF0020E066E05
:101AE600010E056E0FC007F010C008F004EC0DF0F3
:101AF600020E066E020E056E11C007F012C008F047
:101B060004EC0DF01200000E1D6E000E1C6EE1ECD2
:101B16000CF0000E406E460E3F6E010E426E6A0ECF
:101B2600416E410E436E5F0E446EFF0E466E456873
:101B3600000E486E000E476E020E496EA6EC09F0C6
:101B4600120005500001B225096E0650B3210A6E37
:101B56000750B4210B6E0850B5210C6E0950B25DCA
:101B66000A50B3590B50B4590C50B559D8A0BEEF12
:101B76000DF0C0EF0DF0B1EF0DF0120005C00BF047
:101B860006C00CF0CFEF0DF00BC0D9FF0CC0DAFF8A
:101B960007C0DFFF0B4A0C2A0906D8A00A06092847
:101BA60006E10A28D8A4DAEF0DF0DCEF0DF0C7EF56
:101BB6000DF0120006BEE4EF0DF0E2EF0DF0F2EFCD
:101BC6000DF005C007F006C008F0071E081E074AFC
:101BD600082A07C005F008C006F0F6EF0DF005C0AC
:101BE60005F006C006F01200076E000E066E3A0EED
:101BF600076000EF0EF002EF0EF00CEF0EF02F0E66
:101C0600076408EF0EF00AEF0EF00CEF0EF0010E6F
:101C1600066E06C005F00530120093EC0CF0055078
:101C26000610D8A419EF0EF01BEF0EF01FEF0EF002
:101C3600B1EC0AF021EF0EF086EC0DF0000E00017B
:101C4600A46F000EA96F4E8C120005500702F3CF49
:101C560009F0F4CF0AF005500802F3500A260650A0
:101C66000702F3500A2609C005F00AC006F0120062
:101C7600000E0E6E000E0D6E000E106E000E0F6E34
:101C8600000E126EEF0E116E010E146E8F0E136E95
:101C960074EC0AF0120063EC0BF0D8EC07F0D3EC0E
:101CA6000BF010EC0EF07CEC0EF0FEEC01F058EFB1
:101CB6000EF007EF00F0000E936E8280808A808817
:101CC6008294200E056E2A0EE82EFED7052EFCD72E
:101CD60082841200010E016E5350070B026E0150F2
:101CE600022653500218F80B0218536E512A5288D6
:101CF600120078EC06F0C40E056E090E066E000E94
:101D0600076E000E086EA4EC0DF01200056E9EA87C
:101D16008FEF0EF091EF0EF08AEF0EF005C0ADFFDB
:101D260000F01200802500008F01EF008F01EF0008
:10590E000000000000003E5B4F5B3E3E6B4F6B3E67
:10591E001C3E7C3E1C183C7E3C181C577D571C1CA4
:10592E005E7F5E1C00183C1800FFE7C3E7FF0018FF
:10593E00241800FFE7DBE7FF30483A060E262979E8
:10594E002926407F050507407F05253F5A3CE73C49
:10595E005A7F3E1C1C08081C1C3E7F14227F2214FA
:10596E005F5F005F5F06097F017F006689956A6051
:10597E006060606094A2FFA29408047E0408102068
:10598E007E201008082A1C08081C2A08081E101061
:10599E0010100C1E0C1E0C30383E3830060E3E0E0B
:1059AE0006000000000000005F0000000700070076
:1059BE00147F147F14242A7F2A122313086462365C
:1059CE00495620500008070300001C2241000041E8
:1059DE00221C002A1C7F1C2A08083E080800807022
:1059EE003000080808080800006060002010080455
:1059FE00023E5149453E00427F40007249494946A8
:105A0E002141494D331814127F1027454545393C25
:105A1E004A49493141211109073649494936464912
:105A2E0049291E0000140000004034000000081434
:105A3E0022411414141414004122140802015909AD
:105A4E00063E415D594E7C1211127C7F4949493602
:105A5E003E414141227F4141413E7F494949417F7B
:105A6E00090909013E414151737F0808087F004131
:105A7E007F41002040413F017F081422417F40407A
:105A8E0040407F021C027F7F0408107F3E4141414F
:105A9E003E7F090909063E4151215E7F09192946BB
:105AAE00264949493203017F01033F4040403F1FD1
:105ABE002040201F3F4038403F6314081463030406
:105ACE007804036159494D43007F41414102040866
:105ADE001020004141417F04020102044040404039
:105AEE0040000307080020545478407F284444386F
:105AFE003844444428384444287F385454541800B9
:105B0E00087E090218A4A49C787F08040478004437
:105B1E007D40002040403D007F1028440000417F22
:105B2E0040007C047804787C0804047838444444AB
:105B3E0038FC1824241818242418FC7C08040408A3
:105B4E00485454542404043F44243C4040207C1CBC
:105B5E002040201C3C4030403C44281028444C90AF
:105B6E0090907C4464544C44000836410000007709
:105B7E000000004136080002010204023C262326E2
:105B8E003C1EA1A161123A4040207A385454555916
:105B9E00215555794122545478422155547840204C
:105BAE00545579400C1E5272123955555559395467
:105BBE0054545939555454580000457C41000245FF
:105BCE007D420001457C407D1211127DF028252872
:105BDE00F07C545545002054547C547C0A097F496E
:105BEE0032494949323A4444443A324A4848303AB2
:105BFE004141217A3A42402078009DA0A07D3D424D
:105C0E0042423D3D4040403D3C24FF2424487E49D5
:105C1E0043662B2FFC2F2BFF0929F620C0887E0907
:105C2E000320545479410000447D413048484A32A3
:105C3E00384040227A007A0A0A727D0D19317D268B
:105C4E0029292F28262929292630484D4020380871
:105C5E0008080808080808382F10C8ACBA2F1028F2
:105C6E0034FA00007B000008142A142222142A148D
:105C7E00085500550055AA55AA55AAFF55FF55FFC0
:105C8E00000000FF00101010FF00141414FF00108D
:105C9E0010FF00FF1010F010F0141414FC00141478
:105CAE00F700FF0000FF00FF1414F404FC14141797
:105CBE00101F10101F101F1414141F00101010F0BE
:105CCE00000000001F101010101F10101010F01008
:105CDE00000000FF101010101010101010FF100018
:105CEE000000FF140000FF00FF00001F101700004F
:105CFE00FC04F414141710171414F404F40000FF29
:105D0E0000F714141414141414F700F714141417C1
:105D1E001410101F101F141414F4141010F010F09F
:105D2E0000001F101F0000001F14000000FC1400D4
:105D3E0000F010F01010FF10FF141414FF141010C8
:105D4E00101F00000000F010FFFFFFFFFFF0F0F04B
:105D5E00F0F0FFFFFF0000000000FFFF0F0F0F0F1E
:105D6E000F3844443844FC4A4A4A347E020206063E
:105D7E00027E027E0263554941633844443C04402E
:105D8E007E201E2006027E020299A5E7A5991C2AF6
:105D9E00492A1C4C7201724C304A4D4D30304878B5
:105DAE004830BC625A463D3E494949007E010101D8
:105DBE007E2A2A2A2A2A44445F444440514A4440B7
:105DCE0040444A51400000FF0103E080FF000008FC
:105DDE00086B6B083612362436060F090F060000C4
:105DEE0018180000001010003040FF0101001F01C4
:105DFE00011E00191D1712003C3C3C3C0000000027
:105E0E000002070830050736000B071312010000C9
:105E1E000102000001030030100800020209000018
:105E2E00000C0000000F0000000001000002010045
:105E3E000003010000FFFF01000001901101012786
:105E4E0002FFFF01000201BD01FFFF01000301007F
:105E5E002D81020E00FFFF01000002000001020072
:105E6E0000000300000103070702030606050300F6
:105E7E00000603000D0703060708030500090307C4
:105E8E00000C0300000D030A00100200001102EFC7
:105E9E00001202000013028F010004003101040100
:105EAE0000040400000005000001050000020500CA
:105EBE000003050000040500000505000010001099
:105ECE00001100000620000200070073010100000F
:105EDE00000A00000064000000E803000010270024
:105EEE0000A086010040420F008096980000E1F568
:105EFE000500CA9A3B1414000000000000F8F001DF
:105F0E00FCF903FCFF03FEFF07FEFF07FEFF07FE83
:105F1E00FF07FCFF03FCFF03F8FF01F0FF00E07F2B
:105F2E0000C03F00801F00000F00000600000000B0
:105F3E000000002A2A2A20436F6C6C656761726527
:105F4E0020656C657474726F6469202A2A2A004376
:105F5E006F6D6D20697320646561642E20526574C7
:105F6E0072792E2E2E00446574656374696E6720F7
:105F7E0073706565642E2E2E005265737572726590
:105F8E006374656421004368616E67652073706594
:105F9E0065640041542B4950523D256C750D0043EC
:105FAE006865636B20737065656400256C752046AB
:105FBE004F554E4421004672657175656E7A613A91
:105FCE00005374696C6C20646561640053656E6483
:105FDE00204154004E6F2E2E2E0059657321004124
:105FEE00540D00253364004F4B0061610062620066
:015FFE0000A2
:020000040020DA
:08000000FFFFFFFFFFFFFFFF00
:020000040030CA
:0E000000200E011EFF0180FF0FC00FE00F4019
:00000001FF
