:020000040000FA
:0400000007EF00F016
:100008005A825AED12F023EF12F021EC0FF00101A1
:10001800C451C3110BE1210EC15D4E0EC259D8A0C7
:1000280018EF00F01AEF00F078EF01F0E00EC125AC
:100038000001AC6FB10E0101C2210001AD6FFF0ECE
:100048000101C3210001AE6FFF0E0101C4210001AF
:10005800AF6FAC510101B15D0001AD510101B25961
:100068000001AE510101B3590001AF510101B4596A
:10007800D8B041EF00F043EF00F078EF01F0C1C1D4
:10008800B1F1C2C1B2F1C3C1B3F1C4C1B4F1800EC0
:100098004A6E010E4B6EE90E4C6E5E0E4D6EB3EC61
:1000A80009F01FC04EF020C04FF021C050F022C010
:1000B80051F03CEC03F0800E4A6E010E4B6EFF0EC1
:1000C8004D6EE00E4C6EABEC0FF0000E0101A86F08
:1000D800000EA96F000EAA6F000EAB6FD5EF00F0EF
:1000E800000E0001706FC20E716F010E726F000E6C
:1000F800736F1EEC09F070C0A8F171C0A9F172C04D
:10010800AAF173C0ABF110EF01F0800E0001706F1F
:10011800250E716F000E726F000E736F1EEC09F0E2
:1001280070C0A8F171C0A9F172C0AAF173C0ABF197
:1001380010EF01F0000E0001706FE10E716F000EFC
:10014800726F000E736F1EEC09F070C0A8F171C0D9
:10015800A9F172C0AAF173C0ABF110EF01F0800EE3
:100168004A6E010E4B6E2F0E4C6E5E0E4D6EB3EC4A
:1001780009F01FC04EF020C04FF021C050F022C03F
:1001880051F03CEC03F0800E4A6E010E4B6EFF0EF0
:100198004D6EE00E4C6EABEC0FF08DEC0CF010EFEA
:1001A80001F0B3EC09F02250000AD8B405EF01F0D1
:1001B800B3EF00F02050250AD8B4E9EF00F0C40AE4
:1001C800D8B4F0EF00F0B3EF00F01F50800AD8B4B5
:1001D8009EEF00F0B3EF00F01F50000AD8B474EFA0
:1001E80000F0B3EF00F02050C20AD8B4FEEF00F0E0
:1001F800B3EF00F01F50000AD8B489EF00F0B3EF56
:1002080000F02150000AD8B4DEEF00F0010AD8B49B
:10021800F7EF00F0B3EF00F0800E4A6E010E4B6E60
:100228006B0E4C6E5E0E4D6EA8C14EF0A9C14FF01C
:10023800AAC150F0ABC151F03CEC03F00101A85148
:10024800A911AA11AB11D8B42CEF01F02EEF01F0CF
:1002580034EF01F0800EA06F010EA16F38EF01F0AE
:10026800A10EA06F5E0EA16FA0C14AF0A1C14BF014
:10027800F80E4D6E1F0E4C6EABEC0FF08EEC13F0BB
:100288000009D8A44AEF01F04CEF01F078EF01F033
:10029800000E4A6E5F0E4B6E000E4D6E1F0E4C6EBA
:1002A800ABEC0FF08DEC0CF08EEC13F00009D8B429
:1002B80060EF01F062EF01F069EF01F03E0E01011D
:1002C800A26F5F0EA36F6EEF01F0850E0101A26FA2
:1002D8005F0EA36FA2C14AF0A3C14BF0000E4D6E92
:1002E8001F0E4C6EABEC0FF00101C451C3110BE1B2
:1002F800C50EC15D090EC259D8A085EF01F087EF80
:1003080001F0DCEF01F03C0EC1250001AC6FF60EE8
:100318000101C2210001AD6FFF0E0101C3210001DF
:10032800AE6FFF0E0101C4210001AF6FAC51010196
:10033800BD5D0001AD510101BE590001AE51010181
:10034800BF590001AF510101C059D8B0AEEF01F05B
:10035800B0EF01F0DCEF01F0C1C1BDF1C2C1BEF1E7
:10036800C3C1BFF1C4C1C0F19B0E4A6E5F0E4B6E94
:10037800FF0E4D6EE00E4C6EABEC0FF0B00E186E2B
:100388005F0E196E000E1B6E000E1A6E000E1C6EAC
:10039800010E1D6E200E1E6E33EC10F0000E4A6E1C
:1003A800010E4B6E070E4D6EE00E4C6EABEC0FF06F
:1003B8000101C451C3110BE1A10EC15D0F0EC25959
:1003C800D8A0E9EF01F0EBEF01F044EF02F0600E86
:1003D800C1250001AC6FF00E0101C2210001AD6F13
:1003E800FF0E0101C3210001AE6FFF0E0101C42100
:1003F8000001AF6FAC510101B95D0001AD510101C0
:10040800BA590001AE510101BB590001AF510101B8
:10041800BC59D8B012EF02F014EF02F044EF02F02A
:10042800C1C1B9F1C2C1BAF1C3C1BBF1C4C1BCF108
:100438002E0E4A6E5F0E4B6EFF0E4D6EE00E4C6E2A
:10044800ABEC0FF0200E4A6E010E4B6EF60E4C6EA2
:100458005F0E4D6EB3EC09F01FC04EF020C04FF098
:1004680021C050F022C051F03CEC03F0200E4A6E3F
:10047800010E4B6EF80E4D6E000E4C6EABEC0FF08D
:100488000101C451C3110BE1650EC15D190EC259BA
:10049800D8A051EF02F053EF02F0AEEF02F09C0E3D
:1004A800C1250001AC6FE60E0101C2210001AD6F4C
:1004B800FF0E0101C3210001AE6FFF0E0101C4212F
:1004C8000001AF6FAC510101B55D0001AD510101F3
:1004D800B6590001AE510101B7590001AF510101F0
:1004E800B859D8B07AEF02F07CEF02F0AEEF02F024
:1004F800C1C1B5F1C2C1B6F1C3C1B7F1C4C1B8F148
:100508007A0E4A6E5F0E4B6EFF0E4D6EE00E4C6E0D
:10051800ABEC0FF0400E4A6E010E4B6E170E4C6E90
:100528005F0E4D6EC7EC0DF00001AC6FAC514E6E16
:100538004F6AF9EC10F0506E516A50BE51063CEC0F
:1005480003F0400E4A6E010E4B6EFF0E4D6E4C6866
:10055800ABEC0FF00101C451C3110BE1350EC15DC5
:10056800210EC259D8A0BBEF02F0BDEF02F03BEF5D
:1005780003F0CC0EC1250001AC6FDE0E0101C221D3
:100588000001AD6FFF0E0101C3210001AE6FFF0E28
:100598000101C4210001AF6FAC510101AD5D000143
:1005A800AD510101AE590001AE510101AF59000131
:1005B800AF510101B059D8B0E4EF02F0E6EF02F014
:1005C8003BEF03F0C1C1ADF1C2C1AEF1C3C1AFF1A0
:1005D800C4C1B0F1860E4A6E5E0E4B6EFF0E4D6EB4
:1005E800E00E4C6EABEC0FF042EC0BF00101AC6F7F
:1005F800020EAC19D8B403EF03F005EF03F01DEFBA
:1006080003F0AC05D8B40BEF03F00DEF03F013EFD4
:1006180003F0E80EA66F5F0EA76F17EF03F0900EBA
:10062800A66F5F0EA76FA6C1A4F1A7C1A5F121EF20
:1006380003F04B0EA46F5F0EA56F600E4A6E010E9D
:100648004B6EBA0E4C6E5E0E4D6EACC14EF04F6ADC
:10065800A4C150F0A5C151F03CEC03F0600E4A6E05
:10066800010E4B6EFF0E4D6E4C68ABEC0FF0120096
:100678004E0E00016B6F000E6C6FBAEF05F0250E81
:100688006F19D8B44AEF03F04CEF03F056EF03F0BC
:100698004AC0D9FF4BC0DAFF6FC0DFFF4A4A4B2A76
:1006A800BAEF05F0000E6E6F000E6D6F000E6A6FE8
:1006B8004CC0F6FF4DC0F7FF0800F55043EC15F0AD
:1006C800D8A069EF03F06BEF03F044EF04F0000EDD
:1006D80000016E6F000E6D6F6DC005F06EC006F004
:1006E800000E086E0A0E076E74EC15F005C06DF06A
:1006F80006C06EF0D00E526EFF0E536E4CC0F6FF61
:100708004DC0F7FF0800F550546E556A52505426F4
:1007180053505522545000016D2755506E234C4AB2
:100728004D2A4CC0F6FF4DC0F7FF0800F55043ECCA
:1007380015F0D8B0A2EF03F0A4EF03F070EF03F0C8
:1007480044EF04F06A8944EF04F06BC0D9FF6CC031
:10075800DAFFDECF62F0DDCF63F0020E6B27000E0A
:100768006C2362516311D8A4BCEF03F0BEEF03F011
:10077800C2EF03F0D30E626F5F0E636F000E656FFA
:10078800000E646FCBEF03F00001644B652B6451DE
:100798006225526E65516321536E52C0F6FF53C0F5
:1007A800F7FFF86A070EF76403D00800F55005D084
:1007B800F6CFE9FFF7CFEAFFEF500009D8A4E7EF3B
:1007C80003F0E9EF03F0C8EF03F000016D51645D39
:1007D8006E516559D8B0F3EF03F0F5EF03F0FBEF76
:1007E80003F064516D5F65516E5B09EF04F0000E14
:1007F8006E6F000E6D6F09EF04F04AC0D9FF4BC051
:10080800DAFF200EDF6E4A4A4B2A6D07D8A06E0722
:100818006D2906E16E29D8A414EF04F016EF04F050
:1008280001EF04F032EF04F062C0F6FF63C0F7FF97
:10083800F86A4AC0D9FF4BC0DAFF070EF76403D045
:100848000800F55005D0F6CFE9FFF7CFEAFFEF50E3
:10085800DF6E0001624B632B4A4A4B2A6407D8A01B
:100868006507642906E16529D8A43DEF04F03FEF48
:1008780004F018EF04F0BAEF05F06A8D69EF04F0A0
:100888004CC0F6FF4DC0F7FF4C4A4D2A0800F5CF83
:100898006FF000016F51000AD8B4CBEF05F0640A7D
:1008A800D8B469EF04F00D0AD8B469EF04F0050A6A
:1008B800D8B4A6EF03F01F0AD8B4A9EF03F0060ACC
:1008C800D8B441EF04F0BAEF05F06ABD6EEF04F05A
:1008D80070EF04F0ADEF04F06AA975EF04F077EF5C
:1008E80004F089EF04F06BC0D9FF6CC0DAFFDECFEB
:1008F80066F0DECF67F0DECF68F0DECF69F0040E79
:100908006B27000E6C239AEF04F06BC0D9FF6CC004
:10091800DAFFDECF66F0DDCF67F0000E67BFFF0EAF
:10092800686F696F020E6B27000E6C2369BFA1EF19
:1009380004F09FEF04F0D8EF04F0030E6A13691F68
:10094800681F671F666D000E672368236923D8EF49
:1009580004F06AA9B2EF04F0B4EF04F0C6EF04F0B3
:100968006BC0D9FF6CC0DAFFDECF66F0DECF67F070
:10097800DECF68F0DECF69F0040E6B27000E6C2323
:10098800D8EF04F06BC0D9FF6CC0DAFFDECF52F0AD
:10099800DDCF53F052C066F053C067F0686B696BE7
:1009A800020E6B27000E6C23010E6F6F6F51040D42
:1009B800BD0EF324F66E5D0EF420F76E0900F550B7
:1009C800665D0900F55067590900F5506859090036
:1009D800F5506959D8B0F3EF04F0F5EF04F0F7EFEC
:1009E80004F001EF05F06F2B0A0E6F19D8A4FFEF82
:1009F80004F001EF05F0DAEF04F06D516E11D8B490
:100A080008EF05F00AEF05F018EF05F06AC052F09C
:100A1800030E5216D8B413EF05F015EF05F018EFD2
:100A280005F06D07D8A06E076F51526E536A6D516D
:100A3800525C5350800A546E6E51800A5458D8B094
:100A480028EF05F02AEF05F030EF05F06F516D5FE4
:100A5800000E6E5B34EF05F0000E6E6F000E6D6FCA
:100A68006D516E11D8B43BEF05F03DEF05F051EF35
:100A780005F04AC0D9FF4BC0DAFF200EDF6E4A4AA4
:100A88004B2A6D07D8A06E076D516E11D8A44FEF91
:100A980005F051EF05F03DEF05F06AC052F0030E86
:100AA8005216D8B45AEF05F05CEF05F064EF05F084
:100AB8004AC0D9FF4BC0DAFF2D0EDF6E4A4A4B2AD7
:100AC8006FC060F0616BADEF05F060C052F061C0BF
:100AD80053F0D89052365336D89052365336BD0E0E
:100AE8005224F66E5D0E5320F76E0900F5CF09F01B
:100AF8000900F5CF0AF00900F5CF0BF00A00F5CF91
:100B08000CF066C005F067C006F068C007F069C061
:100B180008F087EC0EF005C012F006C013F007C00D
:100B280014F008C015F00A0E166E000E176E000EAF
:100B3800186E000E196E67EC0FF01250300F00019E
:100B48006F6F4AC0D9FF4BC0DAFF6FC0DFFF4A4A58
:100B58004B2A6007D8A06107602906E16129D8A45B
:100B6800B8EF05F0BAEF05F069EF05F04CC0F6FFF5
:100B78004DC0F7FF4C4A4D2A0800F5CF6FF06F5172
:100B8800D8A4C9EF05F0CBEF05F043EF03F04AC056
:100B9800D9FF4BC0DAFF000EDF6E1200000E3E6E6A
:100BA8003EC034F0356A34BE35062E50050DF10EC0
:100BB800366E570E376EF3503626F45037223450BF
:100BC80036263550372236C0F6FF37C0F7FF080003
:100BD800F5CF38F0000E3D6E38A0F5EF05F0F7EFD1
:100BE80005F050EF06F03304D8A4FDEF05F0FFEF51
:100BF80005F01AEF06F02A503D240D6E000E3DBE9A
:100C0800FF0E2B200E6E3EC034F0356A34BE35061A
:100C180034502C5C0F6E35502D58106E2FC011F0CB
:100C280030C012F0B3EC14F0B3EF06F03D50056E8F
:100C3800066A05BE060633C007F0086A74EC15F0AC
:100C48002A500524396E2B5006203A6E3E50056E08
:100C5800066A05BE060633C007F0086A74EC15F08C
:100C680005502C5C3B6E06502D583C6E39C01CF06C
:100C78003AC01DF03BC01EF03CC01FF033C020F04E
:100C8800216A33C022F0236A2FC024F030C025F037
:100C9800AFEC11F0B3EF06F02F50311809E13050E6
:100CA8003218D8B45AEF06F05CEF06F0B3EF06F04E
:100CB8003304D8A462EF06F064EF06F07FEF06F085
:100CC8002A503D240D6E000E3DBEFF0E2B200E6EE9
:100CD8003EC034F0356A34BE350634502C5C0F6E95
:100CE80035502D58106E31C011F032C012F0B3ECEF
:100CF80014F0B3EF06F03D50056E066A05BE060611
:100D080033C007F0086A74EC15F02A500524396ED0
:100D18002B5006203A6E3E50056E066A05BE060642
:100D280033C007F0086A74EC15F005502C5C3B6E74
:100D380006502D583C6E39C01CF03AC01DF03BC01F
:100D48001EF03CC01FF033C020F0216A33C022F0EF
:100D5800236A31C024F032C025F0AFEC11F03D2AEF
:100D6800D89038323D50800A780FD8A0BEEF06F0F0
:100D7800C0EF06F0F0EF05F03E2A3E50800A7B0FE8
:100D8800D8A0C9EF06F0CBEF06F0D4EF05F01200BB
:100D98001350175C056E14501858066E29EC15F0A0
:100DA80005C01DF006C01EF01550195C056E1650E2
:100DB8001A58066E29EC15F005501D5C1E50800A65
:100DC8001F6E0650800A1F58D8A0EDEF06F0F0EF0E
:100DD80006F0010EF1EF06F0000E2E6E2F6A2E506F
:100DE8002F10D8B4FAEF06F0FCEF06F014EF07F076
:100DF80013C020F014C021F015C013F016C014F071
:100E080020C015F021C016F017C022F018C023F03A
:100E180019C017F01AC018F022C019F023C01AF030
:100E28001350175C1850800A1D6E1450800A1D5804
:100E3800D8B021EF07F023EF07F03BEF07F013C01E
:100E480024F014C025F017C013F018C014F024C003
:100E580017F025C018F015C026F016C027F019C0E5
:100E680015F01AC016F026C019F027C01AF0135052
:100E7800175C306E14501858316E1550195C056E99
:100E880016501A58066E29EC15F005C028F006C051
:100E980029F030C005F031C006F0000E086E020ED1
:100EA800076E65EC0DF005C02CF006C02DF019504A
:100EB800155C1650800A1D6E1A50800A1D58D8B04D
:100EC80068EF07F06AEF07F070EF07F0000E2B6E7F
:100ED800010E2A6EB0EF07F02A682B68B0EF07F012
:100EE8002E502F10D8B47BEF07F07DEF07F08DEF71
:100EF80007F015C00DF016C00EF013C00FF014C0A7
:100F080010F01BC011F01CC012F0B3EC14F09BEFF2
:100F180007F013C00DF014C00EF015C00FF016C086
:100F280010F01BC011F01CC012F0B3EC14F02850E4
:100F38002C5E29502D5A2DBEA6EF07F0A4EF07F01E
:100F4800AEEF07F02A5015262B50162230502C26CB
:100F580031502D22134A142A1350175C1850800A56
:100F68001D6E1450800A1D58D8B0BDEF07F0BFEFB2
:100F780007F074EF07F012000E501A6E0DC01BF048
:100F8800020E066E020E056E0DC007F00EC008F0C8
:100F980071EC14F00F06000E105A115A125A829072
:100FA80000F00FC013F010C014F011C015F012C0FB
:100FB80016F0030EE5EF07F0D8901632153214320A
:100FC8001332E82EE0EF07F013C017F014C018F042
:100FD8001B501A18D8A4F3EF07F0F5EF07F05AEFF3
:100FE80008F00FEF08F0809A00F0808A809A00F0ED
:100FF800808A809A00F0808A809A00F0808A809A9D
:1010080000F0808A809A00F0808A809A00F0808AB6
:10101800809A00F0808A1706D8A01806172806E1DB
:101028001828D8A41AEF08F01CEF08F0F7EF07F01B
:101038000F50030B196E27EF08F0809A00F0808A92
:10104800809A00F0808A19061928D8A42EEF08F093
:1010580030EF08F021EF08F07FEF08F01AC081FFA9
:10106800809A00F0808A1BC081FF809A00F0808AF5
:101078001AC081FF809A00F0808A1BC081FF809A85
:1010880000F0808A1AC081FF809A00F0808A1BC015
:1010980081FF809A00F0808A1AC081FF809A00F050
:1010A800808A1BC081FF809A00F0808A1706D8A02A
:1010B8001806172806E11828D8A465EF08F067EF86
:1010C80008F032EF08F00F50030B196E76EF08F0B6
:1010D8001AC081FF809A00F0808A1BC081FF809A25
:1010E80000F0808A19061928D8A47DEF08F07FEF50
:1010F80008F06CEF08F08280120011C0D9FF12C00E
:10110800DAFFDF501E6E114A122A200E1E18D8B4BC
:1011180090EF08F092EF08F081EF08F0090E1E1822
:10112800D8B499EF08F09BEF08F081EF08F0000EB3
:101138001A6E000E1B6E000E1C6E000E1D6E000E49
:10114800196E2D0E1E18D8A4ACEF08F0AEEF08F0FB
:10115800B9EF08F0192A11C0D9FF12C0DAFFDF5021
:101168001E6E114A122AE8EF08F02B0E1E18D8A49A
:10117800C0EF08F0C2EF08F0E8EF08F0AFEF08F0B2
:101188001AC005F01BC006F01CC007F01DC008F00F
:101198000A0E096E000E0A6E000E0B6E000E0C6E23
:1011A80091EC12F01EC015F0D00E1526155005242E
:1011B8001A6E000E06201B6E000E07201C6E000E15
:1011C80008201D6EAFEF08F01E5043EC15F0D8B0A4
:1011D800F0EF08F0F2EF08F0C4EF08F01950D8B4B7
:1011E800F8EF08F0FAEF08F015EF09F01AC015F05B
:1011F8001BC016F01CC017F01DC018F0151E161ED7
:10120800171E181E152A000E16221722182215C09E
:1012180011F016C012F017C013F018C014F01DEF2B
:1012280009F01AC011F01BC012F01CC013F01DC049
:1012380014F01200B3EC09F01FC0A8F020C0A9F008
:1012480021C0AAF022C0ABF00001A851A911AA112F
:10125800AB11D8A432EF09F034EF09F03FEF09F0F1
:10126800000E0001706F000E716F000E726F000E9D
:10127800736FB2EF09F0940E4A6E000E4B6E580E63
:101288004C6E5F0E4D6E70C04EF071C04FF072C064
:1012980050F073C051F03CEC03F0940E186E000E41
:1012A800196E000E1B6E000E1A6E740E1C6E000E68
:1012B8001D6E200E1E6E33EC10F0FA0E056E000E39
:1012C800066E000E076E000E086EF0EC14F0740E39
:1012D800056E000E066EFA0E076E5F0E086E5EEC67
:1012E80013F005500610D8A47CEF09F07EEF09F042
:1012F800A6EF09F070C012F071C013F072C014F0BC
:1013080073C015F076EC10F0960E056E000E066EA2
:10131800000E076E000E086EF0EC14F08EEC13F061
:10132800E806D8A49AEF09F09CEF09F0A6EF09F0B7
:1013380070C070F071C071F072C072F073C073F059
:10134800B2EF09F0A8C012F0A9C013F0AAC014F0B7
:10135800ABC015F076EC10F034EF09F01200BA0EBD
:10136800186E5F0E196E000E1B6E000E1A6E230E9D
:101378001C6E000E1D6E200E1E6E33EC10F0230E38
:10138800106E000E116EE10E126E5F0E136E28ECD9
:101398000EF010501110D8B4D4EF09F0D6EF09F0C0
:1013A8003CEF0AF0230E126E000E136ED10E146E6F
:1013B8005F0E156ED1EC0AF012C047F013C048F06A
:1013C800000E126E000E136E230E146E000E156EB4
:1013D800D1EC0AF012C047F013C048F0475048104B
:1013E800D8B4F9EF09F0FBEF09F03CEF0AF047C079
:1013F80011F048C012F081EC08F011C043F012C09F
:1014080044F013C045F014C046F0000E496E495030
:10141800040DE50EF324F66E5D0EF420F76E4350CE
:101428000900F51810E144500900F5180CE1455081
:101438000900F51808E146500900F518D8A427EF67
:101448000AF029EF0AF033EF0AF043C01FF044C056
:1014580020F045C021F046C022F044EF0AF0492AA6
:10146800020E49643AEF0AF03CEF0AF00BEF0AF07B
:10147800000E1F6E000E206E000E216E000E226EF2
:10148800120049EF0AF00B4A0C2A0BC0D9FF0CC016
:10149800DAFF200EDE18D8B454EF0AF056EF0AF03F
:1014A80047EF0AF00BC0D9FF0CC0DAFF090EDE18AF
:1014B800D8B461EF0AF063EF0AF047EF0AF0000EC4
:1014C800116E000E106E000E0F6E0BC0D9FF0CC00F
:1014D800DAFF2D0EDE18D8A474EF0AF076EF0AF0C2
:1014E8007BEF0AF00F2A0B4A0C2AA8EF0AF00BC070
:1014F800D9FF0CC0DAFF2B0EDE18D8A486EF0AF04D
:1015080088EF0AF0A8EF0AF00B4A0C2AA8EF0AF0B5
:1015180010C005F011C006F0000E086E0A0E076E26
:1015280074EC15F00BC0D9FF0CC0DAFFDF500D6E5C
:101538000D500526000E0622D00E0524106EFF0E53
:101548000620116E88EF0AF00BC0D9FF0CC0DAFF35
:10155800DF5043EC15F0D8B0B4EF0AF0B6EF0AF05C
:101568008CEF0AF00F50D8B4BCEF0AF0BEEF0AF0C7
:10157800CCEF0AF010C00DF011C00EF00D1E0E1EBB
:101588000D4A0E2A0DC00BF00EC00CF0D0EF0AF079
:1015980010C00BF011C00CF0120012501310D8A498
:1015A800D8EF0AF0DAEF0AF0DEEF0AF0CAC012F05C
:1015B800CBC013F012501310D8A4E5EF0AF0E7EFF0
:1015C8000AF0EDEF0AF0000E126E000E136E41EFF6
:1015D8000BF012C00BF013C00CF014C00DF015C0C6
:1015E8000EF0C6EC12F00B5012260C50132212C04B
:1015F800D9FF13C0DAFFDF50D8A405EF0BF007EFCF
:101608000BF012EF0BF0000E0001CA6F000ECB6F4B
:10161800CAC012F0CBC013F041EF0BF012C00BF0B0
:1016280013C00CF014C00DF015C00EF0F9EC12F058
:101638000B5012240001CA6F0C501320CB6FCAC084
:10164800D9FFCBC0DAFFDF50D8B42DEF0BF02FEF66
:101658000BF039EF0BF0CAC0D9FFCBC0DAFF000E90
:10166800DF6ECA4BCB2B3DEF0BF0000ECA6F000E9E
:10167800CB6F12C012F013C013F01200A60E186E32
:101688005F0E196E000E1B6E000E1A6E1F0E1C6E7A
:10169800000E1D6E200E1E6E33EC10F01F0E106E25
:1016A800000E116ECB0E126E5F0E136E28EC0EF04C
:1016B80010501110D8B463EF0BF065EF0BF0AFEFDB
:1016C8000BF01F0E126E000E136ED10E146E5F0E0D
:1016D800156ED1EC0AF012C03FF013C040F0000EB6
:1016E800126E000E136E1F0E146E000E156ED1ECE6
:1016F8000AF012C03FF013C040F03F504010D8B479
:1017080088EF0BF08AEF0BF0AFEF0BF03FC012F051
:1017180040C013F0FD0E146E5F0E156ED1EC0AF08A
:1017280012C03FF013C040F0000E126E000E136E90
:101738001F0E146E000E156ED1EC0AF012C03FF0A9
:1017480013C040F03FC00BF040C00CF045EC0AF06D
:101758000B50B0EF0BF0040E1200BAEC15F00D0EA2
:101768001F6E2D0E1E6ED80EE82EFED71E2EFCD72D
:101778001F2EFAD7000E276E000E266E000E236E5F
:10178800660E226E0BEF0CF0D8902634F66E2734D6
:10179800F76EF10EF6265C0EF7220900F5CF24F05D
:1017A8000A00F5CF25F0264A272AD8902634F66E67
:1017B8002734F76EF10EF6265C0EF7220900F5CFF6
:1017C80020F00A00F5CF21F0264A272A242806E12E
:1017D8002528D8A4F2EF0BF0F4EF0BF001EF0CF092
:1017E8000D0E1F6E2D0E1E6ED80EE82EFED71E2E65
:1017F800FCD71F2EFAD70BEF0CF024C005F025C03C
:1018080006F020C007F021C008F071EC14F0225057
:10181800261807E123502718D8A415EF0CF017EF66
:101828000CF0C8EF0BF087EC15F0000E1D6E000EE3
:101838001C6E4EEC14F012007BEF0CF009C0F6FFA2
:101848000AC0F7FFF86A070EF76403D00800F550DE
:1018580005D0F6CFE9FFF7CFEAFFEF500009D8B47B
:1018680038EF0CF03AEF0CF059EF0CF00BC0F6FF24
:101878000CC0F7FF0800F5CF0FF009C0F6FF0AC04B
:10188800F7FFF86A070EF76403D00800F55005D093
:10189800F6CFE9FFF7CFEAFFEF500F18D8B457EFAC
:1018A8000CF059EF0CF077EF0CF009C0F6FF0AC006
:1018B800F7FFF86A070EF76403D00800F55005D063
:1018C800F6CFE9FFF7CFEAFFEF500F6E0BC0F6FF38
:1018D8000CC0F7FF0800F5500F5C096E0A6AD8A023
:1018E8000A068CEF0CF0094A0A2A0B4A0C2A0D0644
:1018F800D8A00E060D2806E10E28D8A486EF0CF015
:1019080088EF0CF022EF0CF0000E0A6E000E096E44
:101918001200D20E4A6E5E0E4B6EF80E4D6E1F0E02
:101928004C6EABEC0FF0000E0001906F9051040D5F
:10193800E50EF324F66E5D0EF420F76E0900F5CF80
:1019480012F00900F5CF13F00900F5CF14F00A00E2
:10195800F5CF15F076EC10F08EEC13F0E806D8A46D
:10196800B8EF0CF0BAEF0CF0E5EF0CF0700E4A6E21
:10197800000E4B6E640E4C6E5F0E4D6E0001905162
:10198800040DE50EF324F66E5D0EF420F76E0900E3
:10199800F5CF4EF00900F5CF4FF00900F5CF50F024
:1019A8000A00F5CF51F03CEC03F0700E4A6E000EC1
:1019B8004B6EF80E4D6E000E4C6EABEC0FF0F9EF5F
:1019C8000CF0640E056E000E066E000E076E000E1B
:1019D800086EF0EC14F00001902B020E9065F7EF02
:1019E8000CF0F9EF0CF09AEF0CF0120011C005F0B2
:1019F80012C006F0000E086E000E076E13C009F044
:101A08000A6A0DEC15F014C00FF015C010F004ECC4
:101A180014F0176E1750D8A414EF0DF016EF0DF050
:101A280019EF0DF0000E64EF0DF00D0E1718D8B475
:101A380020EF0DF022EF0DF007EF0DF00A0E17184A
:101A4800D8B429EF0DF02BEF0DF007EF0DF0000ED5
:101A5800166E0D0E1718D8B434EF0DF036EF0DF0E2
:101A680063EF0DF01750D8A43CEF0DF03EEF0DF0EA
:101A780040EF0DF063EF0DF016501124D96E000EF3
:101A88001220DA6E17C0DFFF162A13501618D8A4D2
:101A980050EF0DF052EF0DF054EF0DF063EF0DF035
:101AA80014C00FF015C010F004EC14F0176E1750A6
:101AB800D8A461EF0DF063EF0DF02DEF0DF0165087
:101AC8001200000E0A6E08BE6EEF0DF06CEF0DF0FE
:101AD80074EF0DF0076C081ED8B0082A010E0A6EC4
:101AE80006BE7BEF0DF079EF0DF081EF0DF0056C80
:101AF800061ED8B0062A010E0A1A000E0C6E000E39
:101B08000B6E07500810D8B48CEF0DF08EEF0DF067
:101B1800B6EF0DF0010E096E96EF0DF0D89007366E
:101B28000836092A08AE9BEF0DF09DEF0DF092EFF5
:101B38000DF0D8900B360C360750055C0850065847
:101B4800D8A0A9EF0DF0ABEF0DF0B0EF0DF00750F6
:101B5800055E0850065A0B80D89008320732092EC5
:101B68009DEF0DF00A50D8B4BCEF0DF0BEEF0DF0AC
:101B7800C2EF0DF00B6C0C1ED8B00C2A0BC005F090
:101B88000CC006F01200C30E186E5F0E196E000E20
:101B98001B6E000E1A6E1F0E1C6E000E1D6E200EA0
:101BA8001E6E33EC10F01F0E106E000E116EDA0E62
:101BB800126E5F0E136E28EC0EF010501110D8B490
:101BC800E8EF0DF0EAEF0DF026EF0EF01F0E126EA3
:101BD800000E136ED10E146E5F0E156ED1EC0AF066
:101BE80012C03FF013C040F0000E126E000E136ECC
:101BF8001F0E146E000E156ED1EC0AF012C03FF0E5
:101C080013C040F03F504010D8B40DEF0EF00FEF66
:101C18000EF026EF0EF03FC012F040C013F0FD0E9C
:101C2800146E5F0E156ED1EC0AF012C03FF013C0AF
:101C380040F03FC00BF040C00CF045EC0AF00B50F0
:101C480027EF0EF0000E120061EF0EF010C009F041
:101C580011C00AF012C00BF013C00CF012C005F04E
:101C680013C006F0DDEC13F005C00DF006C00EF051
:101C780020EC0CF009500A10D8A445EF0EF047EFFD
:101C88000EF04DEF0EF010C010F011C011F086EFFD
:101C98000EF0010E1024056E000E1120066E12C003
:101CA800F6FF13C0F7FF0800F550076E086AB8EC96
:101CB80010F005C010F006C011F010501110D8B483
:101CC80068EF0EF06AEF0EF082EF0EF010C0F6FF2C
:101CD80011C0F7FFF86A070EF76403D00800F55043
:101CE80005D0F6CFE9FFF7CFEAFFEF500009D8A4F7
:101CF80080EF0EF082EF0EF02AEF0EF0000E106E5D
:101D0800000E116E1200000E0D6E000E0E6E000E0B
:101D18000F6E000E106E09500A100B100C10D8B47C
:101D280098EF0EF09AEF0EF0D0EF0EF0010E116E54
:101D3800A4EF0EF0D89009360A360B360C36112A65
:101D48000CAEA9EF0EF0ABEF0EF09EEF0EF0D890B0
:101D58000D360E360F3610360950055C0A500658F7
:101D68000B5007580C500858D8A0BDEF0EF0BFEF25
:101D78000EF0C8EF0EF00950055E0A50065A0B50D7
:101D8800075A0C50085A0D80D8900C320B320A3280
:101D98000932112EABEF0EF00DC005F00EC006F0A3
:101DA8000FC007F010C008F0120008EF0FF03FC096
:101DB8002AF040C02BF041C02CF042C02DF043C0A7
:101DC800F6FF44C0F7FFF86A070EF76403D008006F
:101DD800F55005D0F6CFE9FFF7CFEAFFEF502E6EAA
:101DE80045C02FF046C030F047C031F048C032F04F
:101DF80049C033F0D2EC05F04950060DF350415E6E
:101E0800F450425A434A442A43C0F6FF44C0F7FFFD
:101E1800F86A070EF76403D00800F55005D0F6CF2E
:101E2800E9FFF7CFEAFFEF500009D8A41EEF0FF043
:101E380020EF0FF0DBEF0EF01200FF0E066E0568C4
:101E4800EFEC0FF00009D8A42CEF0FF02EEF0FF0F5
:101E580030EF0FF066EF0FF0600E116E000E126E8D
:101E6800200E136E000E156E000E146EFAEC0CF0B8
:101E78000001806F8051D8A444EF0FF046EF0FF0B7
:101E880048EF0FF066EF0FF0600E056E000E066E5D
:101E9800FA0E076E5F0E086E5EEC13F00550061022
:101EA800D8A459EF0FF05BEF0FF05DEF0FF066EF7E
:101EB8000FF0600E4A6E000E4B6E070E4D6E4C68AA
:101EC800ABEC0FF012001650171018101910D8B4F8
:101ED80070EF0FF072EF0FF0A2EF0FF0010E1A6E15
:101EE8007CEF0FF0D89016361736183619361A2A9E
:101EF80019AE81EF0FF083EF0FF076EF0FF0165069
:101F0800125C175013581850145819501558D8A067
:101F180090EF0FF092EF0FF09AEF0FF01650125E5D
:101F28001750135A1850145A1950155AD890193274
:101F38001832173216321A2E83EF0FF012C012F031
:101F480013C013F014C014F015C015F012000A0ED7
:101F58000001CC27000ECD23CCC01CF0CDC01DF055
:101F6800000E1F6E000E1E6E000E216E280E206ED3
:101F7800010E236E900E226E000E256E000E246E4A
:101F8800AFEC11F0CCC03FF0CDC040F0010E426E76
:101F98008F0E416E4AC043F04BC044F04CC045F030
:101FA8004DC046F0000E486E000E476E010E496E99
:101FB800D9EC0EF00001CD5109E1CE0ECC5DD8A0D0
:101FC800E8EF0FF0EAEF0FF0EEEF0FF0000ECD6F35
:101FD800000ECC6F120005500610D8A4F6EF0FF0D3
:101FE800F8EF0FF0FCEF0FF0030E066EE80E056E2B
:101FF80005C007F006C008F0000E08BEFF0E096E07
:102008000A6E0101C15107240B6EC25108200C6EE3
:10201800C35109200D6EC4510A200E6E27EF10F02F
:102028000101C1510B5CC2510C58C3510D58C45128
:102038000E58D8B022EF10F024EF10F027EF10F070
:10204800000E32EF10F0020100510119D8B42FEF41
:1020580010F031EF10F014EF10F0010E12004B0EDB
:102068000001C627000EC723C823C9230001C65193
:102078000101C15D0001C7510101C2590001C851E8
:102088000101C3590001C9510101C459D8A04FEF3A
:1020980010F051EF10F03AEF10F0C1C1C6F0C2C114
:1020A800C7F0C3C1C8F0C4C1C9F0E5EC15F018C049
:1020B80009F019C00AF018C005F019C006F0DDECE7
:1020C80013F005500B6E93EC14F01CC011F01DC0FA
:1020D80012F01EC013F01AC014F01BC015F0FAEC71
:1020E8000CF01200AC98AC84B886000E056E6C0E2D
:1020F800066EDC0E076E020E086E12C009F013C0E1
:102108000AF014C00BF015C00CF087EC0EF005C0F7
:102118001AF006C01BF007C01CF008C01DF01AC05A
:1021280016F01BC017F01CC018F01DC019F0030EE4
:10213800A3EF10F0D8901932183217321632E82E61
:102148009EEF10F016C01AF017C01BF018C01CF054
:1021580019C01DF01A06000E1B5A1C5A1D5A1AC027
:10216800AFFF1BC0B0FF120005C0F6FF06C0F7FFA7
:10217800F86A070EF76403D00800F55005D0F6CFCB
:10218800E9FFF7CFEAFFEF500718D8A4CEEF10F019
:10219800D0EF10F0D6EF10F005C005F006C006F03D
:1021A800F8EF10F00550096E06500A6E054A062A27
:1021B80009C0F6FF0AC0F7FFF86A070EF76403D0F4
:1021C8000800F55005D0F6CFE9FFF7CFEAFFEF504A
:1021D8000009D8A4F2EF10F0F4EF10F0B8EF10F007
:1021E800000E056E000E066E1200C7EC0DF0416E73
:1021F800630E4118D8A403EF11F005EF11F008EFB2
:1022080011F0FF0E35EF11F0030E41600EEF11F0E3
:1022180010EF11F013EF11F0000E35EF11F00A0E68
:10222800416019EF11F01BEF11F01EEF11F0010ED4
:1022380035EF11F00F0E416024EF11F026EF11F089
:1022480029EF11F0020E35EF11F0140E41602FEF57
:1022580011F031EF11F034EF11F0030E35EF11F0FA
:10226800040E1200020E066E100E056E0DC007F069
:102278000EC008F071EC14F0020E066E110E056E19
:1022880011C007F012C008F071EC14F0020E066ECF
:10229800120E056E0FC007F010C008F071EC14F0B4
:1022A800020E066E130E056E13C007F014C008F078
:1022B80071EC14F0020E066E000E056E0DC007F0EC
:1022C8000EC008F071EC14F0020E066E010E056ED9
:1022D80013C007F014C008F071EC14F01200000EDF
:1022E8001D6E000E1C6E4EEC14F0000E406E080EB3
:1022F8003F6E010E426E860E416E6F0E436E5F0E8C
:10230800446EFF0E466E4568000E486E000E476E1E
:10231800020E496ED9EC0EF0000E146E200E136EEC
:10232800000E166E000E156E000E186E200E176E3B
:10233800010E1A6E900E196EFF0E1C6E1B68CCEC07
:1023480006F0010E596E8F0E586E010E0001CF6F08
:102358008F0ECE6F12001CC00DF01DC00EF01EC0F7
:102368000FF01FC010F020501C24266E21501D2095
:10237800276EFF0E2624116EFF0E2720126E2250A4
:102388001E24286E23501F20296EFF0E2824136E4A
:10239800FF0E2920146E36EC11F024C00DF025C074
:1023A8000EF020C005F021C006F022C007F023C0BF
:1023B80008F074EC15F005C00FF006C010F0116AB3
:1023C800126AC0EC07F087EC15F01200D39E700E6D
:1023D800D312FC0ED3169B8EE00E9B16070E066ECC
:1023E800170E056E6A0EE82EFED7052EFCD7062EB0
:1023F800FAD700D06D966F860B0E926E000E896E1E
:10240800F18E000E936E000E8A6EF00E946E000E22
:102418008B6EC290CF0EC116C150F00B0E09C16E63
:10242800C08EC70EC016C050F80B0209C06ECF0E82
:10243800B116B192B180A082F28CF28E1200C40E55
:10244800F66E2B0EF76E000EF86E00EECEF010EE64
:1024580006F00900F5CFEEFFE550E150FAE1D00EA5
:10246800F66E2B0EF76E000EF86E0900F5CF58F0D9
:102478000900F5CF59F002EE00F0820EEE6AE80688
:10248800FDE101EEADF0180EEE6AE806FDE100EEA2
:10249800B0F01E0EEE6AE806FDE1576A566A5A90D9
:1024A8005A92000EF86E00019AEF15F00600D9CF87
:1024B80003F0DACF04F0A0A264EF12F066EF12F096
:1024C8007BEF12F0A1A26BEF12F06DEF12F07BEF31
:1024D80012F0050E0101C127000EC223C323C42335
:1024E800AAEC15F0160EB36E000EB26EA1929DAA5C
:1024F80080EF12F082EF12F08BEF12F09EAA87EFB6
:1025080012F089EF12F08BEF12F02CEC13F004C0EC
:10251800DAFF03C0D9FF5A921100000E0D6E000EAB
:102528000E6E000E0F6E000E106E05A09EEF12F0DC
:10253800A0EF12F0A8EF12F009500D260A500E2253
:102548000B500F220C501022D89009360A360B3641
:102558000C36D8900832073206320532055006107C
:1025680007100810D8A4BBEF12F0BDEF12F099EFD6
:1025780012F00DC005F00EC006F00FC007F010C035
:1025880008F01200000E116E000E106ED0EF12F05F
:102598000B4A0C2A104A112A0BC0D9FF0CC0DAFFCB
:1025A800DF50D8B4DAEF12F0DCEF12F0F4EF12F0EB
:1025B8000DC005F00EC006F00BC0D9FF0CC0DAFF45
:1025C800DF500F6E0F50076E086AB8EC10F0055018
:1025D8000610D8A4F2EF12F0F4EF12F0CCEF12F0DC
:1025E80010C00BF011C00CF01200000E116E000E9E
:1025F800106E03EF13F00B4A0C2A104A112A0BC075
:10260800D9FF0CC0DAFFDF50D8B40DEF13F00FEF8D
:1026180013F027EF13F00DC005F00EC006F00BC045
:10262800D9FF0CC0DAFFDF500F6E0F50076E086A33
:10263800B8EC10F005500610D8B425EF13F027EFCA
:1026480013F0FFEF12F010C00BF011C00CF01200E5
:10265800AECF02F0ABA233EF13F035EF13F048EF33
:1026680013F0AB98AB8880A43CEF13F040EF13F065
:10267800016A012A41EF13F0016A014601468050C0
:102688000118FB0B0118806E0201012B800E011945
:10269800D8A451EF13F053EF13F055EF13F0000ED9
:1026A800016F020E0125D96EDA6A020EDA2202C023
:1026B800DFFF120064EF13F0054A062A074A082ACA
:1026C80007C0F6FF08C0F7FF0800F5CF09F005C0FE
:1026D800D9FF06C0DAFFDF500A6E09500A5C0B6E9C
:1026E8000B50D8A47AEF13F07CEF13F088EF13F0B7
:1026F80005C0D9FF06C0DAFFDF50D8A486EF13F073
:1027080088EF13F060EF13F00B50056E066A05BEF4
:1027180006061200EE0E186E5F0E196E000E1B6E86
:10272800000E1A6E1F0E1C6E000E1D6E200E1E6E01
:1027380033EC10F01F0E056E000E066EFA0E076ED3
:102748005F0E086E5EEC13F005500610D8A4AFEFCC
:1027580013F0B1EF13F0B4EF13F0010EB5EF13F06F
:10276800000E1200000E086E82AABDEF13F0BFEF34
:1027780013F0C0EF13F0088282A8C5EF13F0C7EF7B
:1027880013F0C8EF13F008800850D8B4CEEF13F058
:10279800D2EF13F0076A072AD3EF13F0076A074648
:1027A80056500718FD0B0718566E08C005F0066A44
:1027B800120005C007F006C008F0E5EF13F0074A5D
:1027C800082A07C0F6FF08C0F7FFF86A070EF76483
:1027D80003D00800F55005D0F6CFE9FFF7CFEAFFA0
:1027E800EF500009D8A4FBEF13F0FDEF13F0E3EF6F
:1027F80013F00550075C056E06500858066E120067
:102808000FC005F010C006F0EFEC0FF00009D8A4D7
:1028180010EF14F012EF14F015EF14F0000E29EF7A
:1028280014F00201002B800E0019D8A41EEF14F03A
:1028380020EF14F022EF14F0000E006F020E0025B6
:10284800D96EDA6A020EDA22DF501200AC9CAC8A2A
:10285800AC98AC96AC84AB8EAB9CAB88B886B8927F
:10286800B890040EB06EE10EAF6E9D8A000E0201A4
:10287800006F000E016F020E056E020E066E000E4E
:10288800086E000E076E000E0A6E800E096E0DECC3
:1028980015F01200020E066E000E056E000E086E90
:1028A800000E076E71EC14F0020E066E010E056E36
:1028B800000E086E000E076E71EC14F01CC00DF0CF
:1028C8001DC00EF0000E0F6E770E106E010E116E09
:1028D800000E126EC0EC07F01200829000F0829297
:1028E8000650096E05C00AF009C081FF809A00F001
:1028F800808A0AC081FF809A00F0808A828208500C
:102908000B6E07C00CF00BC081FF809A00F0808A24
:102918000CC081FF809A00F0808A82801200A9EFA3
:1029280014F009C0F6FF0AC0F7FFF86A070EF7644B
:1029380003D00800F55005D0F6CFE9FFF7CFEAFF3E
:10294800EF50D6EC15F0094A0A2A0B060B28D8A432
:10295800B0EF14F0B2EF14F095EF14F01200020E7D
:10296800066E000E056E0DC007F00EC008F071EC83
:1029780014F0020E066E010E056E0FC007F010C0AF
:1029880008F071EC14F0020E066E020E056E11C00E
:1029980007F012C008F071EC14F01200000E1D6E62
:1029A800000E1C6E4EEC14F0000E406E460E3F6E8C
:1029B800010E426E6A0E416E4F0E436E5E0E446EFD
:1029C800FF0E466E4568000E486E000E476E020EFA
:1029D800496ED9EC0EF0120005500101C125096EAF
:1029E8000650C2210A6E0750C3210B6E0850C4213D
:1029F8000C6E0950C15D0A50C2590B50C3590C5096
:102A0800C459D8A00AEF15F00CEF15F0FDEF14F03B
:102A1800120005C00BF006C00CF01BEF15F00BC040
:102A2800D9FF0CC0DAFF07C0DFFF0B4A0C2A0906E2
:102A3800D8A00A06092806E10A28D8A426EF15F026
:102A480028EF15F013EF15F0120006BE30EF15F061
:102A58002EEF15F03EEF15F005C007F006C008F0A0
:102A6800071E081E074A082A07C005F008C006F016
:102A780042EF15F005C005F006C006F01200076E1B
:102A8800000E066E3A0E07604CEF15F04EEF15F08B
:102A980058EF15F02F0E076454EF15F056EF15F0A8
:102AA80058EF15F0010E066E06C005F0053012004D
:102AB800B6EC13F005500610D8A465EF15F067EFD3
:102AC80015F06BEF15F073EC11F06DEF15F0D2EC1B
:102AD80014F0000E0001BC6F000EC16FC28D120011
:102AE80005500702F3CF09F0F4CF0AF005500802A9
:102AF800F3500A2606500702F3500A2609C005F0CB
:102B08000AC006F01200000E0E6E000E0D6E000ECA
:102B1800106E000E0F6E000E126EEF0E116E010E8B
:102B2800146E8F0E136E36EC11F01200EAEC11F0F1
:102B3800B1EC0BF02AEC14F05CEC15F0C9EC15F0D4
:102B480009EC00F0A4EF15F007EF00F0010E016E9C
:102B58005750070B026E0150022657500218F80B07
:102B68000218576E0001C52B56881200000E936E8E
:102B78008280808A80888294200E056E2A0EE82E34
:102B8800FED7052EFCD782841200880E056E130E20
:102B9800066E000E076E000E086EF0EC14F08DEC59
:102BA8000CF01200056E9EA8DCEF15F0DEEF15F0B4
:102BB800D7EF15F005C0ADFF00F012008F01EF0050
:0A2BC800EF0001C200F212008F01BD
:1057F0000000000000003E5B4F5B3E3E6B4F6B3E87
:105800001C3E7C3E1C183C7E3C181C577D571C1CC3
:105810005E7F5E1C00183C1800FFE7C3E7FF00181E
:10582000241800FFE7DBE7FF30483A060E26297907
:105830002926407F050507407F05253F5A3CE73C68
:105840005A7F3E1C1C08081C1C3E7F14227F221419
:105850005F5F005F5F06097F017F006689956A6070
:105860006060606094A2FFA29408047E0408102087
:105870007E201008082A1C08081C2A08081E101080
:1058800010100C1E0C1E0C30383E3830060E3E0E2A
:1058900006000000000000005F0000000700070095
:1058A000147F147F14242A7F2A122313086462367B
:1058B000495620500008070300001C224100004107
:1058C000221C002A1C7F1C2A08083E080800807041
:1058D0003000080808080800006060002010080474
:1058E000023E5149453E00427F40007249494946C7
:1058F0002141494D331814127F1027454545393C45
:105900004A49493141211109073649494936464931
:1059100049291E0000140000004034000000081453
:1059200022411414141414004122140802015909CC
:10593000063E415D594E7C1211127C7F4949493621
:105940003E414141227F4141413E7F494949417F9A
:10595000090909013E414151737F0808087F004150
:105960007F41002040413F017F081422417F404099
:1059700040407F021C027F7F0408107F3E4141416E
:105980003E7F090909063E4151215E7F09192946DA
:10599000264949493203017F01033F4040403F1FF0
:1059A0002040201F3F4038403F6314081463030425
:1059B0007804036159494D43007F41414102040885
:1059C0001020004141417F04020102044040404058
:1059D00040000307080020545478407F284444388E
:1059E0003844444428384444287F385454541800D8
:1059F000087E090218A4A49C787F08040478004457
:105A00007D40002040403D007F1028440000417F41
:105A100040007C047804787C0804047838444444CA
:105A200038FC1824241818242418FC7C08040408C2
:105A3000485454542404043F44243C4040207C1CDB
:105A40002040201C3C4030403C44281028444C90CE
:105A500090907C4464544C44000836410000007728
:105A60000000004136080002010204023C26232601
:105A70003C1EA1A161123A4040207A385454555935
:105A8000215555794122545478422155547840206B
:105A9000545579400C1E5272123955555559395486
:105AA00054545939555454580000457C410002451E
:105AB0007D420001457C407D1211127DF028252891
:105AC000F07C545545002054547C547C0A097F498D
:105AD00032494949323A4444443A324A4848303AD1
:105AE0004141217A3A42402078009DA0A07D3D426C
:105AF00042423D3D4040403D3C24FF2424487E49F5
:105B000043662B2FFC2F2BFF0929F620C0887E0926
:105B10000320545479410000447D413048484A32C2
:105B2000384040227A007A0A0A727D0D19317D26AA
:105B300029292F28262929292630484D4020380890
:105B400008080808080808382F10C8ACBA2F102811
:105B500034FA00007B000008142A142222142A14AC
:105B6000085500550055AA55AA55AAFF55FF55FFDF
:105B7000000000FF00101010FF00141414FF0010AC
:105B800010FF00FF1010F010F0141414FC00141497
:105B9000F700FF0000FF00FF1414F404FC141417B6
:105BA000101F10101F101F1414141F00101010F0DD
:105BB000000000001F101010101F10101010F01027
:105BC000000000FF101010101010101010FF100037
:105BD0000000FF140000FF00FF00001F101700006E
:105BE000FC04F414141710171414F404F40000FF48
:105BF00000F714141414141414F700F714141417E1
:105C00001410101F101F141414F4141010F010F0BE
:105C100000001F101F0000001F14000000FC1400F3
:105C200000F010F01010FF10FF141414FF141010E7
:105C3000101F00000000F010FFFFFFFFFFF0F0F06A
:105C4000F0F0FFFFFF0000000000FFFF0F0F0F0F3D
:105C50000F3844443844FC4A4A4A347E020206065D
:105C6000027E027E0263554941633844443C04404D
:105C70007E201E2006027E020299A5E7A5991C2A15
:105C8000492A1C4C7201724C304A4D4D30304878D4
:105C90004830BC625A463D3E494949007E010101F7
:105CA0007E2A2A2A2A2A44445F444440514A4440D6
:105CB00040444A51400000FF0103E080FF0000081B
:105CC000086B6B083612362436060F090F060000E3
:105CD00018180000001010003040FF0101001F01E3
:105CE000011E00191D1712003C3C3C3C0000000046
:105CF0000002070830050736000B071312010000E9
:105D00000102000001030030100800020209000037
:105D1000000C0000000F0000000001000002010064
:105D20000003010000FFFF010000019011010127A5
:105D300002FFFF01000201BD01FFFF01000301009E
:105D40002D81020E00FFFF01000002000001020091
:105D50000000030000010307070203060605030015
:105D6000000603000D0703060708030500090307E3
:105D7000000C0300000D030A00100200001102EFE6
:105D8000001202000013028F01000400310104011F
:105D900000040400000005000001050000020500E9
:105DA00000030500000405000005050000100010B8
:105DB000001100000620000200070073010100002E
:105DC000000A00000064000000E803000010270043
:105DD00000A086010040420F008096980000E1F587
:105DE0000500CA9A3B8025000000E1000000C201C6
:105DF000001414000000000000F8F001FCF903FC9E
:105E0000FF03FEFF07FEFF07FEFF07FEFF07FCFF85
:105E100003FCFF03F8FF01F0FF00E07F00C03F003C
:105E2000801F00000F000006000000000000004975
:105E30006E76616C69642063757272656E7420623F
:105E400061756420726174652028256C7529002AAB
:105E50002A2A20436F6C6C656761726520656C65EA
:105E60007474726F6469202A2A2A00426175642062
:105E700072617465206368616E67656420282D3ED9
:105E800020256C752900436865636B206E65747707
:105E90006F726B20726567697374726174696F6E7B
:105EA000004572726F72206368616E67696E672069
:105EB000626175642072617465004E6574776F72FB
:105EC0006B207374617475733A20257520282573CF
:105ED0002900446574656374696E67206261756446
:105EE00020726174652E2E2E004368616E676520F6
:105EF0006261756420726174652028256C752900C3
:105F0000436F6D6D20697320646561642E20526556
:105F10007472792E2E2E005175616C6974793A2055
:105F200025753B204C6576656C3A202564004368F6
:105F300065636B20626175642072617465005265EF
:105F40007375727265637465642100536561726371
:105F500068696E672E2E2E0041542B4950523D2504
:105F60006C750D00256C7520464F554E442100463A
:105F700072657175656E7A613A00436865636B207E
:105F800052535349005374696C6C2064656164001A
:105F90005265676973746572656400436865636B15
:105FA0002074696D650041542B435245473F0D00F5
:105FB00041542B43434C4B3F0D0041542B4950520D
:105FC0003F0D0041542B4353510D002B4352454785
:105FD0003A2000286E756C6C29002B4353513A20EF
:105FE000002B4950523A20004F74686572004154AA
:105FF0000D0025336400256C75004F4B002C00000C
:020000040020DA
:08000000FFFFFFFFFFFFFFFF00
:020000040030CA
:0E000000200E011EFF0180FF0FC00FE00F4019
:00000001FF
