:020000040000FA
:0400000007EF00F016
:100008005882C7ED06F0CFEF08F0000E0001996F97
:1000180099C08FF0906B8FBF90078951050DC90E5D
:10002800916F590E926FF3509127F45092238F518C
:1000380091279051922391C0F6FF92C0F7FF0800D4
:10004800F5CF93F0000E986F93A12DEF00F02FEFEE
:1000580000F08AEF00F08E05D8A435EF00F037EFF6
:1000680000F052EF00F085519825686F000E98BF98
:10007800FF0E8621696F99C08FF0906B8FBF900734
:100088008F51875D6A6F905188596B6F8AC06CF089
:100098008BC06DF0A2EC09F0EFEF00F09851606FA3
:1000A800616B60BF61078EC062F0636BC6EC0AF0DB
:1000B800000185516025946F86516121956F995192
:1000C800606F616B60BF61078EC062F0636BC6ECE6
:1000D8000AF000016051875D966F61518859976FEA
:1000E80094C077F095C078F096C079F097C07AF010
:1000F8008EC07BF07C6B8EC07DF07E6B8AC07FF0FB
:100108008BC080F0E0EC07F0EFEF00F08A518C191B
:1001180009E18B518D19D8B494EF00F096EF00F0F7
:10012800EFEF00F08E05D8A49CEF00F09EEF00F0F2
:10013800B9EF00F085519825686F000E98BFFF0E43
:100148008621696F99C08FF0906B8FBF90078F5190
:10015800875D6A6F905188596B6F8CC06CF08DC049
:100168006DF0A2EC09F0EFEF00F09851606F616B51
:1001780060BF61078EC062F0636BC6EC0AF00001D5
:1001880085516025946F86516121956F9951606FF3
:10019800616B60BF61078EC062F0636BC6EC0AF0EA
:1001A80000016051875D966F61518859976F94C0BF
:1001B80077F095C078F096C079F097C07AF08EC045
:1001C8007BF07C6B8EC07DF07E6B8CC07FF08DC029
:1001D80080F0E0EC07F00001982BD8909333985109
:1001E800800A780FD8A0FBEF00F0FDEF00F028EFB1
:1001F80000F0992B9951800A7B0FD8A006EF01F0E7
:1002080008EF01F00CEF00F0120000016E51725D72
:10021800606F6F517359616F7BEC0AF060C078F0C2
:1002280061C079F000017051745D606F715175594A
:10023800616F7BEC0AF000016051785D7951800AAA
:100248007A6F6151800A7A59D8A02DEF01F030EF0A
:1002580001F0010E31EF01F0000E896F8A6B8951B0
:100268008A11D8B43AEF01F03CEF01F054EF01F0F5
:100278006EC07BF06FC07CF070C06EF071C06FF024
:100288007BC070F07CC071F072C07DF073C07EF0EE
:1002980074C072F075C073F07DC074F07EC075F0E4
:1002A8006E51725D7351800A786F6F51800A785968
:1002B800D8B061EF01F063EF01F07BEF01F06EC0A1
:1002C8007FF06FC080F072C06EF073C06FF07FC0B7
:1002D80072F080C073F070C081F071C082F074C099
:1002E80070F075C071F081C074F082C075F06E5105
:1002F800725D8B6F6F5173598C6F7051745D606F45
:1003080071517559616F7BEC0AF060C083F061C070
:1003180084F08BC060F08CC061F0000E0001636F48
:10032800020E626F64EC06F060C087F061C088F06E
:1003380000017451705D7151800A786F7551800A9F
:100348007859D8B0AAEF01F0ACEF01F0B2EF01F0A4
:10035800000E866F010E856FF3EF01F085698669DF
:10036800F3EF01F089518A11D8B4BDEF01F0BFEF66
:1003780001F0CFEF01F070C068F071C069F06EC095
:100388006AF06FC06BF076C06CF077C06DF0A2ECCD
:1003980009F0DDEF01F06EC068F06FC069F070C061
:1003A8006AF071C06BF076C06CF077C06DF0A2ECAB
:1003B80009F000018351875F8451885B88BFE9EFAA
:1003C80001F0E7EF01F0F1EF01F085517027865158
:1003D80071238B5187278C5188236E4B6F2B6E515D
:1003E800725D7351800A786F6F51800A7859D8B05E
:1003F80000EF02F002EF02F0B6EF01F01200000E7B
:100408003A6E3AC030F0316A30BE31062A50050DD6
:10041800C90E326E590E336EF3503226F450332221
:10042800305032263150332232C0F6FF33C0F7FF46
:100438000800F5CF34F0000E396E34A026EF02F034
:1004480028EF02F081EF02F02F04D8A42EEF02F07B
:1004580030EF02F04BEF02F026503924096E000EFF
:1004680039BEFF0E27200A6E3AC030F0316A30BE1E
:1004780031063050285C0B6E315029580C6E2BC059
:100488000DF02CC00EF006EC0AF0E4EF02F0395043
:10049800016E026A01BE02062FC003F0046AEEEC88
:1004A8000AF026500124356E27500220366E3A5045
:1004B800016E026A01BE02062FC003F0046AEEEC68
:1004C8000AF00150285C376E02502958386E35C042
:1004D80018F036C019F037C01AF038C01BF02FC01A
:1004E8001CF01D6A2FC01EF01F6A2BC020F02CC004
:1004F80021F05AEC08F0E4EF02F02B502D1809E136
:100508002C502E18D8B48BEF02F08DEF02F0E4EFE8
:1005180002F02F04D8A493EF02F095EF02F0B0EFA9
:1005280002F026503924096E000E39BEFF0E27202E
:100538000A6E3AC030F0316A30BE31063050285C5D
:100548000B6E315029580C6E2DC00DF02EC00EF0D8
:1005580006EC0AF0E4EF02F03950016E026A01BEBF
:1005680002062FC003F0046AEEEC0AF026500124BC
:10057800356E27500220366E3A50016E026A01BE6F
:1005880002062FC003F0046AEEEC0AF00150285C62
:10059800376E02502958386E35C018F036C019F039
:1005A80037C01AF038C01BF02FC01CF01D6A2FC0CE
:1005B8001EF01F6A2DC020F02EC021F05AEC08F062
:1005C800392AD89034323950800A780FD8A0EFEF02
:1005D80002F0F1EF02F021EF02F03A2A3A50800AD5
:1005E8007B0FD8A0FAEF02F0FCEF02F005EF02F063
:1005F8001200CC0E0001646F000E656FCC0E606FA8
:10060800000E616F25EC0AF000016051666FAFECD7
:100618000AF01F0E0001686F710E676F1E0EE82E3C
:10062800FED7672FFCD7682FFAD700F0B90E000164
:10063800646F000E656FB90E606F000E616F25EC78
:100648000AF000016051666FAFEC0AF01F0E00015E
:10065800686F710E676F1E0EE82EFED7672FFCD7E6
:10066800682FFAD700F0D50E0001646F000E656F91
:10067800D50E606F000E616F25EC0AF00001605125
:10068800666FAFEC0AF01F0E0001686F710E676F9E
:100698001E0EE82EFED7672FFCD7682FFAD700F07A
:1006A800C30E0001646F000E656FC30E606F000E0D
:1006B800616F25EC0AF000016051666FAFEC0AF03B
:1006C8001F0E0001686F710E676F1E0EE82EFED7B1
:1006D800672FFCD7682FFAD700F0AF0E0001646FC0
:1006E800000E656FAF0E606F000E616F25EC0AF0AB
:1006F80000016051666FAFEC0AF01F0E0001686FD1
:10070800710E676F1E0EE82EFED7672FFCD7682F75
:10071800FAD700F0A50E0001646F000E656FA50EF4
:10072800606F000E616F25EC0AF000016051666F82
:10073800AFEC0AF0990E0001686F310E676FA20ED8
:10074800E82EFED7672FFCD7682FFAD700F0990E4E
:100758000001686F310E676FA20EE82EFED7672F73
:10076800FCD7682FFAD700F0990E0001686F310E98
:10077800676FA20EE82EFED7672FFCD7682FFAD72F
:1007880000F0990E0001686F310E676FA20EE82E17
:10079800FED7672FFCD7682FFAD700F0990E000113
:1007A800686F310E676FA20EE82EFED7672FFCD751
:1007B800682FFAD700F0120000016951756F68C000
:1007C80076F0020E616F020E606F68C062F069C059
:1007D80063F07EEC09F000016A07000E6B5B6C5B4E
:1007E8006D5B829000F06AC06EF06BC06FF06CC0F9
:1007F80070F06DC071F0030E08EF04F00001D8909E
:10080800713370336F336E33E82E02EF04F06EC02D
:1008180072F06FC073F076517519D8A416EF04F012
:1008280018EF04F07FEF04F032EF04F0809A00F044
:10083800808A809A00F0808A809A00F0808A809A64
:1008480000F0808A809A00F0808A809A00F0808A7E
:10085800809A00F0808A809A00F0808A00017207EE
:10086800D8A07307722906E17329D8A43EEF04F0D3
:1008780040EF04F01AEF04F06A51030B746F4BEF6A
:1008880004F0809A00F0808A809A00F0808A000143
:1008980074077429D8A453EF04F055EF04F045EF1A
:1008A80004F0A6EF04F075C081FF809A00F0808AFA
:1008B80076C081FF809A00F0808A75C081FF809A97
:1008C80000F0808A76C081FF809A00F0808A75C027
:1008D80081FF809A00F0808A76C081FF809A00F0BC
:1008E800808A75C081FF809A00F0808A76C081FF77
:1008F800809A00F0808A00017207D8A073077229D5
:1009080006E17329D8A48BEF04F08DEF04F057EFBC
:1009180004F06A51030B746F9CEF04F075C081FFFB
:10092800809A00F0808A76C081FF809A00F0808AE1
:10093800000174077429D8A4A4EF04F0A6EF04F00A
:1009480092EF04F0828012000A50166E09C017F068
:10095800020E026E020E016E09C003F00AC004F016
:10096800C4EC09F00B06000E0C5A0D5A0E5A829070
:1009780000F00BC00FF00CC010F00DC011F00EC04D
:1009880012F0030ECDEF04F0D8901232113210326B
:100998000F32E82EC8EF04F00FC013F010C014F0A7
:1009A80017501618D8A4DBEF04F0DDEF04F042EF7F
:1009B80005F0F7EF04F0809A00F0808A809A00F042
:1009C800808A809A00F0808A809A00F0808A809AD3
:1009D80000F0808A809A00F0808A809A00F0808AED
:1009E800809A00F0808A1306D8A01406132806E11E
:1009F8001428D8A402EF05F004EF05F0DFEF04F0A7
:100A08000B50030B156E0FEF05F0809A00F0808AEB
:100A1800809A00F0808A15061528D8A416EF05F0EC
:100A280018EF05F009EF05F067EF05F016C081FF34
:100A3800809A00F0808A17C081FF809A00F0808A2F
:100A480016C081FF809A00F0808A17C081FF809AC3
:100A580000F0808A16C081FF809A00F0808A17C053
:100A680081FF809A00F0808A16C081FF809A00F08A
:100A7800808A17C081FF809A00F0808A1306D8A068
:100A88001406132806E11428D8A44DEF05F04FEFFB
:100A980005F01AEF05F00B50030B156E5EEF05F02D
:100AA80016C081FF809A00F0808A17C081FF809A63
:100AB80000F0808A15061528D8A465EF05F067EFC1
:100AC80005F054EF05F082801200AECF3DF0ABA2E6
:100AD80070EF05F072EF05F0E2EF05F0AB98AB8828
:100AE800E2EF05F001010251D8B47DEF05F07FEF88
:100AF80005F080EF05F08094060E0327120E0325FB
:100B0800186E196A000E1922000E1B6E000E1A6E5E
:100B1800000E1D6E060E1C6E010E1F6E900E1E6ED0
:100B2800000E216E000E206E5AEC08F0000E010136
:100B3800026FEDEF05F08084040E01010225D96EE5
:100B4800DA6A010EDA223DC0DFFF022B400E0219DD
:100B5800D8A4B1EF05F0B3EF05F0B5EF05F0000E3E
:100B6800026F040E0225D96EDA6A010EDA22000E2F
:100B7800DF6E02C101F0026AFF0E046EFA0E036E08
:100B8800EEEC0AF08F0E01243B6E010E02203C6E43
:100B980003C126F0276A3BC028F03CC029F03DC0BD
:100BA8002AF0FF0E2C6E2B68000E2E6E000E2D6E96
:100BB800010E2F6E03EC02F0EDEF05F03D500A0A2E
:100BC800D8B476EF05F0070AD8B4EDEF05F09FEF3B
:100BD80005F0120014EC0BF00D0E00017A6F2D0ECB
:100BE800796FD70EE82EFED7792FFCD77A2FFAD750
:100BF80000D0000E0001826F000E816F000E7E6F24
:100C0800660E7D6F4DEF06F0D8908135F66E823511
:100C1800F76EC90EF6265E0EF7220900F5CF7FF0B3
:100C28000A00F5CF80F0814B822BD8908135F66E83
:100C38008235F76EC90EF6265E0EF7220900F5CF4B
:100C48007BF00A00F5CF7CF0814B822B7F2906E1EF
:100C58008029D8A432EF06F034EF06F043EF06F00F
:100C68000D0E00017A6F2D0E796FD70EE82EFED784
:100C7800792FFCD77A2FFAD700D04DEF06F07FC036
:100C880060F080C061F07BC062F07CC063F07EECF5
:100C980009F000017D51811907E17E518219D8A41C
:100CA80058EF06F05AEF06F008EF06F0DAEC0AF013
:100CB800000E0001786F000E776F58EC09F01200F3
:100CC800000E0001656F63BF6EEF06F06CEF06F073
:100CD80074EF06F0626D631FD8B0632B010E656F69
:100CE80061BF7BEF06F079EF06F081EF06F0606DEB
:100CF800611FD8B0612B010E651B000E676F000ED7
:100D0800666F62516311D8B48CEF06F08EEF06F06F
:100D1800B6EF06F0010E646F96EF06F0D8906237D2
:100D28006337642B63AF9BEF06F09DEF06F092EFFD
:100D380006F0D890663767376251605D6351615934
:100D4800D8A0A9EF06F0ABEF06F0B0EF06F06251BD
:100D5800605F6351615B6681D89063336233642F4F
:100D68009DEF06F06551D8B4BCEF06F0BEEF06F073
:100D7800C2EF06F0666D671FD8B0672B66C060F0DB
:100D880067C061F012000600D9CF3EF0DACF3FF01D
:100D9800F3CF40F0F4CF41F0F6CF42F0F7CF43F075
:100DA800F8CF44F0F5CF45F0A0A2DDEF06F0DFEF75
:100DB80006F0F3EF06F0A1A2E4EF06F0E6EF06F086
:100DC800F3EF06F0050E4A26000E4B224C224D2268
:100DD80025EC0BF0160EB36E000EB26EA1929DAA12
:100DE800F8EF06F0FAEF06F003EF07F09EAAFFEF20
:100DF80006F001EF07F003EF07F069EC05F045C0D6
:100E0800F5FF44C0F8FF43C0F7FF42C0F6FF41C0FA
:100E1800F4FF40C0F3FF3FC0DAFF3EC0D9FF58924D
:100E2800110046EF07F09AC085F09BC086F09CC081
:100E380087F09DC088F09EC0F6FF9FC0F7FFF86A54
:100E4800070EF76403D00800F55005D0F6CFE9FF88
:100E5800F7CFEAFFEF500001896FA0C08AF0A1C068
:100E68008BF0A2C08CF0A3C08DF0A4C08EF009EC6A
:100E780000F00001A451060DF3509C5FF4509D5BF7
:100E88009E4B9F2B9EC0F6FF9FC0F7FFF86A070E88
:100E9800F76403D00800F55005D0F6CFE9FFF7CF87
:100EA800EAFFEF500009D8A45CEF07F05EEF07F007
:100EB80017EF07F01200020E0001616F100E606F4D
:100EC80068C062F069C063F07EEC09F0020E0001B0
:100ED800616F110E606F6CC062F06DC063F07EECE4
:100EE80009F0020E0001616F120E606F6AC062F0B5
:100EF8006BC063F07EEC09F0020E0001616F130E07
:100F0800606F6EC062F06FC063F07EEC09F0020E95
:100F18000001616F000E606F68C062F069C063F025
:100F28007EEC09F0020E0001616F010E606F6EC069
:100F380062F06FC063F07EEC09F01200000E000151
:100F4800786F000E776F58EC09F0000E00019B6F68
:100F5800080E9A6F010E9D6F860E9C6FEF0E9E6FA6
:100F68005F0E9F6FFF0EA16FA069000EA36F000EAA
:100F7800A26F020EA46F15EC07F0000E00016F6F50
:100F8800200E6E6F000E716F000E706F000E736F83
:100F9800200E726F010E756F900E746FFF0E776FD3
:100FA800766909EC01F0010E536E8F0E526E010E38
:100FB800516E8F0E506E120077C068F078C069F0DD
:100FC80079C06AF07AC06BF000017B517725816F98
:100FD8007C517821826FFF0E81256C6FFF0E822174
:100FE8006D6F7D517925836F7E517A21846FFF0E55
:100FF80083256E6FFF0E84216F6F5FEC07F07FC053
:1010080068F080C069F07BC060F07CC061F07DC092
:1010180062F07EC063F0C6EC0AF0000160C06AF0BE
:1010280061C06BF06C6B6D6BE0EC03F0DAEC0AF00E
:101038001200020E026E100E016E09C003F00AC003
:1010480004F0C4EC09F0020E026E110E016E0DC020
:1010580003F00EC004F0C4EC09F0020E026E120E8A
:10106800016E0BC003F00CC004F0C4EC09F0020ED2
:10107800026E130E016E0FC003F010C004F0C4EC32
:1010880009F0020E026E000E016E09C003F00AC0DC
:1010980004F0C4EC09F0020E026E010E016E0FC0DE
:1010A80003F010C004F0C4EC09F0120018C009F0F5
:1010B80019C00AF01AC00BF01BC00CF01C50182401
:1010C800226E1D501920236EFF0E22240D6EFF0E76
:1010D80023200E6E1E501A24246E1F501B20256ECE
:1010E800FF0E24240F6EFF0E2520106E1DEC08F055
:1010F80020C009F021C00AF01CC001F01DC002F098
:101108001EC003F01FC004F0EEEC0AF001C00BF0A3
:1011180002C00CF00D6A0E6AA8EC04F001EC0BF0AA
:101128001200D39E700ED312FC0ED3169B8EE00EC7
:101138009B16070E0001616F170E606F6A0EE82E8E
:10114800FED7602FFCD7612FFAD700F06D966F8617
:101158000B0E926E000E896EF18E000E936E000ECD
:101168008A6EF00E946E000E8B6EC290CF0EC11672
:10117800C150F00B0E09C16EC08EC70EC016C0500C
:10118800F80B0209C06ECF0EB116B192B180A082E1
:10119800F28CF28E1200BE0EF66E140EF76E000E72
:1011A800F86E00EEA5F010EE38F00900F5CFEEFF6E
:1011B800E550E150FAE19E0EF66E160EF76E000E3F
:1011C800F86E00EE50F010EE08F00900F5CFEEFFD3
:1011D800E550E150FAE101EE00F0840EEE6AE8060F
:1011E800FDE100EEDDF0120EEE6AE806FDE100EE2C
:1011F80046F00A0EEE6AE806FDE158905892000E95
:10120800F86E000134EF0BF0000E0001636F82AA44
:1012180010EF09F012EF09F013EF09F0638382A8C9
:1012280018EF09F01AEF09F01BEF09F06381635119
:10123800D8B421EF09F025EF09F0626B622B27EF94
:1012480009F00001626B62474E506219FD0B62198A
:101258004E6E63C060F0616B1200AC9CAC8AAC98B7
:10126800AC96AC94AB8EAB9CAB88B896B892B89061
:10127800000EB06E4D0EAF6E9D8A000E0101016F1B
:10128800000E026F010E036F040E0001606F010E65
:10129800616F000E636F000E626F000E656F400E87
:1012A800646F42EC0AF01200020E0001616F000E3A
:1012B800606F000E636F000E626F7EEC09F0020E25
:1012C8000001616F010E606F000E636F000E626FA8
:1012D8007EEC09F077C068F078C069F0000E000174
:1012E8006A6F770E6B6F010E6C6F000E6D6FE0EC1E
:1012F80003F01200829000F0829200016151646F45
:1013080060C065F064C081FF809A00F0808A65C083
:1013180081FF809A00F0808A828200016351666FA3
:1013280062C067F066C081FF809A00F0808A67C05B
:1013380081FF809A00F0808A82801200020E0001EC
:10134800616F000E606F68C062F069C063F07EEC88
:1013580009F0020E0001616F010E606F6AC062F051
:101368006BC063F07EEC09F0020E0001616F020EA3
:10137800606F6CC062F06DC063F07EEC09F0120023
:10138800829000F082920250056E01C006F005C0FE
:1013980081FF809A00F0808A06C081FF809A00F061
:1013A800808A82820450076E03C008F007C081FF5C
:1013B800809A00F0808A08C081FF809A00F0808AB5
:1013C80082801200000E0001786F000E776F58ECD3
:1013D80009F0000E00019B6F460E9A6F010E9D6F7B
:1013E8006A0E9C6FD30E9E6F5F0E9F6FFF0EA16FEC
:1013F800A069000EA36F000EA26F020EA46F15EC79
:1014080007F01200020E026E000E016E09C003F012
:101418000AC004F0C4EC09F0020E026E010E016E5F
:101428000BC003F00CC004F0C4EC09F0020E026E0D
:10143800020E016E0DC003F00EC004F0C4EC09F0FA
:10144800120060C062F061C063F02EEF0AF0000184
:10145800624B632B62C0D9FF63C0DAFFDF50D8A4A8
:1014680038EF0AF03AEF0AF02BEF0AF0000160516A
:10147800625D606F61516359616F120060C066F010
:1014880061C067F050EF0AF066C0D9FF67C0DAFFA5
:1014980062C0DFFF664B672B00016407D8A06507B1
:1014A800642906E16529D8A45CEF0AF05EEF0AF02A
:1014B80048EF0AF0120041542B434F50533F0D00A0
:1014C80041542B435245473F0D0041542B43434C55
:1014D8004B3F0D0041542B434349440D0041542BCD
:1014E8004950523F0D0041542B4353510D00000108
:1014F80061BF83EF0AF081EF0AF091EF0AF060C054
:1015080062F061C063F0621F631F624B632B62C0AD
:1015180060F063C061F095EF0AF060C060F061C0F0
:1015280061F0120008EC09F0000160516111D8A4C3
:10153800A0EF0AF0A2EF0AF0A6EF0AF0A2EC07F07B
:10154800A8EF0AF0E6EC09F0000E0001E96F000EC2
:10155800EE6F468C1200BBEF0AF064C0D9FF65C07D
:10156800DAFFDF5042EC0BF00001644B652B000101
:1015780066076629D8A4C3EF0AF0C5EF0AF0B1EFF1
:101588000AF01200000160516203F3CF64F0F4CF57
:1015980065F060516303F350652761516203F350AE
:1015A800652764C060F065C061F01200000E00019C
:1015B800696F000E686F000E6B6F000E6A6F000E89
:1015C8006D6FEF0E6C6F010E6F6F8F0E6E6F5FECAD
:1015D80007F0120001500302F3CF05F0F4CF06F034
:1015E80001500402F350062602500302F350062667
:1015F80005C001F006C002F01200000E0A6E000ECF
:10160800096E000E0C6E000E0B6E000E0E6EEF0EC5
:101618000D6E010E106E8F0E0F6E1DEC08F012008D
:10162800000E936E8280808A80888294200E00014A
:10163800606F290EE82EFED7602FFCD700D0828479
:101648001200010E016E4F50070B026E0150022668
:101658004F500218F80B02184F6E492A4E88120094
:1016680095EC08F0EEEC05F031EC09F096EC0AF098
:10167800FDEC02F03CEF0BF007EF00F00001606FAB
:101688009EA849EF0BF04BEF0BF044EF0BF060C056
:0E169800ADFF00F012008F018F01EF00EF0098
:1059C8000000000000003E5B4F5B3E3E6B4F6B3EAD
:1059D8001C3E7C3E1C183C7E3C181C577D571C1CEA
:1059E8005E7F5E1C00183C1800FFE7C3E7FF001845
:1059F800241800FFE7DBE7FF30483A060E2629792E
:105A08002926407F050507407F05253F5A3CE73C8E
:105A18005A7F3E1C1C08081C1C3E7F14227F22143F
:105A28005F5F005F5F06097F017F006689956A6096
:105A38006060606094A2FFA29408047E04081020AD
:105A48007E201008082A1C08081C2A08081E1010A6
:105A580010100C1E0C1E0C30383E3830060E3E0E50
:105A680006000000000000005F00000007000700BB
:105A7800147F147F14242A7F2A12231308646236A1
:105A8800495620500008070300001C22410000412D
:105A9800221C002A1C7F1C2A08083E080800807067
:105AA800300008080808080000606000201008049A
:105AB800023E5149453E00427F40007249494946ED
:105AC8002141494D331814127F1027454545393C6B
:105AD8004A49493141211109073649494936464958
:105AE80049291E000014000000403400000008147A
:105AF80022411414141414004122140802015909F3
:105B0800063E415D594E7C1211127C7F4949493647
:105B18003E414141227F4141413E7F494949417FC0
:105B2800090909013E414151737F0808087F004176
:105B38007F41002040413F017F081422417F4040BF
:105B480040407F021C027F7F0408107F3E41414194
:105B58003E7F090909063E4151215E7F0919294600
:105B6800264949493203017F01033F4040403F1F16
:105B78002040201F3F4038403F631408146303044B
:105B88007804036159494D43007F414141020408AB
:105B98001020004141417F0402010204404040407E
:105BA80040000307080020545478407F28444438B4
:105BB8003844444428384444287F385454541800FE
:105BC800087E090218A4A49C787F0804047800447D
:105BD8007D40002040403D007F1028440000417F68
:105BE80040007C047804787C0804047838444444F1
:105BF80038FC1824241818242418FC7C08040408E9
:105C0800485454542404043F44243C4040207C1C01
:105C18002040201C3C4030403C44281028444C90F4
:105C280090907C4464544C4400083641000000774E
:105C38000000004136080002010204023C26232627
:105C48003C1EA1A161123A4040207A38545455595B
:105C58002155557941225454784221555478402091
:105C6800545579400C1E52721239555555593954AC
:105C780054545939555454580000457C4100024544
:105C88007D420001457C407D1211127DF0282528B7
:105C9800F07C545545002054547C547C0A097F49B3
:105CA80032494949323A4444443A324A4848303AF7
:105CB8004141217A3A42402078009DA0A07D3D4292
:105CC80042423D3D4040403D3C24FF2424487E491B
:105CD80043662B2FFC2F2BFF0929F620C0887E094D
:105CE8000320545479410000447D413048484A32E9
:105CF800384040227A007A0A0A727D0D19317D26D1
:105D080029292F28262929292630484D40203808B6
:105D180008080808080808382F10C8ACBA2F102837
:105D280034FA00007B000008142A142222142A14D2
:105D3800085500550055AA55AA55AAFF55FF55FF05
:105D4800000000FF00101010FF00141414FF0010D2
:105D580010FF00FF1010F010F0141414FC001414BD
:105D6800F700FF0000FF00FF1414F404FC141417DC
:105D7800101F10101F101F1414141F00101010F003
:105D8800000000001F101010101F10101010F0104D
:105D9800000000FF101010101010101010FF10005D
:105DA8000000FF140000FF00FF00001F1017000094
:105DB800FC04F414141710171414F404F40000FF6E
:105DC80000F714141414141414F700F71414141707
:105DD8001410101F101F141414F4141010F010F0E5
:105DE80000001F101F0000001F14000000FC14001A
:105DF80000F010F01010FF10FF141414FF1410100E
:105E0800101F00000000F010FFFFFFFFFFF0F0F090
:105E1800F0F0FFFFFF0000000000FFFF0F0F0F0F63
:105E28000F3844443844FC4A4A4A347E0202060683
:105E3800027E027E0263554941633844443C044073
:105E48007E201E2006027E020299A5E7A5991C2A3B
:105E5800492A1C4C7201724C304A4D4D30304878FA
:105E68004830BC625A463D3E494949007E0101011D
:105E78007E2A2A2A2A2A44445F444440514A4440FC
:105E880040444A51400000FF0103E080FF00000841
:105E9800086B6B083612362436060F090F06000009
:105EA80018180000001010003040FF0101001F0109
:105EB800011E00191D1712003C3C3C3C000000006C
:105EC8000002070830050736000B0713120100000F
:105ED800010200000103003010080002020900005E
:105EE800000C0000000F000000000100000201008B
:105EF8000003010000FFFF010000019011010127CC
:105F080002FFFF01000201BD01FFFF0100030100C4
:105F18002D81020E00FFFF010000020000010200B7
:105F2800000003000001030707020306060503003B
:105F3800000603000D070306070803050009030709
:105F4800000C0300000D030A00100200001102EF0C
:105F5800001202000013028F010004003101040145
:105F6800000404000000050000010500000205000F
:105F780000030500000405000005050000100010DE
:105F8800001100000620000200070073011414002D
:105F98000000000000F8F001FCF903FCFF03FEFF1D
:105FA80007FEFF07FEFF07FEFF07FCFF03FCFF03DA
:105FB800F8FF01F0FF00E07F00C03F00801F0000F5
:105FC8000F000006000000000000002A2A2A2043D3
:105FD8006F6C6C656761726520656C657474726F4F
:105FE8006469202A2A2A004672657175656E7A618D
:075FF8003A002533640000AC
:020000040020DA
:08000000FFFFFFFFFFFFFFFF00
:020000040030CA
:0E000000200E011EFF0180FF0FC00FE00F4019
:00000001FF
