:020000040000FA
:0400000007EF00F016
:100008005A822AED12F0F3EF11F034EC0FF00101EF
:10001800C451C3110BE1210EC15D4E0EC259D8A0C7
:1000280018EF00F01AEF00F078EF01F0E00EC125AC
:100038000001AC6FB10E0101C2210001AD6FFF0ECE
:100048000101C3210001AE6FFF0E0101C4210001AF
:10005800AF6FAC510101B15D0001AD510101B25961
:100068000001AE510101B3590001AF510101B4596A
:10007800D8B041EF00F043EF00F078EF01F0C1C1D4
:10008800B1F1C2C1B2F1C3C1B3F1C4C1B4F1800EC0
:100098004A6E010E4B6EED0E4C6E5E0E4D6EC6EC4A
:1000A80009F01FC04EF020C04FF021C050F022C010
:1000B80051F04FEC03F0800E4A6E010E4B6EFF0EAE
:1000C8004D6EE00E4C6EBEEC0FF0000E0101A86FF5
:1000D800000EA96F000EAA6F000EAB6FD5EF00F0EF
:1000E800000E0001706FC20E716F010E726F000E6C
:1000F800736F31EC09F070C0A8F171C0A9F172C03A
:10010800AAF173C0ABF110EF01F0800E0001706F1F
:10011800250E716F000E726F000E736F31EC09F0CF
:1001280070C0A8F171C0A9F172C0AAF173C0ABF197
:1001380010EF01F0000E0001706FE10E716F000EFC
:10014800726F000E736F31EC09F070C0A8F171C0C6
:10015800A9F172C0AAF173C0ABF110EF01F0800EE3
:100168004A6E010E4B6E330E4C6E5E0E4D6EC6EC33
:1001780009F01FC04EF020C04FF021C050F022C03F
:1001880051F04FEC03F0800E4A6E010E4B6EFF0EDD
:100198004D6EE00E4C6EBEEC0FF0A0EC0CF010EFC4
:1001A80001F0C6EC09F02250000AD8B405EF01F0BE
:1001B800B3EF00F02050250AD8B4E9EF00F0C40AE4
:1001C800D8B4F0EF00F0B3EF00F01F50800AD8B4B5
:1001D8009EEF00F0B3EF00F01F50000AD8B474EFA0
:1001E80000F0B3EF00F02050C20AD8B4FEEF00F0E0
:1001F800B3EF00F01F50000AD8B489EF00F0B3EF56
:1002080000F02150000AD8B4DEEF00F0010AD8B49B
:10021800F7EF00F0B3EF00F0800E4A6E010E4B6E60
:100228006F0E4C6E5E0E4D6EA8C14EF0A9C14FF018
:10023800AAC150F0ABC151F04FEC03F00101A85135
:10024800A911AA11AB11D8B42CEF01F02EEF01F0CF
:1002580034EF01F0800EA06F010EA16F38EF01F0AE
:10026800A50EA06F5E0EA16FA0C14AF0A1C14BF010
:10027800F80E4D6E1F0E4C6EBEEC0FF05EEC13F0D8
:100288000009D8A44AEF01F04CEF01F078EF01F033
:10029800040E4A6E5F0E4B6E000E4D6E1F0E4C6EB6
:1002A800BEEC0FF0A0EC0CF05EEC13F00009D8B433
:1002B80060EF01F062EF01F069EF01F02B0E010130
:1002C800A26F5F0EA36F6EEF01F0720E0101A26FB5
:1002D8005F0EA36FA2C14AF0A3C14BF0000E4D6E92
:1002E8001F0E4C6EBEEC0FF00101C451C3110BE19F
:1002F800C50EC15D090EC259D8A085EF01F087EF80
:1003080001F0DCEF01F03C0EC1250001AC6FF60EE8
:100318000101C2210001AD6FFF0E0101C3210001DF
:10032800AE6FFF0E0101C4210001AF6FAC51010196
:10033800BD5D0001AD510101BE590001AE51010181
:10034800BF590001AF510101C059D8B0AEEF01F05B
:10035800B0EF01F0DCEF01F0C1C1BDF1C2C1BEF1E7
:10036800C3C1BFF1C4C1C0F1880E4A6E5F0E4B6EA7
:10037800FF0E4D6EE00E4C6EBEEC0FF09D0E186E2B
:100388005F0E196E000E1B6E000E1A6E000E1C6EAC
:10039800010E1D6E200E1E6EDDEC14F0000E4A6E6E
:1003A800010E4B6E070E4D6EE00E4C6EBEEC0FF05C
:1003B8000101C451C3110BE1A10EC15D0F0EC25959
:1003C800D8A0E9EF01F0EBEF01F044EF02F0600E86
:1003D800C1250001AC6FF00E0101C2210001AD6F13
:1003E800FF0E0101C3210001AE6FFF0E0101C42100
:1003F8000001AF6FAC510101B95D0001AD510101C0
:10040800BA590001AE510101BB590001AF510101B8
:10041800BC59D8B012EF02F014EF02F044EF02F02A
:10042800C1C1B9F1C2C1BAF1C3C1BBF1C4C1BCF108
:100438001B0E4A6E5F0E4B6EFF0E4D6EE00E4C6E3D
:10044800BEEC0FF0200E4A6E010E4B6EF60E4C6E8F
:100458005F0E4D6EC6EC09F01FC04EF020C04FF085
:1004680021C050F022C051F04FEC03F0200E4A6E2C
:10047800010E4B6EF80E4D6E000E4C6EBEEC0FF07A
:100488000101C451C3110BE1650EC15D190EC259BA
:10049800D8A051EF02F053EF02F0C1EF02F09C0E2A
:1004A800C1250001AC6FE60E0101C2210001AD6F4C
:1004B800FF0E0101C3210001AE6FFF0E0101C4212F
:1004C8000001AF6FAC510101B55D0001AD510101F3
:1004D800B6590001AE510101B7590001AF510101F0
:1004E800B859D8B07AEF02F07CEF02F0C1EF02F011
:1004F800C1C1B5F1C2C1B6F1C3C1B7F1C4C1B8F148
:10050800670E4A6E5F0E4B6EFF0E4D6EE00E4C6E20
:10051800BEEC0FF0600E4A6E010E4B6EBA0E4C6EBA
:100528005F0E4D6EDAEC0DF00001AC6FAC514E6E03
:100538004F6A4FEC03F0600E4A6E010E4B6EFF0ED1
:100548004D6E4C68BEEC0FF0600E4A6E010E4B6E9D
:10055800A70E4C6E5F0E4D6EC9EC10F04E6E4F6AD2
:100568004EBE4F064FEC03F0600E4A6E010E4B6E06
:10057800FF0E4D6E4C68BEEC0FF00101C451C31163
:100588000BE1350EC15D210EC259D8A0CEEF02F0A5
:10059800D0EF02F04EEF03F0CC0EC1250001AC6F96
:1005A800DE0E0101C2210001AD6FFF0E0101C32162
:1005B8000001AE6FFF0E0101C4210001AF6FAC5105
:1005C8000101AD5D0001AD510101AE590001AE510F
:1005D8000101AF590001AF510101B059D8B0F7EF8F
:1005E80002F0F9EF02F04EEF03F0C1C1ADF1C2C164
:1005F800AEF1C3C1AFF1C4C1B0F18A0E4A6E5E0E4E
:100608004B6EFF0E4D6EE00E4C6EBEEC0FF055ECCF
:100618000BF00101AC6F020EAC19D8B416EF03F061
:1006280018EF03F030EF03F0AC05D8B41EEF03F079
:1006380020EF03F026EF03F0E80EA66F5F0EA76F1A
:100648002AEF03F07D0EA66F5F0EA76FA6C1A4F177
:10065800A7C1A5F134EF03F0380EA46F5F0EA56FA4
:10066800400E4A6E010E4B6EBE0E4C6E5E0E4D6E07
:10067800ACC14EF04F6AA4C150F0A5C151F04FEC87
:1006880003F0400E4A6E010E4B6EFF0E4D6E4C6825
:10069800BEEC0FF012004E0E00016B6F000E6C6F77
:1006A800CDEF05F0250E6F19D8B45DEF03F05FEFBD
:1006B80003F069EF03F04AC0D9FF4BC0DAFF6FC0FF
:1006C800DFFF4A4A4B2ACDEF05F0000E6E6F000E91
:1006D8006D6F000E6A6F4CC0F6FF4DC0F7FF080043
:1006E800F55030EC15F0D8A07CEF03F07EEF03F066
:1006F80057EF04F0000E00016E6F000E6D6F6DC0B5
:1007080005F06EC006F0000E086E0A0E076E61EC6A
:1007180015F005C06DF006C06EF0D00E526EFF0EDB
:10072800536E4CC0F6FF4DC0F7FF0800F550546EED
:10073800556A5250542653505522545000016D2783
:1007480055506E234C4A4D2A4CC0F6FF4DC0F7FF5A
:100758000800F55030EC15F0D8B0B5EF03F0B7EF5E
:1007680003F083EF03F057EF04F06A8957EF04F0C2
:100778006BC0D9FF6CC0DAFFDECF62F0DDCF63F06B
:10078800020E6B27000E6C2362516311D8A4CFEFC1
:1007980003F0D1EF03F0D5EF03F0D30E626F5F0ED5
:1007A800636F000E656F000E646FDEEF03F00001EB
:1007B800644B652B64516225526E65516321536EFB
:1007C80052C0F6FF53C0F7FFF86A070EF76403D06C
:1007D8000800F55005D0F6CFE9FFF7CFEAFFEF5054
:1007E8000009D8A4FAEF03F0FCEF03F0DBEF03F005
:1007F80000016D51645D6E516559D8B006EF04F083
:1008080008EF04F00EEF04F064516D5F65516E5B04
:100818001CEF04F0000E6E6F000E6D6F1CEF04F0FD
:100828004AC0D9FF4BC0DAFF200EDF6E4A4A4B2A76
:100838006D07D8A06E076D2906E16E29D8A427EFA9
:1008480004F029EF04F014EF04F045EF04F062C05F
:10085800F6FF63C0F7FFF86A4AC0D9FF4BC0DAFF5A
:10086800070EF76403D00800F55005D0F6CFE9FF6E
:10087800F7CFEAFFEF50DF6E0001624B632B4A4A65
:100888004B2A6407D8A06507642906E16529D8A41E
:1008980050EF04F052EF04F02BEF04F0CDEF05F029
:1008A8006A8D7CEF04F04CC0F6FF4DC0F7FF4C4A50
:1008B8004D2A0800F5CF6FF000016F51000AD8B437
:1008C800DEEF05F0640AD8B47CEF04F00D0AD8B462
:1008D8007CEF04F0050AD8B4B9EF03F01F0AD8B4C6
:1008E800BCEF03F0060AD8B454EF04F0CDEF05F0DE
:1008F8006ABD81EF04F083EF04F0C0EF04F06AA949
:1009080088EF04F08AEF04F09CEF04F06BC0D9FF85
:100918006CC0DAFFDECF66F0DECF67F0DECF68F0BE
:10092800DECF69F0040E6B27000E6C23ADEF04F0E8
:100938006BC0D9FF6CC0DAFFDECF66F0DDCF67F0A1
:10094800000E67BFFF0E686F696F020E6B27000EFF
:100958006C2369BFB4EF04F0B2EF04F0EBEF04F0DE
:10096800030E6A13691F681F671F666D000E6723F1
:1009780068236923EBEF04F06AA9C5EF04F0C7EF19
:1009880004F0D9EF04F06BC0D9FF6CC0DAFFDECFFA
:1009980066F0DECF67F0DECF68F0DECF69F0040ED8
:1009A8006B27000E6C23EBEF04F06BC0D9FF6CC013
:1009B800DAFFDECF52F0DDCF53F052C066F053C0FD
:1009C80067F0686B696B020E6B27000E6C23010ED3
:1009D8006F6F6F51040DC10EF324F66E5D0EF42097
:1009E800F76E0900F550665D0900F5506759090072
:1009F800F55068590900F5506959D8B006EF05F067
:100A080008EF05F00AEF05F014EF05F06F2B0A0E5A
:100A18006F19D8A412EF05F014EF05F0EDEF04F00C
:100A28006D516E11D8B41BEF05F01DEF05F02BEFDB
:100A380005F06AC052F0030E5216D8B426EF05F03E
:100A480028EF05F02BEF05F06D07D8A06E076F5162
:100A5800526E536A6D51525C5350800A546E6E51F7
:100A6800800A5458D8B03BEF05F03DEF05F043EF4E
:100A780005F06F516D5F000E6E5B47EF05F0000EDD
:100A88006E6F000E6D6F6D516E11D8B44EEF05F09C
:100A980050EF05F064EF05F04AC0D9FF4BC0DAFF0C
:100AA800200EDF6E4A4A4B2A6D07D8A06E076D519B
:100AB8006E11D8A462EF05F064EF05F050EF05F071
:100AC8006AC052F0030E5216D8B46DEF05F06FEFFE
:100AD80005F077EF05F04AC0D9FF4BC0DAFF2D0EBD
:100AE800DF6E4A4A4B2A6FC060F0616BC0EF05F0B9
:100AF80060C052F061C053F0D89052365336D89047
:100B080052365336C10E5224F66E5D0E5320F76EE0
:100B18000900F5CF09F00900F5CF0AF00900F5CF73
:100B28000BF00A00F5CF0CF066C005F067C006F0C0
:100B380068C007F069C008F09AEC0EF005C012F022
:100B480006C013F007C014F008C015F00A0E166EA0
:100B5800000E176E000E186E000E196E7AEC0FF06C
:100B68001250300F00016F6F4AC0D9FF4BC0DAFF37
:100B78006FC0DFFF4A4A4B2A6007D8A06107602987
:100B880006E16129D8A4CBEF05F0CDEF05F07CEFA5
:100B980005F04CC0F6FF4DC0F7FF4C4A4D2A08003F
:100BA800F5CF6FF06F51D8A4DCEF05F0DEEF05F05C
:100BB80056EF03F04AC0D9FF4BC0DAFF000EDF6ED4
:100BC8001200000E3E6E3EC034F0356A34BE350663
:100BD8002E50050DF50E366E570E376EF35036262D
:100BE800F4503722345036263550372236C0F6FFB7
:100BF80037C0F7FF0800F5CF38F0000E3D6E38A07B
:100C080008EF06F00AEF06F063EF06F03304D8A405
:100C180010EF06F012EF06F02DEF06F02A503D24F3
:100C28000D6E000E3DBEFF0E2B200E6E3EC034F042
:100C3800356A34BE350634502C5C0F6E35502D584D
:100C4800106E2FC011F030C012F083EC14F0C6EF14
:100C580006F03D50056E066A05BE060633C007F06D
:100C6800086A61EC15F02A500524396E2B500620CD
:100C78003A6E3E50056E066A05BE060633C007F09A
:100C8800086A61EC15F005502C5C3B6E06502D5837
:100C98003C6E39C01CF03AC01DF03BC01EF03CC091
:100CA8001FF033C020F0216A33C022F0236A2FC01E
:100CB80024F030C025F07FEC11F0C6EF06F02F507D
:100CC800311809E130503218D8B46DEF06F06FEFE3
:100CD80006F0C6EF06F03304D8A475EF06F077EFF8
:100CE80006F092EF06F02A503D240D6E000E3DBE30
:100CF800FF0E2B200E6E3EC034F0356A34BE35062A
:100D080034502C5C0F6E35502D58106E31C011F0D8
:100D180032C012F083EC14F0C6EF06F03D50056EB9
:100D2800066A05BE060633C007F0086A61EC15F0CE
:100D38002A500524396E2B5006203A6E3E50056E17
:100D4800066A05BE060633C007F0086A61EC15F0AE
:100D580005502C5C3B6E06502D583C6E39C01CF07B
:100D68003AC01DF03BC01EF03CC01FF033C020F05D
:100D7800216A33C022F0236A31C024F032C025F042
:100D88007FEC11F03D2AD89038323D50800A780F18
:100D9800D8A0D1EF06F0D3EF06F003EF06F03E2A15
:100DA8003E50800A7B0FD8A0DCEF06F0DEEF06F09D
:100DB800E7EF05F012001350175C056E1450185831
:100DC800066E16EC15F005C01DF006C01EF0155095
:100DD800195C056E16501A58066E16EC15F005507B
:100DE8001D5C1E50800A1F6E0650800A1F58D8A02E
:100DF80000EF07F003EF07F0010E04EF07F0000E15
:100E08002E6E2F6A2E502F10D8B40DEF07F00FEF6B
:100E180007F027EF07F013C020F014C021F015C029
:100E280013F016C014F020C015F021C016F017C03A
:100E380022F018C023F019C017F01AC018F022C009
:100E480019F023C01AF01350175C1850800A1D6E51
:100E58001450800A1D58D8B034EF07F036EF07F069
:100E68004EEF07F013C024F014C025F017C013F09C
:100E780018C014F024C017F025C018F015C026F0CB
:100E880016C027F019C015F01AC016F026C019F0C0
:100E980027C01AF01350175C306E14501858316E72
:100EA8001550195C056E16501A58066E16EC15F09A
:100EB80005C028F006C029F030C005F031C006F0A2
:100EC800000E086E020E076E78EC0DF005C02CF0CF
:100ED80006C02DF01950155C1650800A1D6E1A5068
:100EE800800A1D58D8B07BEF07F07DEF07F083EF3D
:100EF80007F0000E2B6E010E2A6EC3EF07F02A686A
:100F08002B68C3EF07F02E502F10D8B48EEF07F0E0
:100F180090EF07F0A0EF07F015C00DF016C00EF027
:100F280013C00FF014C010F01BC011F01CC012F059
:100F380083EC14F0AEEF07F013C00DF014C00EF000
:100F480015C00FF016C010F01BC011F01CC012F035
:100F580083EC14F028502C5E29502D5A2DBEB9EF81
:100F680007F0B7EF07F0C1EF07F02A5015262B500E
:100F7800162230502C2631502D22134A142A135091
:100F8800175C1850800A1D6E1450800A1D58D8B07E
:100F9800D0EF07F0D2EF07F087EF07F012000E50FE
:100FA8001A6E0DC01BF0020E066E020E056E0DC005
:100FB80007F00EC008F041EC14F00F06000E105AAE
:100FC800115A125A829000F00FC013F010C014F09A
:100FD80011C015F012C016F0030EF8EF07F0D89004
:100FE8001632153214321332E82EF3EF07F013C01D
:100FF80017F014C018F01B501A18D8A406EF08F000
:1010080008EF08F06DEF08F022EF08F0809A00F082
:10101800808A809A00F0808A809A00F0808A809A7C
:1010280000F0808A809A00F0808A809A00F0808A96
:10103800809A00F0808A809A00F0808A1706D8A0EB
:101048001806172806E11828D8A42DEF08F02FEF66
:1010580008F00AEF08F00F50030B196E3AEF08F08A
:10106800809A00F0808A809A00F0808A19061928F0
:10107800D8A441EF08F043EF08F034EF08F092EFFE
:1010880008F01AC081FF809A00F0808A1BC081FF97
:10109800809A00F0808A1AC081FF809A00F0808AC6
:1010A8001BC081FF809A00F0808A1AC081FF809A55
:1010B80000F0808A1BC081FF809A00F0808A1AC0E5
:1010C80081FF809A00F0808A1BC081FF809A00F01F
:1010D800808A1706D8A01806172806E11828D8A469
:1010E80078EF08F07AEF08F045EF08F00F50030B9F
:1010F800196E89EF08F01AC081FF809A00F0808A83
:101108001BC081FF809A00F0808A19061928D8A48C
:1011180090EF08F092EF08F07FEF08F0828012005D
:1011280011C0D9FF12C0DAFFDF501E6E114A122A11
:10113800200E1E18D8B4A3EF08F0A5EF08F094EF1E
:1011480008F0090E1E18D8B4ACEF08F0AEEF08F09E
:1011580094EF08F0000E1A6E000E1B6E000E1C6E47
:10116800000E1D6E000E196E2D0E1E18D8A4BFEFAE
:1011780008F0C1EF08F0CCEF08F0192A11C0D9FF28
:1011880012C0DAFFDF501E6E114A122AFBEF08F078
:101198002B0E1E18D8A4D3EF08F0D5EF08F0FBEFFC
:1011A80008F0C2EF08F01AC005F01BC006F01CC01A
:1011B80007F01DC008F00A0E096E000E0A6E000E38
:1011C8000B6E000E0C6E61EC12F01EC015F0D00E06
:1011D8001526155005241A6E000E06201B6E000EEB
:1011E80007201C6E000E08201D6EC2EF08F01E506E
:1011F80030EC15F0D8B003EF09F005EF09F0D7EFA0
:1012080008F01950D8B40BEF09F00DEF09F028EFEA
:1012180009F01AC015F01BC016F01CC017F01DC04D
:1012280018F0151E161E171E181E152A000E162257
:101238001722182215C011F016C012F017C013F0AB
:1012480018C014F030EF09F01AC011F01BC012F0EA
:101258001CC013F01DC014F01200C6EC09F01FC02A
:10126800A8F020C0A9F021C0AAF022C0ABF000016C
:10127800A851A911AA11AB11D8A445EF09F047EF5D
:1012880009F052EF09F0000E0001706F000E716F47
:10129800000E726F000E736FC5EF09F0940E4A6E60
:1012A800000E4B6E450E4C6E5F0E4D6E70C04EF0CC
:1012B80071C04FF072C050F073C051F04FEC03F0A2
:1012C800940E186E000E196E000E1B6E000E1A6E2C
:1012D800740E1C6E000E1D6E200E1E6EDDEC14F0DA
:1012E800FA0E056E000E066E000E076E000E086EF2
:1012F800C0EC14F0740E056E000E066EFA0E076E42
:101308005F0E086E2EEC13F005500610D8A48FEF70
:1013180009F091EF09F0B9EF09F070C012F071C04F
:1013280013F072C014F073C015F046EC10F0960E6E
:10133800056E000E066E000E076E000E086EC0ECFD
:1013480014F05EEC13F0E806D8A4ADEF09F0AFEFA7
:1013580009F0B9EF09F070C070F071C071F072C097
:1013680072F073C073F0C5EF09F0A8C012F0A9C0FD
:1013780013F0AAC014F0ABC015F046EC10F047EF1C
:1013880009F01200B10E186E5F0E196E000E1B6E7A
:10139800000E1A6E230E1C6E000E1D6E200E1E6EA1
:1013A800DDEC14F0230E106E000E116EE10E126EBD
:1013B8005F0E136E3BEC0EF010501110D8B4E7EF2F
:1013C80009F0E9EF09F04FEF0AF0230E126E000E54
:1013D800136ED10E146E5F0E156EE4EC0AF012C097
:1013E80047F013C048F0000E126E000E136E230E65
:1013F800146E000E156EE4EC0AF012C047F013C02C
:1014080048F047504810D8B40CEF0AF00EEF0AF035
:101418004FEF0AF047C011F048C012F094EC08F002
:1014280011C043F012C044F013C045F014C046F098
:10143800000E496E4950040DE90EF324F66E5D0E58
:10144800F420F76E43500900F51810E144500900E4
:10145800F5180CE145500900F51808E14650090057
:10146800F518D8A43AEF0AF03CEF0AF046EF0AF074
:1014780043C01FF044C020F045C021F046C022F010
:1014880057EF0AF0492A020E49644DEF0AF04FEF70
:101498000AF01EEF0AF0000E1F6E000E206E000EFE
:1014A800216E000E226E12005CEF0AF00B4A0C2A25
:1014B8000BC0D9FF0CC0DAFF200EDE18D8B467EFD6
:1014C8000AF069EF0AF05AEF0AF00BC0D9FF0CC016
:1014D800DAFF090EDE18D8B474EF0AF076EF0AF0D6
:1014E8005AEF0AF0000E116E000E106E000E0F6E0D
:1014F8000BC0D9FF0CC0DAFF2D0EDE18D8A487EF79
:101508000AF089EF0AF08EEF0AF00F2A0B4A0C2A2C
:10151800BBEF0AF00BC0D9FF0CC0DAFF2B0EDE18A8
:10152800D8A499EF0AF09BEF0AF0BBEF0AF00B4A38
:101538000C2ABBEF0AF010C005F011C006F0000E2F
:10154800086E0A0E076E61EC15F00BC0D9FF0CC0CF
:10155800DAFFDF500D6E0D500526000E0622D00E64
:101568000524106EFF0E0620116E9BEF0AF00BC0CB
:10157800D9FF0CC0DAFFDF5030EC15F0D8B0C7EF58
:101588000AF0C9EF0AF09FEF0AF00F50D8B4CFEF76
:101598000AF0D1EF0AF0DFEF0AF010C00DF011C029
:1015A8000EF00D1E0E1E0D4A0E2A0DC00BF00EC0B9
:1015B8000CF0E3EF0AF010C00BF011C00CF01200B1
:1015C80012501310D8A4EBEF0AF0EDEF0AF0F1EF88
:1015D8000AF0C6C012F0C7C013F012501310D8A4F6
:1015E800F8EF0AF0FAEF0AF000EF0BF0000E126EB7
:1015F800000E136E54EF0BF012C00BF013C00CF07A
:1016080014C00DF015C00EF096EC12F00B50122617
:101618000C50132212C0D9FF13C0DAFFDF50D8A430
:1016280018EF0BF01AEF0BF025EF0BF0000E00018E
:10163800C66F000EC76FC6C012F0C7C013F054EFD4
:101648000BF012C00BF013C00CF014C00DF015C055
:101658000EF0C9EC12F00B5012240001C66F0C50AA
:101668001320C76FC6C0D9FFC7C0DAFFDF50D8B490
:1016780040EF0BF042EF0BF04CEF0BF0C6C0D9FF78
:10168800C7C0DAFF000EDF6EC64BC72B50EF0BF05A
:10169800000EC66F000EC76F12C012F013C013F011
:1016A8001200930E186E5F0E196E000E1B6E000E60
:1016B8001A6E1F0E1C6E000E1D6E200E1E6EDDECC7
:1016C80014F01F0E106E000E116ECB0E126E5F0E10
:1016D800136E3BEC0EF010501110D8B476EF0BF0EF
:1016E80078EF0BF0C2EF0BF01F0E126E000E136EA8
:1016F800D10E146E5F0E156EE4EC0AF012C03FF0C6
:1017080013C040F0000E126E000E136E1F0E146E02
:10171800000E156EE4EC0AF012C03FF013C040F062
:101728003F504010D8B49BEF0BF09DEF0BF0C2EF89
:101738000BF03FC012F040C013F0FD0E146E5F0EA8
:10174800156EE4EC0AF012C03FF013C040F0000E32
:10175800126E000E136E3FC014F040C015F0E4EC9A
:101768000AF012C03FF013C040F03FC00BF040C079
:101778000CF058EC0AF00B50C3EF0BF0040E1200FB
:10178800A7EC15F00D0E1F6E2D0E1E6ED80EE82E4E
:10179800FED71E2EFCD71F2EFAD7000E276E000E7E
:1017A800266E000E236E660E226E1EEF0CF0D89089
:1017B8002634F66E2734F76EF50EF6265C0EF72201
:1017C8000900F5CF24F00A00F5CF25F0264A272A8C
:1017D800D8902634F66E2734F76EF50EF6265C0E92
:1017E800F7220900F5CF20F00A00F5CF21F0264AAC
:1017F800272A242806E12528D8A405EF0CF007EFAE
:101808000CF014EF0CF00D0E1F6E2D0E1E6ED80E80
:10181800E82EFED71E2EFCD71F2EFAD71EEF0CF08F
:1018280024C005F025C006F020C007F021C008F04C
:1018380041EC14F02250261807E123502718D8A4A9
:1018480028EF0CF02AEF0CF0DBEF0BF074EC15F03E
:10185800000E1D6E000E1C6E1EEC14F012008EEFB2
:101868000CF009C0F6FF0AC0F7FFF86A070EF76424
:1018780003D00800F55005D0F6CFE9FFF7CFEAFF0F
:10188800EF500009D8B44BEF0CF04DEF0CF06CEFB3
:101898000CF00BC0F6FF0CC0F7FF0800F5CF0FF0F7
:1018A80009C0F6FF0AC0F7FFF86A070EF76403D00D
:1018B8000800F55005D0F6CFE9FFF7CFEAFFEF5063
:1018C8000F18D8B46AEF0CF06CEF0CF08AEF0CF03C
:1018D80009C0F6FF0AC0F7FFF86A070EF76403D0DD
:1018E8000800F55005D0F6CFE9FFF7CFEAFFEF5033
:1018F8000F6E0BC0F6FF0CC0F7FF0800F5500F5C29
:10190800096E0A6AD8A00A069FEF0CF0094A0A2A4B
:101918000B4A0C2A0D06D8A00E060D2806E10E2843
:10192800D8A499EF0CF09BEF0CF035EF0CF0000EFB
:101938000A6E000E096E1200D60E4A6E5E0E4B6ECF
:10194800F80E4D6E1F0E4C6EBEEC0FF0000E00012F
:10195800906F9051040DE90EF324F66E5D0EF4209D
:10196800F76E0900F5CF12F00900F5CF13F0090062
:10197800F5CF14F00A00F5CF15F046EC10F05EEC48
:1019880013F0E806D8A4CBEF0CF0CDEF0CF0F8EF8D
:101998000CF0700E4A6E000E4B6E510E4C6E5F0EC0
:1019A8004D6E00019051040DE90EF324F66E5D0EA4
:1019B800F420F76E0900F5CF4EF00900F5CF4FF08F
:1019C8000900F5CF50F00A00F5CF51F04FEC03F0C5
:1019D800700E4A6E000E4B6EF80E4D6E000E4C6E79
:1019E800BEEC0FF00CEF0DF0640E056E000E066EE7
:1019F800000E076E000E086EC0EC14F00001902B6C
:101A0800020E90650AEF0DF00CEF0DF0ADEF0CF043
:101A1800120011C005F012C006F0000E086E000E8C
:101A2800076E13C009F00A6AFAEC14F014C00FF03C
:101A380015C010F0D4EC13F0176E1750D8A427EF88
:101A48000DF029EF0DF02CEF0DF0000E77EF0DF0F3
:101A58000D0E1718D8B433EF0DF035EF0DF01AEF5F
:101A68000DF00A0E1718D8B43CEF0DF03EEF0DF04C
:101A78001AEF0DF0000E166E0D0E1718D8B447EFBA
:101A88000DF049EF0DF076EF0DF01750D8A44FEF99
:101A98000DF051EF0DF053EF0DF076EF0DF01650FD
:101AA8001124D96E000E1220DA6E17C0DFFF162A35
:101AB80013501618D8A463EF0DF065EF0DF067EF1B
:101AC8000DF076EF0DF014C00FF015C010F0D4EC47
:101AD80013F0176E1750D8A474EF0DF076EF0DF0D1
:101AE80040EF0DF016501200000E0A6E08BE81EF8E
:101AF8000DF07FEF0DF087EF0DF0076C081ED8B0E2
:101B0800082A010E0A6E06BE8EEF0DF08CEF0DF05E
:101B180094EF0DF0056C061ED8B0062A010E0A1ABD
:101B2800000E0C6E000E0B6E07500810D8B49FEF15
:101B38000DF0A1EF0DF0C9EF0DF0010E096EA9EF40
:101B48000DF0D89007360836092A08AEAEEF0DF02A
:101B5800B0EF0DF0A5EF0DF0D8900B360C3607500E
:101B6800055C08500658D8A0BCEF0DF0BEEF0DF08C
:101B7800C3EF0DF00750055E0850065A0B80D89049
:101B880008320732092EB0EF0DF00A50D8B4CFEF63
:101B98000DF0D1EF0DF0D5EF0DF00B6C0C1ED8B099
:101BA8000C2A0BC005F00CC006F01200C30E186E0C
:101BB8005F0E196E000E1B6E000E1A6E1F0E1C6E45
:101BC800000E1D6E200E1E6EDDEC14F01F0E106E42
:101BD800000E116EDA0E126E5F0E136E3BEC0EF0F5
:101BE80010501110D8B4FBEF0DF0FDEF0DF039EFE8
:101BF8000EF01F0E126E000E136ED10E146E5F0ED5
:101C0800156EE4EC0AF012C03FF013C040F0000E6D
:101C1800126E000E136E1F0E146E000E156EE4EC9D
:101C28000AF012C03FF013C040F03F504010D8B443
:101C380020EF0EF022EF0EF039EF0EF03FC012F059
:101C480040C013F0FD0E146E5F0E156EE4EC0AF042
:101C580012C03FF013C040F03FC00BF040C00CF082
:101C680058EC0AF00B503AEF0EF0000E120074EF29
:101C78000EF010C009F011C00AF012C00BF013C02A
:101C88000CF012C005F013C006F0ADEC13F005C05F
:101C98000DF006C00EF033EC0CF009500A10D8A471
:101CA80058EF0EF05AEF0EF060EF0EF010C010F083
:101CB80011C011F099EF0EF0010E1024056E000E00
:101CC8001120066E12C0F6FF13C0F7FF0800F5508A
:101CD800076E086A88EC10F005C010F006C011F015
:101CE80010501110D8B47BEF0EF07DEF0EF095EF89
:101CF8000EF010C0F6FF11C0F7FFF86A070EF76480
:101D080003D00800F55005D0F6CFE9FFF7CFEAFF7A
:101D1800EF500009D8A493EF0EF095EF0EF03DEFC9
:101D28000EF0000E106E000E116E1200000E0D6EF9
:101D3800000E0E6E000E0F6E000E106E09500A1087
:101D48000B100C10D8B4ABEF0EF0ADEF0EF0E3EFC4
:101D58000EF0010E116EB7EF0EF0D89009360A3664
:101D68000B360C36112A0CAEBCEF0EF0BEEF0EF09F
:101D7800B1EF0EF0D8900D360E360F3610360950EA
:101D8800055C0A5006580B5007580C500858D8A044
:101D9800D0EF0EF0D2EF0EF0DBEF0EF00950055E3B
:101DA8000A50065A0B50075A0C50085A0D80D89002
:101DB8000C320B320A320932112EBEEF0EF00DC072
:101DC80005F00EC006F00FC007F010C008F01200B2
:101DD8001BEF0FF03FC02AF040C02BF041C02CF0A1
:101DE80042C02DF043C0F6FF44C0F7FFF86A070E63
:101DF800F76403D00800F55005D0F6CFE9FFF7CF18
:101E0800EAFFEF502E6E45C02FF046C030F047C0B5
:101E180031F048C032F049C033F0E5EC05F04950E4
:101E2800060DF350415EF450425A434A442A43C0D7
:101E3800F6FF44C0F7FFF86A070EF76403D00800FE
:101E4800F55005D0F6CFE9FFF7CFEAFFEF500009CC
:101E5800D8A431EF0FF033EF0FF0EEEF0EF01200D1
:101E6800FF0E066E056802EC10F00009D8A43FEFDB
:101E78000FF041EF0FF043EF0FF079EF0FF0600E26
:101E8800116E000E126E200E136E000E156E000EEF
:101E9800146E0DEC0DF00001806F8051D8A457EF3F
:101EA8000FF059EF0FF05BEF0FF079EF0FF0600EC6
:101EB800056E000E066EFA0E076E5F0E086E2EECAB
:101EC80013F005500610D8A46CEF0FF06EEF0FF06A
:101ED80070EF0FF079EF0FF0600E4A6E000E4B6E48
:101EE800070E4D6E4C68BEEC0FF01200165017101E
:101EF80018101910D8B483EF0FF085EF0FF0B5EF75
:101F08000FF0010E1A6E8FEF0FF0D89016361736B5
:101F1800183619361A2A19AE94EF0FF096EF0FF00B
:101F280089EF0FF01650125C1750135818501458B8
:101F380019501558D8A0A3EF0FF0A5EF0FF0ADEF8B
:101F48000FF01650125E1750135A1850145A1950A1
:101F5800155AD89019321832173216321A2E96EFAF
:101F68000FF012C012F013C013F014C014F015C013
:101F780015F012000A0E0001C827000EC923C8C0B8
:101F88001CF0C9C01DF0000E1F6E000E1E6E000E64
:101F9800216E280E206E010E236E900E226E000E0A
:101FA800256E000E246E7FEC11F0C8C03FF0C9C04A
:101FB80040F0010E426E8F0E416E4AC043F04BC096
:101FC80044F04CC045F04DC046F0000E486E000E7F
:101FD800476E010E496EECEC0EF00001C95109E1A3
:101FE800CE0EC85DD8A0FBEF0FF0FDEF0FF001EFAC
:101FF80010F0000EC96F000EC86F120005500610D1
:10200800D8A409EF10F00BEF10F00FEF10F0030E4B
:10201800066EE80E056E05C007F006C008F0000E53
:1020280008BEFF0E096E0A6E0101C15107240B6E2E
:10203800C25108200C6EC35109200D6EC4510A20EC
:102048000E6E3AEF10F00101C1510B5CC2510C58F1
:10205800C3510D58C4510E58D8B035EF10F037EFB2
:1020680010F03AEF10F0000E45EF10F002010051A9
:102078000119D8B442EF10F044EF10F027EF10F038
:10208800010E1200AC98AC84B886000E056E6C0E7A
:10209800066EDC0E076E020E086E12C009F013C041
:1020A8000AF014C00BF015C00CF09AEC0EF005C045
:1020B8001AF006C01BF007C01CF008C01DF01AC0BB
:1020C80016F01BC017F01CC018F01DC019F0030E45
:1020D80073EF10F0D8901932183217321632E82EF2
:1020E8006EEF10F016C01AF017C01BF018C01CF0E5
:1020F80019C01DF01A06000E1B5A1C5A1D5A1AC088
:10210800AFFF1BC0B0FF120005C0F6FF06C0F7FF07
:10211800F86A070EF76403D00800F55005D0F6CF2B
:10212800E9FFF7CFEAFFEF500718D8A49EEF10F0A9
:10213800A0EF10F0A6EF10F005C005F006C006F0FD
:10214800C8EF10F00550096E06500A6E054A062AB7
:1021580009C0F6FF0AC0F7FFF86A070EF76403D054
:102168000800F55005D0F6CFE9FFF7CFEAFFEF50AA
:102178000009D8A4C2EF10F0C4EF10F088EF10F0F7
:10218800000E056E000E066E1200DAEC0DF0416EC0
:10219800630E4118D8A4D3EF10F0D5EF10F0D8EFA4
:1021A80010F0FF0E05EF11F0030E4160DEEF10F0A6
:1021B800E0EF10F0E3EF10F0000E05EF11F00A0E5B
:1021C8004160E9EF10F0EBEF10F0EEEF10F0010EC8
:1021D80005EF11F00F0E4160F4EF10F0F6EF10F07C
:1021E800F9EF10F0020E05EF11F0140E4160FFEF49
:1021F80010F001EF11F004EF11F0030E05EF11F0EC
:10220800040E1200020E066E100E056E0DC007F0C9
:102218000EC008F041EC14F0020E066E110E056EA9
:1022280011C007F012C008F041EC14F0020E066E5F
:10223800120E056E0FC007F010C008F041EC14F044
:10224800020E066E130E056E13C007F014C008F0D8
:1022580041EC14F0020E066E000E056E0DC007F07C
:102268000EC008F041EC14F0020E066E010E056E69
:1022780013C007F014C008F041EC14F01200000E6F
:102288001D6E000E1C6E1EEC14F0000E406E080E43
:102298003F6E010E426E860E416E5C0E436E5F0EFF
:1022A800446EFF0E466E4568000E486E000E476E7F
:1022B800020E496EECEC0EF0000E146E200E136E3A
:1022C800000E166E000E156E000E186E200E176E9C
:1022D800010E1A6E900E196EFF0E1C6E1B68DFEC55
:1022E80006F0010E596E8F0E586E010E0001CB6F6D
:1022F8008F0ECA6F12001CC00DF01DC00EF01EC05C
:102308000FF01FC010F020501C24266E21501D20F5
:10231800276EFF0E2624116EFF0E2720126E225004
:102328001E24286E23501F20296EFF0E2824136EAA
:10233800FF0E2920146E06EC11F024C00DF025C004
:102348000EF020C005F021C006F022C007F023C01F
:1023580008F061EC15F005C00FF006C010F0116A26
:10236800126AD3EC07F074EC15F01200D39E700ECD
:10237800D312FC0ED3169B8EE00E9B16070E066E2C
:10238800170E056E6A0EE82EFED7052EFCD7062E10
:10239800FAD700D06D966F860B0E926E000E896E7E
:1023A800F18E000E936E000E8A6EF00E946E000E83
:1023B8008B6EC290CF0EC116C150F00B0E09C16EC4
:1023C800C08EC70EC016C050F80B0209C06ECF0EE3
:1023D800B116B192B180A082F28CF28E12009E0EDC
:1023E800F66E2B0EF76E000EF86E00EECAF010EEC9
:1023F80006F00900F5CFEEFFE550E150FAE1AA0E2C
:10240800F66E2B0EF76E000EF86E0900F5CF58F039
:102418000900F5CF59F002EE00F0820EEE6AE806E8
:10242800FDE101EEADF0180EEE6AE806FDE100EE02
:10243800B0F01A0EEE6AE806FDE1576A566A5A903D
:102448005A92000EF86E000187EF15F00600D9CFFA
:1024580003F0DACF04F0A0A234EF12F036EF12F056
:102468004BEF12F0A1A23BEF12F03DEF12F04BEF51
:1024780012F0050E0101C127000EC223C323C42395
:1024880097EC15F0160EB36E000EB26EA1929DAACF
:1024980050EF12F052EF12F05BEF12F09EAA57EFD6
:1024A80012F059EF12F05BEF12F0FCEC12F004C0DE
:1024B800DAFF03C0D9FF5A921100000E0D6E000E0C
:1024C8000E6E000E0F6E000E106E05A06EEF12F06D
:1024D80070EF12F078EF12F009500D260A500E2214
:1024E8000B500F220C501022D89009360A360B36A2
:1024F8000C36D890083207320632053205500610DD
:1025080007100810D8A48BEF12F08DEF12F069EFC6
:1025180012F00DC005F00EC006F00FC007F010C095
:1025280008F01200000E116E000E106EA0EF12F0EF
:102538000B4A0C2A104A112A0BC0D9FF0CC0DAFF2B
:10254800DF50D8B4AAEF12F0ACEF12F0C4EF12F0DB
:102558000DC005F00EC006F00BC0D9FF0CC0DAFFA5
:10256800DF500F6E0F50076E086A88EC10F00550A8
:102578000610D8A4C2EF12F0C4EF12F09CEF12F0CC
:1025880010C00BF011C00CF01200000E116E000EFE
:10259800106ED3EF12F00B4A0C2A104A112A0BC006
:1025A800D9FF0CC0DAFFDF50D8B4DDEF12F0DFEF4F
:1025B80012F0F7EF12F00DC005F00EC006F00BC0D8
:1025C800D9FF0CC0DAFFDF500F6E0F50076E086A94
:1025D80088EC10F005500610D8B4F5EF12F0F7EFBC
:1025E80012F0CFEF12F010C00BF011C00CF0120077
:1025F800AECF02F0ABA203EF13F005EF13F018EF24
:1026080013F0AB98AB8880A40CEF13F010EF13F025
:10261800016A012A11EF13F0016A01460146805050
:102628000118FB0B0118806E0201012B800E0119A5
:10263800D8A421EF13F023EF13F025EF13F0000EC9
:10264800016F020E0125D96EDA6A020EDA2202C083
:10265800DFFF120034EF13F0054A062A074A082A5A
:1026680007C0F6FF08C0F7FF0800F5CF09F005C05E
:10267800D9FF06C0DAFFDF500A6E09500A5C0B6EFC
:102688000B50D8A44AEF13F04CEF13F058EF13F0A7
:1026980005C0D9FF06C0DAFFDF50D8A456EF13F003
:1026A80058EF13F030EF13F00B50056E066A05BEB5
:1026B80006061200EE0E186E5F0E196E000E1B6EE7
:1026C800000E1A6E1F0E1C6E000E1D6E200E1E6E62
:1026D800DDEC14F01F0E056E000E066EFA0E076E86
:1026E8005F0E086E2EEC13F005500610D8A47FEF8D
:1026F80013F081EF13F084EF13F0010E85EF13F060
:10270800000E1200000E086E82AA8DEF13F08FEFF4
:1027180013F090EF13F0088282A895EF13F097EF6B
:1027280013F098EF13F008800850D8B49EEF13F018
:10273800A2EF13F0076A072AA3EF13F0076A074608
:1027480056500718FD0B0718566E08C005F0066AA4
:10275800120005C007F006C008F0B5EF13F0074AED
:10276800082A07C0F6FF08C0F7FFF86A070EF764E3
:1027780003D00800F55005D0F6CFE9FFF7CFEAFF00
:10278800EF500009D8A4CBEF13F0CDEF13F0B3EF5F
:1027980013F00550075C056E06500858066E1200C7
:1027A8000FC005F010C006F002EC10F00009D8A424
:1027B800E0EF13F0E2EF13F0E5EF13F0000EF9EF9E
:1027C80013F00201002B800E0019D8A4EEEF13F0CD
:1027D800F0EF13F0F2EF13F0000E006F020E002579
:1027E800D96EDA6A020EDA22DF501200AC9CAC8A8B
:1027F800AC98AC96AC84AB8EAB9CAB88B886B892E0
:10280800B890040EB06EE10EAF6E9D8A000E020104
:10281800006F000E016F020E056E020E066E000EAE
:10282800086E000E076E000E0A6E800E096EFAEC36
:1028380014F01200020E066E000E056E000E086EF1
:10284800000E076E41EC14F0020E066E010E056EC6
:10285800000E086E000E076E41EC14F01CC00DF05F
:102868001DC00EF0000E0F6E770E106E010E116E69
:10287800000E126ED3EC07F01200829000F08292E4
:102888000650096E05C00AF009C081FF809A00F061
:10289800808A0AC081FF809A00F0808A828208506C
:1028A8000B6E07C00CF00BC081FF809A00F0808A85
:1028B8000CC081FF809A00F0808A8280120079EF34
:1028C80014F009C0F6FF0AC0F7FFF86A070EF764AC
:1028D80003D00800F55005D0F6CFE9FFF7CFEAFF9F
:1028E800EF50C3EC15F0094A0A2A0B060B28D8A4A6
:1028F80080EF14F082EF14F065EF14F01200020E6E
:10290800066E000E056E0DC007F00EC008F041EC13
:1029180014F0020E066E010E056E0FC007F010C00F
:1029280008F041EC14F0020E066E020E056E11C09E
:1029380007F012C008F041EC14F01200000E1D6EF2
:10294800000E1C6E1EEC14F0000E406E460E3F6E1C
:10295800010E426E6A0E416E530E436E5E0E446E59
:10296800FF0E466E4568000E486E000E476E020E5A
:10297800496EECEC0EF0120005500101C125096EFC
:102988000650C2210A6E0750C3210B6E0850C4219D
:102998000C6E0950C15D0A50C2590B50C3590C50F6
:1029A800C459D8A0DAEF14F0DCEF14F0CDEF14F02E
:1029B8001200D2EC15F018C009F019C00AF018C0BE
:1029C80005F019C006F0ADEC13F005500B6E63EC82
:1029D80014F01CC011F01DC012F01EC013F01AC074
:1029E80014F01BC015F00DEC0DF0120005C00BF033
:1029F80006C00CF008EF15F00BC0D9FF0CC0DAFFC9
:102A080007C0DFFF0B4A0C2A0906D8A00A060928C6
:102A180006E10A28D8A413EF15F015EF15F000EF1A
:102A280015F0120006BE1DEF15F01BEF15F02BEF89
:102A380015F005C007F006C008F0071E081E074A73
:102A4800082A07C005F008C006F02FEF15F005C0EA
:102A580005F006C006F01200076E000E066E3A0E6C
:102A6800076039EF15F03BEF15F045EF15F02F0E25
:102A7800076441EF15F043EF15F045EF15F0010E2F
:102A8800066E06C005F00530120086EC13F00550FE
:102A98000610D8A452EF15F054EF15F058EF15F0C2
:102AA80043EC11F05AEF15F0A2EC14F0000E0001FF
:102AB800BC6F000EC16FC28D120005500702F3CF24
:102AC80009F0F4CF0AF005500802F3500A26065020
:102AD8000702F3500A2609C005F00AC006F01200E2
:102AE800000E0E6E000E0D6E000E106E000E0F6EB4
:102AF800000E126EEF0E116E010E146E8F0E136E15
:102B080006EC11F01200BAEC11F0C4EC0BF0FAEC80
:102B180013F049EC15F0B6EC15F009EC00F091EF64
:102B280015F007EF00F0010E016E5750070B026E0B
:102B38000150022657500218F80B0218576E000170
:102B4800C52B56881200000E936E8280808A80887A
:102B58008294200E056E2A0EE82EFED7052EFCD78D
:102B680082841200A0EC0CF0E80E056E030E066ECF
:102B7800000E076E000E086EC0EC14F01200056E11
:102B88009EA8C9EF15F0CBEF15F0C4EF15F005C0FE
:102B9800ADFF00F012008F01EF00EF0001C200F25C
:042BA80012008F0187
:1057F4000000000000003E5B4F5B3E3E6B4F6B3E83
:105804001C3E7C3E1C183C7E3C181C577D571C1CBF
:105814005E7F5E1C00183C1800FFE7C3E7FF00181A
:10582400241800FFE7DBE7FF30483A060E26297903
:105834002926407F050507407F05253F5A3CE73C64
:105844005A7F3E1C1C08081C1C3E7F14227F221415
:105854005F5F005F5F06097F017F006689956A606C
:105864006060606094A2FFA29408047E0408102083
:105874007E201008082A1C08081C2A08081E10107C
:1058840010100C1E0C1E0C30383E3830060E3E0E26
:1058940006000000000000005F0000000700070091
:1058A400147F147F14242A7F2A1223130864623677
:1058B400495620500008070300001C224100004103
:1058C400221C002A1C7F1C2A08083E08080080703D
:1058D4003000080808080800006060002010080470
:1058E400023E5149453E00427F40007249494946C3
:1058F4002141494D331814127F1027454545393C41
:105904004A4949314121110907364949493646492D
:1059140049291E000014000000403400000008144F
:1059240022411414141414004122140802015909C8
:10593400063E415D594E7C1211127C7F494949361D
:105944003E414141227F4141413E7F494949417F96
:10595400090909013E414151737F0808087F00414C
:105964007F41002040413F017F081422417F404095
:1059740040407F021C027F7F0408107F3E4141416A
:105984003E7F090909063E4151215E7F09192946D6
:10599400264949493203017F01033F4040403F1FEC
:1059A4002040201F3F4038403F6314081463030421
:1059B4007804036159494D43007F41414102040881
:1059C4001020004141417F04020102044040404054
:1059D40040000307080020545478407F284444388A
:1059E4003844444428384444287F385454541800D4
:1059F400087E090218A4A49C787F08040478004453
:105A04007D40002040403D007F1028440000417F3D
:105A140040007C047804787C0804047838444444C6
:105A240038FC1824241818242418FC7C08040408BE
:105A3400485454542404043F44243C4040207C1CD7
:105A44002040201C3C4030403C44281028444C90CA
:105A540090907C4464544C44000836410000007724
:105A64000000004136080002010204023C262326FD
:105A74003C1EA1A161123A4040207A385454555931
:105A84002155557941225454784221555478402067
:105A9400545579400C1E5272123955555559395482
:105AA40054545939555454580000457C410002451A
:105AB4007D420001457C407D1211127DF02825288D
:105AC400F07C545545002054547C547C0A097F4989
:105AD40032494949323A4444443A324A4848303ACD
:105AE4004141217A3A42402078009DA0A07D3D4268
:105AF40042423D3D4040403D3C24FF2424487E49F1
:105B040043662B2FFC2F2BFF0929F620C0887E0922
:105B14000320545479410000447D413048484A32BE
:105B2400384040227A007A0A0A727D0D19317D26A6
:105B340029292F28262929292630484D402038088C
:105B440008080808080808382F10C8ACBA2F10280D
:105B540034FA00007B000008142A142222142A14A8
:105B6400085500550055AA55AA55AAFF55FF55FFDB
:105B7400000000FF00101010FF00141414FF0010A8
:105B840010FF00FF1010F010F0141414FC00141493
:105B9400F700FF0000FF00FF1414F404FC141417B2
:105BA400101F10101F101F1414141F00101010F0D9
:105BB400000000001F101010101F10101010F01023
:105BC400000000FF101010101010101010FF100033
:105BD4000000FF140000FF00FF00001F101700006A
:105BE400FC04F414141710171414F404F40000FF44
:105BF40000F714141414141414F700F714141417DD
:105C04001410101F101F141414F4141010F010F0BA
:105C140000001F101F0000001F14000000FC1400EF
:105C240000F010F01010FF10FF141414FF141010E3
:105C3400101F00000000F010FFFFFFFFFFF0F0F066
:105C4400F0F0FFFFFF0000000000FFFF0F0F0F0F39
:105C54000F3844443844FC4A4A4A347E0202060659
:105C6400027E027E0263554941633844443C044049
:105C74007E201E2006027E020299A5E7A5991C2A11
:105C8400492A1C4C7201724C304A4D4D30304878D0
:105C94004830BC625A463D3E494949007E010101F3
:105CA4007E2A2A2A2A2A44445F444440514A4440D2
:105CB40040444A51400000FF0103E080FF00000817
:105CC400086B6B083612362436060F090F060000DF
:105CD40018180000001010003040FF0101001F01DF
:105CE400011E00191D1712003C3C3C3C0000000042
:105CF4000002070830050736000B071312010000E5
:105D04000102000001030030100800020209000033
:105D1400000C0000000F0000000001000002010060
:105D24000003010000FFFF010000019011010127A1
:105D340002FFFF01000201BD01FFFF01000301009A
:105D44002D81020E00FFFF0100000200000102008D
:105D54000000030000010307070203060605030011
:105D6400000603000D0703060708030500090307DF
:105D7400000C0300000D030A00100200001102EFE2
:105D8400001202000013028F01000400310104011B
:105D940000040400000005000001050000020500E5
:105DA40000030500000405000005050000100010B4
:105DB400001100000620000200070073010100002A
:105DC400000A00000064000000E80300001027003F
:105DD40000A086010040420F008096980000E1F583
:105DE4000500CA9A3B8025000000E1000000C201C2
:105DF400001414000000000000F8F001FCF903FC9A
:105E0400FF03FEFF07FEFF07FEFF07FEFF07FCFF81
:105E140003FCFF03F8FF01F0FF00E07F00C03F0038
:105E2400801F00000F000006000000000000004971
:105E34006E76616C69642063757272656E7420623B
:105E440061756420726174652028256C7529002AA7
:105E54002A2A20436F6C6C656761726520656C65E6
:105E64007474726F6469202A2A2A0042617564205E
:105E740072617465206368616E67656420282D3ED5
:105E840020256C752900436865636B206E65747703
:105E94006F726B20726567697374726174696F6E77
:105EA400004572726F72206368616E67696E672065
:105EB400626175642072617465004E6574776F72F7
:105EC4006B207374617475733A20257520282573CB
:105ED4002900446574656374696E67206261756442
:105EE40020726174652E2E2E004368616E676520F2
:105EF4006261756420726174652028256C752900BF
:105F0400436F6D6D20697320646561642E20526552
:105F14007472792E2E2E00436865636B206261755E
:105F2400642072617465005265737572726563747E
:105F340065642100536561726368696E672E2E2E55
:105F44000041542B4950523D256C750D00256C754C
:105F540020464F554E4421004672657175656E7A30
:105F6400613A00436865636B20525353490053748C
:105F7400696C6C206465616400526567697374655B
:105F840072656400436865636B2074696D650041E4
:105F9400542B435245473F0D0041542B43434C4B34
:105FA4003F0D004C6576656C3A2025750041542BF5
:105FB4004950523F0D00525353493A202575004130
:105FC400542B4353510D002B435245473A2000288C
:105FD4006E756C6C29002B4353513A20002B4950A9
:105FE400523A20004F746865720041540D00253305
:0C5FF4006400256C75004F4B002C000071
:020000040020DA
:08000000FFFFFFFFFFFFFFFF00
:020000040030CA
:0E000000200E011EFF0180FF0FC00FE00F4019
:00000001FF
