:020000040000FA
:0400000007EF00F016
:100008005A8277ED13F049EF14F01F0E2D6E000E93
:100018002E6EE6EF01F0250E3218D8B416EF00F078
:1000280018EF00F022EF00F01BC0D9FF1CC0DAFF68
:1000380032C0DFFF1B4A1C2AE6EF01F0000E316ECA
:10004800000E306E000E2F6E1DC0F6FF1EC0F7FFAB
:100058000800F5509CEC17F0D8A035EF00F037EF0A
:1000680000F076EF00F0000E316E000E306E30C0FA
:1000780009F031C00AF0000E0C6E0A0E0B6EE1ECAE
:1000880017F009C030F00AC031F0D00E236EFF0E11
:10009800246E1DC0F6FF1EC0F7FF0800F550256E40
:1000A800266A2350252624502622255030262650FD
:1000B80031221D4A1E2A1DC0F6FF1EC0F7FF080088
:1000C800F5509CEC17F0D8B06CEF00F06EEF00F034
:1000D8003BEF00F076EF00F02F8876EF00F02F8CE2
:1000E80096EF00F01DC0F6FF1EC0F7FF1D4A1E2A3E
:1000F8000800F5CF32F03250000AD8B4F7EF01F01B
:10010800640AD8B496EF00F00D0AD8B496EF00F060
:10011800050AD8B470EF00F0190AD8B473EF00F0EC
:10012800E6EF01F02FBC9BEF00F09DEF00F0DAEF57
:1001380000F02FA8A2EF00F0A4EF00F0B6EF00F057
:100148002DC0D9FF2EC0DAFFDECF29F0DECF2AF08E
:10015800DECF2BF0DECF2CF0040E2D26000E2E2243
:10016800C7EF00F02DC0D9FF2EC0DAFFDECF29F08F
:10017800DDCF2AF0000E2ABEFF0E2B6E2C6E020E6B
:100188002D26000E2E222CBECEEF00F0CCEF00F074
:1001980005EF01F0030E2F122C1E2B1E2A1E296CB0
:1001A800000E2A222B222C2205EF01F02FA8DFEFC8
:1001B80000F0E1EF00F0F3EF00F02DC0D9FF2EC002
:1001C800DAFFDECF29F0DECF2AF0DECF2BF0DECF4C
:1001D8002CF0040E2D26000E2E2205EF01F02DC066
:1001E800D9FF2EC0DAFFDECF23F0DDCF24F023C005
:1001F80029F024C02AF02B6A2C6A020E2D26000E44
:100208002E22010E326E3250040DEB0EF324F66EE0
:100218005E0EF420F76E0900F550295C0900F550D0
:100228002A580900F5502B580900F5502C58D8B019
:1002380020EF01F022EF01F024EF01F02EEF01F0A2
:10024800322A0A0E3218D8A42CEF01F02EEF01F052
:1002580007EF01F030503110D8B435EF01F037EF27
:1002680001F045EF01F02FC023F0030E2316D8B498
:1002780040EF01F042EF01F045EF01F03006D8A061
:1002880031063250236E246A3050235C2450800A91
:10029800256E3150800A2558D8B055EF01F057EF38
:1002A80001F05DEF01F03250305E000E315A61EF1F
:1002B80001F0000E316E000E306E30503110D8B49F
:1002C80068EF01F06AEF01F07EEF01F01BC0D9FF83
:1002D8001CC0DAFF200EDF6E1B4A1C2A3006D8A08D
:1002E800310630503110D8A47CEF01F07EEF01F0D8
:1002F8006AEF01F02FC023F0030E2316D8B487EF5E
:1003080001F089EF01F091EF01F01BC0D9FF1CC08B
:10031800DAFF2D0EDF6E1B4A1C2A32C027F0286A2E
:10032800D9EF01F027C023F028C024F0D890233655
:100338002436D89023362436EB0E2324F66E5E0E30
:100348002420F76E0900F5CF09F00900F5CF0AF06F
:100358000900F5CF0BF00A00F5CF0CF029C005F025
:100368002AC006F02BC007F02CC008F0DEEC0FF016
:1003780005C012F006C013F007C014F008C015F04D
:100388000A0E166E000E176E000E186E000E196E0D
:10039800C6EC10F01250300F326E1BC0D9FF1CC0D3
:1003A800DAFF32C0DFFF1B4A1C2A2706D8A028061E
:1003B800272806E12828D8A4E4EF01F0E6EF01F0A9
:1003C80096EF01F01DC0F6FF1EC0F7FF1D4A1E2A5A
:1003D8000800F5CF32F03250D8A4F5EF01F0F7EF6E
:1003E80001F00FEF00F01BC0D9FF1CC0DAFF000EB0
:1003F800DF6E1200000E4C6E4CC040F0416A40BEE9
:1004080041063A50050D1F0E426E590E436EF350C9
:100418004226F4504322405042264150432242C0D3
:10042800F6FF43C0F7FF0800F5CF44F0000E4B6E0F
:1004380044A021EF02F023EF02F079EF02F03F042D
:10044800D8A429EF02F02BEF02F043EF02F0365068
:100458004C240D6E000E4CBEFF0E37200E6E385029
:100468004B240F6E000E4BBEFF0E3920106E3BC0A2
:1004780011F03CC012F077EC0DF0D9EF02F04C50BF
:10048800096E0A6A09BE0A063FC00BF00C6AE1EC65
:1004980017F036500924476E37500A20486E4B50E3
:1004A800096E0A6A09BE0A063FC00BF00C6AE1EC45
:1004B80017F038500924496E39500A204A6E47C04F
:1004C80020F048C021F049C022F04AC023F03FC0C4
:1004D80024F0256A3FC026F0276A3BC028F03CC0BC
:1004E80029F014EC12F0D9EF02F03B503D1809E165
:1004F8003C503E18D8B483EF02F085EF02F0D9EFF4
:1005080002F03F04D8A48BEF02F08DEF02F0A5EFC4
:1005180002F036504C240D6E000E4CBEFF0E3720F4
:100528000E6E38504B240F6E000E4BBEFF0E392056
:10053800106E3DC011F03EC012F077EC0DF0D9EF0F
:1005480002F04C50096E0A6A09BE0A063FC00BF059
:100558000C6AE1EC17F036500924476E37500A2030
:10056800486E4B50096E0A6A09BE0A063FC00BF076
:100578000C6AE1EC17F038500924496E39500A200A
:100588004A6E47C020F048C021F049C022F04AC056
:1005980023F03FC024F0256A3FC026F0276A3DC0FB
:1005A80028F03EC029F014EC12F04B2AD8904432BF
:1005B8004B50800A780FD8A0E4EF02F0E6EF02F083
:1005C8001CEF02F04C2A4C50800A7B0FD8A0EFEFAA
:1005D80002F0F1EF02F000EF02F03B503D1809E1A4
:1005E8003C503E18D8B4FBEF02F0FDEF02F044EFA8
:1005F80003F03F04D8A403EF03F005EF03F025EF61
:1006080003F0050E3624456E000E3720466E45C0B1
:1006180017F046C018F038C019F039C01AF045C0B4
:100628001BF046C01CF0070E38241D6E000E392042
:100638001E6E3DC01FF03EC020F0AAEC05F044EF4E
:1006480003F03F50050DF3CF40F0F4CF41F03650A2
:100658004024206E37504120216E38C022F039C026
:1006680023F03FC024F0256A3F50080DF3CF26F051
:10067800F4CF27F03DC028F03EC029F014EC12F06A
:1006880012006FEF04F0020E066E100E056E0DC01C
:1006980007F00EC008F093EC16F0020E066E110E6D
:1006A800056E11C007F012C008F093EC16F0020EA8
:1006B800066E120E056E0FC007F010C008F093EC1E
:1006C80016F0020E066E130E056E13C007F014C066
:1006D80008F093EC16F0020E066E000E056E0DC0C3
:1006E80007F00EC008F093EC16F0020E066E010E2D
:1006F800056E13C007F014C008F093EC16F083EFF2
:1007080004F0020E066E100E056E1350EF08076E09
:100718001450D8A0E82A0008086E93EC16F0020ED0
:10072800066E110E056E0F50EF08076E1050D8A018
:10073800E82A0008086E93EC16F0020E066E120EF8
:10074800056E0DC007F00EC008F093EC16F0020E0F
:10075800066E130E056E11C007F012C008F093EC78
:1007680016F0020E066E000E056E0F50EF08076EAB
:100778001050D8A0E82A0008086E93EC16F0020E74
:10078800066E010E056E0DC007F00EC008F093EC62
:1007980016F083EF04F0020E066E100E056E11506F
:1007A800EF08076E1250D8A0E82A0008086E93ECEC
:1007B80016F0020E066E110E056E0D50EF08076E4C
:1007C8000E50D8A0E82A0008086E93EC16F0020E26
:1007D800066E120E056E13508F08076E1450D8A0BF
:1007E800E82A0108086E93EC16F0020E066E130E46
:1007F800056E0F508F08076E1050D8A0E82A010820
:10080800086E93EC16F0020E066E000E056E0D5083
:10081800EF08076E0E50D8A0E82A0008086E93EC7F
:1008280016F0020E066E010E056E0F508F08076E49
:100838001050D8A0E82A0108086E93EC16F083EF50
:1008480004F0020E066E100E056E0FC007F010C001
:1008580008F093EC16F0020E066E110E056E13C02A
:1008680007F014C008F093EC16F0020E066E120E94
:10087800056E11508F08076E1250D8A0E82A01089B
:10088800086E93EC16F0020E066E130E056E0D50F0
:100898008F08076E0E50D8A0E82A0108086E93EC5E
:1008A80016F0020E066E000E056E0FC007F010C09F
:1008B80008F093EC16F0020E066E010E056E0D5050
:1008C8008F08076E0E50D8A0E82A0108086E93EC2E
:1008D80016F083EF04F02AEC18F0000AD8B447EFBA
:1008E80003F0010AD8B485EF03F0030AD8B4CFEFB8
:1008F80003F0010AD8B425EF04F083EF04F01200E6
:1009080000017A51825D7B5183597C5184597D5114
:100918008559D8B092EF04F094EF04F0F7EF04F0A3
:100928008A0E1F6E000E206E200E216ED4EC08F089
:10093800D4EC15F0920E05244F6EFF0E0620506E73
:100948002D0E00018A19D8A4ACEF04F0AEEF04F024
:10095800D4EF04F0CE0E7A25826F090E7B21836FC7
:10096800000E7C21846F000E7D21856F4FC0ABF097
:1009780050C0ACF0000EAE6F080EAD6F790EAF6FC1
:100988005F0EB06FFF0EB26FE00EB16F080EB46F5E
:10099800210EB36F010EB56F7DEC10F0F7EF04F088
:1009A800460E7A25826F910E7B21836F000E7C2183
:1009B800846F000E7D21856F4FC0ABF050C0ACF046
:1009C800000EAE6F080EAD6F8A0EAF6F000EB06FDF
:1009D800FF0EB26FB169080EB46F210EB36F010E2E
:1009E800B56F7DEC10F000017A51865D7B51875917
:1009F8007C5188597D518959D8B005EF05F007EF2A
:100A080005F0A9EF05F0840E7A25866F120E7B217A
:100A1800876F000E7C21886F000E7D21896F2D0E57
:100A28008A19D8B41AEF05F01CEF05F0A9EF05F004
:100A380053EC12F00001AA6F8A0E056E000E066EC6
:100A480022EC16F005C009F006C00AF0000E0C6E84
:100A5800060E0B6EE1EC17F009C04DF00AC04EF01F
:100A6800D4EC15F005504D2606504E22980E4D2414
:100A7800526EFF0E4E20536E000E546E0001AA51A6
:100A8800545CD8B04AEF05F04CEF05F06FEF05F075
:100A9800545004084D6ED8904D34516E52C020F019
:100AA80053C021F0050E5124226E236A000E232222
:100AB800000E256E020E246E51500A08266E000E96
:100AC800D8A0E82A0008276EFF0E296E286814ECC3
:100AD80012F09CEF05F052C020F053C021F0000E38
:100AE800236E050E226E000E256E020E246E000E79
:100AF800276E0A0E266E080E296E210E286E14EC3B
:100B080012F052C017F053C018F0000E1A6E0E0EF5
:100B1800196E020E52241B6E000E53201C6E000E1E
:100B28001E6E0E0E1D6EFF0E206E1F68AAEC05F0DD
:100B3800030E5226000E5322542A040E5464A7EFC3
:100B480005F0A9EF05F042EF05F0120017501B5C05
:100B5800056E18501C58066E82EC17F005C021F07F
:100B680006C022F019501D5C056E1A501E58066EFC
:100B780082EC17F00550215C2250800A236E065043
:100B8800800A2358D8A0CBEF05F0CEEF05F0010E70
:100B9800CFEF05F0000E326E336A32503310D8B4FE
:100BA800D8EF05F0DAEF05F0F2EF05F017C024F002
:100BB80018C025F019C017F01AC018F024C019F091
:100BC80025C01AF01BC026F01CC027F01DC01BF062
:100BD8001EC01CF026C01DF027C01EF017501B5C5D
:100BE8001C50800A216E1850800A2158D8B0FFEF97
:100BF80005F001EF06F019EF06F017C028F018C04D
:100C080029F01BC017F01CC018F028C01BF029C021
:100C18001CF019C02AF01AC02BF01DC019F01EC014
:100C28001AF02AC01DF02BC01EF017501B5C346E42
:100C380018501C58356E19501D5C056E1A501E58F8
:100C4800066E82EC17F005C02CF006C02DF034C0FB
:100C580005F035C006F0000E086E020E076EBCECFB
:100C68000EF005C030F006C031F01D50195C1A5066
:100C7800800A216E1E50800A2158D8B046EF06F02F
:100C880048EF06F04EEF06F0000E2F6E010E2E6EA6
:100C98008EEF06F02E682F688EEF06F03250331074
:100CA800D8B459EF06F05BEF06F06BEF06F019C009
:100CB8000DF01AC00EF017C00FF018C010F01FC0CA
:100CC80011F020C012F077EC0DF079EF06F017C0A4
:100CD8000DF018C00EF019C00FF01AC010F01FC0A8
:100CE80011F020C012F077EC0DF02C50305E2D5032
:100CF800315A31BE84EF06F082EF06F08CEF06F031
:100D08002E5019262F501A223450302635503122B1
:100D1800174A182A1B50175C1850800A216E1C505D
:100D2800800A2158D8A09BEF06F09DEF06F052EFFD
:100D380006F0120010501C6E0FC01DF0020E066E59
:100D4800020E056E0FC007F010C008F093EC16F005
:100D58001106000E125A135A145A829000F011C04C
:100D680015F012C016F013C017F014C018F0030ED7
:100D7800C3EF06F0D8901832173216321532E82E23
:100D8800BEEF06F015C019F016C01AF01D501C1859
:100D9800D8A4D1EF06F0D3EF06F038EF07F0EDEF67
:100DA80006F0809A00F0808A809A00F0808A809A03
:100DB80000F0808A809A00F0808A809A00F0808A09
:100DC800809A00F0808A809A00F0808A809A00F0E9
:100DD800808A1906D8A01A06192806E11A28D8A464
:100DE800F8EF06F0FAEF06F0D5EF06F01150030B16
:100DF8001B6E05EF07F0809A00F0808A809A00F059
:100E0800808A1B061B28D8A40CEF07F00EEF07F00A
:100E1800FFEF06F05DEF07F01CC081FF809A00F03D
:100E2800808A1DC081FF809A00F0808A1CC081FFE3
:100E3800809A00F0808A1DC081FF809A00F0808A25
:100E48001CC081FF809A00F0808A1DC081FF809AB3
:100E580000F0808A1CC081FF809A00F0808A1DC043
:100E680081FF809A00F0808A1906D8A01A061928EE
:100E780006E11A28D8A443EF07F045EF07F010EF72
:100E880007F01150030B1B6E54EF07F01CC081FFD5
:100E9800809A00F0808A1DC081FF809A00F0808AC5
:100EA8001B061B28D8A45BEF07F05DEF07F04AEF9D
:100EB80007F082801200000172AD65EF07F067EF5E
:100EC80007F0EAEF07F0000E316E000E306E000EEC
:100ED800336E000E326E010E386E6D0E3824D96EE8
:100EE800DA6A000EDA22DF502E6E6C0E3824D96EC4
:100EF800DA6A000EDA22DF502F6E2F502E5C366E23
:100F0800376AD8A03706365030263750312236C0D7
:100F180005F037C006F082EC17F00550322606506F
:100F28003322382A030E38649CEF07F09EEF07F04F
:100F380071EF07F03050325C346E31503358356EF3
:100F480035BEB0EF07F0355009E13D0E345CD8A04E
:100F5800B0EF07F0B2EF07F01CEF08F000016C519A
:100F6800040D600EF324D96E000EF420DA6E7AC0F8
:100F7800DEFF7BC0DEFF7CC0DEFF7DC0DEFF6C2BAA
:100F8800030E6C19D8A4CBEF07F0CDEF07F0CFEF25
:100F980007F0000E6C6F000E186EB40E176E000E80
:100FA8001A6E070E196E1F0E1B6E5F0E1C6EF80E62
:100FB8001E6E000E1D6EAEEC0BF0140E0001736F6A
:100FC800728F320E746F729D1CEF08F072AFEFEFE4
:100FD80007F0F1EF07F012EF08F073077351D8A488
:100FE800F8EF07F0FAEF07F012EF08F0000E216EA5
:100FF800B40E206E000E236E070E226E000E256EB4
:10100800140E246E000E276E140E266E080E296E1E
:10101800210E286E14EC12F00001729F74077451AF
:10102800D8A419EF08F01BEF08F01CEF08F0728D38
:101038001200000E0001CB6F000ECC6F000ECD6FBA
:10104800000ECE6F000ED16F6CC0D2F0D251D8B462
:1010580030EF08F032EF08F03AEF08F0FF0ED22533
:10106800C76FC86BFF0EC8233EEF08F0000EC86FAD
:10107800020EC76FC7C0D2F0D251D8B446EF08F0FD
:1010880048EF08F050EF08F0FF0ED225C96FCA6B81
:10109800FF0ECA2354EF08F0000ECA6F020EC96F84
:1010A800C9C0D0F0D051040D600EF324D96E000EE3
:1010B800F420DA6EDECFB6F0DECFB7F0DECFB8F0D0
:1010C800DECFB9F0D251040D600EF324D96E000EB4
:1010D800F420DA6EDECFBAF0DECFBBF0DECFBCF0A4
:1010E800DECFBDF0B651BA5DBE6FB751BB59BF6F09
:1010F800B851BC59C06FB951BD59C16FBE51CB274A
:10110800BF51CC23C051CD23C151CE23D12B010EC9
:10111800D16591EF08F093EF08F02AEF08F0D89026
:10112800CE33CD33CC33CB33600E056EEA0E066E6C
:10113800000E076E000E086ECBC009F0CCC00AF096
:10114800CDC00BF0CEC00CF0DEEC0FF00550000166
:10115800CF6FC20E1B6E000E1C6EF20E1D6E5F0E60
:101168001E6ECFC01FF0206A09EC00F0000E0001CF
:10117800AC6F870EAB6F000EAE6F0A0EAD6FC20E6E
:10118800AF6F000EB06F070EB26FE00EB16F080EB2
:10119800B46F210EB36F020EB56F7DEC10F0120024
:1011A800B50E186E5F0E196E000E1B6E000E1A6ECD
:1011B8001FC01CF020C01DF0200E1E6E4EEC11F05A
:1011C8001FC010F020C011F0D80E126E5F0E136E03
:1011D8007FEC0FF010501110D8B4F5EF08F0F7EFCE
:1011E80008F066EF09F01FC012F020C013F0D60E09
:1011F800146E5F0E156E97EC0CF012C023F013C03E
:1012080024F0000E126E000E136ED60E146E5F0ED2
:10121800156E97EC0CF012C023F013C024F023C015
:1012280012F024C013F0FB0E146E5F0E156E97ECCF
:101238000CF012C023F013C024F023C0D9FF24C03F
:10124800DAFF300EDE18D8A42CEF09F02EEF09F0E3
:1012580066EF09F0000E126E000E136EFB0E146E90
:101268005F0E156E97EC0CF012C023F013C024F03B
:10127800000E126E000E136EFB0E146E5F0E156ECE
:1012880097EC0CF012C023F013C024F0234A242A50
:1012980023C012F024C013F0F90E146E5F0E156E01
:1012A80097EC0CF012C023F013C024F01FC005F017
:1012B80020C006F023C007F024C008F035EC15F074
:1012C80070EF09F01FC005F020C006F0FD0E076E94
:1012D8005F0E086E35EC15F0120011C0D9FF12C070
:1012E800DAFFDF501E6E114A122A200E1E18D8B4DB
:1012F80080EF09F082EF09F071EF09F0090E1E186E
:10130800D8B489EF09F08BEF09F071EF09F0000EFE
:101318001A6E000E1B6E000E1C6E000E1D6E000E67
:10132800196E2D0E1E18D8A49CEF09F09EEF09F037
:10133800A9EF09F0192A11C0D9FF12C0DAFFDF504E
:101348001E6E114A122AD8EF09F02B0E1E18D8A4C7
:10135800B0EF09F0B2EF09F0D8EF09F09FEF09F00C
:101368001AC005F01BC006F01CC007F01DC008F02D
:101378000A0E096E000E0A6E000E0B6E000E0C6E41
:10138800AEEC13F01EC015F0D00E1526155005242E
:101398001A6E000E06201B6E000E07201C6E000E33
:1013A80008201D6E9FEF09F01E509CEC17F0D8B076
:1013B800E0EF09F0E2EF09F0B4EF09F01950D8B402
:1013C800E8EF09F0EAEF09F005EF0AF01AC015F0A6
:1013D8001BC016F01CC017F01DC018F0151E161EF5
:1013E800171E181E152A000E16221722182215C0BD
:1013F80011F016C012F017C013F018C014F00DEF5A
:101408000AF01AC011F01BC012F01CC013F01DC066
:1014180014F01200BF0E186E5F0E196E000E1B6ED0
:10142800000E1A6E230E1C6E000E1D6E200E1E6E10
:101438004EEC11F0230E106E000E116EE70E126EB8
:101448005F0E136E7FEC0FF010501110D8B42FEF11
:101458000AF031EF0AF097EF0AF0230E126E000E31
:10146800136ED60E146E5F0E156E97EC0CF012C04C
:1014780047F013C048F0000E126E000E136ED60E21
:10148800146E5F0E156E97EC0CF012C047F013C087
:1014980048F047504810D8B454EF0AF056EF0AF015
:1014A80097EF0AF047C011F048C012F071EC09F04C
:1014B80011C043F012C044F013C045F014C046F008
:1014C800000E496E4950040D130EF324F66E5F0E9C
:1014D800F420F76E43500900F51810E14450090054
:1014E800F5180CE145500900F51808E146500900C7
:1014F800F518D8A482EF0AF084EF0AF08EEF0AF00C
:1015080043C01FF044C020F045C021F046C022F07F
:101518009FEF0AF0492A020E496495EF0AF097EF07
:101528000AF066EF0AF0000E1F6E000E206E000E25
:10153800216E000E226E1200A4EF0AF00F4A102A44
:101548000FC0D9FF10C0DAFF200EDE18D8B4AFEFF5
:101558000AF0B1EF0AF0A2EF0AF00FC0D9FF10C0ED
:10156800DAFF090EDE18D8B4BCEF0AF0BEEF0AF0B5
:10157800A2EF0AF0000E156E000E146E000E136E28
:101588000FC0D9FF10C0DAFF2D0EDE18D8A4CFEF98
:101598000AF0D1EF0AF0D6EF0AF0132A0F4A102A00
:1015A80003EF0BF00FC0D9FF10C0DAFF2B0EDE18C7
:1015B800D8A4E1EF0AF0E3EF0AF003EF0BF00F4ACB
:1015C800102A03EF0BF014C009F015C00AF0000E42
:1015D8000C6E0A0E0B6EE1EC17F00FC0D9FF10C0AD
:1015E800DAFFDF50116E11500926000E0A22D00EC4
:1015F8000924146EFF0E0A20156EE3EF0AF00FC0DF
:10160800D9FF10C0DAFFDF509CEC17F0D8B00FEF0D
:101618000BF011EF0BF0E7EF0AF01350D8B417EF07
:101628000BF019EF0BF027EF0BF014C011F015C0F9
:1016380012F0111E121E114A122A11C00FF012C008
:1016480010F02BEF0BF014C00FF015C010F01200C3
:101658000EEC0AF01FC0DFF020C0E0F021C0E1F07E
:1016680022C0E2F00001DF51E011E111E211D8A43B
:1016780040EF0BF042EF0BF044EF0BF0ADEF0BF047
:10168800CB0E1B6E000E1C6E940E1D6E5F0E1E6E32
:101698004AC01FF04BC020F04CC021F04DC022F0D2
:1016A80009EC00F0CB0E186E000E196E000E1B6EC2
:1016B800000E1A6EAB0E1C6E000E1D6E200E1E6EF6
:1016C8004EEC11F0FA0E056E000E066E000E076E57
:1016D800000E086E2EEC17F0AB0E056E000E066EAF
:1016E800F60E076E5F0E086EADEC14F0055006108E
:1016F800D8A481EF0BF083EF0BF0A3EF0BF04AC0F7
:1017080012F04BC013F04CC014F04DC015F091EC22
:1017180011F0960E056E000E066E000E076E000E96
:10172800086E2EEC17F085EC15F0E806D8A49FEFAC
:101738000BF0A1EF0BF0A3EF0BF0ADEF0BF0DFC058
:1017480012F0E0C013F0E1C014F0E2C015F091EC23
:1017580011F012001BC0F6FF1CC0F7FF0800F5CF00
:1017680021F01B4A1C2A1BC0F6FF1CC0F7FF08000B
:10177800F5CF22F01B4A1C2A000E256E000E246E9F
:10178800000E236E15EF0CF0000E276E000E266E6D
:1017980003EF0CF0070E26141F6E000E2714206EA0
:1017A8001F502010D8B4DBEF0BF0DDEF0BF0E1EFAA
:1017B8000BF0D8902532EAEF0BF01BC0F6FF1CC0E7
:1017C800F7FF0800F5CF25F01B4A1C2A25A0EFEFEC
:1017D8000BF0F1EF0BF001EF0CF0265017240D6E13
:1017E800275018200E6E19C00FF01AC010F01DC037
:1017F80011F01EC012F077EC0DF0264A272A21506E
:101808001F6E206A1F50265C20502758D8A00FEF63
:101818000CF011EF0CF0CEEF0BF0234A242A194AF2
:101828001A2A22501F6E206A1F50235C2050245809
:10183800D8A021EF0CF023EF0CF0C8EF0BF012004A
:1018480090EC12F005C038F006C039F038C005F049
:1018580039C006F0000E086E050E076ECCEC12F0CB
:1018680005C038F006C039F0FBEC15F03850055CBF
:101878000001E56F39500658E66FFBEC15F0DF0EF6
:101888000524366EFF0E0620376E58C020F059C06A
:1018980021F0000E236E210E226E000E256E140E0E
:1018A800246E36C026F037C027F0080E296E210EA8
:1018B800286E14EC12F0E7C017F0E8C018F0E3C087
:1018C80019F0E4C01AF058C01BF059C01CF0E5C06C
:1018D8001DF0E6C01EF0070E206EE00E1F6EAAEC8B
:1018E80005F058C0E7F059C0E8F0E5C0E3F0E6C0FD
:1018F800E4F0584A592AD4EC15F05850051807E175
:1019080059500618D8A48BEF0CF08DEF0CF096EF19
:101918000CF0000E596E000E586E000E0001E86FB4
:10192800000EE76F120012501310D8A49EEF0CF0AF
:10193800A0EF0CF0A4EF0CF07EC012F07FC013F003
:1019480012501310D8A4ABEF0CF0ADEF0CF0B3EFBE
:101958000CF0000E126E000E136E07EF0DF012C0A1
:101968000BF013C00CF014C00DF015C00EF0E3EC32
:1019780013F00B5012260C50132212C0D9FF13C0BB
:10198800DAFFDF50D8A4CBEF0CF0CDEF0CF0D8EF96
:101998000CF0000E00017E6F000E7F6F7EC012F00B
:1019A8007FC013F007EF0DF012C00BF013C00CF05E
:1019B80014C00DF015C00EF016EC14F00B501224E4
:1019C80000017E6F0C5013207F6F7EC0D9FF7FC04F
:1019D800DAFFDF50D8B4F3EF0CF0F5EF0CF0FFEFBF
:1019E8000CF07EC0D9FF7FC0DAFF000EDF6E7E4BA1
:1019F8007F2B03EF0DF0000E7E6F000E7F6F12C07D
:101A080012F013C013F01200276E04EC18F00D0E3C
:101A1800266E2D0E256ED80EE82EFED7252EFCD765
:101A2800262EFAD7000E2F6E000E2E6E000E2B6E8D
:101A3800660E2A6E63EF0DF0D8902E34F66E2F34B2
:101A4800F76E1F0EF6265E0EF7220900F5CF2CF072
:101A58000A00F5CF2DF02E4A2F2AD8902E34F66E94
:101A68002F34F76E1F0EF6265E0EF7220900F5CF0B
:101A780028F00A00F5CF29F02E4A2F2A2C2806E153
:101A88002D28D8A44AEF0DF04CEF0DF059EF0DF0CA
:101A98000D0E266E2D0E256ED80EE82EFED7252E9D
:101AA800FCD7262EFAD763EF0DF02CC005F02DC019
:101AB80006F028C007F029C008F093EC16F02A5069
:101AC8002E1807E12B502F18D8A46DEF0DF06FEFEB
:101AD8000DF020EF0DF023C020F024C021F0275096
:101AE800CDEC17F01200B1EF0DF00DC013F00EC0E1
:101AF80014F00FC015F010C016F0C5EF0DF00F5020
:101B0800EF08136E1050D8A0E82A0008146E0DC014
:101B180015F00EC016F0C5EF0DF00D50EF08136E5E
:101B28000E50D8A0E82A0008146E0F508F08156EC2
:101B38001050D8A0E82A0108166EC5EF0DF00FC0A6
:101B480013F010C014F00D508F08156E0E50D8A069
:101B5800E82A0108166EC5EF0DF02AEC18F0000A05
:101B6800D8B479EF0DF0010AD8B483EF0DF0030A69
:101B7800D8B491EF0DF0010AD8B4A3EF0DF0C5EF7A
:101B88000DF0020E066E000E056E13C007F014C0AD
:101B980008F093EC16F0020E066E010E056E15C0E5
:101BA80007F016C008F093EC16F0020E066E020E4F
:101BB800056E11C007F012C008F093EC16F0120081
:101BC8003FEF0EF009C0F6FF0AC0F7FFF86A070EEC
:101BD800F76403D00800F55005D0F6CFE1FFF7CF42
:101BE800E2FFE7500009D8B4FCEF0DF0FEEF0DF06E
:101BF8001DEF0EF00BC0F6FF0CC0F7FF0800F5CF85
:101C08000FF009C0F6FF0AC0F7FFF86A070EF7647D
:101C180003D00800F55005D0F6CFE1FFF7CFE2FF7B
:101C2800E7500F18D8B41BEF0EF01DEF0EF03BEF86
:101C38000EF009C0F6FF0AC0F7FFF86A070EF7644E
:101C480003D00800F55005D0F6CFE1FFF7CFE2FF4B
:101C5800E7500F6E0BC0F6FF0CC0F7FF0800F550F9
:101C68000F5C096E0A6AD8A00A0650EF0EF0094AFE
:101C78000A2A0B4A0C2A0D06D8A00E060D2806E1E2
:101C88000E28D8A44AEF0EF04CEF0EF0E6EF0DF058
:101C9800000E0A6E000E096E120011C005F012C087
:101CA80006F0000E086E000E076E13C009F00A6AEF
:101CB8004BEC17F014C00FF015C010F049EC16F0FB
:101CC800176E1750D8A46BEF0EF06DEF0EF070EF93
:101CD8000EF0000EBBEF0EF00D0E1718D8B477EF0C
:101CE8000EF079EF0EF05EEF0EF00A0E1718D8B46A
:101CF80080EF0EF082EF0EF05EEF0EF0000E166E23
:101D08000D0E1718D8B48BEF0EF08DEF0EF0BAEF5A
:101D18000EF01750D8A493EF0EF095EF0EF097EF52
:101D28000EF0BAEF0EF016501124D96E000E1220E4
:101D3800DA6E17C0DFFF162A13501618D8A4A7EFBB
:101D48000EF0A9EF0EF0ABEF0EF0BAEF0EF014C0E4
:101D58000FF015C010F049EC16F0176E1750D8A404
:101D6800B8EF0EF0BAEF0EF084EF0EF01650120036
:101D7800000E0A6E08BEC5EF0EF0C3EF0EF0CBEFF3
:101D88000EF0076C081ED8B0082A010E0A6E06BEAF
:101D9800D2EF0EF0D0EF0EF0D8EF0EF0056C061E65
:101DA800D8B0062A010E0A1A000E0C6E000E0B6E31
:101DB80007500810D8B4E3EF0EF0E5EF0EF00DEF82
:101DC8000FF0010E096EEDEF0EF0D89007360836C9
:101DD800092A08AEF2EF0EF0F4EF0EF0E9EF0EF07C
:101DE800D8900B360C360750055C08500658D8A01A
:101DF80000EF0FF002EF0FF007EF0FF00750055E4E
:101E08000850065A0B80D89008320732092EF4EF92
:101E18000EF00A50D8B413EF0FF015EF0FF019EFCA
:101E28000FF00B6C0C1ED8B00C2A0BC005F00CC0C0
:101E380006F01200C80E186E5F0E196E000E1B6EAB
:101E4800000E1A6E1F0E1C6E000E1D6E200E1E6EEA
:101E58004EEC11F01F0E106E000E116EE00E126E99
:101E68005F0E136E7FEC0FF010501110D8B43FEFD7
:101E78000FF041EF0FF07DEF0FF01F0E126E000E06
:101E8800136ED60E146E5F0E156E97EC0CF012C022
:101E98003FF013C040F0000E126E000E136ED60E07
:101EA800146E5F0E156E97EC0CF012C03FF013C065
:101EB80040F03F504010D8B464EF0FF066EF0FF0D9
:101EC8007DEF0FF03FC012F040C013F0FB0E146E10
:101ED8005F0E156E97EC0CF012C03FF013C040F087
:101EE8003FC00FF040C010F0A0EC0AF00F507EEF9A
:101EF8000FF0000E1200B8EF0FF010C009F011C07B
:101F08000AF012C00BF013C00CF012C005F013C099
:101F180006F022EC16F005C00DF006C00EF0E4EC59
:101F28000DF009500A10D8A49CEF0FF09EEF0FF0A7
:101F3800A4EF0FF010C010F011C011F0DDEF0FF09A
:101F4800010E1024056E000E1120066E12C0F6FF59
:101F580013C0F7FF0800F550076E086AD3EC11F0BC
:101F680005C010F006C011F010501110D8B4BFEF22
:101F78000FF0C1EF0FF0D9EF0FF010C0F6FF11C04E
:101F8800F7FFF86A070EF76403D00800F55005D08C
:101F9800F6CFE1FFF7CFE2FFE7500009D8A4D7EF6B
:101FA8000FF0D9EF0FF081EF0FF0000E106E000E5A
:101FB800116E1200000E0D6E000E0E6E000E0F6EEA
:101FC800000E106E09500A100B100C10D8B4EFEF69
:101FD8000FF0F1EF0FF027EF10F0010E116EFBEF8D
:101FE8000FF0D89009360A360B360C36112A0CAE8B
:101FF80000EF10F002EF10F0F5EF0FF0D8900D366B
:102008000E360F3610360950055C0A5006580B502C
:1020180007580C500858D8A014EF10F016EF10F01D
:102028001FEF10F00950055E0A50065A0B50075A68
:102038000C50085A0D80D8900C320B320A320932F3
:10204800112E02EF10F00DC005F00EC006F00FC003
:1020580007F010C008F01200080E1F6E210E1E6E49
:10206800DDEC14F0000E0001AC6F080EAB6F000E33
:10207800AE6F0A0EAD6FA00EAF6F5F0EB06FFF0EA2
:10208800B26FB169080EB46F210EB36F020EB56F4F
:102098007DEC10F0000E186E000E176E000E1A6E12
:1020A800200E196ED4EC15F005C01BF006C01CF00C
:1020B800000E1E6E200E1D6EFF0E206E1F68AAEC0D
:1020C80005F0000E596E000E586E000E0001E86F04
:1020D800000EE76FFBEC15F0D89006304D6E05301A
:1020E8000001E56F4DC0E6F0E5C0E3F0E6C0E4F0BE
:1020F8001200ADEF10F0ABC036F0ACC037F0ADC099
:1021080038F0AEC039F0AFC0F6FFB0C0F7FFF86ADC
:10211800070EF76403D00800F55005D0F6CFE1FFAD
:10212800F7CFE2FFE7503A6EB1C03BF0B2C03CF0E7
:10213800B3C03DF0B4C03EF0B5C03FF0FEEC01F0D6
:102148000001B551060DF350AB27F450AC23AF4B4B
:10215800B02BAFC0F6FFB0C0F7FFF86A070EF76400
:1021680003D00800F55005D0F6CFE1FFF7CFE2FF26
:10217800E7500009D8A4C3EF10F0C5EF10F07FEFC7
:1021880010F012001650171018101910D8B4CFEF0D
:1021980010F0D1EF10F001EF11F0010E1A6EDBEF25
:1021A80010F0D89016361736183619361A2A19AE7E
:1021B800E0EF10F0E2EF10F0D5EF10F01650125CDF
:1021C800175013581850145819501558D8A0EFEF35
:1021D80010F0F1EF10F0F9EF10F01650125E1750F2
:1021E800135A1850145A1950155AD89019321832CF
:1021F800173216321A2EE2EF10F012C012F013C086
:1022080013F014C014F015C015F012000550061094
:10221800D8A411EF11F013EF11F017EF11F0030E1E
:10222800066EE80E056E05C007F006C008F0000E41
:1022380008BEFF0E096E0A6E00017A5107240B6E64
:102248007B5108200C6E7C5109200D6E7D510A20AF
:102258000E6E42EF11F000017A510B5C7B510C5865
:102268007C510D587D510E58D8B03DEF11F03FEF1D
:1022780011F042EF11F0000E4DEF11F00101005185
:102288000119D8B44AEF11F04CEF11F02FEF11F00B
:10229800010E12004B0E00017627000E77237823DB
:1022A800792376517A5D77517B5978517C597951E8
:1022B8007D59D8A062EF11F064EF11F055EF11F0DD
:1022C8007AC076F07BC077F07CC078F07DC079F07A
:1022D80027EC18F018C009F019C00AF018C005F06A
:1022E80019C006F022EC16F005500B6EB5EC16F08E
:1022F8001E50D8B482EF11F084EF11F090EF11F076
:102308001CC011F01DC012F01EC013F01AC014F04A
:102318001BC015F051EC0EF01200AC98AC84B886D6
:10232800000E056E6C0E066EDC0E076E020E086E51
:1023380012C009F013C00AF014C00BF015C00CF05D
:10234800DEEC0FF005C01AF006C01BF007C01CF049
:1023580008C01DF01AC016F01BC017F01CC018F0FA
:102368001DC019F0030EBEEF11F0D89019321832C3
:1023780017321632E82EB9EF11F016C01AF017C04E
:102388001BF018C01CF019C01DF01A06000E1B5ACD
:102398001C5A1D5A1AC0AFFF1BC0B0FF120005C05F
:1023A800F6FF06C0F7FFF86A070EF76403D00800C7
:1023B800F55005D0F6CFE1FFF7CFE2FFE750071859
:1023C800D8A4E9EF11F0EBEF11F0F1EF11F005C02F
:1023D80005F006C006F013EF12F00550096E06501E
:1023E8000A6E054A062A09C0F6FF0AC0F7FFF86A0E
:1023F800070EF76403D00800F55005D0F6CFE1FFCB
:10240800F7CFE2FFE7500009D8A40DEF12F00FEF65
:1024180012F0D3EF11F0000E056E000E066E1200DA
:1024280020C00DF021C00EF022C00FF023C010F024
:10243800245020242A6E255021202B6EFF0E2A249A
:10244800116EFF0E2B20126E265022242C6E275060
:1024580023202D6EFF0E2C24136EFF0E2D20146EDC
:1024680045EC03F028C00FF029C010F024C009F093
:1024780025C00AF026C00BF027C00CF0E1EC17F0DD
:1024880009C011F00AC012F0136A146A9EEC06F033
:10249800000E1F6E000E1E6EDDEC14F012001EEC16
:1024A8000FF0416E630E4118D8A45DEF12F05FEF94
:1024B80012F062EF12F0FF0E8FEF12F0030E416080
:1024C80068EF12F06AEF12F06DEF12F0000E8FEF66
:1024D80012F00A0E416073EF12F075EF12F078EF08
:1024E80012F0010E8FEF12F00F0E41607EEF12F026
:1024F80080EF12F083EF12F0020E8FEF12F0140E3D
:10250800416089EF12F08BEF12F08EEF12F0030E9C
:102518008FEF12F0040E1200C30EC216C280C282E0
:10252800C2B299EF12F09BEF12F094EF12F0C4CF01
:1025380009F00A6A09500A6E096A000E0916FF0EA8
:102548000A16C3500912C2906D0E00017125D96E8A
:10255800DA6A000EDA2209C007F00AC008F0D8903B
:1025680008320732D890083207320750DF6E712BD5
:10257800040E7119D8A4C3EF12F0C5EF12F0C7EF1B
:1025880012F0000E716F09C005F00AC006F01200C3
:10259800000E0A6E000E096E07500810D8B4D7EF67
:1025A80012F0D9EF12F001EF13F0010E0B6EE1EF0C
:1025B80012F0D890073608360B2A08AEE6EF12F06C
:1025C800E8EF12F0DDEF12F0D89009360A3607501E
:1025D800055C08500658D8A0F4EF12F0F6EF12F098
:1025E800FBEF12F00750055E0850065A0980D89094
:1025F800083207320B2EE8EF12F009C005F00AC0C6
:1026080006F01200D39E700ED312FC0ED3169B8ECA
:10261800E00E9B16070E066E170E056E6A0EE82E64
:10262800FED7052EFCD7062EFAD700D06D966F86FA
:102638000B0E926E000E896EF18E000E936E000ED8
:102648008A6EF00E946E000E8B6EC290CF0EC1167D
:10265800C150F00B0E09C16EC08EC70EC016C05017
:10266800F80B0209C06ECF0EB116B192B180A082EC
:10267800F28CF28E1200000E3F6E3F50040D130EC6
:10268800F324F66E5F0EF420F76E0900F5CF12F012
:102698000900F5CF13F00900F5CF14F00A00F5CFC3
:1026A80015F091EC11F085EC15F0E806D8A45FEF71
:1026B80013F061EF13F063EF13F076EF13F0640E8D
:1026C800056E000E066E000E076E000E086E2EECEC
:1026D80017F03F2A020E3F6474EF13F076EF13F001
:1026E80041EF13F012000600D9CF03F0DACF04F05F
:1026F800A0A281EF13F083EF13F098EF13F0A1A2DB
:1027080088EF13F08AEF13F098EF13F0050E00012D
:102718007A27000E7B237C237D23F4EC17F0160E1A
:10272800B36E000EB26EA1929DAA9DEF13F09FEFBB
:1027380013F0A8EF13F09EAAA4EF13F0A6EF13F07E
:10274800A8EF13F07BEC14F004C0DAFF03C0D9FF44
:102758005A921100000E0D6E000E0E6E000E0F6ED6
:10276800000E106E05A0BBEF13F0BDEF13F0C5EF20
:1027780013F009500D260A500E220B500F220C5050
:102788001022D89009360A360B360C36D890083203
:102798000732063205320550061007100810D8A473
:1027A800D8EF13F0DAEF13F0B6EF13F00DC005F021
:1027B8000EC006F00FC007F010C008F01200000E9F
:1027C800116E000E106EEDEF13F00B4A0C2A104A32
:1027D800112A0BC0D9FF0CC0DAFFDF50D8B4F7EFCD
:1027E80013F0F9EF13F011EF14F00DC005F00EC05F
:1027F80006F00BC0D9FF0CC0DAFFDF500F6E0F5088
:10280800076E086AD3EC11F005500610D8A40FEF34
:1028180014F011EF14F0E9EF13F010C00BF011C031
:102828000CF01200000E116E000E106E20EF14F066
:102838000B4A0C2A104A112A0BC0D9FF0CC0DAFF28
:10284800DF50D8B42AEF14F02CEF14F044EF14F052
:102858000DC005F00EC006F00BC0D9FF0CC0DAFFA2
:10286800DF500F6E0F50076E086AD3EC11F0055059
:102878000610D8B442EF14F044EF14F01CEF14F033
:1028880010C00BF011C00CF01200480EF66E300E9E
:10289800F76E000EF86E00EEE3F010EE06F0090099
:1028A800F5CFEEFFE550E150FAE1580EF66E300E26
:1028B800F76E000EF86E0900F5CF58F00900F5CF55
:1028C80059F001EE00F0820EEE6AE806FDE100EE36
:1028D80060F04B0EEE6AE806FDE1576A566A556AE3
:1028E8005A905A92000EF86E0001F4EF16F0AECF2F
:1028F80002F0ABA282EF14F084EF14F097EF14F01B
:10290800AB98AB8880A48BEF14F08FEF14F0016ABA
:10291800012A90EF14F0016A01460146805001181F
:10292800FB0B0118806E0101012B800E0119D8A440
:10293800A0EF14F0A2EF14F0A4EF14F0000E016F52
:10294800020E0125D96EDA6A010EDA2202C0DFFF13
:102958001200B3EF14F0054A062A074A082A07C0EE
:10296800F6FF08C0F7FF0800F5CF09F005C0D9FF4A
:1029780006C0DAFFDF500A6E09500A5C0B6E0B5076
:10298800D8A4C9EF14F0CBEF14F0D7EF14F005C0BA
:10299800D9FF06C0DAFFDF50D8A4D5EF14F0D7EF7F
:1029A80014F0AFEF14F00B50056E066A05BE06066C
:1029B8001200000E0E6E000E0D6E000E106E000E50
:1029C8000F6ED4EC15F005C011F006C012F0FBEC48
:1029D80015F005C013F006C014F045EC03F01E50C6
:1029E8001F10D8B4FAEF14F0FCEF14F00AEF15F04A
:1029F8001EC00FF01FC010F0000E116E770E126E81
:102A0800010E136E000E146E9EEC06F0120000010B
:102A180080A911EF15F013EF15F017EF15F067EC1B
:102A280017F00001809980AB1CEF15F01EEF15F030
:102A380022EF15F0ADEC15F00001809B80A727EF81
:102A480015F029EF15F034EF15F080A32EEF15F0EF
:102A580030EF15F034EF15F01DEC08F00001809709
:102A6800120005C009F006C00AF03FEF15F0094A48
:102A78000A2A074A082A07C0F6FF08C0F7FFF86ABB
:102A880009C0D9FF0AC0DAFF070EF76403D00800AF
:102A9800F55005D0F6CFE1FFF7CFE2FFE750DF6E44
:102AA800DF50D8A45AEF15F05CEF15F03BEF15F0A6
:102AB8001200000E086E82AA64EF15F066EF15F09A
:102AC80067EF15F0088282A86CEF15F06EEF15F02D
:102AD8006FEF15F008800850D8B475EF15F079EF4E
:102AE80015F0076A072A7AEF15F0076A074600010A
:102AF80080510718FD0B0718806F08C005F0066A9B
:102B08001200EE0E186E5F0E196E000E1B6E000E90
:102B18001A6E1F0E1C6E000E1D6E200E1E6E4EECE1
:102B280011F01F0E056E000E066EF60E076E5F0E94
:102B3800086EADEC14F005500610D8A4A6EF15F0F9
:102B4800A8EF15F0ABEF15F0010EACEF15F0000E85
:102B580012005DEC15F0000180A3B5EF15F0B7EF9A
:102B680015F0C8EF15F080B5BCEF15F0BEEF15F005
:102B7800C2EF15F030EC10F00001808524EC0CF069
:102B88005FEC07F0D3EF15F080A5CDEF15F0CFEF90
:102B980015F0D3EF15F0D5EC16F000018095120072
:102BA800E2EF15F0000E066EEF0E056EFAEF15F067
:102BB800010E066E8F0E056EFAEF15F02AEC18F06E
:102BC800000AD8B4D6EF15F0010AD8B4DCEF15F036
:102BD800030AD8B4D6EF15F0010AD8B4DCEF15F023
:102BE800F6EF15F0000E066E000E056E120009EFE6
:102BF80016F0010E066E8F0E056E21EF16F0000E10
:102C0800066EEF0E056E21EF16F02AEC18F0000A9A
:102C1800D8B4FDEF15F0010AD8B403EF16F0030A93
:102C2800D8B4FDEF15F0010AD8B403EF16F01DEF84
:102C380016F0000E066E000E056E120005C007F0B5
:102C480006C008F02AEF16F0074A082A07C0F6FF60
:102C580008C0F7FFF86A070EF76403D00800F550BC
:102C680005D0F6CFE1FFF7CFE2FFE7500009D8A47F
:102C780040EF16F042EF16F028EF16F00550075C0B
:102C8800056E06500858066E12000FC005F010C0F9
:102C980006F00AEC11F00009D8A455EF16F057EF2A
:102CA80016F05AEF16F0000E6EEF16F00101002B29
:102CB800800E0019D8A463EF16F065EF16F067EFE1
:102CC80016F0000E006F020E0025D96EDA6A010EAA
:102CD800DA22DF501200AC9CAC8AAC98AC96AC847B
:102CE800AB8EAB9CAB88B886B892B890040EB06E29
:102CF800E10EAF6E9D8A000E0101006F000E016F9C
:102D0800020E056E010E066E000E086E000E076EAE
:102D1800000E0A6E800E096E4BEC17F012008290BE
:102D280000F082920650096E05C00AF009C081FFC2
:102D3800809A00F0808A0AC081FF809A00F0808A19
:102D4800828208500B6E07C00CF00BC081FF809A7E
:102D580000F0808A0CC081FF809A00F0808A82800F
:102D68001200CBEF16F009C0F6FF0AC0F7FFF86AA9
:102D7800070EF76403D00800F55005D0F6CFE1FF41
:102D8800F7CFE2FFE75013EC18F0094A0A2A0B06BE
:102D98000B28D8A4D2EF16F0D4EF16F0B7EF16F040
:102DA8001200080E1F6E210E1E6EDDEC14F0000ED0
:102DB8000001AC6F240EAB6F000EAE6F4B0EAD6F03
:102DC8005D0EAF6F5F0EB06FFF0EB26FB169080E88
:102DD800B46F210EB36F020EB56F7DEC10F01200C8
:102DE80006EC13F0080E246E210E236E030E08EC79
:102DF8000DF06FEC16F0B5EC17F0000E4E6EC20E2B
:102E08004F6E010E506E000E516E11EC17F01FEC54
:102E180018F00BEF17F007EF00F03FEC13F04EC07F
:102E28004AF04FC04BF050C04CF051C04DF02CEC64
:102E38000BF0870E186E5F0E196E000E1B6E000EDB
:102E48001A6E000E1C6E000E1D6E000E1E6E4EECED
:102E580011F01200055000017A25096E06507B21F9
:102E68000A6E07507C210B6E08507D210C6E0950AC
:102E78007A5D0A507B590B507C590C507D59D8A06B
:102E880048EF17F04AEF17F03BEF17F0120005C0B4
:102E98000BF006C00CF059EF17F00BC0D9FF0CC0AF
:102EA800DAFF07C0DFFF0B4A0C2A0906D8A00A067A
:102EB800092806E10A28D8A464EF17F066EF17F08E
:102EC80051EF17F0120000018151070B056E010E3A
:102ED800056471EF17F073EF17F076EF17F0808B3A
:102EE800F80E8117EF0E75657CEF17F07EEF17F07F
:102EF80081EF17F08087000E756F120006BE89EF0C
:102F080017F087EF17F097EF17F005C007F006C026
:102F180008F0071E081E074A082A07C005F008C05F
:102F280006F09BEF17F005C005F006C006F012008A
:102F3800076E000E066E3A0E0760A5EF17F0A7EFB2
:102F480017F0B1EF17F02F0E0764ADEF17F0AFEFE2
:102F580017F0B1EF17F0010E066E06C005F0053048
:102F680012005DEC15F005500610D8A4BEEF17F05E
:102F7800C0EF17F0C4EF17F030EC10F0C6EF17F001
:102F8800D5EC16F0000E00016C6F000E716F728D9B
:102F98001200226E030E2264D4EF17F0D6EF17F05A
:102FA800D8EF17F0000E226E22C057F020C01EF096
:102FB80021C01FF0DDEC14F0120009500B02F3CF12
:102FC8000DF0F4CF0EF009500C02F3500E260A5003
:102FD8000B02F3500E260DC009F00EC00AF01200C5
:102FE800010E016E00018151070B026E015002268D
:102FF80081510218F80B0218816F752B8089120015
:10300800000E936E8280808A80888294200E056EDE
:103018002A0EE82EFED7052EFCD782841200056EF4
:103028009EA819EF18F01BEF18F014EF18F005C060
:10303800ADFF00F012000BEC15F084EC04F0120068
:103048008F018F01EF0001C100F1120057501200EB
:02305800EF0087
:10591E000000000000003E5B4F5B3E3E6B4F6B3E57
:10592E001C3E7C3E1C183C7E3C181C577D571C1C94
:10593E005E7F5E1C00183C1800FFE7C3E7FF0018EF
:10594E00241800FFE7DBE7FF30483A060E262979D8
:10595E002926407F050507407F05253F5A3CE73C39
:10596E005A7F3E1C1C08081C1C3E7F14227F2214EA
:10597E005F5F005F5F06097F017F006689956A6041
:10598E006060606094A2FFA29408047E0408102058
:10599E007E201008082A1C08081C2A08081E101051
:1059AE0010100C1E0C1E0C30383E3830060E3E0EFB
:1059BE0006000000000000005F0000000700070066
:1059CE00147F147F14242A7F2A122313086462364C
:1059DE00495620500008070300001C2241000041D8
:1059EE00221C002A1C7F1C2A08083E080800807012
:1059FE003000080808080800006060002010080445
:105A0E00023E5149453E00427F4000724949494697
:105A1E002141494D331814127F1027454545393C15
:105A2E004A49493141211109073649494936464902
:105A3E0049291E0000140000004034000000081424
:105A4E00224114141414140041221408020159099D
:105A5E00063E415D594E7C1211127C7F49494936F2
:105A6E003E414141227F4141413E7F494949417F6B
:105A7E00090909013E414151737F0808087F004121
:105A8E007F41002040413F017F081422417F40406A
:105A9E0040407F021C027F7F0408107F3E4141413F
:105AAE003E7F090909063E4151215E7F09192946AB
:105ABE00264949493203017F01033F4040403F1FC1
:105ACE002040201F3F4038403F63140814630304F6
:105ADE007804036159494D43007F41414102040856
:105AEE001020004141417F04020102044040404029
:105AFE0040000307080020545478407F284444385F
:105B0E003844444428384444287F385454541800A8
:105B1E00087E090218A4A49C787F08040478004427
:105B2E007D40002040403D007F1028440000417F12
:105B3E0040007C047804787C08040478384444449B
:105B4E0038FC1824241818242418FC7C0804040893
:105B5E00485454542404043F44243C4040207C1CAC
:105B6E002040201C3C4030403C44281028444C909F
:105B7E0090907C4464544C440008364100000077F9
:105B8E000000004136080002010204023C262326D2
:105B9E003C1EA1A161123A4040207A385454555906
:105BAE00215555794122545478422155547840203C
:105BBE00545579400C1E5272123955555559395457
:105BCE0054545939555454580000457C41000245EF
:105BDE007D420001457C407D1211127DF028252862
:105BEE00F07C545545002054547C547C0A097F495E
:105BFE0032494949323A4444443A324A4848303AA2
:105C0E004141217A3A42402078009DA0A07D3D423C
:105C1E0042423D3D4040403D3C24FF2424487E49C5
:105C2E0043662B2FFC2F2BFF0929F620C0887E09F7
:105C3E000320545479410000447D413048484A3293
:105C4E00384040227A007A0A0A727D0D19317D267B
:105C5E0029292F28262929292630484D4020380861
:105C6E0008080808080808382F10C8ACBA2F1028E2
:105C7E0034FA00007B000008142A142222142A147D
:105C8E00085500550055AA55AA55AAFF55FF55FFB0
:105C9E00000000FF00101010FF00141414FF00107D
:105CAE0010FF00FF1010F010F0141414FC00141468
:105CBE00F700FF0000FF00FF1414F404FC14141787
:105CCE00101F10101F101F1414141F00101010F0AE
:105CDE00000000001F101010101F10101010F010F8
:105CEE00000000FF101010101010101010FF100008
:105CFE000000FF140000FF00FF00001F101700003F
:105D0E00FC04F414141710171414F404F40000FF18
:105D1E0000F714141414141414F700F714141417B1
:105D2E001410101F101F141414F4141010F010F08F
:105D3E0000001F101F0000001F14000000FC1400C4
:105D4E0000F010F01010FF10FF141414FF141010B8
:105D5E00101F00000000F010FFFFFFFFFFF0F0F03B
:105D6E00F0F0FFFFFF0000000000FFFF0F0F0F0F0E
:105D7E000F3844443844FC4A4A4A347E020206062E
:105D8E00027E027E0263554941633844443C04401E
:105D9E007E201E2006027E020299A5E7A5991C2AE6
:105DAE00492A1C4C7201724C304A4D4D30304878A5
:105DBE004830BC625A463D3E494949007E010101C8
:105DCE007E2A2A2A2A2A44445F444440514A4440A7
:105DDE0040444A51400000FF0103E080FF000008EC
:105DEE00086B6B083612362436060F090F060000B4
:105DFE0018180000001010003040FF0101001F01B4
:105E0E00011E00191D1712003C3C3C3C0000000016
:105E1E000002070830050736000B071312010000B9
:105E2E000102000001030030100800020209000008
:105E3E00000C0000000F0000000001000002010035
:105E4E000003010000FFFF01000001901101012776
:105E5E0002FFFF01000201BD01FFFF01000301006F
:105E6E002D81020E00FFFF01000002000001020062
:105E7E0000000300000103070702030606050300E6
:105E8E00000603000D0703060708030500090307B4
:105E9E00000C0300000D030A00100200001102EFB7
:105EAE00001202000013028F0100040031010401F0
:105EBE0000040400000005000001050000020500BA
:105ECE000003050000040500000505000010001089
:105EDE0000110000062000020007007301010000FF
:105EEE00000A00000064000000E803000010270014
:105EFE0000A086010040420F008096980000E1F558
:105F0E000500CA9A3B8025000000E1000000C20196
:105F1E00001414000000000000F8F001FCF903FC6E
:105F2E00FF03FEFF07FEFF07FEFF07FEFF07FCFF56
:105F3E0003FCFF03F8FF01F0FF00E07F00C03F000D
:105F4E00801F00000F000006000000000000002A65
:105F5E002A2A20436F6C6C656761726520656C65DB
:105F6E007474726F6469202A2A2A00436F6E6E65FC
:105F7E006374696E672E2E2E0041542B434F50537F
:105F8E003D332C300D0041542B4950523D256C753C
:105F9E000D004672657175656E7A613A0041542B3B
:105FAE00435245473F0D0041542B434F50533F0D35
:105FBE000041542B4950523F0D0041542B43535135
:105FCE000D002B435245473A20002B434F50533A76
:105FDE0020002B4353513A20002B4950523A2000B7
:105FEE0041540D00253364004F4B0022002C002D30
:025FFE000000A1
:020000040020DA
:08000000FFFFFFFFFFFFFFFF00
:020000040030CA
:0E000000200E011EFF0180FF0FC00FE00F4019
:00000001FF
