:020000040000FA
:0400000007EF00F016
:1000080052826AED0AF024EF09F0130E196E000E01
:100018001A6E5BEF01F0250E2118D8B416EF00F028
:1000280018EF00F022EF00F00FC0D9FF10C0DAFF80
:1000380021C0DFFF0F4A102A5BEF01F0000E206E8F
:10004800000E1F6E000E1C6E11C0F6FF12C0F7FFE7
:100058000800F550DCEC0AF0D8A035EF00F037EFD7
:1000680000F06EEF00F0000E206E000E1F6E1FC035
:1000780003F020C004F0000E066E0A0E056E0DECAB
:100088000BF003C01FF004C020F0D00E156EFF0E59
:10009800166E11C0F6FF12C0F7FF0800F550176E74
:1000A800186A155017261650182217501F26185070
:1000B8002022114A122A11C0F6FF12C0F7FF0800C9
:1000C800F550DCEC0AF0D8B06CEF00F06EEF00F001
:1000D8003BEF00F011C0F6FF12C0F7FF114A122AD9
:1000E8000800F5CF21F02150000AD8B46CEF01F0D8
:1000F800640AD8B486EF00F00D0AD8B486EF00F091
:100108005BEF01F019C0D9FF1AC0DAFFDECF1DF08E
:10011800DDCF1EF0020E1926000E1A221EBE99EF20
:1001280000F097EF00F09FEF00F0030E1C121D6C1B
:100138001E1ED8B01E2A010E216E2150020D8B0EF4
:10014800F324F66E5F0EF420F76E0900F5501D5C7F
:100158000900F5501E58D8B0B4EF00F0B6EF00F023
:10016800B8EF00F0C2EF00F0212A050E2118D8A43C
:10017800C0EF00F0C2EF00F0A1EF00F01F50201018
:10018800D8B4C9EF00F0CBEF00F0D9EF00F01CC0F5
:1001980015F0030E1516D8B4D4EF00F0D6EF00F022
:1001A800D9EF00F01F06D8A020062150156E166A58
:1001B8001F50155C1650800A176E2050800A175879
:1001C800D8B0E9EF00F0EBEF00F0F1EF00F02150CC
:1001D8001F5E000E205AF5EF00F0000E206E000E94
:1001E8001F6E1F502010D8B4FCEF00F0FEEF00F097
:1001F80012EF01F00FC0D9FF10C0DAFF200EDF6E3A
:100208000F4A102A1F06D8A020061F502010D8A475
:1002180010EF01F012EF01F0FEEF00F01CC015F036
:10022800030E1516D8B41BEF01F01DEF01F025EFF2
:1002380001F00FC0D9FF10C0DAFF2D0EDF6E0F4A94
:10024800102A21C01BF052EF01F01B50020D8B0E3B
:10025800F324F66E5F0EF420F76E0900F5CF05F073
:100268000A00F5CF06F01DC003F01EC004F0B1EC83
:1002780008F003C00AF004C00BF0000E0D6E0A0E61
:100288000C6E5BEC09F00A50300F216E0FC0D9FFDD
:1002980010C0DAFF21C0DFFF0F4A102A1B061B28F7
:1002A800D8A459EF01F05BEF01F029EF01F011C07C
:1002B800F6FF12C0F7FF114A122A0800F5CF21F005
:1002C8002150D8A46AEF01F06CEF01F00FEF00F0B5
:1002D8000FC0D9FF10C0DAFF000EDF6E1200000E4B
:1002E8003C6E3CC032F0336A32BE33062C50050DEA
:1002F800BF0E346E590E356EF3503426F450352245
:10030800325034263350352234C0F6FF35C0F7FF5B
:100318000800F5CF36F0000E3B6E36A096EF01F0E0
:1003280098EF01F0F1EF01F03104D8A49EEF01F04D
:10033800A0EF01F0BBEF01F028503B240B6E000E3C
:100348003BBEFF0E29200C6E3CC032F0336A32BE31
:10035800330632502A5C0D6E33502B580E6E2DC06A
:100368000FF02EC010F04BEC0AF054EF02F03B50A7
:10037800036E046A03BE040631C005F0066A0DEC7C
:100388000BF028500324376E29500420386E3C5057
:10039800036E046A03BE040631C005F0066A0DEC5C
:1003A8000BF003502A5C396E04502B583A6E37C054
:1003B8001AF038C01BF039C01CF03AC01DF031C02B
:1003C8001EF01F6A31C020F0216A2DC022F02EC015
:1003D80023F076EC08F054EF02F02D502F1809E1C5
:1003E8002E503018D8B4FBEF01F0FDEF01F054EFB8
:1003F80002F03104D8A403EF02F005EF02F020EF79
:1004080002F028503B240B6E000E3BBEFF0E292045
:100418000C6E3CC032F0336A32BE330632502A5C6E
:100428000D6E33502B580E6E2FC00FF030C010F0E9
:100438004BEC0AF054EF02F03B50036E046A03BE23
:10044800040631C005F0066A0DEC0BF028500324B1
:10045800376E29500420386E3C50036E046A03BE80
:10046800040631C005F0066A0DEC0BF003502A5C57
:10047800396E04502B583A6E37C01AF038C01BF04A
:1004880039C01CF03AC01DF031C01EF01F6A31C0DF
:1004980020F0216A2FC022F030C023F076EC08F05B
:1004A8003B2AD89036323B50800A780FD8A05FEFAD
:1004B80002F061EF02F091EF01F03C2A3C50800A13
:1004C8007B0FD8A06AEF02F06CEF02F075EF01F035
:1004D80012001150155C036E12501658046EC2ECCF
:1004E8000AF003C01BF004C01CF01350175C036E25
:1004F80014501858046EC2EC0AF003501B5C1C50D0
:10050800800A1D6E0450800A1D58D8A08EEF02F094
:1005180091EF02F0010E92EF02F0000E2C6E2D6AA0
:100528002C502D10D8B49BEF02F09DEF02F0B5EFE0
:1005380002F011C01EF012C01FF013C011F014C059
:1005480012F01EC013F01FC014F015C020F016C022
:1005580021F017C015F018C016F020C017F021C000
:1005680018F01150155C1650800A1B6E1250800A44
:100578001B58D8B0C2EF02F0C4EF02F0DCEF02F073
:1005880011C022F012C023F015C011F016C012F0ED
:1005980022C015F023C016F013C024F014C025F0B3
:1005A80017C013F018C014F024C017F025C018F0B5
:1005B8001150155C2E6E125016582F6E1350175C82
:1005C800036E14501858046EC2EC0AF003C026F0EB
:1005D80004C027F02EC003F02FC004F0000E066EF2
:1005E800020E056E64EC06F003C02AF004C02BF07E
:1005F8001750135C1450800A1B6E1850800A1B5841
:10060800D8B009EF03F00BEF03F011EF03F0000E81
:10061800296E010E286E51EF03F02868296851EF02
:1006280003F02C502D10D8B41CEF03F01EEF03F08C
:100638002EEF03F013C00BF014C00CF011C00DF036
:1006480012C00EF019C00FF01AC010F04BEC0AF0EF
:100658003CEF03F011C00BF012C00CF013C00DF00A
:1006680014C00EF019C00FF01AC010F04BEC0AF0CD
:1006780026502A5E27502B5A2BBE47EF03F045EF32
:1006880003F04FEF03F028501326295014222E5060
:100698002A262F502B22114A122A1150155C165067
:1006A800800A1B6E1250800A1B58D8B05EEF03F008
:1006B80060EF03F015EF03F012000C50186E0BC03A
:1006C80019F0020E046E020E036E0BC005F00CC08A
:1006D80006F029EC0AF00D06000E0E5A0F5A105AB1
:1006E800829000F00DC011F00EC012F00FC013F090
:1006F80010C014F0030E86EF03F0D89014321332B2
:1007080012321132E82E81EF03F011C015F012C039
:1007180016F019501818D8A494EF03F096EF03F0C8
:10072800FBEF03F0B0EF03F0809A00F0808A809A24
:1007380000F0808A809A00F0808A809A00F0808A8F
:10074800809A00F0808A809A00F0808A809A00F06F
:10075800808A809A00F0808A1506D8A01606152887
:1007680006E11628D8A4BBEF03F0BDEF03F098EF1D
:1007780003F00D50030B176EC8EF03F0809A00F0DA
:10078800808A809A00F0808A17061728D8A4CFEFAD
:1007980003F0D1EF03F0C2EF03F020EF04F018C02C
:1007A80081FF809A00F0808A19C081FF809A00F04A
:1007B800808A18C081FF809A00F0808A19C081FF62
:1007C800809A00F0808A18C081FF809A00F0808AA1
:1007D80019C081FF809A00F0808A18C081FF809A32
:1007E80000F0808A19C081FF809A00F0808A15067F
:1007F800D8A01606152806E11628D8A406EF04F096
:1008080008EF04F0D3EF03F00D50030B176E17EF4A
:1008180004F018C081FF809A00F0808A19C081FF17
:10082800809A00F0808A17061728D8A41EEF04F0D3
:1008380020EF04F00DEF04F082801200000E00019A
:10084800756F000E766F000E776F000E786F000ED2
:100858007B6F89C07CF07C51D8B435EF04F037EF5A
:1008680004F03FEF04F0FF0E7C25716F726BFF0EF2
:10087800722343EF04F0000E726F020E716F71C0A5
:100888007CF07C51D8B44BEF04F04DEF04F055EFF9
:1008980004F0FF0E7C25736F746BFF0E742359EF01
:1008A80004F0000E746F020E736F73C07AF07A5101
:1008B800040D7D0EF324D96E000EF420DA6EDECF1F
:1008C80060F0DECF61F0DECF62F0DECF63F07C5106
:1008D800040D7D0EF324D96E000EF420DA6EDECFFF
:1008E80064F0DECF65F0DECF66F0DECF67F06051F2
:1008F800645D686F61516559696F625166596A6FC5
:10090800635167596B6F68517527695176236A512E
:1009180077236B5178237B2B010E7B6596EF04F0D0
:1009280098EF04F02FEF04F0D890783377337633CC
:100938007533600E036EEA0E046E000E056E000E2F
:10094800066E75C007F076C008F077C009F078C069
:100958000AF027EC07F003500001796F6C0E0F6E58
:10096800000E106EFA0E116E5F0E126E79C013F043
:10097800146A09EC00F0000E3E6E080E3D6E010E82
:10098800406E040E3F6E6C0E416E000E426E070EF6
:10099800446EE00E436E000E466E000E456E020E6B
:1009A800476E79EC07F012004EACDDEF04F0DFEF94
:1009B80004F05CEF05F0000E2B6E000E2A6E000EA0
:1009C8002D6E000E2C6E010E326E8A0E3224D96EF8
:1009D800DA6A000EDA22DF50286E890E3224D96EC8
:1009E800DA6A000EDA22DF50296E2950285C306E50
:1009F800316AD8A0310630502A2631502B2230C017
:100A080003F031C004F0C2EC0AF003502C26045065
:100A18002D22322A030E326414EF05F016EF05F08A
:100A2800E9EF04F02A502C5C2E6E2B502D582F6EB7
:100A38002FBE28EF05F02F5009E13D0E2E5CD8A0FF
:100A480028EF05F02AEF05F08DEF05F00001895138
:100A5800040D7D0EF324D96E000EF420DA6E8FC0DB
:100A6800DEFF90C0DEFF91C0DEFF92C0DEFF892B63
:100A7800030E8919D8A443EF05F045EF05F047EFB9
:100A880005F0000E896F190E116E950E126E5F0E2D
:100A9800136EF80E156E000E146E050EC6EC06F0F9
:100AA800140E4F6E4E8E320E506E4E9C8DEF05F02A
:100AB8004EAE61EF05F063EF05F083EF05F04F06EA
:100AC8004F50D8A46AEF05F06CEF05F083EF05F0FE
:100AD800000E1B6E050E1A6E000E1D6E050E1C6EA6
:100AE800000E1F6E140E1E6E000E216E140E206E68
:100AF800000E236E000E226E76EC08F04E9E500615
:100B08005050D8A48AEF05F08CEF05F08DEF05F072
:100B18004E8C120043EC0BF00D0E1D6E2D0E1C6E4C
:100B2800D80EE82EFED71C2EFCD71D2EFAD7000EA5
:100B3800256E000E246E000E216E660E206EE8EF04
:100B480005F0D8902434F66E2534F76EBF0EF626DD
:100B58005E0EF7220900F5CF22F00A00F5CF23F048
:100B6800244A252AD8902434F66E2534F76EBF0E11
:100B7800F6265E0EF7220900F5CF1EF00A00F5CF23
:100B88001FF0244A252A222806E12328D8A4CFEFDB
:100B980005F0D1EF05F0DEEF05F00D0E1D6E2D0E00
:100BA8001C6ED80EE82EFED71C2EFCD71D2EFAD7A9
:100BB800E8EF05F022C003F023C004F01EC005F0E2
:100BC8001FC006F029EC0AF02050241807E1215034
:100BD8002518D8A4F2EF05F0F4EF05F0A5EF05F01D
:100BE80020EC0BF0000E1B6E000E1A6E06EC0AF0DD
:100BF8001200FEEC07F003C030F004C031F030C042
:100C080003F031C004F0000E066E050E056EB1EC5F
:100C180008F003C030F004C031F03050EF084C6EDB
:100C28003150D8A0E82A00084D6E000E1B6E210E28
:100C38001A6EED0E48241C6EFF0E49201D6E000E24
:100C48001F6ECF0E1E6E000E216E140E206E000E4B
:100C5800236E000E226E76EC08F04AC011F04BC0ED
:100C680012F09BC013F09CC014F04CC015F04DC09E
:100C780016F048C017F049C018F0070E1A6EE00EBB
:100C8800196E6DEC02F04CC04AF04DC04BF048C0F4
:100C98009BF049C09CF04806D8A049064850491026
:100CA800D8A459EF06F05BEF06F063EF06F0010EEB
:100CB800496E8F0E486E48C09BF049C09CF01200E8
:100CC800000E086E06BE6DEF06F06BEF06F073EFD0
:100CD80006F0056C061ED8B0062A010E086E04BE82
:100CE8007AEF06F078EF06F080EF06F0036C041E4A
:100CF800D8B0042A010E081A000E0A6E000E096EFA
:100D080005500610D8B48BEF06F08DEF06F0B5EF5E
:100D180006F0010E076E95EF06F0D89005360636F8
:100D2800072A06AE9AEF06F09CEF06F091EF06F060
:100D3800D89009360A360550035C06500458D8A0E6
:100D4800A8EF06F0AAEF06F0AFEF06F00550035E35
:100D58000650045A0980D89006320532072E9CEFB7
:100D680006F00850D8B4BBEF06F0BDEF06F0C1EFAF
:100D780006F0096C0A1ED8B00A2A09C003F00AC096
:100D880004F01200176E12C0F6FF13C0F7FF080038
:100D9800F5CF18F0124A132A12C0F6FF13C0F7FF56
:100DA8000800F5CF19F0124A132A000E1B6E000E28
:100DB8001A6E1DEF07F0000E1C6E12EF07F01CC034
:100DC80016F0070E1616D8B4ECEF06F0EEEF06F0A4
:100DD800F2EF06F0D8901B32FBEF06F012C0F6FFD8
:100DE80013C0F7FF0800F5CF1BF0124A132A1BA007
:100DF80000EF07F002EF07F011EF07F017C00BF054
:100E08000C6A1C50115C0D6E0E6AD8A00E0614C038
:100E18000FF015C010F04BEC0AF01C2A19501C5C9E
:100E2800D8A019EF07F01BEF07F0E3EF06F01A2A36
:100E3800172A18501A5CD8A024EF07F026EF07F0FD
:100E4800DFEF06F01200000E0B6E000E0C6E000EA7
:100E58000D6E000E0E6E0750081009100A10D8B457
:100E680038EF07F03AEF07F070EF07F0010E0F6E5A
:100E780044EF07F0D8900736083609360A360F2AA5
:100E88000AAE49EF07F04BEF07F03EEF07F0D890B6
:100E98000B360C360D360E360750035C08500458D6
:100EA800095005580A500658D8A05DEF07F05FEFC3
:100EB80007F068EF07F00750035E0850045A09501E
:100EC800055A0A50065A0B80D8900A32093208325D
:100ED80007320F2E4BEF07F00BC003F00CC004F0E5
:100EE8000DC005F00EC006F01200A8EF07F03DC0D7
:100EF80028F03EC029F03FC02AF040C02BF041C086
:100F0800F6FF42C0F7FFF86A070EF76403D008003F
:100F1800F55005D0F6CFE9FFF7CFEAFFEF502C6E7A
:100F280043C02DF044C02EF045C02FF046C030F02D
:100F380047C031F073EC01F04750060DF3503F5EA7
:100F4800F450405A414A422A41C0F6FF42C0F7FFD6
:100F5800F86A070EF76403D00800F55005D0F6CFFD
:100F6800E9FFF7CFEAFFEF500009D8A4BEEF07F07A
:100F7800C0EF07F07BEF07F01200020E046E100EB0
:100F8800036E0BC005F00CC006F029EC0AF0020E47
:100F9800046E110E036E0FC005F010C006F029ECA8
:100FA8000AF0020E046E120E036E0DC005F00EC09C
:100FB80006F029EC0AF0020E046E130E036E11C03F
:100FC80005F012C006F029EC0AF0020E046E000EBD
:100FD800036E0BC005F00CC006F029EC0AF0020EF7
:100FE800046E010E036E11C005F012C006F029EC64
:100FF8000AF01200C30EC216C280C282C2B207EF44
:1010080008F009EF08F002EF08F0C4CF07F0086A0B
:101018000750086E076A000E0716FF0E0816C35021
:101028000712C2908A0E00018E25D96EDA6A000E68
:10103800DA2207C005F008C006F0D890063205325B
:10104800D890063205320550DF6E8E2B040E8E19AD
:10105800D8A431EF08F033EF08F035EF08F0000EB0
:101068008E6F07C003F008C004F01200000E1B6E5C
:10107800000E1A6E06EC0AF0000E3E6E080E3D6E6B
:10108800010E406E860E3F6EEF0E416E5F0E426E91
:10109800FF0E446E4368000E466E000E456E020E4B
:1010A800476E79EC07F0000E126E200E116E000EDE
:1010B800146E000E136E000E166E200E156E010EC5
:1010C800186E900E176EFF0E1A6E19686DEC02F00E
:1010D800010E496E8F0E486E010E00019C6F8F0E37
:1010E8009B6F12001AC00BF01BC00CF01CC00DF057
:1010F8001DC00EF01E501A24246E1F501B20256E92
:10110800FF0E24240F6EFF0E2520106E20501C2485
:10111800266E21501D20276EFF0E2624116EFF0E0D
:101128002720126EC1EC07F022C00BF023C00CF090
:101138001EC003F01FC004F020C005F021C006F057
:101148000DEC0BF003C00DF004C00EF00F6A106A2E
:1011580061EC03F020EC0BF01200000E086E000E9C
:10116800076E05500610D8B4BCEF08F0BEEF08F0C3
:10117800E6EF08F0010E096EC6EF08F0D8900536C4
:101188000636092A06AECBEF08F0CDEF08F0C2EF1D
:1011980008F0D890073608360550035C0650045806
:1011A800D8A0D9EF08F0DBEF08F0E0EF08F0055021
:1011B800035E0650045A0780D89006320532092E7D
:1011C800CDEF08F007C003F008C004F01200D39E6A
:1011D800700ED312FC0ED3169B8EE00E9B16070ED4
:1011E800046E170E036E6A0EE82EFED7032EFCD788
:1011F800042EFAD700D06D966F860B0E926E000EF5
:10120800896EF18E000E936E000E8A6EF00E946E4B
:10121800000E8B6EC290CF0EC116C150F00B0E0996
:10122800C16EC08EC70EC016C050F80B0209C06E42
:10123800CF0EB116B192B180A082F28CF28E12005C
:10124800BC0EF66E160EF76E000EF86E00EE95F0F8
:1012580010EE08F00900F5CFEEFFE550E150FAE195
:10126800C40EF66E160EF76E000EF86E00EE48F01D
:1012780010EE06F00900F5CFEEFFE550E150FAE177
:1012880001EE00F0840EEE6AE806FDE100EE7DF066
:10129800180EEE6AE806FDE1516A506A4F6A4E6A16
:1012A80052905292000EF86E000152EF0BF00C5063
:1012B8000D10D8B462EF09F064EF09F088EF09F077
:1012C800010E0E6E6CEF09F0D8900C360D360E2A12
:1012D8000DAE71EF09F073EF09F068EF09F00C50EB
:1012E8000A5C0D500B58D8A07CEF09F07EEF09F08E
:1012F80082EF09F00C500A5E0D500B5AD8900D324F
:101308000C320E2E73EF09F00AC00AF00BC00BF076
:101318001200000193A993EF09F095EF09F099EFF6
:1013280009F0A7EC0AF00001939993AB9EEF09F03E
:10133800A0EF09F0A4EF09F0DFEC09F00001939B9E
:1013480093A7A9EF09F0ABEF09F0B6EF09F093A363
:10135800B0EF09F0B2EF09F0B6EF09F022EC04F0B3
:10136800000193971200000E066E82AABEEF09F0E4
:10137800C0EF09F0C1EF09F0068282A8C6EF09F0B4
:10138800C8EF09F0C9EF09F006800650D8B4CFEFCE
:1013980009F0D3EF09F0056A052AD4EF09F0056AC8
:1013A8000546000193510518FD0B0518936F06C0FB
:1013B80003F0046A1200B7EC09F0000193A3E7EF09
:1013C80009F0E9EF09F0FAEF09F093B5EEEF09F04B
:1013D800F0EF09F0F4EF09F03AEC08F0000193851A
:1013E800FDEC05F0D8EC04F005EF0AF093A5FFEF4B
:1013F80009F001EF0AF005EF0AF089EC0AF00001A4
:1014080093951200020E046E000E036E000E066E17
:10141800000E056E29EC0AF0020E046E010E036E32
:10142800000E066E000E056E29EC0AF01AC00BF0CD
:101438001BC00CF0000E0D6E770E0E6E010E0F6EB7
:10144800000E106E61EC03F01200829000F08292A0
:101458000450076E03C008F007C081FF809A00F0AF
:10146800808A08C081FF809A00F0808A82820650B4
:10147800096E05C00AF009C081FF809A00F0808AD1
:101488000AC081FF809A00F0808A82801200020ED2
:10149800046E000E036E0BC005F00CC006F029ECBC
:1014A8000AF0020E046E010E036E0DC005F00EC0A8
:1014B80006F029EC0AF0020E046E020E036E0FC04D
:1014C80005F010C006F029EC0AF012000600A0A2F0
:1014D80070EF0AF072EF0AF087EF0AF0A1A277EF37
:1014E8000AF079EF0AF087EF0AF0050E00018F275E
:1014F800000E90239123922333EC0BF0160EB36E5B
:10150800000EB26EA19252921100000E1B6E000ED8
:101518001A6E06EC0AF0000E3E6E460E3D6E010E87
:10152800406E6A0E3F6ED30E416E5F0E426EFF0E26
:10153800446E4368000E466E000E456E020E476EFE
:1015480079EC07F0120000019451070B036E010EAD
:101558000364B1EF0AF0B3EF0AF0B6EF0AF0938B29
:10156800F80E9417EF0E5164BCEF0AF0BEEF0AF0C4
:10157800C1EF0AF09387000E516E120004BEC9EF46
:101588000AF0C7EF0AF0D7EF0AF003C005F004C06D
:1015980006F0051E061E054A062A05C003F006C009
:1015A80004F0DBEF0AF003C003F004C004F01200FB
:1015B800056E000E046E3A0E0560E5EF0AF0E7EFDF
:1015C8000AF0F1EF0AF02F0E0564EDEF0AF0EFEFE5
:1015D8000AF0F1EF0AF0010E046E04C003F00330C4
:1015E8001200B7EC09F003500410D8A4FEEF0AF07B
:1015F80000EF0BF004EF0BF03AEC08F006EF0BF0FD
:1016080089EC0AF0000E0001896F000E8E6F4E8C77
:10161800120003500502F3CF07F0F4CF08F003508F
:101628000602F350082604500502F350082607C0A6
:1016380003F008C004F01200000E0C6E000E0B6ED2
:10164800000E0E6E000E0D6E000E106EEF0E0F6E79
:10165800010E126E8F0E116EC1EC07F01200010E12
:10166800016E00019451070B026E0150022694513D
:101678000218F80B0218946F512A93891200000E71
:10168800936E8280808A80888294200E036E2A0E50
:10169800E82EFED7032EFCD782841200EBEC08F06C
:1016A8008EEC05F0F5EC0AF065EC0BF058EF0BF05A
:1016B80007EF00F0415448300D0A8F018F01EF0009
:0816C800EF008DEC09F01200A7
:1059BE000000000000003E5B4F5B3E3E6B4F6B3EB7
:1059CE001C3E7C3E1C183C7E3C181C577D571C1CF4
:1059DE005E7F5E1C00183C1800FFE7C3E7FF00184F
:1059EE00241800FFE7DBE7FF30483A060E26297938
:1059FE002926407F050507407F05253F5A3CE73C99
:105A0E005A7F3E1C1C08081C1C3E7F14227F221449
:105A1E005F5F005F5F06097F017F006689956A60A0
:105A2E006060606094A2FFA29408047E04081020B7
:105A3E007E201008082A1C08081C2A08081E1010B0
:105A4E0010100C1E0C1E0C30383E3830060E3E0E5A
:105A5E0006000000000000005F00000007000700C5
:105A6E00147F147F14242A7F2A12231308646236AB
:105A7E00495620500008070300001C224100004137
:105A8E00221C002A1C7F1C2A08083E080800807071
:105A9E0030000808080808000060600020100804A4
:105AAE00023E5149453E00427F40007249494946F7
:105ABE002141494D331814127F1027454545393C75
:105ACE004A49493141211109073649494936464962
:105ADE0049291E0000140000004034000000081484
:105AEE0022411414141414004122140802015909FD
:105AFE00063E415D594E7C1211127C7F4949493652
:105B0E003E414141227F4141413E7F494949417FCA
:105B1E00090909013E414151737F0808087F004180
:105B2E007F41002040413F017F081422417F4040C9
:105B3E0040407F021C027F7F0408107F3E4141419E
:105B4E003E7F090909063E4151215E7F091929460A
:105B5E00264949493203017F01033F4040403F1F20
:105B6E002040201F3F4038403F6314081463030455
:105B7E007804036159494D43007F414141020408B5
:105B8E001020004141417F04020102044040404088
:105B9E0040000307080020545478407F28444438BE
:105BAE003844444428384444287F38545454180008
:105BBE00087E090218A4A49C787F08040478004487
:105BCE007D40002040403D007F1028440000417F72
:105BDE0040007C047804787C0804047838444444FB
:105BEE0038FC1824241818242418FC7C08040408F3
:105BFE00485454542404043F44243C4040207C1C0C
:105C0E002040201C3C4030403C44281028444C90FE
:105C1E0090907C4464544C44000836410000007758
:105C2E000000004136080002010204023C26232631
:105C3E003C1EA1A161123A4040207A385454555965
:105C4E00215555794122545478422155547840209B
:105C5E00545579400C1E52721239555555593954B6
:105C6E0054545939555454580000457C410002454E
:105C7E007D420001457C407D1211127DF0282528C1
:105C8E00F07C545545002054547C547C0A097F49BD
:105C9E0032494949323A4444443A324A4848303A01
:105CAE004141217A3A42402078009DA0A07D3D429C
:105CBE0042423D3D4040403D3C24FF2424487E4925
:105CCE0043662B2FFC2F2BFF0929F620C0887E0957
:105CDE000320545479410000447D413048484A32F3
:105CEE00384040227A007A0A0A727D0D19317D26DB
:105CFE0029292F28262929292630484D40203808C1
:105D0E0008080808080808382F10C8ACBA2F102841
:105D1E0034FA00007B000008142A142222142A14DC
:105D2E00085500550055AA55AA55AAFF55FF55FF0F
:105D3E00000000FF00101010FF00141414FF0010DC
:105D4E0010FF00FF1010F010F0141414FC001414C7
:105D5E00F700FF0000FF00FF1414F404FC141417E6
:105D6E00101F10101F101F1414141F00101010F00D
:105D7E00000000001F101010101F10101010F01057
:105D8E00000000FF101010101010101010FF100067
:105D9E000000FF140000FF00FF00001F101700009E
:105DAE00FC04F414141710171414F404F40000FF78
:105DBE0000F714141414141414F700F71414141711
:105DCE001410101F101F141414F4141010F010F0EF
:105DDE0000001F101F0000001F14000000FC140024
:105DEE0000F010F01010FF10FF141414FF14101018
:105DFE00101F00000000F010FFFFFFFFFFF0F0F09B
:105E0E00F0F0FFFFFF0000000000FFFF0F0F0F0F6D
:105E1E000F3844443844FC4A4A4A347E020206068D
:105E2E00027E027E0263554941633844443C04407D
:105E3E007E201E2006027E020299A5E7A5991C2A45
:105E4E00492A1C4C7201724C304A4D4D3030487804
:105E5E004830BC625A463D3E494949007E01010127
:105E6E007E2A2A2A2A2A44445F444440514A444006
:105E7E0040444A51400000FF0103E080FF0000084B
:105E8E00086B6B083612362436060F090F06000013
:105E9E0018180000001010003040FF0101001F0113
:105EAE00011E00191D1712003C3C3C3C0000000076
:105EBE000002070830050736000B07131201000019
:105ECE000102000001030030100800020209000068
:105EDE00000C0000000F0000000001000002010095
:105EEE000003010000FFFF010000019011010127D6
:105EFE0002FFFF01000201BD01FFFF0100030100CF
:105F0E002D81020E00FFFF010000020000010200C1
:105F1E000000030000010307070203060605030045
:105F2E00000603000D070306070803050009030713
:105F3E00000C0300000D030A00100200001102EF16
:105F4E00001202000013028F01000400310104014F
:105F5E000004040000000500000105000002050019
:105F6E0000030500000405000005050000100010E8
:105F7E000011000006200002000700730101000A54
:105F8E00006400E80310271414000000000000F85D
:105F9E00F001FCF903FCFF03FEFF07FEFF07FEFF07
:105FAE0007FEFF07FCFF03FCFF03F8FF01F0FF00F5
:105FBE00E07F00C03F00801F00000F0000060000C1
:105FCE0000000000002A2A2A20436F6C6C6567616E
:105FDE00726520656C657474726F6469202A2A2A52
:105FEE00004672657175656E7A613A0025336400FC
:015FFE0000A2
:020000040020DA
:08000000FFFFFFFFFFFFFFFF00
:020000040030CA
:0E000000200E011EFF0180FF0FC00FE00F4019
:00000001FF
