:020000040000FA
:0400000007EF00F016
:10000800588218ED13F0EAEF13F01F0E2D6E000E54
:100018002E6EE6EF01F0250E3218D8B416EF00F078
:1000280018EF00F022EF00F01BC0D9FF1CC0DAFF68
:1000380032C0DFFF1B4A1C2AE6EF01F0000E316ECA
:10004800000E306E000E2F6E1DC0F6FF1EC0F7FFAB
:100058000800F5503DEC17F0D8A035EF00F037EF69
:1000680000F076EF00F0000E316E000E306E30C0FA
:1000780005F031C006F0000E086E0A0E076E82EC1D
:1000880017F005C030F006C031F0D00E236EFF0E19
:10009800246E1DC0F6FF1EC0F7FF0800F550256E40
:1000A800266A2350252624502622255030262650FD
:1000B80031221D4A1E2A1DC0F6FF1EC0F7FF080088
:1000C800F5503DEC17F0D8B06CEF00F06EEF00F093
:1000D8003BEF00F076EF00F02F8876EF00F02F8CE2
:1000E80096EF00F01DC0F6FF1EC0F7FF1D4A1E2A3E
:1000F8000800F5CF32F03250000AD8B4F7EF01F01B
:10010800640AD8B496EF00F00D0AD8B496EF00F060
:10011800050AD8B470EF00F0190AD8B473EF00F0EC
:10012800E6EF01F02FBC9BEF00F09DEF00F0DAEF57
:1001380000F02FA8A2EF00F0A4EF00F0B6EF00F057
:100148002DC0D9FF2EC0DAFFDECF29F0DECF2AF08E
:10015800DECF2BF0DECF2CF0040E2D26000E2E2243
:10016800C7EF00F02DC0D9FF2EC0DAFFDECF29F08F
:10017800DDCF2AF0000E2ABEFF0E2B6E2C6E020E6B
:100188002D26000E2E222CBECEEF00F0CCEF00F074
:1001980005EF01F0030E2F122C1E2B1E2A1E296CB0
:1001A800000E2A222B222C2205EF01F02FA8DFEFC8
:1001B80000F0E1EF00F0F3EF00F02DC0D9FF2EC002
:1001C800DAFFDECF29F0DECF2AF0DECF2BF0DECF4C
:1001D8002CF0040E2D26000E2E2205EF01F02DC066
:1001E800D9FF2EC0DAFFDECF23F0DDCF24F023C005
:1001F80029F024C02AF02B6A2C6A020E2D26000E44
:100208002E22010E326E3250040DF90EF324F66ED2
:100218005E0EF420F76E0900F550295C0900F550D0
:100228002A580900F5502B580900F5502C58D8B019
:1002380020EF01F022EF01F024EF01F02EEF01F0A2
:10024800322A0A0E3218D8A42CEF01F02EEF01F052
:1002580007EF01F030503110D8B435EF01F037EF27
:1002680001F045EF01F02FC023F0030E2316D8B498
:1002780040EF01F042EF01F045EF01F03006D8A061
:1002880031063250236E246A3050235C2450800A91
:10029800256E3150800A2558D8B055EF01F057EF38
:1002A80001F05DEF01F03250305E000E315A61EF1F
:1002B80001F0000E316E000E306E30503110D8B49F
:1002C80068EF01F06AEF01F07EEF01F01BC0D9FF83
:1002D8001CC0DAFF200EDF6E1B4A1C2A3006D8A08D
:1002E800310630503110D8A47CEF01F07EEF01F0D8
:1002F8006AEF01F02FC023F0030E2316D8B487EF5E
:1003080001F089EF01F091EF01F01BC0D9FF1CC08B
:10031800DAFF2D0EDF6E1B4A1C2A32C027F0286A2E
:10032800D9EF01F027C023F028C024F0D890233655
:100338002436D89023362436F90E2324F66E5E0E22
:100348002420F76E0900F5CF09F00900F5CF0AF06F
:100358000900F5CF0BF00A00F5CF0CF029C005F025
:100368002AC006F02BC007F02CC008F07FEC0FF075
:1003780005C012F006C013F007C014F008C015F04D
:100388000A0E166E000E176E000E186E000E196E0D
:1003980067EC10F01250300F326E1BC0D9FF1CC032
:1003A800DAFF32C0DFFF1B4A1C2A2706D8A028061E
:1003B800272806E12828D8A4E4EF01F0E6EF01F0A9
:1003C80096EF01F01DC0F6FF1EC0F7FF1D4A1E2A5A
:1003D8000800F5CF32F03250D8A4F5EF01F0F7EF6E
:1003E80001F00FEF00F01BC0D9FF1CC0DAFF000EB0
:1003F800DF6E1200000E4C6E4CC040F0416A40BEE9
:1004080041063A50050D2D0E426E590E436EF350BB
:100418004226F4504322405042264150432242C0D3
:10042800F6FF43C0F7FF0800F5CF44F0000E4B6E0F
:1004380044A021EF02F023EF02F079EF02F03F042D
:10044800D8A429EF02F02BEF02F043EF02F0365068
:100458004C240D6E000E4CBEFF0E37200E6E385029
:100468004B240F6E000E4BBEFF0E3920106E3BC0A2
:1004780011F03CC012F018EC0DF0D9EF02F04C501E
:10048800056E066A05BE06063FC007F0086A82ECDC
:1004980017F036500524476E37500620486E4B50EB
:1004A800056E066A05BE06063FC007F0086A82ECBC
:1004B80017F038500524496E395006204A6E47C057
:1004C8001EF048C01FF049C020F04AC021F03FC0CC
:1004D80022F0236A3FC024F0256A3BC026F03CC0C6
:1004E80027F0B5EC11F0D9EF02F03B503D1809E1C7
:1004F8003C503E18D8B483EF02F085EF02F0D9EFF4
:1005080002F03F04D8A48BEF02F08DEF02F0A5EFC4
:1005180002F036504C240D6E000E4CBEFF0E3720F4
:100528000E6E38504B240F6E000E4BBEFF0E392056
:10053800106E3DC011F03EC012F018EC0DF0D9EF6E
:1005480002F04C50056E066A05BE06063FC007F06D
:10055800086A82EC17F036500524476E375006209B
:10056800486E4B50056E066A05BE06063FC007F08A
:10057800086A82EC17F038500524496E3950062075
:100588004A6E47C01EF048C01FF049C020F04AC05C
:1005980021F03FC022F0236A3FC024F0256A3DC005
:1005A80026F03EC027F0B5EC11F04B2AD890443223
:1005B8004B50800A780FD8A0E4EF02F0E6EF02F083
:1005C8001CEF02F04C2A4C50800A7B0FD8A0EFEFAA
:1005D80002F0F1EF02F000EF02F03B503D1809E1A4
:1005E8003C503E18D8B4FBEF02F0FDEF02F044EFA8
:1005F80003F03F04D8A403EF03F005EF03F025EF61
:1006080003F0050E3624456E000E3720466E45C0B1
:1006180017F046C018F038C019F039C01AF045C0B4
:100628001BF046C01CF0070E38241D6E000E392042
:100638001E6E3DC01FF03EC020F084EC04F044EF75
:1006480003F03F50050DF3CF40F0F4CF41F03650A2
:1006580040241E6E375041201F6E38C020F039C02C
:1006680021F03FC022F0236A3F50080DF3CF24F059
:10067800F4CF25F03DC026F03EC027F0B5EC11F0D0
:1006880012006FEF04F0020E066E100E056E0DC01C
:1006980007F00EC008F034EC16F0020E066E110ECC
:1006A800056E11C007F012C008F034EC16F0020E07
:1006B800066E120E056E0FC007F010C008F034EC7D
:1006C80016F0020E066E130E056E13C007F014C066
:1006D80008F034EC16F0020E066E000E056E0DC022
:1006E80007F00EC008F034EC16F0020E066E010E8C
:1006F800056E13C007F014C008F034EC16F083EF51
:1007080004F0020E066E100E056E1350EF08076E09
:100718001450D8A0E82A0008086E34EC16F0020E2F
:10072800066E110E056E0F50EF08076E1050D8A018
:10073800E82A0008086E34EC16F0020E066E120E57
:10074800056E0DC007F00EC008F034EC16F0020E6E
:10075800066E130E056E11C007F012C008F034ECD7
:1007680016F0020E066E000E056E0F50EF08076EAB
:100778001050D8A0E82A0008086E34EC16F0020ED3
:10078800066E010E056E0DC007F00EC008F034ECC1
:1007980016F083EF04F0020E066E100E056E11506F
:1007A800EF08076E1250D8A0E82A0008086E34EC4B
:1007B80016F0020E066E110E056E0D50EF08076E4C
:1007C8000E50D8A0E82A0008086E34EC16F0020E85
:1007D800066E120E056E13508F08076E1450D8A0BF
:1007E800E82A0108086E34EC16F0020E066E130EA5
:1007F800056E0F508F08076E1050D8A0E82A010820
:10080800086E34EC16F0020E066E000E056E0D50E2
:10081800EF08076E0E50D8A0E82A0008086E34ECDE
:1008280016F0020E066E010E056E0F508F08076E49
:100838001050D8A0E82A0108086E34EC16F083EFAF
:1008480004F0020E066E100E056E0FC007F010C001
:1008580008F034EC16F0020E066E110E056E13C089
:1008680007F014C008F034EC16F0020E066E120EF3
:10087800056E11508F08076E1250D8A0E82A01089B
:10088800086E34EC16F0020E066E130E056E0D504F
:100898008F08076E0E50D8A0E82A0108086E34ECBD
:1008A80016F0020E066E000E056E0FC007F010C09F
:1008B80008F034EC16F0020E066E010E056E0D50AF
:1008C8008F08076E0E50D8A0E82A0108086E34EC8D
:1008D80016F083EF04F0C6EC17F0000AD8B447EF1F
:1008E80003F0010AD8B485EF03F0030AD8B4CFEFB8
:1008F80003F0010AD8B425EF04F083EF04F01200E6
:1009080017501B5C056E18501C58066E23EC17F028
:1009180005C021F006C022F019501D5C056E1A5062
:100928001E58066E23EC17F00550215C2250800AF1
:10093800236E0650800A2358D8A0A5EF04F0A8EF2C
:1009480004F0010EA9EF04F0000E326E336A325043
:100958003310D8B4B2EF04F0B4EF04F0CCEF04F0E5
:1009680017C024F018C025F019C017F01AC018F0E5
:1009780024C019F025C01AF01BC026F01CC027F0AF
:100988001DC01BF01EC01CF026C01DF027C01EF0A5
:1009980017501B5C1C50800A216E1850800A215881
:1009A800D8B0D9EF04F0DBEF04F0F3EF04F017C090
:1009B80028F018C029F01BC017F01CC018F028C078
:1009C8001BF029C01CF019C02AF01AC02BF01DC05A
:1009D80019F01EC01AF02AC01DF02BC01EF01750C7
:1009E8001B5C346E18501C58356E19501D5C056E12
:1009F8001A501E58066E23EC17F005C02CF006C0DE
:100A08002DF034C005F035C006F0000E086E020E59
:100A1800076E5DEC0EF005C030F006C031F01D50D9
:100A2800195C1A50800A216E1E50800A2158D8B0CD
:100A380020EF05F022EF05F028EF05F0000E2F6EED
:100A4800010E2E6E68EF05F02E682F6868EF05F02E
:100A580032503310D8B433EF05F035EF05F045EFD9
:100A680005F019C00DF01AC00EF017C00FF018C02D
:100A780010F01FC011F020C012F018EC0DF053EF69
:100A880005F017C00DF018C00EF019C00FF01AC00D
:100A980010F01FC011F020C012F018EC0DF02C500F
:100AA800305E2D50315A31BE5EEF05F05CEF05F037
:100AB80066EF05F02E5019262F501A223450302692
:100AC80035503122174A182A1B50175C1850800AD3
:100AD800216E1C50800A2158D8A075EF05F077EFD9
:100AE80005F02CEF05F01200ACEC14F0F00E00014C
:100AF800CC254F6ED80ECD21506EFF0ECE21516EF3
:100B0800FF0ECF21526E4F50C45D5050C559515001
:100B1800C6595250C759D8B094EF05F096EF05F072
:100B28003EEF06F0CCC0C4F0CDC0C5F0CEC0C6F0D4
:100B3800CFC0C7F075EC15F09C0E05240001A96F15
:100B4800FF0E0620AA6F880E1F6E000E206E200E64
:100B5800216E75EC08F0A9C060F0AAC061F0000E23
:100B68000001636F050E626F880E646F000E656F7B
:100B7800FF0E676FE00E666F080E696F210E686FD3
:100B8800010E6A6F1EEC10F02D0E00018819D8B402
:100B9800D0EF05F0D2EF05F03EEF06F0F4EC11F0DF
:100BA8000001A86F000EAD6FAD51060DF3CF4FF0E9
:100BB800F4CF50F0A9514F24AB6FAA515020AC6F1D
:100BC800A851AD5DD8B0EBEF05F0EDEF05F005EFFE
:100BD80006F0ABC01EF0ACC01FF0000E216E110E67
:100BE800206E000E236E050E226E000E256E0A0E74
:100BF800246EFF0E276EE00E266EB5EC11F034EF72
:100C080006F0ABC01EF0ACC01FF0000E216E110E36
:100C1800206E000E236E050E226E000E256E0A0E43
:100C2800246E080E276E210E266EB5EC11F0ABC0AF
:100C380017F0ACC018F0000E1A6E1A0E196E050ED9
:100C48000001AB251B6E000EAC211C6E000E1E6E43
:100C58001A0E1D6EFF0E206EE00E1F6E84EC04F05F
:100C68000001AD2B040EAD653CEF06F03EEF06F03B
:100C7800D8EF05F012000E501A6E0DC01BF0020ED0
:100C8800066E020E056E0DC007F00EC008F034ECBB
:100C980016F00F06000E105A115A125A829000F0E0
:100CA8000FC013F010C014F011C015F012C016F0E8
:100CB800030E64EF06F0D890163215321432133250
:100CC800E82E5FEF06F013C017F014C018F01B50A1
:100CD8001A18D8A472EF06F074EF06F0D9EF06F0F0
:100CE8008EEF06F0809A00F0808A809A00F0808A61
:100CF800809A00F0808A809A00F0808A809A00F0BA
:100D0800808A809A00F0808A809A00F0808A809A8F
:100D180000F0808A1706D8A01806172806E11828B8
:100D2800D8A499EF06F09BEF06F076EF06F00F5087
:100D3800030B196EA6EF06F0809A00F0808A809A5D
:100D480000F0808A19061928D8A4ADEF06F0AFEF95
:100D580006F0A0EF06F0FEEF06F01AC081FF809AB9
:100D680000F0808A1BC081FF809A00F0808A1AC038
:100D780081FF809A00F0808A1BC081FF809A00F072
:100D8800808A1AC081FF809A00F0808A1BC081FF88
:100D9800809A00F0808A1AC081FF809A00F0808AC9
:100DA8001BC081FF809A00F0808A1706D8A0180619
:100DB800172806E11828D8A4E4EF06F0E6EF06F0B5
:100DC800B1EF06F00F50030B196EF5EF06F01AC0DD
:100DD80081FF809A00F0808A1BC081FF809A00F012
:100DE800808A19061928D8A4FCEF06F0FEEF06F051
:100DF800EBEF06F0828012000001C0AD06EF07F0AD
:100E080008EF07F08BEF07F0000E2F6E000E2E6E26
:100E1800000E316E000E306E010E366EBB0E36249B
:100E2800D96EDA6A000EDA22DF502C6EBA0E36243A
:100E3800D96EDA6A000EDA22DF502D6E2D502C5C46
:100E4800346E356AD8A0350634502E2635502F22F8
:100E580034C005F035C006F023EC17F005503026F5
:100E680006503122362A030E36643DEF07F03FEF75
:100E780007F012EF07F02E50305C326E2F503158C9
:100E8800336E33BE51EF07F0335009E13D0E325C4B
:100E9800D8A051EF07F053EF07F0BDEF07F00001BE
:100EA800BA51040DAE0EF324D96E000EF420DA6E9A
:100EB800CCC0DEFFCDC0DEFFCEC0DEFFCFC0DEFF80
:100EC800BA2B030EBA19D8A46CEF07F06EEF07F02F
:100ED80070EF07F0000EBA6F000E186EB40E176EA2
:100EE800000E1A6E070E196E2D0E1B6E5F0E1C6E0D
:100EF800F80E1E6E000E1D6E4FEC0BF0140E000166
:100F0800C16FC08F320EC26FC09DBDEF07F0C0AF7A
:100F180090EF07F092EF07F0B3EF07F0C107C15168
:100F2800D8A499EF07F09BEF07F0B3EF07F0000E96
:100F38001F6EB40E1E6E000E216E070E206E000E80
:100F4800236E140E226E000E256E140E246E080EEB
:100F5800276E210E266EB5EC11F00001C09FC20766
:100F6800C251D8A4BAEF07F0BCEF07F0BDEF07F005
:100F7800C08D1200000E0001806F000E816F000E00
:100F8800826F000E836F000E866FBAC087F087519C
:100F9800D8B4D1EF07F0D3EF07F0DBEF07F0FF0E7F
:100FA80087257C6F7D6BFF0E7D23DFEF07F0000E3A
:100FB8007D6F020E7C6F7CC087F08751D8B4E7EF55
:100FC80007F0E9EF07F0F1EF07F0FF0E87257E6FD6
:100FD8007F6BFF0E7F23F5EF07F0000E7F6F020E89
:100FE8007E6F7EC085F08551040DAE0EF324D96E58
:100FF800000EF420DA6EDECF6BF0DECF6CF0DECFC1
:101008006DF0DECF6EF08751040DAE0EF324D96E6D
:10101800000EF420DA6EDECF6FF0DECF70F0DECF98
:1010280071F0DECF72F06B516F5D736F6C51705958
:10103800746F6D517159756F6E517259766F735126
:101048008027745181237551822376518323862BFF
:10105800010E866532EF08F034EF08F0CBEF07F0A9
:10106800D8908333823381338033600E056EEA0E65
:10107800066E000E076E000E086E80C009F081C073
:101088000AF082C00BF083C00CF07FEC0FF0055023
:101098000001846F770E1B6E000E1C6EF20E1D6E23
:1010A8005F0E1E6E84C01FF0206A09EC00F0000E6F
:1010B8000001616F870E606F000E636F0A0E626F2A
:1010C800770E646F000E656F070E676FE00E666F30
:1010D800080E696F210E686F020E6A6F1EEC10F021
:1010E8001200B50E186E5F0E196E000E1B6E000E04
:1010F8001A6E1FC01CF020C01DF0200E1E6EEFECF3
:1011080010F01FC010F020C011F0D80E126E5F0E44
:10111800136E20EC0FF010501110D8B496EF08F0B1
:1011280098EF08F007EF09F01FC012F020C013F085
:10113800D60E146E5F0E156E38EC0CF012C023F04C
:1011480013C024F0000E126E000E136ED60E146E2D
:101158005F0E156E38EC0CF012C023F013C024F0AB
:1011680023C012F024C013F0FB0E146E5F0E156E30
:1011780038EC0CF012C023F013C024F023C0D9FFC0
:1011880024C0DAFF300EDE18D8A4CDEF08F0CFEF78
:1011980008F007EF09F0000E126E000E136EFB0E3A
:1011A800146E5F0E156E38EC0CF012C023F013C0ED
:1011B80024F0000E126E000E136EFB0E146E5F0EFE
:1011C800156E38EC0CF012C023F013C024F0234A3B
:1011D800242A23C012F024C013F0F90E146E5F0EF7
:1011E800156E38EC0CF012C023F013C024F01FC0A9
:1011F80005F020C006F023C007F024C008F0D6ECA4
:1012080014F011EF09F01FC005F020C006F0FD0E24
:10121800076E5F0E086ED6EC14F0120011C0D9FFED
:1012280012C0DAFFDF501E6E114A122A200E1E1855
:10123800D8B421EF09F023EF09F012EF09F0090EF5
:101248001E18D8B42AEF09F02CEF09F012EF09F0B4
:10125800000E1A6E000E1B6E000E1C6E000E1D6E28
:10126800000E196E2D0E1E18D8A43DEF09F03FEFA1
:1012780009F04AEF09F0192A11C0D9FF12C0DAFFA4
:10128800DF501E6E114A122A79EF09F02B0E1E1834
:10129800D8A451EF09F053EF09F079EF09F040EFC6
:1012A80009F01AC005F01BC006F01CC007F01DC0ED
:1012B80008F00A0E096E000E0A6E000E0B6E000E84
:1012C8000C6E4FEC13F01EC015F0D00E15261550FD
:1012D80005241A6E000E06201B6E000E07201C6ED9
:1012E800000E08201D6E40EF09F01E503DEC17F06F
:1012F800D8B081EF09F083EF09F055EF09F01950E4
:10130800D8B489EF09F08BEF09F0A6EF09F01AC0FD
:1013180015F01BC016F01CC017F01DC018F0151EE4
:10132800161E171E181E152A000E1622172218221E
:1013380015C011F016C012F017C013F018C014F041
:10134800AEEF09F01AC011F01BC012F01CC013F068
:101358001DC014F01200BF0E186E5F0E196E000E3D
:101368001B6E000E1A6E230E1C6E000E1D6E200ED4
:101378001E6EEFEC10F0230E106E000E116EE70ECD
:10138800126E5F0E136E20EC0FF010501110D8B4CF
:10139800D0EF09F0D2EF09F038EF0AF0230E126E01
:1013A800000E136ED60E146E5F0E156E38EC0CF030
:1013B80012C047F013C048F0000E126E000E136EF4
:1013C800D60E146E5F0E156E38EC0CF012C047F096
:1013D80013C048F047504810D8B4F5EF09F0F7EFBC
:1013E80009F038EF0AF047C011F048C012F012ECCB
:1013F80009F011C043F012C044F013C045F014C006
:1014080046F0000E496E4950040D210EF324F66E85
:101418005F0EF420F76E43500900F51810E14450B0
:101428000900F5180CE145500900F51808E1465087
:101438000900F518D8A423EF0AF025EF0AF02FEFDA
:101448000AF043C01FF044C020F045C021F046C058
:1014580022F040EF0AF0492A020E496436EF0AF0FA
:1014680038EF0AF007EF0AF0000E1F6E000E206E2C
:10147800000E216E000E226E120045EF0AF00B4A94
:101488000C2A0BC0D9FF0CC0DAFF200EDE18D8B426
:1014980050EF0AF052EF0AF043EF0AF00BC0D9FF01
:1014A8000CC0DAFF090EDE18D8B45DEF0AF05FEF62
:1014B8000AF043EF0AF0000E116E000E106E000ED7
:1014C8000F6E0BC0D9FF0CC0DAFF2D0EDE18D8A4A2
:1014D80070EF0AF072EF0AF077EF0AF00F2A0B4A62
:1014E8000C2AA4EF0AF00BC0D9FF0CC0DAFF2B0EB0
:1014F800DE18D8A482EF0AF084EF0AF0A4EF0AF00D
:101508000B4A0C2AA4EF0AF010C005F011C006F02F
:10151800000E086E0A0E076E82EC17F00BC0D9FF9A
:101528000CC0DAFFDF500D6E0D500526000E0622A6
:10153800D00E0524106EFF0E0620116E84EF0AF0FF
:101548000BC0D9FF0CC0DAFFDF503DEC17F0D8B064
:10155800B0EF0AF0B2EF0AF088EF0AF00F50D8B4F3
:10156800B8EF0AF0BAEF0AF0C8EF0AF010C00DF0B1
:1015780011C00EF00D1E0E1E0D4A0E2A0DC00BF0E6
:101588000EC00CF0CCEF0AF010C00BF011C00CF03C
:101598001200AFEC09F01FC094F020C095F021C0F4
:1015A80096F022C097F00001945195119611971169
:1015B800D8A4E1EF0AF0E3EF0AF0E5EF0AF04EEF06
:1015C8000BF0800E1B6E000E1C6E940E1D6E5F0ECF
:1015D8001E6E4AC01FF04BC020F04CC021F04DC019
:1015E80022F009EC00F0800E186E000E196E000E45
:1015F8001B6E000E1A6E600E1C6E000E1D6E200E05
:101608001E6EEFEC10F0FA0E056E000E066E000E60
:10161800076E000E086ECFEC16F0600E056E000E19
:10162800066EF60E076E5F0E086E4EEC14F005504F
:101638000610D8A422EF0BF024EF0BF044EF0BF0C8
:101648004AC012F04BC013F04CC014F04DC015F056
:1016580032EC11F0960E056E000E066E000E076E47
:10166800000E086ECFEC16F026EC15F0E806D8A4AC
:1016780040EF0BF042EF0BF044EF0BF04EEF0BF0A6
:1016880094C012F095C013F096C014F097C015F0EE
:1016980032EC11F012001BC0F6FF1CC0F7FF080067
:1016A800F5CF23F01B4A1C2A1BC0F6FF1CC0F7FF0E
:1016B8000800F5CF24F01B4A1C2A000E256E000EE8
:1016C800226E000E216EB6EF0BF0000E276E000E94
:1016D800266EA4EF0BF0070E26141F6E000E2714BB
:1016E800206E1F502010D8B47CEF0BF07EEF0BF06B
:1016F80082EF0BF0D89025328BEF0BF01BC0F6FF72
:101708001CC0F7FF0800F5CF25F01B4A1C2A25A0AE
:1017180090EF0BF092EF0BF0A2EF0BF0265017248E
:101728000D6E275018200E6E19C00FF01AC010F059
:101738001DC011F01EC012F018EC0DF0264A272A21
:1017480023501F6E206A1F50265C20502758D8A0AF
:10175800B0EF0BF0B2EF0BF06FEF0BF0214A222A3B
:10176800194A1A2A24501F6E206A1F50215C2050E3
:101778002258D8A0C2EF0BF0C4EF0BF069EF0BF0C2
:10178800120031EC12F005C038F006C039F038C04C
:1017980005F039C006F0000E086E050E076E6DECF8
:1017A80012F005C038F006C039F09CEC15F038503E
:1017B800055C0001D66F39500658D76F9CEC15F0C0
:1017C800DF0E0524366EFF0E0620376E56C01EF05B
:1017D80057C01FF0000E216E210E206E000E236EE2
:1017E800140E226E36C024F037C025F0080E276E7E
:1017F800210E266EB5EC11F0D8C017F0D9C018F03C
:10180800D4C019F0D5C01AF056C01BF057C01CF050
:10181800D6C01DF0D7C01EF0070E206EE00E1F6E5A
:1018280084EC04F056C0D8F057C0D9F0D6C0D4F034
:10183800D7C0D5F0564A572A75EC15F056500518FA
:1018480007E157500618D8A42CEF0CF02EEF0CF037
:1018580037EF0CF0000E576E000E566E000E0001AA
:10186800D96F000ED86F120012501310D8A43FEF92
:101878000CF041EF0CF045EF0CF0D0C012F0D1C0E5
:1018880013F012501310D8A44CEF0CF04EEF0CF0DC
:1018980054EF0CF0000E126E000E136EA8EF0CF051
:1018A80012C00BF013C00CF014C00DF015C00EF0F0
:1018B80084EC13F00B5012260C50132212C0D9FFDF
:1018C80013C0DAFFDF50D8A46CEF0CF06EEF0CF009
:1018D80079EF0CF0000E0001D06F000ED16FD0C070
:1018E80012F0D1C013F0A8EF0CF012C00BF013C027
:1018F8000CF014C00DF015C00EF0B7EC13F00B503F
:1019080012240001D06F0C501320D16FD0C0D9FF22
:10191800D1C0DAFFDF50D8B494EF0CF096EF0CF09A
:10192800A0EF0CF0D0C0D9FFD1C0DAFF000EDF6EF7
:10193800D04BD12BA4EF0CF0000ED06F000ED16F5E
:1019480012C012F013C013F01200296EA5EC17F0A4
:101958000D0E246E2D0E236ED80EE82EFED7232EE4
:10196800FCD7242EFAD7000E2D6E000E2C6E000E1A
:10197800286E660E276E04EF0DF0D8902C34F66EA4
:101988002D34F76E2D0EF6265E0EF7220900F5CFE0
:101998002AF00A00F5CF2BF02C4A2D2AD8902C34A7
:1019A800F66E2D34F76E2D0EF6265E0EF722090020
:1019B800F5CF25F00A00F5CF26F02C4A2D2A2A2843
:1019C80006E12B28D8A4EBEF0CF0EDEF0CF0FAEFC2
:1019D8000CF00D0E246E2D0E236ED80EE82EFED7B9
:1019E800232EFCD7242EFAD704EF0DF02AC005F0D9
:1019F8002BC006F025C007F026C008F034EC16F01E
:101A080027502C1807E128502D18D8A40EEF0DF0F8
:101A180010EF0DF0C1EF0CF021C01EF022C01FF036
:101A280029506EEC17F0120052EF0DF00DC013F0B4
:101A38000EC014F00FC015F010C016F066EF0DF0D0
:101A48000F50EF08136E1050D8A0E82A0008146E43
:101A58000DC015F00EC016F066EF0DF00D50EF0832
:101A6800136E0E50D8A0E82A0008146E0F508F0885
:101A7800156E1050D8A0E82A0108166E66EF0DF012
:101A88000FC013F010C014F00D508F08156E0E50D3
:101A9800D8A0E82A0108166E66EF0DF0C6EC17F01C
:101AA800000AD8B41AEF0DF0010AD8B424EF0DF0EB
:101AB800030AD8B432EF0DF0010AD8B444EF0DF0A0
:101AC80066EF0DF0020E066E000E056E13C007F0ED
:101AD80014C008F034EC16F0020E066E010E056E06
:101AE80015C007F016C008F034EC16F0020E066EAA
:101AF800020E056E11C007F012C008F034EC16F0A3
:101B08001200E0EF0DF009C0F6FF0AC0F7FFF86A0F
:101B1800070EF76403D00800F55005D0F6CFE1FFB3
:101B2800F7CFE2FFE7500009D8B49DEF0DF09FEF23
:101B38000DF0BEEF0DF00BC0F6FF0CC0F7FF08006C
:101B4800F5CF0FF009C0F6FF0AC0F7FFF86A070ED5
:101B5800F76403D00800F55005D0F6CFE1FFF7CFC2
:101B6800E2FFE7500F18D8B4BCEF0DF0BEEF0DF050
:101B7800DCEF0DF009C0F6FF0AC0F7FFF86A070EA0
:101B8800F76403D00800F55005D0F6CFE1FFF7CF92
:101B9800E2FFE7500F6E0BC0F6FF0CC0F7FF08001E
:101BA800F5500F5C096E0A6AD8A00A06F1EF0DF02D
:101BB800094A0A2A0B4A0C2A0D06D8A00E060D2837
:101BC80006E10E28D8A4EBEF0DF0EDEF0DF087EF4E
:101BD8000DF0000E0A6E000E096E120011C005F01D
:101BE80012C006F0000E086E000E076E13C009F052
:101BF8000A6AECEC16F014C00FF015C010F0EAEC0D
:101C080015F0176E1750D8A40CEF0EF00EEF0EF06B
:101C180011EF0EF0000E5CEF0EF00D0E1718D8B491
:101C280018EF0EF01AEF0EF0FFEF0DF00A0E17186E
:101C3800D8B421EF0EF023EF0EF0FFEF0DF0000EF9
:101C4800166E0D0E1718D8B42CEF0EF02EEF0EF0FE
:101C58005BEF0EF01750D8A434EF0EF036EF0EF00D
:101C680038EF0EF05BEF0EF016501124D96E000E0F
:101C78001220DA6E17C0DFFF162A13501618D8A4E0
:101C880048EF0EF04AEF0EF04CEF0EF05BEF0EF05F
:101C980014C00FF015C010F0EAEC15F0176E1750CD
:101CA800D8A459EF0EF05BEF0EF025EF0EF01650AA
:101CB8001200000E0A6E08BE66EF0EF064EF0EF01A
:101CC8006CEF0EF0076C081ED8B0082A010E0A6ED9
:101CD80006BE73EF0EF071EF0EF079EF0EF0056CA3
:101CE800061ED8B0062A010E0A1A000E0C6E000E47
:101CF8000B6E07500810D8B484EF0EF086EF0EF084
:101D0800AEEF0EF0010E096E8EEF0EF0D89007368A
:101D18000836092A08AE93EF0EF095EF0EF08AEF19
:101D28000EF0D8900B360C360750055C0850065854
:101D3800D8A0A1EF0EF0A3EF0EF0A8EF0EF0075019
:101D4800055E0850065A0B80D89008320732092ED3
:101D580095EF0EF00A50D8B4B4EF0EF0B6EF0EF0CF
:101D6800BAEF0EF00B6C0C1ED8B00C2A0BC005F0A5
:101D78000CC006F01200C80E186E5F0E196E000E29
:101D88001B6E000E1A6E1F0E1C6E000E1D6E200EAE
:101D98001E6EEFEC10F01F0E106E000E116EE00EAE
:101DA800126E5F0E136E20EC0FF010501110D8B4A5
:101DB800E0EF0EF0E2EF0EF01EEF0FF01F0E126EC6
:101DC800000E136ED60E146E5F0E156E38EC0CF006
:101DD80012C03FF013C040F0000E126E000E136EDA
:101DE800D60E146E5F0E156E38EC0CF012C03FF074
:101DF80013C040F03F504010D8B405EF0FF007EF84
:101E08000FF01EEF0FF03FC012F040C013F0FB0EB2
:101E1800146E5F0E156E38EC0CF012C03FF013C054
:101E280040F03FC00BF040C00CF041EC0AF00B5002
:101E38001FEF0FF0000E120059EF0FF010C009F05D
:101E480011C00AF012C00BF013C00CF012C005F05C
:101E580013C006F0C3EC15F005C00DF006C00EF077
:101E680085EC0DF009500A10D8A43DEF0FF03FEFB4
:101E78000FF045EF0FF010C010F011C011F07EEF19
:101E88000FF0010E1024056E000E1120066E12C010
:101E9800F6FF13C0F7FF0800F550076E086A74ECE8
:101EA80011F005C010F006C011F010501110D8B490
:101EB80060EF0FF062EF0FF07AEF0FF010C0F6FF4F
:101EC80011C0F7FFF86A070EF76403D00800F55051
:101ED80005D0F6CFE1FFF7CFE2FFE7500009D8A41D
:101EE80078EF0FF07AEF0FF022EF0FF0000E106E80
:101EF800000E116E1200000E0D6E000E0E6E000E1A
:101F08000F6E000E106E09500A100B100C10D8B48A
:101F180090EF0FF092EF0FF0C8EF0FF0010E116E77
:101F28009CEF0FF0D89009360A360B360C36112A7A
:101F38000CAEA1EF0FF0A3EF0FF096EF0FF0D890D3
:101F48000D360E360F3610360950055C0A50065805
:101F58000B5007580C500858D8A0B5EF0FF0B7EF42
:101F68000FF0C0EF0FF00950055E0A50065A0B50EB
:101F7800075A0C50085A0D80D8900C320B320A328E
:101F88000932112EA3EF0FF00DC005F00EC006F0B8
:101F98000FC007F010C008F01200080E1D6E210EC9
:101FA8001C6E7EEC14F0000E0001616F080E606F6D
:101FB800000E636F0A0E626FA00E646F5F0E656F8E
:101FC800FF0E676F6669080E696F210E686F020E53
:101FD8006A6F1EEC10F0000E186E000E176E000EE1
:101FE8001A6E200E196E75EC15F005C01BF006C0B0
:101FF8001CF0000E1E6E200E1D6EFF0E206E1F6858
:1020080084EC04F0000E576E000E566E000E0001B0
:10201800D96F000ED86F9CEC15F0D89006304D6E35
:1020280005300001D66F4DC0D7F0D6C0D4F0D7C068
:10203800D5F012004EEF10F060C036F061C037F0F6
:1020480062C038F063C039F064C0F6FF65C0F7FFBE
:10205800F86A070EF76403D00800F55005D0F6CFEC
:10206800E1FFF7CFE2FFE7503A6E66C03BF067C08A
:102078003CF068C03DF069C03EF06AC03FF0FEEC3D
:1020880001F000016A51060DF3506027F4506123F6
:10209800644B652B64C0F6FF65C0F7FFF86A070E4E
:1020A800F76403D00800F55005D0F6CFE1FFF7CF6D
:1020B800E2FFE7500009D8A464EF10F066EF10F0D3
:1020C80020EF10F012001650171018101910D8B47D
:1020D80070EF10F072EF10F0A2EF10F0010E1A6E10
:1020E8007CEF10F0D89016361736183619361A2A9B
:1020F80019AE81EF10F083EF10F076EF10F0165064
:10210800125C175013581850145819501558D8A065
:1021180090EF10F092EF10F09AEF10F01650125E58
:102128001750135A1850145A1950155AD890193272
:102138001832173216321A2E83EF10F012C012F02E
:1021480013C013F014C014F015C015F01200055098
:102158000610D8A4B2EF10F0B4EF10F0B8EF10F0FA
:10216800030E066EE80E056E05C007F006C008F0FF
:10217800000E08BEFF0E096E0A6E0001CC5107243E
:102188000B6ECD5108200C6ECE5109200D6ECF512B
:102198000A200E6EE3EF10F00001CC510B5CCD511C
:1021A8000C58CE510D58CF510E58D8B0DEEF10F064
:1021B800E0EF10F0E3EF10F0000EEEEF10F0010189
:1021C80000510119D8B4EBEF10F0EDEF10F0D0EF9B
:1021D80010F0010E12004B0E0001C827000EC92393
:1021E800CA23CB23C851CC5DC951CD59CA51CE5948
:1021F800CB51CF59D8A003EF11F005EF11F0F6EF4E
:1022080010F0CCC0C8F0CDC0C9F0CEC0CAF0CFC065
:10221800CBF0C3EC17F018C009F019C00AF018C0C9
:1022280005F019C006F0C3EC15F005500B6E56EC1E
:1022380016F01E50D8B423EF11F025EF11F031EF4E
:1022480011F01CC011F01DC012F01EC013F01AC00E
:1022580014F01BC015F0F2EC0DF01200AC98AC8431
:10226800B886000E056E6C0E066EDC0E076E020E4A
:10227800086E12C009F013C00AF014C00BF015C0A4
:102288000CF07FEC0FF005C01AF006C01BF007C079
:102298001CF008C01DF01AC016F01BC017F01CC0B7
:1022A80018F01DC019F0030E5FEF11F0D890193225
:1022B800183217321632E82E5AEF11F016C01AF0FB
:1022C80017C01BF018C01CF019C01DF01A06000E2C
:1022D8001B5A1C5A1D5A1AC0AFFF1BC0B0FF120070
:1022E80005C0F6FF06C0F7FFF86A070EF76403D0CB
:1022F8000800F55005D0F6CFE1FFF7CFE2FFE75031
:102308000718D8A48AEF11F08CEF11F092EF11F0B2
:1023180005C005F006C006F0B4EF11F00550096ECF
:1023280006500A6E054A062A09C0F6FF0AC0F7FFDA
:10233800F86A070EF76403D00800F55005D0F6CF09
:10234800E1FFF7CFE2FFE7500009D8A4AEEF11F0A4
:10235800B0EF11F074EF11F0000E056E000E066E6E
:1023680012001EC00DF01FC00EF020C00FF021C0DB
:1023780010F022501E24286E23501F20296EFF0EB5
:102388002824116EFF0E2920126E245020242A6E54
:10239800255021202B6EFF0E2A24136EFF0E2B20B2
:1023A800146E45EC03F026C00DF027C00EF022C0D5
:1023B80005F023C006F024C007F025C008F082EC21
:1023C80017F005C00FF006C010F0116A126A3FEC52
:1023D80006F0000E1D6E000E1C6E7EEC14F012004E
:1023E800BFEC0EF0416E630E4118D8A4FEEF11F059
:1023F80000EF12F003EF12F0FF0E30EF12F0030EB1
:10240800416009EF12F00BEF12F00EEF12F0000E20
:1024180030EF12F00A0E416014EF12F016EF12F0CE
:1024280019EF12F0010E30EF12F00F0E41601FEF9E
:1024380012F021EF12F024EF12F0020E30EF12F03A
:10244800140E41602AEF12F02CEF12F02FEF12F069
:10245800030E30EF12F0040E1200C30EC216C28033
:10246800C282C2B23AEF12F03CEF12F035EF12F02E
:10247800C4CF09F00A6A09500A6E096A000E0916E3
:10248800FF0E0A16C3500912C290BB0E0001BF25E9
:10249800D96EDA6A000EDA2209C007F00AC008F01D
:1024A800D89008320732D890083207320750DF6ECA
:1024B800BF2B040EBF19D8A464EF12F066EF12F018
:1024C80068EF12F0000EBF6F09C005F00AC006F0F1
:1024D8001200000E0A6E000E096E07500810D8B4DC
:1024E80078EF12F07AEF12F0A2EF12F0010E0B6EF5
:1024F80082EF12F0D890073608360B2A08AE87EF1D
:1025080012F089EF12F07EEF12F0D89009360A36F1
:102518000750055C08500658D8A095EF12F097EFC1
:1025280012F09CEF12F00750055E0850065A098019
:10253800D890083207320B2E89EF12F009C005F047
:102548000AC006F01200D39E700ED312FC0ED316EA
:102558009B8EE00E9B16070E066E170E056E6A0E12
:10256800E82EFED7052EFCD7062EFAD700D06D969A
:102578006F860B0E926E000E896EF18E000E936EB2
:10258800000E8A6EF00E946E000E8B6EC290CF0E07
:10259800C116C150F00B0E09C16EC08EC70EC01611
:1025A800C050F80B0209C06ECF0EB116B192B180BF
:1025B800A082F28CF28E1200000E3F6E3F50040D86
:1025C800210EF324F66E5F0EF420F76E0900F5CFA6
:1025D80012F00900F5CF13F00900F5CF14F00A0046
:1025E800F5CF15F032EC11F026EC15F0E806D8A47A
:1025F80000EF13F002EF13F004EF13F017EF13F0EE
:10260800640E056E000E066E000E076E000E086E54
:10261800CFEC16F03F2A020E3F6415EF13F017EFC8
:1026280013F0E2EF12F012000600D9CF03F0DACF70
:1026380004F0A0A222EF13F024EF13F039EF13F007
:10264800A1A229EF13F02BEF13F039EF13F0050EC9
:102658000001CC27000ECD23CE23CF2395EC17F015
:10266800160EB36E000EB26EA1929DAA3EEF13F045
:1026780040EF13F049EF13F09EAA45EF13F047EF30
:1026880013F049EF13F01CEC14F004C0DAFF03C098
:10269800D9FF58921100000E0D6E000E0E6E000E3E
:1026A8000F6E000E106E05A05CEF13F05EEF13F0D6
:1026B80066EF13F009500D260A500E220B500F2218
:1026C8000C501022D89009360A360B360C36D890A2
:1026D8000832073206320532055006100710081076
:1026E800D8A479EF13F07BEF13F057EF13F00DC078
:1026F80005F00EC006F00FC007F010C008F0120079
:10270800000E116E000E106E8EEF13F00B4A0C2A9D
:10271800104A112A0BC0D9FF0CC0DAFFDF50D8B419
:1027280098EF13F09AEF13F0B2EF13F00DC005F025
:102738000EC006F00BC0D9FF0CC0DAFFDF500F6ED9
:102748000F50076E086A74EC11F005500610D8A4F3
:10275800B0EF13F0B2EF13F08AEF13F010C00BF0E4
:1027680011C00CF01200000E116E000E106EC1EFB9
:1027780013F00B4A0C2A104A112A0BC0D9FF0CC0BF
:10278800DAFFDF50D8B4CBEF13F0CDEF13F0E5EF5D
:1027980013F00DC005F00EC006F00BC0D9FF0CC039
:1027A800DAFFDF500F6E0F50076E086A74EC11F0F5
:1027B80005500610D8B4E3EF13F0E5EF13F0BDEFC2
:1027C80013F010C00BF011C00CF01200800EF66E62
:1027D8002F0EF76E000EF86E00EED4F010EE06F035
:1027E8000900F5CFEEFFE550E150FAE1900EF66EE4
:1027F8002F0EF76E000EF86E0900F5CF56F009009F
:10280800F5CF57F001EE00F0820EEE6AE806FDE122
:1028180000EEAEF0260EEE6AE806FDE1556A546A4F
:10282800536A58905892000EF86E000195EF16F012
:10283800AECF02F0ABA223EF14F025EF14F038EF7F
:1028480014F0AB98AB8880A42CEF14F030EF14F0A0
:10285800016A012A31EF14F0016A014601468050ED
:102868000118FB0B0118806E0101012B800E011964
:10287800D8A441EF14F043EF14F045EF14F0000E24
:10288800016F020E0125D96EDA6A010EDA2202C042
:10289800DFFF120054EF14F0054A062A074A082AF7
:1028A80007C0F6FF08C0F7FF0800F5CF09F005C01C
:1028B800D9FF06C0DAFFDF500A6E09500A5C0B6EBA
:1028C8000B50D8A46AEF14F06CEF14F078EF14F002
:1028D80005C0D9FF06C0DAFFDF50D8A476EF14F0A0
:1028E80078EF14F050EF14F00B50056E066A05BE31
:1028F80006061200000E0E6E000E0D6E000E106E13
:10290800000E0F6E75EC15F005C011F006C012F040
:102918009CEC15F005C013F006C014F045EC03F06C
:102928001C501D10D8B49BEF14F09DEF14F0ABEFC2
:1029380014F01CC00DF01DC00EF0000E0F6E770EC7
:10294800106E010E116E000E126E3FEC06F01200B2
:102958000001D2A9B2EF14F0B4EF14F0B8EF14F0FC
:1029680008EC17F00001D299D2ABBDEF14F0BFEF1D
:1029780014F0C3EF14F04EEC15F00001D29BD2A76F
:10298800C8EF14F0CAEF14F0D5EF14F0D2A3CFEFCC
:1029980014F0D1EF14F0D5EF14F0BEEC07F00001FD
:1029A800D297120005C009F006C00AF0E0EF14F053
:1029B800094A0A2A074A082A07C0F6FF08C0F7FF8B
:1029C800F86A09C0D9FF0AC0DAFF070EF76403D016
:1029D8000800F55005D0F6CFE1FFF7CFE2FFE7504A
:1029E800DF6EDF50D8A4FBEF14F0FDEF14F0DCEF3E
:1029F80014F01200000E086E82AA05EF15F007EF1A
:102A080015F008EF15F0088282A80DEF15F00FEF0A
:102A180015F010EF15F008800850D8B416EF15F02F
:102A28001AEF15F0076A072A1BEF15F0076A074621
:102A38000001D2510718FD0B0718D26F08C005F026
:102A4800066A1200EE0E186E5F0E196E000E1B6EEF
:102A5800000E1A6E1F0E1C6E000E1D6E200E1E6ECE
:102A6800EFEC10F01F0E056E000E066EF60E076EE8
:102A78005F0E086E4EEC14F005500610D8A447EF10
:102A880015F049EF15F04CEF15F0010E4DEF15F06C
:102A9800000E1200FEEC14F00001D2A356EF15F060
:102AA80058EF15F069EF15F0D2B55DEF15F05FEF4F
:102AB80015F063EF15F0D1EC0FF00001D285C5ECED
:102AC8000BF000EC07F074EF15F0D2A56EEF15F0DF
:102AD80070EF15F074EF15F076EC16F00001D29552
:102AE800120083EF15F0000E066EEF0E056E9BEFD9
:102AF80015F0010E066E8F0E056E9BEF15F0C6ECF5
:102B080017F0000AD8B477EF15F0010AD8B47DEFB2
:102B180015F0030AD8B477EF15F0010AD8B47DEFA1
:102B280015F097EF15F0000E066E000E056E1200F8
:102B3800AAEF15F0010E066E8F0E056EC2EF15F0A6
:102B4800000E066EEF0E056EC2EF15F0C6EC17F01C
:102B5800000AD8B49EEF15F0010AD8B4A4EF15F016
:102B6800030AD8B49EEF15F0010AD8B4A4EF15F003
:102B7800BEEF15F0000E066E000E056E120005C0C1
:102B880007F006C008F0CBEF15F0074A082A07C07F
:102B9800F6FF08C0F7FFF86A070EF76403D00800CD
:102BA800F55005D0F6CFE1FFF7CFE2FFE750000977
:102BB800D8A4E1EF15F0E3EF15F0C9EF15F00550D3
:102BC800075C056E06500858066E12000FC005F027
:102BD80010C006F0ABEC10F00009D8A4F6EF15F021
:102BE800F8EF15F0FBEF15F0000E0FEF16F00101EE
:102BF800002B800E0019D8A404EF16F006EF16F08B
:102C080008EF16F0000E006F020E0025D96EDA6A82
:102C1800010EDA22DF501200AC9CAC8AAC98AC965C
:102C2800AC84AB8EAB9CAB88B886B892B890040ED7
:102C3800B06EE10EAF6E9D8A000E0101006F000EAE
:102C4800016F020E056E010E066E000E086E000E74
:102C5800076E000E0A6E800E096EECEC16F012007C
:102C6800829000F082920650096E05C00AF009C0F1
:102C780081FF809A00F0808A0AC081FF809A00F064
:102C8800808A828208500B6E07C00CF00BC081FF4F
:102C9800809A00F0808A0CC081FF809A00F0808AB8
:102CA800828012006CEF16F009C0F6FF0AC0F7FF29
:102CB800F86A070EF76403D00800F55005D0F6CF80
:102CC800E1FFF7CFE2FFE750B4EC17F0094A0A2A10
:102CD8000B060B28D8A473EF16F075EF16F058EF13
:102CE80016F01200080E1D6E210E1C6E7EEC14F0FC
:102CF800000E0001616F240E606F000E636F4B0EB3
:102D0800626F6B0E646F5F0E656FFF0E676F6669AB
:102D1800080E696F210E686F020E6A6F1EEC10F0C4
:102D28001200A7EC12F0080E226E210E216E030E7F
:102D3800A9EC0CF010EC16F056EC17F0000E4E6EE5
:102D4800C20E4F6E010E506E000E516EB2EC16F0B0
:102D580078EC05F0ACEF16F007EF00F0E0EC12F0BD
:102D68004EC04AF04FC04BF050C04CF051C04DF02F
:102D7800CDEC0AF0870E186E5F0E196E000E1B6EF2
:102D8800000E1A6E000E1C6E000E1D6E000E1E6EDA
:102D9800EFEC10F0120005500001CC25096E06502A
:102DA800CD210A6E0750CE210B6E0850CF210C6E34
:102DB8000950CC5D0A50CD590B50CE590C50CF5903
:102DC800D8A0E9EF16F0EBEF16F0DCEF16F01200E2
:102DD80005C00BF006C00CF0FAEF16F00BC0D9FFD7
:102DE8000CC0DAFF07C0DFFF0B4A0C2A0906D8A07F
:102DF8000A06092806E10A28D8A405EF17F007EF04
:102E080017F0F2EF16F012000001D351070B056E10
:102E1800010E056412EF17F014EF17F017EF17F013
:102E2800D28BF80ED317EF0EC3651DEF17F01FEF07
:102E380017F022EF17F0D287000EC36F120006BEFC
:102E48002AEF17F028EF17F038EF17F005C007F052
:102E580006C008F0071E081E074A082A07C005F022
:102E680008C006F03CEF17F005C005F006C006F0F4
:102E78001200076E000E066E3A0E076046EF17F056
:102E880048EF17F052EF17F02F0E07644EEF17F0C8
:102E980050EF17F052EF17F0010E066E06C005F05E
:102EA80005301200FEEC14F005500610D8A45FEFB0
:102EB80017F061EF17F065EF17F0D1EC0FF067EF3F
:102EC80017F076EC16F0000E0001BA6F000EBF6F17
:102ED800C08D1200206E030E206475EF17F077EF97
:102EE80017F079EF17F0000E206E20C055F01EC0C5
:102EF8001CF01FC01DF07EEC14F0120005500702F4
:102F0800F3CF09F0F4CF0AF005500802F3500A266F
:102F180006500702F3500A2609C005F00AC006F059
:102F28001200010E016E0001D351070B026E015011
:102F38000226D3510218F80B0218D36FC32BD2897B
:102F48001200000E936E8280808A80888294200E00
:102F5800056E2A0EE82EFED7052EFCD782841200B5
:102F6800056E9EA8BAEF17F0BCEF17F0B5EF17F093
:102F780005C0ADFF00F012008F018F01EF0001C105
:0A2F880000F1120055501200EF0096
:10592C000000000000003E5B4F5B3E3E6B4F6B3E49
:10593C001C3E7C3E1C183C7E3C181C577D571C1C86
:10594C005E7F5E1C00183C1800FFE7C3E7FF0018E1
:10595C00241800FFE7DBE7FF30483A060E262979CA
:10596C002926407F050507407F05253F5A3CE73C2B
:10597C005A7F3E1C1C08081C1C3E7F14227F2214DC
:10598C005F5F005F5F06097F017F006689956A6033
:10599C006060606094A2FFA29408047E040810204A
:1059AC007E201008082A1C08081C2A08081E101043
:1059BC0010100C1E0C1E0C30383E3830060E3E0EED
:1059CC0006000000000000005F0000000700070058
:1059DC00147F147F14242A7F2A122313086462363E
:1059EC00495620500008070300001C2241000041CA
:1059FC00221C002A1C7F1C2A08083E080800807004
:105A0C003000080808080800006060002010080436
:105A1C00023E5149453E00427F4000724949494689
:105A2C002141494D331814127F1027454545393C07
:105A3C004A494931412111090736494949364649F4
:105A4C0049291E0000140000004034000000081416
:105A5C00224114141414140041221408020159098F
:105A6C00063E415D594E7C1211127C7F49494936E4
:105A7C003E414141227F4141413E7F494949417F5D
:105A8C00090909013E414151737F0808087F004113
:105A9C007F41002040413F017F081422417F40405C
:105AAC0040407F021C027F7F0408107F3E41414131
:105ABC003E7F090909063E4151215E7F091929469D
:105ACC00264949493203017F01033F4040403F1FB3
:105ADC002040201F3F4038403F63140814630304E8
:105AEC007804036159494D43007F41414102040848
:105AFC001020004141417F0402010204404040401B
:105B0C0040000307080020545478407F2844443850
:105B1C003844444428384444287F3854545418009A
:105B2C00087E090218A4A49C787F08040478004419
:105B3C007D40002040403D007F1028440000417F04
:105B4C0040007C047804787C08040478384444448D
:105B5C0038FC1824241818242418FC7C0804040885
:105B6C00485454542404043F44243C4040207C1C9E
:105B7C002040201C3C4030403C44281028444C9091
:105B8C0090907C4464544C440008364100000077EB
:105B9C000000004136080002010204023C262326C4
:105BAC003C1EA1A161123A4040207A3854545559F8
:105BBC00215555794122545478422155547840202E
:105BCC00545579400C1E5272123955555559395449
:105BDC0054545939555454580000457C41000245E1
:105BEC007D420001457C407D1211127DF028252854
:105BFC00F07C545545002054547C547C0A097F4950
:105C0C0032494949323A4444443A324A4848303A93
:105C1C004141217A3A42402078009DA0A07D3D422E
:105C2C0042423D3D4040403D3C24FF2424487E49B7
:105C3C0043662B2FFC2F2BFF0929F620C0887E09E9
:105C4C000320545479410000447D413048484A3285
:105C5C00384040227A007A0A0A727D0D19317D266D
:105C6C0029292F28262929292630484D4020380853
:105C7C0008080808080808382F10C8ACBA2F1028D4
:105C8C0034FA00007B000008142A142222142A146F
:105C9C00085500550055AA55AA55AAFF55FF55FFA2
:105CAC00000000FF00101010FF00141414FF00106F
:105CBC0010FF00FF1010F010F0141414FC0014145A
:105CCC00F700FF0000FF00FF1414F404FC14141779
:105CDC00101F10101F101F1414141F00101010F0A0
:105CEC00000000001F101010101F10101010F010EA
:105CFC00000000FF101010101010101010FF1000FA
:105D0C000000FF140000FF00FF00001F1017000030
:105D1C00FC04F414141710171414F404F40000FF0A
:105D2C0000F714141414141414F700F714141417A3
:105D3C001410101F101F141414F4141010F010F081
:105D4C0000001F101F0000001F14000000FC1400B6
:105D5C0000F010F01010FF10FF141414FF141010AA
:105D6C00101F00000000F010FFFFFFFFFFF0F0F02D
:105D7C00F0F0FFFFFF0000000000FFFF0F0F0F0F00
:105D8C000F3844443844FC4A4A4A347E0202060620
:105D9C00027E027E0263554941633844443C044010
:105DAC007E201E2006027E020299A5E7A5991C2AD8
:105DBC00492A1C4C7201724C304A4D4D3030487897
:105DCC004830BC625A463D3E494949007E010101BA
:105DDC007E2A2A2A2A2A44445F444440514A444099
:105DEC0040444A51400000FF0103E080FF000008DE
:105DFC00086B6B083612362436060F090F060000A6
:105E0C0018180000001010003040FF0101001F01A5
:105E1C00011E00191D1712003C3C3C3C0000000008
:105E2C000002070830050736000B071312010000AB
:105E3C0001020000010300301008000202090000FA
:105E4C00000C0000000F0000000001000002010027
:105E5C000003010000FFFF01000001901101012768
:105E6C0002FFFF01000201BD01FFFF010003010061
:105E7C002D81020E00FFFF01000002000001020054
:105E8C0000000300000103070702030606050300D8
:105E9C00000603000D0703060708030500090307A6
:105EAC00000C0300000D030A00100200001102EFA9
:105EBC00001202000013028F0100040031010401E2
:105ECC0000040400000005000001050000020500AC
:105EDC00000305000004050000050500001000107B
:105EEC0000110000062000020007007301010000F1
:105EFC00000A00000064000000E803000010270006
:105F0C0000A086010040420F008096980000E1F549
:105F1C000500CA9A3B8025000000E1000000C20188
:105F2C00001414000000000000F8F001FCF903FC60
:105F3C00FF03FEFF07FEFF07FEFF07FEFF07FCFF48
:105F4C0003FCFF03F8FF01F0FF00E07F00C03F00FF
:105F5C00801F00000F000006000000000000002A57
:105F6C002A2A20436F6C6C656761726520656C65CD
:105F7C007474726F6469202A2A2A0041542B434F8F
:105F8C0050533D332C300D0041542B4950523D257C
:105F9C006C750D004672657175656E7A613A0041DB
:105FAC00542B435245473F0D0041542B434F505304
:105FBC003F0D0041542B4950523F0D0041542B438F
:105FCC0053510D002B435245473A20002B434F5061
:105FDC00533A20002B4353513A20002B4950523A4C
:105FEC00200041540D00253364004F4B0022002C3F
:045FFC00002D000074
:020000040020DA
:08000000FFFFFFFFFFFFFFFF00
:020000040030CA
:0E000000200E011EFF0180FF0FC00FE00F4019
:00000001FF
