:020000040000FA
:0400000007EF00F016
:10000800578230ED13F002EF14F01F0E2D6E000E24
:100018002E6EE6EF01F0250E3218D8B416EF00F078
:1000280018EF00F022EF00F01BC0D9FF1CC0DAFF68
:1000380032C0DFFF1B4A1C2AE6EF01F0000E316ECA
:10004800000E306E000E2F6E1DC0F6FF1EC0F7FFAB
:100058000800F55055EC17F0D8A035EF00F037EF51
:1000680000F076EF00F0000E316E000E306E30C0FA
:1000780009F031C00AF0000E0C6E0A0E0B6E9AECF5
:1000880017F009C030F00AC031F0D00E236EFF0E11
:10009800246E1DC0F6FF1EC0F7FF0800F550256E40
:1000A800266A2350252624502622255030262650FD
:1000B80031221D4A1E2A1DC0F6FF1EC0F7FF080088
:1000C800F55055EC17F0D8B06CEF00F06EEF00F07B
:1000D8003BEF00F076EF00F02F8876EF00F02F8CE2
:1000E80096EF00F01DC0F6FF1EC0F7FF1D4A1E2A3E
:1000F8000800F5CF32F03250000AD8B4F7EF01F01B
:10010800640AD8B496EF00F00D0AD8B496EF00F060
:10011800050AD8B470EF00F0190AD8B473EF00F0EC
:10012800E6EF01F02FBC9BEF00F09DEF00F0DAEF57
:1001380000F02FA8A2EF00F0A4EF00F0B6EF00F057
:100148002DC0D9FF2EC0DAFFDECF29F0DECF2AF08E
:10015800DECF2BF0DECF2CF0040E2D26000E2E2243
:10016800C7EF00F02DC0D9FF2EC0DAFFDECF29F08F
:10017800DDCF2AF0000E2ABEFF0E2B6E2C6E020E6B
:100188002D26000E2E222CBECEEF00F0CCEF00F074
:1001980005EF01F0030E2F122C1E2B1E2A1E296CB0
:1001A800000E2A222B222C2205EF01F02FA8DFEFC8
:1001B80000F0E1EF00F0F3EF00F02DC0D9FF2EC002
:1001C800DAFFDECF29F0DECF2AF0DECF2BF0DECF4C
:1001D8002CF0040E2D26000E2E2205EF01F02DC066
:1001E800D9FF2EC0DAFFDECF23F0DDCF24F023C005
:1001F80029F024C02AF02B6A2C6A020E2D26000E44
:100208002E22010E326E3250040DF90EF324F66ED2
:100218005E0EF420F76E0900F550295C0900F550D0
:100228002A580900F5502B580900F5502C58D8B019
:1002380020EF01F022EF01F024EF01F02EEF01F0A2
:10024800322A0A0E3218D8A42CEF01F02EEF01F052
:1002580007EF01F030503110D8B435EF01F037EF27
:1002680001F045EF01F02FC023F0030E2316D8B498
:1002780040EF01F042EF01F045EF01F03006D8A061
:1002880031063250236E246A3050235C2450800A91
:10029800256E3150800A2558D8B055EF01F057EF38
:1002A80001F05DEF01F03250305E000E315A61EF1F
:1002B80001F0000E316E000E306E30503110D8B49F
:1002C80068EF01F06AEF01F07EEF01F01BC0D9FF83
:1002D8001CC0DAFF200EDF6E1B4A1C2A3006D8A08D
:1002E800310630503110D8A47CEF01F07EEF01F0D8
:1002F8006AEF01F02FC023F0030E2316D8B487EF5E
:1003080001F089EF01F091EF01F01BC0D9FF1CC08B
:10031800DAFF2D0EDF6E1B4A1C2A32C027F0286A2E
:10032800D9EF01F027C023F028C024F0D890233655
:100338002436D89023362436F90E2324F66E5E0E22
:100348002420F76E0900F5CF09F00900F5CF0AF06F
:100358000900F5CF0BF00A00F5CF0CF029C005F025
:100368002AC006F02BC007F02CC008F097EC0FF05D
:1003780005C012F006C013F007C014F008C015F04D
:100388000A0E166E000E176E000E186E000E196E0D
:100398007FEC10F01250300F326E1BC0D9FF1CC01A
:1003A800DAFF32C0DFFF1B4A1C2A2706D8A028061E
:1003B800272806E12828D8A4E4EF01F0E6EF01F0A9
:1003C80096EF01F01DC0F6FF1EC0F7FF1D4A1E2A5A
:1003D8000800F5CF32F03250D8A4F5EF01F0F7EF6E
:1003E80001F00FEF00F01BC0D9FF1CC0DAFF000EB0
:1003F800DF6E1200000E4C6E4CC040F0416A40BEE9
:1004080041063A50050D2D0E426E590E436EF350BB
:100418004226F4504322405042264150432242C0D3
:10042800F6FF43C0F7FF0800F5CF44F0000E4B6E0F
:1004380044A021EF02F023EF02F079EF02F03F042D
:10044800D8A429EF02F02BEF02F043EF02F0365068
:100458004C240D6E000E4CBEFF0E37200E6E385029
:100468004B240F6E000E4BBEFF0E3920106E3BC0A2
:1004780011F03CC012F030EC0DF0D9EF02F04C5006
:10048800096E0A6A09BE0A063FC00BF00C6A9AECAC
:1004980017F036500924476E37500A20486E4B50E3
:1004A800096E0A6A09BE0A063FC00BF00C6A9AEC8C
:1004B80017F038500924496E39500A204A6E47C04F
:1004C80020F048C021F049C022F04AC023F03FC0C4
:1004D80024F0256A3FC026F0276A3BC028F03CC0BC
:1004E80029F0CDEC11F0D9EF02F03B503D1809E1AD
:1004F8003C503E18D8B483EF02F085EF02F0D9EFF4
:1005080002F03F04D8A48BEF02F08DEF02F0A5EFC4
:1005180002F036504C240D6E000E4CBEFF0E3720F4
:100528000E6E38504B240F6E000E4BBEFF0E392056
:10053800106E3DC011F03EC012F030EC0DF0D9EF56
:1005480002F04C50096E0A6A09BE0A063FC00BF059
:100558000C6A9AEC17F036500924476E37500A2077
:10056800486E4B50096E0A6A09BE0A063FC00BF076
:100578000C6A9AEC17F038500924496E39500A2051
:100588004A6E47C020F048C021F049C022F04AC056
:1005980023F03FC024F0256A3FC026F0276A3DC0FB
:1005A80028F03EC029F0CDEC11F04B2AD890443207
:1005B8004B50800A780FD8A0E4EF02F0E6EF02F083
:1005C8001CEF02F04C2A4C50800A7B0FD8A0EFEFAA
:1005D80002F0F1EF02F000EF02F03B503D1809E1A4
:1005E8003C503E18D8B4FBEF02F0FDEF02F044EFA8
:1005F80003F03F04D8A403EF03F005EF03F025EF61
:1006080003F0050E3624456E000E3720466E45C0B1
:1006180017F046C018F038C019F039C01AF045C0B4
:100628001BF046C01CF0070E38241D6E000E392042
:100638001E6E3DC01FF03EC020F084EC04F044EF75
:1006480003F03F50050DF3CF40F0F4CF41F03650A2
:100658004024206E37504120216E38C022F039C026
:1006680023F03FC024F0256A3F50080DF3CF26F051
:10067800F4CF27F03DC028F03EC029F0CDEC11F0B2
:1006880012006FEF04F0020E066E100E056E0DC01C
:1006980007F00EC008F04CEC16F0020E066E110EB4
:1006A800056E11C007F012C008F04CEC16F0020EEF
:1006B800066E120E056E0FC007F010C008F04CEC65
:1006C80016F0020E066E130E056E13C007F014C066
:1006D80008F04CEC16F0020E066E000E056E0DC00A
:1006E80007F00EC008F04CEC16F0020E066E010E74
:1006F800056E13C007F014C008F04CEC16F083EF39
:1007080004F0020E066E100E056E1350EF08076E09
:100718001450D8A0E82A0008086E4CEC16F0020E17
:10072800066E110E056E0F50EF08076E1050D8A018
:10073800E82A0008086E4CEC16F0020E066E120E3F
:10074800056E0DC007F00EC008F04CEC16F0020E56
:10075800066E130E056E11C007F012C008F04CECBF
:1007680016F0020E066E000E056E0F50EF08076EAB
:100778001050D8A0E82A0008086E4CEC16F0020EBB
:10078800066E010E056E0DC007F00EC008F04CECA9
:1007980016F083EF04F0020E066E100E056E11506F
:1007A800EF08076E1250D8A0E82A0008086E4CEC33
:1007B80016F0020E066E110E056E0D50EF08076E4C
:1007C8000E50D8A0E82A0008086E4CEC16F0020E6D
:1007D800066E120E056E13508F08076E1450D8A0BF
:1007E800E82A0108086E4CEC16F0020E066E130E8D
:1007F800056E0F508F08076E1050D8A0E82A010820
:10080800086E4CEC16F0020E066E000E056E0D50CA
:10081800EF08076E0E50D8A0E82A0008086E4CECC6
:1008280016F0020E066E010E056E0F508F08076E49
:100838001050D8A0E82A0108086E4CEC16F083EF97
:1008480004F0020E066E100E056E0FC007F010C001
:1008580008F04CEC16F0020E066E110E056E13C071
:1008680007F014C008F04CEC16F0020E066E120EDB
:10087800056E11508F08076E1250D8A0E82A01089B
:10088800086E4CEC16F0020E066E130E056E0D5037
:100898008F08076E0E50D8A0E82A0108086E4CECA5
:1008A80016F0020E066E000E056E0FC007F010C09F
:1008B80008F04CEC16F0020E066E010E056E0D5097
:1008C8008F08076E0E50D8A0E82A0108086E4CEC75
:1008D80016F083EF04F0E3EC17F0000AD8B447EF02
:1008E80003F0010AD8B485EF03F0030AD8B4CFEFB8
:1008F80003F0010AD8B425EF04F083EF04F01200E6
:1009080017501B5C056E18501C58066E3BEC17F010
:1009180005C021F006C022F019501D5C056E1A5062
:100928001E58066E3BEC17F00550215C2250800AD9
:10093800236E0650800A2358D8A0A5EF04F0A8EF2C
:1009480004F0010EA9EF04F0000E326E336A325043
:100958003310D8B4B2EF04F0B4EF04F0CCEF04F0E5
:1009680017C024F018C025F019C017F01AC018F0E5
:1009780024C019F025C01AF01BC026F01CC027F0AF
:100988001DC01BF01EC01CF026C01DF027C01EF0A5
:1009980017501B5C1C50800A216E1850800A215881
:1009A800D8B0D9EF04F0DBEF04F0F3EF04F017C090
:1009B80028F018C029F01BC017F01CC018F028C078
:1009C8001BF029C01CF019C02AF01AC02BF01DC05A
:1009D80019F01EC01AF02AC01DF02BC01EF01750C7
:1009E8001B5C346E18501C58356E19501D5C056E12
:1009F8001A501E58066E3BEC17F005C02CF006C0C6
:100A08002DF034C005F035C006F0000E086E020E59
:100A1800076E75EC0EF005C030F006C031F01D50C1
:100A2800195C1A50800A216E1E50800A2158D8B0CD
:100A380020EF05F022EF05F028EF05F0000E2F6EED
:100A4800010E2E6E68EF05F02E682F6868EF05F02E
:100A580032503310D8B433EF05F035EF05F045EFD9
:100A680005F019C00DF01AC00EF017C00FF018C02D
:100A780010F01FC011F020C012F030EC0DF053EF51
:100A880005F017C00DF018C00EF019C00FF01AC00D
:100A980010F01FC011F020C012F030EC0DF02C50F7
:100AA800305E2D50315A31BE5EEF05F05CEF05F037
:100AB80066EF05F02E5019262F501A223450302692
:100AC80035503122174A182A1B50175C1850800AD3
:100AD800216E1C50800A2158D8A075EF05F077EFD9
:100AE80005F02CEF05F012000001AE51B65DAF51D4
:100AF800B759B051B859B151B959D8B086EF05F0C6
:100B080088EF05F08AEF05F056EF06F0100EB625CF
:100B1800AE6F270EB721AF6F000EB821B06F000E71
:100B2800B921B16F8DEC15F0920E052400018D6F7F
:100B3800FF0E06208E6F6B0E1F6E000E206E200EAD
:100B4800216E8DEC08F08DC060F08EC061F0000E53
:100B58000001636F080E626F6B0E646F000E656FA5
:100B6800FF0E676F6669080E696F210E686F010EC8
:100B78006A6F36EC10F02D0E00016B19D8B4C7EF70
:100B880005F0C9EF05F056EF06F00CEC12F0000185
:100B98008B6F6B0E056E000E066EDBEC15F0010E0A
:100BA8000524096E000E06200A6E000E0C6E060E55
:100BB8000B6E9AEC17F0095000018D270A508E230E
:100BC800000E916F9151030DF3CF4DF0F4CF4EF01D
:100BD8008D514D248F6F8E514E20906F8B51915DAA
:100BE800D8B0F9EF05F0FBEF05F01EEF06F09151D4
:100BF80004084D6ED8904D348C6F8FC020F090C093
:100C080021F0050E8C25226E236A000E2322000E89
:100C1800256E020E246E8C510A08266E000ED8A08E
:100C2800E82A0008276EFF0E296E2868CDEC11F01F
:100C38004CEF06F08FC020F090C021F0000E236E1C
:100C4800050E226E000E256E020E246E000E276E13
:100C58000A0E266E080E296E210E286ECDEC11F0B4
:100C68008FC017F090C018F0000E1A6E0E0E196E95
:100C7800020E00018F251B6E000E90211C6E000EC7
:100C88001E6E0E0E1D6EFF0E206E1F6884EC04F0A3
:100C98000001912B040E916554EF06F056EF06F013
:100CA800E6EF05F0120010501C6E0FC01DF0020E8A
:100CB800066E020E056E0FC007F010C008F04CEC6F
:100CC80016F01106000E125A135A145A829000F0A8
:100CD80011C015F012C016F013C017F014C018F0A8
:100CE800030E7CEF06F0D890183217321632153200
:100CF800E82E77EF06F015C019F016C01AF01D504F
:100D08001C18D8A48AEF06F08CEF06F0F1EF06F075
:100D1800A6EF06F0809A00F0808A809A00F0808A18
:100D2800809A00F0808A809A00F0808A809A00F089
:100D3800808A809A00F0808A809A00F0808A809A5F
:100D480000F0808A1906D8A01A06192806E11A2880
:100D5800D8A4B1EF06F0B3EF06F08EEF06F011500D
:100D6800030B1B6EBEEF06F0809A00F0808A809A13
:100D780000F0808A1B061B28D8A4C5EF06F0C7EF31
:100D880006F0B8EF06F016EF07F01CC081FF809A56
:100D980000F0808A1DC081FF809A00F0808A1CC004
:100DA80081FF809A00F0808A1DC081FF809A00F040
:100DB800808A1CC081FF809A00F0808A1DC081FF54
:100DC800809A00F0808A1CC081FF809A00F0808A97
:100DD8001DC081FF809A00F0808A1906D8A01A06E3
:100DE800192806E11A28D8A4FCEF06F0FEEF06F051
:100DF800C9EF06F01150030B1B6E0DEF07F01CC076
:100E080081FF809A00F0808A1DC081FF809A00F0DF
:100E1800808A1B061B28D8A414EF07F016EF07F0EA
:100E280003EF07F0828012000001AAAD1EEF07F061
:100E380020EF07F0A3EF07F0000E316E000E306EC2
:100E4800000E336E000E326E010E386EA50E382479
:100E5800D96EDA6A000EDA22DF502E6EA40E38241C
:100E6800D96EDA6A000EDA22DF502F6E2F502E5C10
:100E7800366E376AD8A037063650302637503122BA
:100E880036C005F037C006F03BEC17F005503226A7
:100E980006503322382A030E386455EF07F057EF0F
:100EA80007F02AEF07F03050325C346E3150335877
:100EB800356E35BE69EF07F0355009E13D0E345CFB
:100EC800D8A069EF07F06BEF07F0D5EF07F0000146
:100ED800A451040D980EF324D96E000EF420DA6E96
:100EE800B6C0DEFFB7C0DEFFB8C0DEFFB9C0DEFFA8
:100EF800A42B030EA419D8A484EF07F086EF07F0FB
:100F080088EF07F0000EA46F000E186EB40E176E6F
:100F1800000E1A6E070E196E2D0E1B6E5F0E1C6EDC
:100F2800F80E1E6E000E1D6E67EC0BF0140E00011D
:100F3800AB6FAA8F320EAC6FAA9DD5EF07F0AAAFA0
:100F4800A8EF07F0AAEF07F0CBEF07F0AB07AB511C
:100F5800D8A4B1EF07F0B3EF07F0CBEF07F0000E1E
:100F6800216EB40E206E000E236E070E226E000E48
:100F7800256E140E246E000E276E140E266E080EB3
:100F8800296E210E286ECDEC11F00001AA9FAC0746
:100F9800AC51D8A4D2EF07F0D4EF07F0D5EF07F0A3
:100FA800AA8D1200000E0001806F000E816F000EE6
:100FB800826F000E836F000E866FA4C087F0875182
:100FC800D8B4E9EF07F0EBEF07F0F3EF07F0FF0E07
:100FD80087257C6F7D6BFF0E7D23F7EF07F0000EF2
:100FE8007D6F020E7C6F7CC087F08751D8B4FFEF0D
:100FF80007F001EF08F009EF08F0FF0E87257E6F74
:101008007F6BFF0E7F230DEF08F0000E7F6F020E3F
:101018007E6F7EC085F08551040D980EF324D96E3D
:10102800000EF420DA6EDECF6BF0DECF6CF0DECF90
:101038006DF0DECF6EF08751040D980EF324D96E53
:10104800000EF420DA6EDECF6FF0DECF70F0DECF68
:1010580071F0DECF72F06B516F5D736F6C51705928
:10106800746F6D517159756F6E517259766F7351F6
:101078008027745181237551822376518323862BCF
:10108800010E86654AEF08F04CEF08F0E3EF07F031
:10109800D8908333823381338033600E056EEA0E35
:1010A800066E000E076E000E086E80C009F081C043
:1010B8000AF082C00BF083C00CF097EC0FF00550DB
:1010C8000001846F770E1B6E000E1C6EF20E1D6EF3
:1010D8005F0E1E6E84C01FF0206A09EC00F0000E3F
:1010E8000001616F870E606F000E636F0A0E626FFA
:1010F800770E646F000E656F070E676FE00E666F00
:10110800080E696F210E686F020E6A6F36EC10F0D8
:101118001200B50E186E5F0E196E000E1B6E000ED3
:101128001A6E1FC01CF020C01DF0200E1E6E07ECAA
:1011380011F01FC010F020C011F0D80E126E5F0E13
:10114800136E38EC0FF010501110D8B4AEEF08F051
:10115800B0EF08F01FEF09F01FC012F020C013F025
:10116800D60E146E5F0E156E50EC0CF012C023F004
:1011780013C024F0000E126E000E136ED60E146EFD
:101188005F0E156E50EC0CF012C023F013C024F063
:1011980023C012F024C013F0FB0E146E5F0E156E00
:1011A80050EC0CF012C023F013C024F023C0D9FF78
:1011B80024C0DAFF300EDE18D8A4E5EF08F0E7EF18
:1011C80008F01FEF09F0000E126E000E136EFB0EF2
:1011D800146E5F0E156E50EC0CF012C023F013C0A5
:1011E80024F0000E126E000E136EFB0E146E5F0ECE
:1011F800156E50EC0CF012C023F013C024F0234AF3
:10120800242A23C012F024C013F0F90E146E5F0EC6
:10121800156E50EC0CF012C023F013C024F01FC060
:1012280005F020C006F023C007F024C008F0EEEC5B
:1012380014F029EF09F01FC005F020C006F0FD0EDC
:10124800076E5F0E086EEEEC14F0120011C0D9FFA5
:1012580012C0DAFFDF501E6E114A122A200E1E1825
:10126800D8B439EF09F03BEF09F02AEF09F0090E7D
:101278001E18D8B442EF09F044EF09F02AEF09F03C
:10128800000E1A6E000E1B6E000E1C6E000E1D6EF8
:10129800000E196E2D0E1E18D8A455EF09F057EF41
:1012A80009F062EF09F0192A11C0D9FF12C0DAFF5C
:1012B800DF501E6E114A122A91EF09F02B0E1E18EC
:1012C800D8A469EF09F06BEF09F091EF09F058EF36
:1012D80009F01AC005F01BC006F01CC007F01DC0BD
:1012E80008F00A0E096E000E0A6E000E0B6E000E54
:1012F8000C6E67EC13F01EC015F0D00E15261550B5
:1013080005241A6E000E06201B6E000E07201C6EA8
:10131800000E08201D6E58EF09F01E5055EC17F00E
:10132800D8B099EF09F09BEF09F06DEF09F019506B
:10133800D8B4A1EF09F0A3EF09F0BEEF09F01AC085
:1013480015F01BC016F01CC017F01DC018F0151EB4
:10135800161E171E181E152A000E162217221822EE
:1013680015C011F016C012F017C013F018C014F011
:10137800C6EF09F01AC011F01BC012F01CC013F020
:101388001DC014F01200BF0E186E5F0E196E000E0D
:101398001B6E000E1A6E230E1C6E000E1D6E200EA4
:1013A8001E6E07EC11F0230E106E000E116EE70E84
:1013B800126E5F0E136E38EC0FF010501110D8B487
:1013C800E8EF09F0EAEF09F050EF0AF0230E126E89
:1013D800000E136ED60E146E5F0E156E50EC0CF0E8
:1013E80012C047F013C048F0000E126E000E136EC4
:1013F800D60E146E5F0E156E50EC0CF012C047F04E
:1014080013C048F047504810D8B40DEF0AF00FEF5A
:101418000AF050EF0AF047C011F048C012F02AEC69
:1014280009F011C043F012C044F013C045F014C0D5
:1014380046F0000E496E4950040D210EF324F66E55
:101448005F0EF420F76E43500900F51810E1445080
:101458000900F5180CE145500900F51808E1465057
:101468000900F518D8A43BEF0AF03DEF0AF047EF62
:101478000AF043C01FF044C020F045C021F046C028
:1014880022F058EF0AF0492A020E49644EEF0AF09A
:1014980050EF0AF01FEF0AF0000E1F6E000E206ECC
:1014A800000E216E000E226E12005DEF0AF00F4A48
:1014B800102A0FC0D9FF10C0DAFF200EDE18D8B4EA
:1014C80068EF0AF06AEF0AF05BEF0AF00FC0D9FF85
:1014D80010C0DAFF090EDE18D8B475EF0AF077EFFE
:1014E8000AF05BEF0AF0000E156E000E146E000E87
:1014F800136E0FC0D9FF10C0DAFF2D0EDE18D8A466
:1015080088EF0AF08AEF0AF08FEF0AF0132A0F4AE1
:10151800102ABCEF0AF00FC0D9FF10C0DAFF2B0E5B
:10152800DE18D8A49AEF0AF09CEF0AF0BCEF0AF094
:101538000F4A102ABCEF0AF014C009F015C00AF0CF
:10154800000E0C6E0A0E0B6E9AEC17F00FC0D9FF46
:1015580010C0DAFFDF50116E11500926000E0A2262
:10156800D00E0924146EFF0E0A20156E9CEF0AF0A7
:101578000FC0D9FF10C0DAFFDF5055EC17F0D8B014
:10158800C8EF0AF0CAEF0AF0A0EF0AF01350D8B477
:10159800D0EF0AF0D2EF0AF0E0EF0AF014C011F031
:1015A80015C012F0111E121E114A122A11C00FF096
:1015B80012C010F0E4EF0AF014C00FF015C010F0DC
:1015C8001200C7EC09F01FC094F020C095F021C0AC
:1015D80096F022C097F00001945195119611971139
:1015E800D8A4F9EF0AF0FBEF0AF0FDEF0AF066EF76
:1015F8000BF0800E1B6E000E1C6E940E1D6E5F0E9F
:101608001E6E4AC01FF04BC020F04CC021F04DC0E8
:1016180022F009EC00F0800E186E000E196E000E14
:101628001B6E000E1A6E600E1C6E000E1D6E200ED4
:101638001E6E07EC11F0FA0E056E000E066E000E17
:10164800076E000E086EE7EC16F0600E056E000ED1
:10165800066EF60E076E5F0E086E66EC14F0055007
:101668000610D8A43AEF0BF03CEF0BF05CEF0BF050
:101678004AC012F04BC013F04CC014F04DC015F026
:101688004AEC11F0960E056E000E066E000E076EFF
:10169800000E086EE7EC16F03EEC15F0E806D8A44C
:1016A80058EF0BF05AEF0BF05CEF0BF066EF0BF016
:1016B80094C012F095C013F096C014F097C015F0BE
:1016C8004AEC11F012001BC0F6FF1CC0F7FF08001F
:1016D800F5CF23F01B4A1C2A1BC0F6FF1CC0F7FFDE
:1016E8000800F5CF24F01B4A1C2A000E256E000EB8
:1016F800226E000E216ECEEF0BF0000E276E000E4C
:10170800266EBCEF0BF0070E26141F6E000E271472
:10171800206E1F502010D8B494EF0BF096EF0BF00A
:101728009AEF0BF0D8902532A3EF0BF01BC0F6FF11
:101738001CC0F7FF0800F5CF25F01B4A1C2A25A07E
:10174800A8EF0BF0AAEF0BF0BAEF0BF02650172416
:101758000D6E275018200E6E19C00FF01AC010F029
:101768001DC011F01EC012F030EC0DF0264A272AD9
:1017780023501F6E206A1F50265C20502758D8A07F
:10178800C8EF0BF0CAEF0BF087EF0BF0214A222AC3
:10179800194A1A2A24501F6E206A1F50215C2050B3
:1017A8002258D8A0DAEF0BF0DCEF0BF081EF0BF04A
:1017B800120049EC12F005C038F006C039F038C004
:1017C80005F039C006F0000E086E050E076E85ECB0
:1017D80012F005C038F006C039F0B4EC15F03850F6
:1017E800055C0001C06F39500658C16FB4EC15F0A4
:1017F800DF0E0524366EFF0E0620376E55C020F02A
:1018080056C021F0000E236E210E226E000E256EAA
:10181800140E246E36C026F037C027F0080E296E45
:10182800210E286ECDEC11F0C2C017F0C3C018F01D
:10183800BEC019F0BFC01AF055C01BF056C01CF04E
:10184800C0C01DF0C1C01EF0070E206EE00E1F6E56
:1018580084EC04F055C0C2F056C0C3F0C0C0BEF05E
:10186800C1C0BFF0554A562A8DEC15F055500518E1
:1018780007E156500618D8A444EF0CF046EF0CF0D8
:101888004FEF0CF0000E566E000E556E000E000164
:10189800C36F000EC26F120012501310D8A457EF76
:1018A8000CF059EF0CF05DEF0CF0BAC012F0BBC0B1
:1018B80013F012501310D8A464EF0CF066EF0CF07C
:1018C8006CEF0CF0000E126E000E136EC0EF0CF0F1
:1018D80012C00BF013C00CF014C00DF015C00EF0C0
:1018E8009CEC13F00B5012260C50132212C0D9FF97
:1018F80013C0DAFFDF50D8A484EF0CF086EF0CF0A9
:1019080091EF0CF0000E0001BA6F000EBB6FBAC069
:1019180012F0BBC013F0C0EF0CF012C00BF013C0F4
:101928000CF014C00DF015C00EF0CFEC13F00B50F6
:1019380012240001BA6F0C501320BB6FBAC0D9FF34
:10194800BBC0DAFFDF50D8B4ACEF0CF0AEEF0CF050
:10195800B8EF0CF0BAC0D9FFBBC0DAFF000EDF6EDB
:10196800BA4BBB2BBCEF0CF0000EBA6F000EBB6F6E
:1019780012C012F013C013F012002B6EBDEC17F05A
:101988000D0E266E2D0E256ED80EE82EFED7252EAE
:10199800FCD7262EFAD7000E2F6E000E2E6E000EE4
:1019A8002A6E660E296E1CEF0DF0D8902E34F66E56
:1019B8002F34F76E2D0EF6265E0EF7220900F5CFAE
:1019C8002CF00A00F5CF2DF02E4A2F2AD8902E346D
:1019D800F66E2F34F76E2D0EF6265E0EF7220900EE
:1019E800F5CF27F00A00F5CF28F02E4A2F2A2C2809
:1019F80006E12D28D8A403EF0DF005EF0DF012EF46
:101A08000DF00D0E266E2D0E256ED80EE82EFED783
:101A1800252EFCD7262EFAD71CEF0DF02CC005F08A
:101A28002DC006F027C007F028C008F04CEC16F0CF
:101A380029502E1807E12A502F18D8A426EF0DF0A8
:101A480028EF0DF0D9EF0CF023C020F024C021F0CE
:101A58002B5086EC17F012006AEF0DF00DC013F052
:101A68000EC014F00FC015F010C016F07EEF0DF088
:101A78000F50EF08136E1050D8A0E82A0008146E13
:101A88000DC015F00EC016F07EEF0DF00D50EF08EA
:101A9800136E0E50D8A0E82A0008146E0F508F0855
:101AA800156E1050D8A0E82A0108166E7EEF0DF0CA
:101AB8000FC013F010C014F00D508F08156E0E50A3
:101AC800D8A0E82A0108166E7EEF0DF0E3EC17F0B7
:101AD800000AD8B432EF0DF0010AD8B43CEF0DF08B
:101AE800030AD8B44AEF0DF0010AD8B45CEF0DF040
:101AF8007EEF0DF0020E066E000E056E13C007F0A5
:101B080014C008F04CEC16F0020E066E010E056EBD
:101B180015C007F016C008F04CEC16F0020E066E61
:101B2800020E056E11C007F012C008F04CEC16F05A
:101B38001200F8EF0DF009C0F6FF0AC0F7FFF86AC7
:101B4800070EF76403D00800F55005D0F6CFE1FF83
:101B5800F7CFE2FFE7500009D8B4B5EF0DF0B7EFC3
:101B68000DF0D6EF0DF00BC0F6FF0CC0F7FF080024
:101B7800F5CF0FF009C0F6FF0AC0F7FFF86A070EA5
:101B8800F76403D00800F55005D0F6CFE1FFF7CF92
:101B9800E2FFE7500F18D8B4D4EF0DF0D6EF0DF0F0
:101BA800F4EF0DF009C0F6FF0AC0F7FFF86A070E58
:101BB800F76403D00800F55005D0F6CFE1FFF7CF62
:101BC800E2FFE7500F6E0BC0F6FF0CC0F7FF0800EE
:101BD800F5500F5C096E0A6AD8A00A0609EF0EF0E4
:101BE800094A0A2A0B4A0C2A0D06D8A00E060D2807
:101BF80006E10E28D8A403EF0EF005EF0EF09FEFD4
:101C08000DF0000E0A6E000E096E120011C005F0EC
:101C180012C006F0000E086E000E076E13C009F021
:101C28000A6A04EC17F014C00FF015C010F002ECAB
:101C380016F0176E1750D8A424EF0EF026EF0EF00A
:101C480029EF0EF0000E74EF0EF00D0E1718D8B431
:101C580030EF0EF032EF0EF017EF0EF00A0E1718F5
:101C6800D8B439EF0EF03BEF0EF017EF0EF0000E80
:101C7800166E0D0E1718D8B444EF0EF046EF0EF09E
:101C880073EF0EF01750D8A44CEF0EF04EEF0EF095
:101C980050EF0EF073EF0EF016501124D96E000EAF
:101CA8001220DA6E17C0DFFF162A13501618D8A4B0
:101CB80060EF0EF062EF0EF064EF0EF073EF0EF0CF
:101CC80014C00FF015C010F002EC16F0176E175084
:101CD800D8A471EF0EF073EF0EF03DEF0EF0165032
:101CE8001200000E0A6E08BE7EEF0EF07CEF0EF0BA
:101CF80084EF0EF0076C081ED8B0082A010E0A6E91
:101D080006BE8BEF0EF089EF0EF091EF0EF0056C2A
:101D1800061ED8B0062A010E0A1A000E0C6E000E16
:101D28000B6E07500810D8B49CEF0EF09EEF0EF023
:101D3800C6EF0EF0010E096EA6EF0EF0D89007362A
:101D48000836092A08AEABEF0EF0ADEF0EF0A2EFA1
:101D58000EF0D8900B360C360750055C0850065824
:101D6800D8A0B9EF0EF0BBEF0EF0C0EF0EF00750A1
:101D7800055E0850065A0B80D89008320732092EA3
:101D8800ADEF0EF00A50D8B4CCEF0EF0CEEF0EF057
:101D9800D2EF0EF00B6C0C1ED8B00C2A0BC005F05D
:101DA8000CC006F01200C80E186E5F0E196E000EF9
:101DB8001B6E000E1A6E1F0E1C6E000E1D6E200E7E
:101DC8001E6E07EC11F01F0E106E000E116EE00E65
:101DD800126E5F0E136E38EC0FF010501110D8B45D
:101DE800F8EF0EF0FAEF0EF036EF0FF01F0E126E4E
:101DF800000E136ED60E146E5F0E156E50EC0CF0BE
:101E080012C03FF013C040F0000E126E000E136EA9
:101E1800D60E146E5F0E156E50EC0CF012C03FF02B
:101E280013C040F03F504010D8B41DEF0FF01FEF23
:101E38000FF036EF0FF03FC012F040C013F0FB0E6A
:101E4800146E5F0E156E50EC0CF012C03FF013C00C
:101E580040F03FC00FF040C010F059EC0AF00F50AE
:101E680037EF0FF0000E120071EF0FF010C009F0FD
:101E780011C00AF012C00BF013C00CF012C005F02C
:101E880013C006F0DBEC15F005C00DF006C00EF02F
:101E98009DEC0DF009500A10D8A455EF0FF057EF3C
:101EA8000FF05DEF0FF010C010F011C011F096EFB9
:101EB8000FF0010E1024056E000E1120066E12C0E0
:101EC800F6FF13C0F7FF0800F550076E086A8CECA0
:101ED80011F005C010F006C011F010501110D8B460
:101EE80078EF0FF07AEF0FF092EF0FF010C0F6FFD7
:101EF80011C0F7FFF86A070EF76403D00800F55021
:101F080005D0F6CFE1FFF7CFE2FFE7500009D8A4EC
:101F180090EF0FF092EF0FF03AEF0FF0000E106E07
:101F2800000E116E1200000E0D6E000E0E6E000EE9
:101F38000F6E000E106E09500A100B100C10D8B45A
:101F4800A8EF0FF0AAEF0FF0E0EF0FF0010E116EFF
:101F5800B4EF0FF0D89009360A360B360C36112A32
:101F68000CAEB9EF0FF0BBEF0FF0AEEF0FF0D8905B
:101F78000D360E360F3610360950055C0A500658D5
:101F88000B5007580C500858D8A0CDEF0FF0CFEFE2
:101F98000FF0D8EF0FF00950055E0A50065A0B50A3
:101FA800075A0C50085A0D80D8900C320B320A325E
:101FB8000932112EBBEF0FF00DC005F00EC006F070
:101FC8000FC007F010C008F01200080E1F6E210E97
:101FD8001E6E96EC14F0000E0001616F080E606F23
:101FE800000E636F0A0E626FA00E646F5F0E656F5E
:101FF800FF0E676F6669080E696F210E686F020E23
:102008006A6F36EC10F0000E186E000E176E000E98
:102018001A6E200E196E8DEC15F005C01BF006C067
:102028001CF0000E1E6E200E1D6EFF0E206E1F6827
:1020380084EC04F0000E566E000E556E000E000182
:10204800C36F000EC26FB4EC15F0D89006304D6E19
:1020580005300001C06F4DC0C1F0C0C0BEF0C1C0A6
:10206800BFF0120066EF10F060C036F061C037F0C4
:1020780062C038F063C039F064C0F6FF65C0F7FF8E
:10208800F86A070EF76403D00800F55005D0F6CFBC
:10209800E1FFF7CFE2FFE7503A6E66C03BF067C05A
:1020A8003CF068C03DF069C03EF06AC03FF0FEEC0D
:1020B80001F000016A51060DF3506027F4506123C6
:1020C800644B652B64C0F6FF65C0F7FFF86A070E1E
:1020D800F76403D00800F55005D0F6CFE1FFF7CF3D
:1020E800E2FFE7500009D8A47CEF10F07EEF10F073
:1020F80038EF10F012001650171018101910D8B435
:1021080088EF10F08AEF10F0BAEF10F0010E1A6E97
:1021180094EF10F0D89016361736183619361A2A52
:1021280019AE99EF10F09BEF10F08EEF10F01650EB
:10213800125C175013581850145819501558D8A035
:10214800A8EF10F0AAEF10F0B2EF10F01650125EE0
:102158001750135A1850145A1950155AD890193242
:102168001832173216321A2E9BEF10F012C012F0E6
:1021780013C013F014C014F015C015F01200055068
:102188000610D8A4CAEF10F0CCEF10F0D0EF10F082
:10219800030E066EE80E056E05C007F006C008F0CF
:1021A800000E08BEFF0E096E0A6E0001B651072424
:1021B8000B6EB75108200C6EB85109200D6EB9513D
:1021C8000A200E6EFBEF10F00001B6510B5CB75100
:1021D8000C58B8510D58B9510E58D8B0F6EF10F048
:1021E800F8EF10F0FBEF10F0000E06EF11F0010110
:1021F80000510119D8B403EF11F005EF11F0E8EF21
:1022080010F0010E12004B0E0001B227000EB3238E
:10221800B423B523B251B65DB351B759B451B859C7
:10222800B551B959D8A01BEF11F01DEF11F00EEF01
:1022380011F0B6C0B2F0B7C0B3F0B8C0B4F0B9C0CE
:10224800B5F0E0EC17F018C009F019C00AF018C092
:1022580005F019C006F0DBEC15F005500B6E6EECBE
:1022680016F01E50D8B43BEF11F03DEF11F049EFD6
:1022780011F01CC011F01DC012F01EC013F01AC0DE
:1022880014F01BC015F00AEC0EF01200AC98AC84E8
:10229800B886000E056E6C0E066EDC0E076E020E1A
:1022A800086E12C009F013C00AF014C00BF015C074
:1022B8000CF097EC0FF005C01AF006C01BF007C031
:1022C8001CF008C01DF01AC016F01BC017F01CC087
:1022D80018F01DC019F0030E77EF11F0D8901932DD
:1022E800183217321632E82E72EF11F016C01AF0B3
:1022F80017C01BF018C01CF019C01DF01A06000EFC
:102308001B5A1C5A1D5A1AC0AFFF1BC0B0FF12003F
:1023180005C0F6FF06C0F7FFF86A070EF76403D09A
:102328000800F55005D0F6CFE1FFF7CFE2FFE75000
:102338000718D8A4A2EF11F0A4EF11F0AAEF11F03A
:1023480005C005F006C006F0CCEF11F00550096E87
:1023580006500A6E054A062A09C0F6FF0AC0F7FFAA
:10236800F86A070EF76403D00800F55005D0F6CFD9
:10237800E1FFF7CFE2FFE7500009D8A4C6EF11F05C
:10238800C8EF11F08CEF11F0000E056E000E066E0E
:10239800120020C00DF021C00EF022C00FF023C0A3
:1023A80010F0245020242A6E255021202B6EFF0E79
:1023B8002A24116EFF0E2B20126E265022242C6E1A
:1023C800275023202D6EFF0E2C24136EFF0E2D2078
:1023D800146E45EC03F028C00FF029C010F024C09B
:1023E80009F025C00AF026C00BF027C00CF09AECC3
:1023F80017F009C011F00AC012F0136A146A57ECFA
:1024080006F0000E1F6E000E1E6E96EC14F0120001
:10241800D7EC0EF0416E630E4118D8A416EF12F0F7
:1024280018EF12F01BEF12F0FF0E48EF12F0030E38
:10243800416021EF12F023EF12F026EF12F0000EA8
:1024480048EF12F00A0E41602CEF12F02EEF12F056
:1024580031EF12F0010E48EF12F00F0E416037EF26
:1024680012F039EF12F03CEF12F0020E48EF12F0C2
:10247800140E416042EF12F044EF12F047EF12F0F1
:10248800030E48EF12F0040E1200C30EC216C280EB
:10249800C282C2B252EF12F054EF12F04DEF12F0B6
:1024A800C4CF09F00A6A09500A6E096A000E0916B3
:1024B800FF0E0A16C3500912C290A50E0001A925E5
:1024C800D96EDA6A000EDA2209C007F00AC008F0ED
:1024D800D89008320732D890083207320750DF6E9A
:1024E800A92B040EA919D8A47CEF12F07EEF12F0E4
:1024F80080EF12F0000EA96F09C005F00AC006F0BF
:102508001200000E0A6E000E096E07500810D8B4AB
:1025180090EF12F092EF12F0BAEF12F0010E0B6E7C
:102528009AEF12F0D890073608360B2A08AE9FEFBC
:1025380012F0A1EF12F096EF12F0D89009360A3691
:102548000750055C08500658D8A0ADEF12F0AFEF61
:1025580012F0B4EF12F00750055E0850065A0980D1
:10256800D890083207320B2EA1EF12F009C005F0FF
:102578000AC006F01200D39E700ED312FC0ED316BA
:102588009B8EE00E9B16070E066E170E056E6A0EE2
:10259800E82EFED7052EFCD7062EFAD700D06D966A
:1025A8006F860B0E926E000E896EF18E000E936E82
:1025B800000E8A6EF00E946E000E8B6EC290CF0ED7
:1025C800C116C150F00B0E09C16EC08EC70EC016E1
:1025D800C050F80B0209C06ECF0EB116B192B1808F
:1025E800A082F28CF28E1200000E3F6E3F50040D56
:1025F800210EF324F66E5F0EF420F76E0900F5CF76
:1026080012F00900F5CF13F00900F5CF14F00A0015
:10261800F5CF15F04AEC11F03EEC15F0E806D8A419
:1026280018EF13F01AEF13F01CEF13F02FEF13F05D
:10263800640E056E000E066E000E076E000E086E24
:10264800E7EC16F03F2A020E3F642DEF13F02FEF50
:1026580013F0FAEF12F012000600D9CF03F0DACF28
:1026680004F0A0A23AEF13F03CEF13F051EF13F08F
:10267800A1A241EF13F043EF13F051EF13F0050E51
:102688000001B627000EB723B823B923ADEC17F025
:10269800160EB36E000EB26EA1929DAA56EF13F0FD
:1026A80058EF13F061EF13F09EAA5DEF13F05FEFA0
:1026B80013F061EF13F034EC14F004C0DAFF03C038
:1026C800D9FF57921100000E0D6E000E0E6E000E0F
:1026D8000F6E000E106E05A074EF13F076EF13F076
:1026E8007EEF13F009500D260A500E220B500F22D0
:1026F8000C501022D89009360A360B360C36D89072
:102708000832073206320532055006100710081045
:10271800D8A491EF13F093EF13F06FEF13F00DC0FF
:1027280005F00EC006F00FC007F010C008F0120048
:10273800000E116E000E106EA6EF13F00B4A0C2A55
:10274800104A112A0BC0D9FF0CC0DAFFDF50D8B4E9
:10275800B0EF13F0B2EF13F0CAEF13F00DC005F0AD
:102768000EC006F00BC0D9FF0CC0DAFFDF500F6EA9
:102778000F50076E086A8CEC11F005500610D8A4AB
:10278800C8EF13F0CAEF13F0A2EF13F010C00BF06C
:1027980011C00CF01200000E116E000E106ED9EF71
:1027A80013F00B4A0C2A104A112A0BC0D9FF0CC08F
:1027B800DAFFDF50D8B4E3EF13F0E5EF13F0FDEFE5
:1027C80013F00DC005F00EC006F00BC0D9FF0CC009
:1027D800DAFFDF500F6E0F50076E086A8CEC11F0AD
:1027E80005500610D8B4FBEF13F0FDEF13F0D5EF4A
:1027F80013F010C00BF011C00CF01200BA0EF66EF8
:102808002F0EF76E000EF86E00EEBEF010EE06F01A
:102818000900F5CFEEFFE550E150FAE1CA0EF66E79
:102828002F0EF76E000EF86E0900F5CF55F009006F
:10283800F5CF56F001EE00F0820EEE6AE806FDE1F3
:1028480000EE98F0260EEE6AE806FDE1546A536A37
:10285800526A57905792000EF86E0001ADEF16F0CD
:10286800AECF02F0ABA23BEF14F03DEF14F050EF07
:1028780014F0AB98AB8880A444EF14F048EF14F040
:10288800016A012A49EF14F0016A014601468050A5
:102898000118FB0B0118806E0101012B800E011934
:1028A800D8A459EF14F05BEF14F05DEF14F0000EAC
:1028B800016F020E0125D96EDA6A010EDA2202C012
:1028C800DFFF12006CEF14F0054A062A074A082AAF
:1028D80007C0F6FF08C0F7FF0800F5CF09F005C0EC
:1028E800D9FF06C0DAFFDF500A6E09500A5C0B6E8A
:1028F8000B50D8A482EF14F084EF14F090EF14F08A
:1029080005C0D9FF06C0DAFFDF50D8A48EEF14F057
:1029180090EF14F068EF14F00B50056E066A05BED0
:1029280006061200000E0E6E000E0D6E000E106EE2
:10293800000E0F6E8DEC15F005C011F006C012F0F8
:10294800B4EC15F005C013F006C014F045EC03F024
:102958001E501F10D8B4B3EF14F0B5EF14F0C3EF46
:1029680014F01EC00FF01FC010F0000E116E770E8D
:10297800126E010E136E000E146E57EC06F0120064
:102988000001BCA9CAEF14F0CCEF14F0D0EF14F09A
:1029980020EC17F00001BC99BCABD5EF14F0D7EFD1
:1029A80014F0DBEF14F066EC15F00001BC9BBCA73B
:1029B800E0EF14F0E2EF14F0EDEF14F0BCA3E7EF52
:1029C80014F0E9EF14F0EDEF14F0D6EC07F0000185
:1029D800BC97120005C009F006C00AF0F8EF14F021
:1029E800094A0A2A074A082A07C0F6FF08C0F7FF5B
:1029F800F86A09C0D9FF0AC0DAFF070EF76403D0E6
:102A08000800F55005D0F6CFE1FFF7CFE2FFE75019
:102A1800DF6EDF50D8A413EF15F015EF15F0F4EFC3
:102A280014F01200000E086E82AA1DEF15F01FEFB9
:102A380015F020EF15F0088282A825EF15F027EF92
:102A480015F028EF15F008800850D8B42EEF15F0CF
:102A580032EF15F0076A072A33EF15F0076A0746C1
:102A68000001BC510718FD0B0718BC6F08C005F022
:102A7800066A1200EE0E186E5F0E196E000E1B6EBF
:102A8800000E1A6E1F0E1C6E000E1D6E200E1E6E9E
:102A980007EC11F01F0E056E000E066EF60E076E9F
:102AA8005F0E086E66EC14F005500610D8A45FEFB0
:102AB80015F061EF15F064EF15F0010E65EF15F0F4
:102AC800000E120016EC15F00001BCA36EEF15F015
:102AD80070EF15F081EF15F0BCB575EF15F077EFD5
:102AE80015F07BEF15F0E9EC0FF00001BC85DDEC8B
:102AF8000BF018EC07F08CEF15F0BCA586EF15F07D
:102B080088EF15F08CEF15F08EEC16F00001BC95EF
:102B180012009BEF15F0000E066EEF0E056EB3EF78
:102B280015F0010E066E8F0E056EB3EF15F0E3EC8F
:102B380017F0000AD8B48FEF15F0010AD8B495EF52
:102B480015F0030AD8B48FEF15F0010AD8B495EF41
:102B580015F0AFEF15F0000E066E000E056E1200B0
:102B6800C2EF15F0010E066E8F0E056EDAEF15F046
:102B7800000E066EEF0E056EDAEF15F0E3EC17F0B7
:102B8800000AD8B4B6EF15F0010AD8B4BCEF15F0B6
:102B9800030AD8B4B6EF15F0010AD8B4BCEF15F0A3
:102BA800D6EF15F0000E066E000E056E120005C079
:102BB80007F006C008F0E3EF15F0074A082A07C037
:102BC800F6FF08C0F7FFF86A070EF76403D008009D
:102BD800F55005D0F6CFE1FFF7CFE2FFE750000947
:102BE800D8A4F9EF15F0FBEF15F0E1EF15F005505B
:102BF800075C056E06500858066E12000FC005F0F7
:102C080010C006F0C3EC10F00009D8A40EEF16F0BF
:102C180010EF16F013EF16F0000E27EF16F0010173
:102C2800002B800E0019D8A41CEF16F01EEF16F02A
:102C380020EF16F0000E006F020E0025D96EDA6A3A
:102C4800010EDA22DF501200AC9CAC8AAC98AC962C
:102C5800AC84AB8EAB9CAB88B886B892B890040EA7
:102C6800B06EE10EAF6E9D8A000E0101006F000E7E
:102C7800016F020E056E010E066E000E086E000E44
:102C8800076E000E0A6E800E096E04EC17F0120033
:102C9800829000F082920650096E05C00AF009C0C1
:102CA80081FF809A00F0808A0AC081FF809A00F034
:102CB800808A828208500B6E07C00CF00BC081FF1F
:102CC800809A00F0808A0CC081FF809A00F0808A88
:102CD8008280120084EF16F009C0F6FF0AC0F7FFE1
:102CE800F86A070EF76403D00800F55005D0F6CF50
:102CF800E1FFF7CFE2FFE750CCEC17F0094A0A2AC8
:102D08000B060B28D8A48BEF16F08DEF16F070EF9A
:102D180016F01200080E1F6E210E1E6E96EC14F0AF
:102D2800000E0001616F240E606F000E636F4B0E82
:102D3800626F6B0E646F5F0E656FFF0E676F66697B
:102D4800080E696F210E686F020E6A6F36EC10F07C
:102D58001200BFEC12F0080E246E210E236E030E33
:102D6800C1EC0CF028EC16F06EEC17F0000E4E6E6D
:102D7800C20E4F6E010E506E000E516ECAEC16F068
:102D8800D8EC17F0C4EF16F007EF00F0F8EC12F0EB
:102D98004EC04AF04FC04BF050C04CF051C04DF0FF
:102DA800E5EC0AF0870E186E5F0E196E000E1B6EAA
:102DB800000E1A6E000E1C6E000E1D6E000E1E6EAA
:102DC80007EC11F0120005500001B625096E0650F7
:102DD800B7210A6E0750B8210B6E0850B9210C6E46
:102DE8000950B65D0A50B7590B50B8590C50B9592B
:102DF800D8A001EF17F003EF17F0F4EF16F0120068
:102E080005C00BF006C00CF012EF17F00BC0D9FF8D
:102E18000CC0DAFF07C0DFFF0B4A0C2A0906D8A04E
:102E28000A06092806E10A28D8A41DEF17F01FEFA3
:102E380017F00AEF17F012000001BD51070B056EDD
:102E4800010E05642AEF17F02CEF17F02FEF17F09B
:102E5800BC8BF80EBD17EF0EAD6535EF17F037EFE9
:102E680017F03AEF17F0BC87000EAD6F120006BEE0
:102E780042EF17F040EF17F050EF17F005C007F0DA
:102E880006C008F0071E081E074A082A07C005F0F2
:102E980008C006F054EF17F005C005F006C006F0AC
:102EA8001200076E000E066E3A0E07605EEF17F00E
:102EB80060EF17F06AEF17F02F0E076466EF17F050
:102EC80068EF17F06AEF17F0010E066E06C005F0FE
:102ED8000530120016EC15F005500610D8A477EF4F
:102EE80017F079EF17F07DEF17F0E9EC0FF07FEFAF
:102EF80017F08EEC16F0000E0001A46F000EA96FFB
:102F0800AA8D1200226E030E22648DEF17F08FEF48
:102F180017F091EF17F0000E226E22C054F020C077
:102F28001EF021C01FF096EC14F0120009500B029D
:102F3800F3CF0DF0F4CF0EF009500C02F3500E262B
:102F48000A500B02F3500E260DC009F00EC00AF00D
:102F58001200010E016E0001BD51070B026E0150F7
:102F68000226BD510218F80B0218BD6FAD2BBC89A3
:102F78001200000E936E8280808A80888294200ED0
:102F8800056E2A0EE82EFED7052EFCD78284120085
:102F9800056E9EA8D2EF17F0D4EF17F0CDEF17F01B
:102FA80005C0ADFF00F01200C4EC14F078EC05F099
:102FB80012008F018F01EF0001C100F1120054507F
:042FC8001200EF0004
:10592C000000000000003E5B4F5B3E3E6B4F6B3E49
:10593C001C3E7C3E1C183C7E3C181C577D571C1C86
:10594C005E7F5E1C00183C1800FFE7C3E7FF0018E1
:10595C00241800FFE7DBE7FF30483A060E262979CA
:10596C002926407F050507407F05253F5A3CE73C2B
:10597C005A7F3E1C1C08081C1C3E7F14227F2214DC
:10598C005F5F005F5F06097F017F006689956A6033
:10599C006060606094A2FFA29408047E040810204A
:1059AC007E201008082A1C08081C2A08081E101043
:1059BC0010100C1E0C1E0C30383E3830060E3E0EED
:1059CC0006000000000000005F0000000700070058
:1059DC00147F147F14242A7F2A122313086462363E
:1059EC00495620500008070300001C2241000041CA
:1059FC00221C002A1C7F1C2A08083E080800807004
:105A0C003000080808080800006060002010080436
:105A1C00023E5149453E00427F4000724949494689
:105A2C002141494D331814127F1027454545393C07
:105A3C004A494931412111090736494949364649F4
:105A4C0049291E0000140000004034000000081416
:105A5C00224114141414140041221408020159098F
:105A6C00063E415D594E7C1211127C7F49494936E4
:105A7C003E414141227F4141413E7F494949417F5D
:105A8C00090909013E414151737F0808087F004113
:105A9C007F41002040413F017F081422417F40405C
:105AAC0040407F021C027F7F0408107F3E41414131
:105ABC003E7F090909063E4151215E7F091929469D
:105ACC00264949493203017F01033F4040403F1FB3
:105ADC002040201F3F4038403F63140814630304E8
:105AEC007804036159494D43007F41414102040848
:105AFC001020004141417F0402010204404040401B
:105B0C0040000307080020545478407F2844443850
:105B1C003844444428384444287F3854545418009A
:105B2C00087E090218A4A49C787F08040478004419
:105B3C007D40002040403D007F1028440000417F04
:105B4C0040007C047804787C08040478384444448D
:105B5C0038FC1824241818242418FC7C0804040885
:105B6C00485454542404043F44243C4040207C1C9E
:105B7C002040201C3C4030403C44281028444C9091
:105B8C0090907C4464544C440008364100000077EB
:105B9C000000004136080002010204023C262326C4
:105BAC003C1EA1A161123A4040207A3854545559F8
:105BBC00215555794122545478422155547840202E
:105BCC00545579400C1E5272123955555559395449
:105BDC0054545939555454580000457C41000245E1
:105BEC007D420001457C407D1211127DF028252854
:105BFC00F07C545545002054547C547C0A097F4950
:105C0C0032494949323A4444443A324A4848303A93
:105C1C004141217A3A42402078009DA0A07D3D422E
:105C2C0042423D3D4040403D3C24FF2424487E49B7
:105C3C0043662B2FFC2F2BFF0929F620C0887E09E9
:105C4C000320545479410000447D413048484A3285
:105C5C00384040227A007A0A0A727D0D19317D266D
:105C6C0029292F28262929292630484D4020380853
:105C7C0008080808080808382F10C8ACBA2F1028D4
:105C8C0034FA00007B000008142A142222142A146F
:105C9C00085500550055AA55AA55AAFF55FF55FFA2
:105CAC00000000FF00101010FF00141414FF00106F
:105CBC0010FF00FF1010F010F0141414FC0014145A
:105CCC00F700FF0000FF00FF1414F404FC14141779
:105CDC00101F10101F101F1414141F00101010F0A0
:105CEC00000000001F101010101F10101010F010EA
:105CFC00000000FF101010101010101010FF1000FA
:105D0C000000FF140000FF00FF00001F1017000030
:105D1C00FC04F414141710171414F404F40000FF0A
:105D2C0000F714141414141414F700F714141417A3
:105D3C001410101F101F141414F4141010F010F081
:105D4C0000001F101F0000001F14000000FC1400B6
:105D5C0000F010F01010FF10FF141414FF141010AA
:105D6C00101F00000000F010FFFFFFFFFFF0F0F02D
:105D7C00F0F0FFFFFF0000000000FFFF0F0F0F0F00
:105D8C000F3844443844FC4A4A4A347E0202060620
:105D9C00027E027E0263554941633844443C044010
:105DAC007E201E2006027E020299A5E7A5991C2AD8
:105DBC00492A1C4C7201724C304A4D4D3030487897
:105DCC004830BC625A463D3E494949007E010101BA
:105DDC007E2A2A2A2A2A44445F444440514A444099
:105DEC0040444A51400000FF0103E080FF000008DE
:105DFC00086B6B083612362436060F090F060000A6
:105E0C0018180000001010003040FF0101001F01A5
:105E1C00011E00191D1712003C3C3C3C0000000008
:105E2C000002070830050736000B071312010000AB
:105E3C0001020000010300301008000202090000FA
:105E4C00000C0000000F0000000001000002010027
:105E5C000003010000FFFF01000001901101012768
:105E6C0002FFFF01000201BD01FFFF010003010061
:105E7C002D81020E00FFFF01000002000001020054
:105E8C0000000300000103070702030606050300D8
:105E9C00000603000D0703060708030500090307A6
:105EAC00000C0300000D030A00100200001102EFA9
:105EBC00001202000013028F0100040031010401E2
:105ECC0000040400000005000001050000020500AC
:105EDC00000305000004050000050500001000107B
:105EEC0000110000062000020007007301010000F1
:105EFC00000A00000064000000E803000010270006
:105F0C0000A086010040420F008096980000E1F549
:105F1C000500CA9A3B8025000000E1000000C20188
:105F2C00001414000000000000F8F001FCF903FC60
:105F3C00FF03FEFF07FEFF07FEFF07FEFF07FCFF48
:105F4C0003FCFF03F8FF01F0FF00E07F00C03F00FF
:105F5C00801F00000F000006000000000000002A57
:105F6C002A2A20436F6C6C656761726520656C65CD
:105F7C007474726F6469202A2A2A0041542B434F8F
:105F8C0050533D332C300D0041542B4950523D257C
:105F9C006C750D004672657175656E7A613A0041DB
:105FAC00542B435245473F0D0041542B434F505304
:105FBC003F0D0041542B4950523F0D0041542B438F
:105FCC0053510D002B435245473A20002B434F5061
:105FDC00533A20002B4353513A20002B4950523A4C
:105FEC00200041540D00253364004F4B0022002C3F
:045FFC00002D000074
:020000040020DA
:08000000FFFFFFFFFFFFFFFF00
:020000040030CA
:0E000000200E011EFF0180FF0FC00FE00F4019
:00000001FF
